{
  "address": "0x5FbDB2315678afecb367f032d93F642f64180aa3",
  "abi": [
    {
      "inputs": [],
      "stateMutability": "nonpayable",
      "type": "constructor"
    },
    {
      "anonymous": false,
      "inputs": [
        {
          "indexed": true,
          "internalType": "address",
          "name": "account",
          "type": "address"
        },
        {
          "indexed": true,
          "internalType": "address",
          "name": "operator",
          "type": "address"
        },
        {
          "indexed": false,
          "internalType": "bool",
          "name": "approved",
          "type": "bool"
        }
      ],
      "name": "ApprovalForAll",
      "type": "event"
    },
    {
      "anonymous": false,
      "inputs": [
        {
          "indexed": true,
          "internalType": "address",
          "name": "previousOwner",
          "type": "address"
        },
        {
          "indexed": true,
          "internalType": "address",
          "name": "newOwner",
          "type": "address"
        }
      ],
      "name": "OwnershipTransferred",
      "type": "event"
    },
    {
      "anonymous": false,
      "inputs": [
        {
          "indexed": true,
          "internalType": "address",
          "name": "account",
          "type": "address"
        },
        {
          "indexed": true,
          "internalType": "uint256",
          "name": "area",
          "type": "uint256"
        },
        {
          "indexed": true,
          "internalType": "bool",
          "name": "added",
          "type": "bool"
        },
        {
          "indexed": false,
          "internalType": "string",
          "name": "name",
          "type": "string"
        }
      ],
      "name": "Registry",
      "type": "event"
    },
    {
      "anonymous": false,
      "inputs": [
        {
          "indexed": true,
          "internalType": "address",
          "name": "operator",
          "type": "address"
        },
        {
          "indexed": true,
          "internalType": "address",
          "name": "from",
          "type": "address"
        },
        {
          "indexed": true,
          "internalType": "address",
          "name": "to",
          "type": "address"
        },
        {
          "indexed": false,
          "internalType": "uint256[]",
          "name": "ids",
          "type": "uint256[]"
        },
        {
          "indexed": false,
          "internalType": "uint256[]",
          "name": "values",
          "type": "uint256[]"
        }
      ],
      "name": "TransferBatch",
      "type": "event"
    },
    {
      "anonymous": false,
      "inputs": [
        {
          "indexed": true,
          "internalType": "address",
          "name": "operator",
          "type": "address"
        },
        {
          "indexed": true,
          "internalType": "address",
          "name": "from",
          "type": "address"
        },
        {
          "indexed": true,
          "internalType": "address",
          "name": "to",
          "type": "address"
        },
        {
          "indexed": false,
          "internalType": "uint256",
          "name": "id",
          "type": "uint256"
        },
        {
          "indexed": false,
          "internalType": "uint256",
          "name": "value",
          "type": "uint256"
        }
      ],
      "name": "TransferSingle",
      "type": "event"
    },
    {
      "anonymous": false,
      "inputs": [
        {
          "indexed": false,
          "internalType": "string",
          "name": "value",
          "type": "string"
        },
        {
          "indexed": true,
          "internalType": "uint256",
          "name": "id",
          "type": "uint256"
        }
      ],
      "name": "URI",
      "type": "event"
    },
    {
      "inputs": [
        {
          "internalType": "uint256",
          "name": "",
          "type": "uint256"
        }
      ],
      "name": "AREAS",
      "outputs": [
        {
          "internalType": "uint256",
          "name": "",
          "type": "uint256"
        }
      ],
      "stateMutability": "view",
      "type": "function"
    },
    {
      "inputs": [],
      "name": "EDUCACAO",
      "outputs": [
        {
          "internalType": "uint256",
          "name": "",
          "type": "uint256"
        }
      ],
      "stateMutability": "view",
      "type": "function"
    },
    {
      "inputs": [],
      "name": "INFRA",
      "outputs": [
        {
          "internalType": "uint256",
          "name": "",
          "type": "uint256"
        }
      ],
      "stateMutability": "view",
      "type": "function"
    },
    {
      "inputs": [],
      "name": "OUTROS",
      "outputs": [
        {
          "internalType": "uint256",
          "name": "",
          "type": "uint256"
        }
      ],
      "stateMutability": "view",
      "type": "function"
    },
    {
      "inputs": [],
      "name": "SAUDE",
      "outputs": [
        {
          "internalType": "uint256",
          "name": "",
          "type": "uint256"
        }
      ],
      "stateMutability": "view",
      "type": "function"
    },
    {
      "inputs": [
        {
          "internalType": "address",
          "name": "org",
          "type": "address"
        },
        {
          "internalType": "uint256",
          "name": "area",
          "type": "uint256"
        }
      ],
      "name": "addArea",
      "outputs": [],
      "stateMutability": "nonpayable",
      "type": "function"
    },
    {
      "inputs": [
        {
          "internalType": "address",
          "name": "org",
          "type": "address"
        },
        {
          "internalType": "uint256",
          "name": "area",
          "type": "uint256"
        },
        {
          "internalType": "string",
          "name": "name",
          "type": "string"
        }
      ],
      "name": "addOrg",
      "outputs": [],
      "stateMutability": "nonpayable",
      "type": "function"
    },
    {
      "inputs": [
        {
          "internalType": "address",
          "name": "account",
          "type": "address"
        },
        {
          "internalType": "uint256",
          "name": "id",
          "type": "uint256"
        }
      ],
      "name": "balanceOf",
      "outputs": [
        {
          "internalType": "uint256",
          "name": "",
          "type": "uint256"
        }
      ],
      "stateMutability": "view",
      "type": "function"
    },
    {
      "inputs": [
        {
          "internalType": "address[]",
          "name": "accounts",
          "type": "address[]"
        },
        {
          "internalType": "uint256[]",
          "name": "ids",
          "type": "uint256[]"
        }
      ],
      "name": "balanceOfBatch",
      "outputs": [
        {
          "internalType": "uint256[]",
          "name": "",
          "type": "uint256[]"
        }
      ],
      "stateMutability": "view",
      "type": "function"
    },
    {
      "inputs": [
        {
          "internalType": "address",
          "name": "from",
          "type": "address"
        },
        {
          "internalType": "uint256",
          "name": "area",
          "type": "uint256"
        },
        {
          "internalType": "uint256",
          "name": "amount",
          "type": "uint256"
        }
      ],
      "name": "burn",
      "outputs": [],
      "stateMutability": "nonpayable",
      "type": "function"
    },
    {
      "inputs": [
        {
          "internalType": "string",
          "name": "name",
          "type": "string"
        }
      ],
      "name": "getAddress",
      "outputs": [
        {
          "internalType": "address",
          "name": "",
          "type": "address"
        }
      ],
      "stateMutability": "view",
      "type": "function"
    },
    {
      "inputs": [
        {
          "internalType": "address",
          "name": "org",
          "type": "address"
        }
      ],
      "name": "getAreas",
      "outputs": [
        {
          "internalType": "uint256[]",
          "name": "",
          "type": "uint256[]"
        }
      ],
      "stateMutability": "view",
      "type": "function"
    },
    {
      "inputs": [],
      "name": "getInitialBudget",
      "outputs": [
        {
          "internalType": "uint256[]",
          "name": "",
          "type": "uint256[]"
        }
      ],
      "stateMutability": "view",
      "type": "function"
    },
    {
      "inputs": [
        {
          "internalType": "address",
          "name": "org",
          "type": "address"
        }
      ],
      "name": "getName",
      "outputs": [
        {
          "internalType": "string",
          "name": "",
          "type": "string"
        }
      ],
      "stateMutability": "view",
      "type": "function"
    },
    {
      "inputs": [],
      "name": "getTotalBurned",
      "outputs": [
        {
          "internalType": "uint256[]",
          "name": "",
          "type": "uint256[]"
        }
      ],
      "stateMutability": "view",
      "type": "function"
    },
    {
      "inputs": [],
      "name": "getTotalMinted",
      "outputs": [
        {
          "internalType": "uint256[]",
          "name": "",
          "type": "uint256[]"
        }
      ],
      "stateMutability": "view",
      "type": "function"
    },
    {
      "inputs": [
        {
          "internalType": "address",
          "name": "account",
          "type": "address"
        },
        {
          "internalType": "address",
          "name": "operator",
          "type": "address"
        }
      ],
      "name": "isApprovedForAll",
      "outputs": [
        {
          "internalType": "bool",
          "name": "",
          "type": "bool"
        }
      ],
      "stateMutability": "view",
      "type": "function"
    },
    {
      "inputs": [
        {
          "internalType": "address",
          "name": "to",
          "type": "address"
        },
        {
          "internalType": "uint256",
          "name": "area",
          "type": "uint256"
        },
        {
          "internalType": "uint256",
          "name": "amount",
          "type": "uint256"
        }
      ],
      "name": "mint",
      "outputs": [],
      "stateMutability": "nonpayable",
      "type": "function"
    },
    {
      "inputs": [],
      "name": "owner",
      "outputs": [
        {
          "internalType": "address",
          "name": "",
          "type": "address"
        }
      ],
      "stateMutability": "view",
      "type": "function"
    },
    {
      "inputs": [],
      "name": "renounceOwnership",
      "outputs": [],
      "stateMutability": "nonpayable",
      "type": "function"
    },
    {
      "inputs": [
        {
          "internalType": "address",
          "name": "from",
          "type": "address"
        },
        {
          "internalType": "address",
          "name": "to",
          "type": "address"
        },
        {
          "internalType": "uint256[]",
          "name": "areas",
          "type": "uint256[]"
        },
        {
          "internalType": "uint256[]",
          "name": "amounts",
          "type": "uint256[]"
        },
        {
          "internalType": "bytes",
          "name": "data",
          "type": "bytes"
        }
      ],
      "name": "safeBatchTransferFrom",
      "outputs": [],
      "stateMutability": "nonpayable",
      "type": "function"
    },
    {
      "inputs": [
        {
          "internalType": "address",
          "name": "from",
          "type": "address"
        },
        {
          "internalType": "address",
          "name": "to",
          "type": "address"
        },
        {
          "internalType": "uint256",
          "name": "area",
          "type": "uint256"
        },
        {
          "internalType": "uint256",
          "name": "amount",
          "type": "uint256"
        },
        {
          "internalType": "bytes",
          "name": "data",
          "type": "bytes"
        }
      ],
      "name": "safeTransferFrom",
      "outputs": [],
      "stateMutability": "nonpayable",
      "type": "function"
    },
    {
      "inputs": [
        {
          "internalType": "address",
          "name": "operator",
          "type": "address"
        },
        {
          "internalType": "bool",
          "name": "approved",
          "type": "bool"
        }
      ],
      "name": "setApprovalForAll",
      "outputs": [],
      "stateMutability": "nonpayable",
      "type": "function"
    },
    {
      "inputs": [
        {
          "internalType": "address",
          "name": "org",
          "type": "address"
        },
        {
          "internalType": "uint256",
          "name": "area",
          "type": "uint256"
        }
      ],
      "name": "subArea",
      "outputs": [],
      "stateMutability": "nonpayable",
      "type": "function"
    },
    {
      "inputs": [
        {
          "internalType": "address",
          "name": "org",
          "type": "address"
        }
      ],
      "name": "subOrg",
      "outputs": [],
      "stateMutability": "nonpayable",
      "type": "function"
    },
    {
      "inputs": [
        {
          "internalType": "bytes4",
          "name": "interfaceId",
          "type": "bytes4"
        }
      ],
      "name": "supportsInterface",
      "outputs": [
        {
          "internalType": "bool",
          "name": "",
          "type": "bool"
        }
      ],
      "stateMutability": "view",
      "type": "function"
    },
    {
      "inputs": [
        {
          "internalType": "address",
          "name": "newOwner",
          "type": "address"
        }
      ],
      "name": "transferOwnership",
      "outputs": [],
      "stateMutability": "nonpayable",
      "type": "function"
    },
    {
      "inputs": [
        {
          "internalType": "uint256",
          "name": "",
          "type": "uint256"
        }
      ],
      "name": "uri",
      "outputs": [
        {
          "internalType": "string",
          "name": "",
          "type": "string"
        }
      ],
      "stateMutability": "view",
      "type": "function"
    }
  ],
  "transactionHash": "0xa1a7544322f70cf0fb168b811ec56968d734473f490157c7a5a230bb353c69c9",
  "args": [],
  "numDeployments": 1,
  "solcInputHash": "d46f3b3a8f3b1e4ae3b51ec0a8500b70",
  "bytecode": "0x608060405260006009556001600a556002600b556003600c5560405180608001604052806009548152602001600a548152602001600b548152602001600c54815250600d90600462000053929190620008ae565b5064e8d4a51000600e556005600f55600a6010556005601155601054600f546011546064620000839190620009e9565b6200008f9190620009e9565b6200009b9190620009e9565b60125560405180608001604052806012548152602001600f54815260200160105481526020016011548152506013906004620000d9929190620008ae565b50348015620000e757600080fd5b506040518060600160405280603e815260200162005d9b603e913962000113816200032e60201b60201c565b5062000134620001286200034a60201b60201c565b6200035260201b60201c565b6200017833600c546064601154600e5462000150919062000a24565b6200015c919062000ab4565b604051806020016040528060008152506200041860201b60201c565b620001bc33600a546064600f54600e5462000194919062000a24565b620001a0919062000ab4565b604051806020016040528060008152506200041860201b60201c565b6200020033600b546064601054600e54620001d8919062000a24565b620001e4919062000ab4565b604051806020016040528060008152506200041860201b60201c565b62000244336009546064601254600e546200021c919062000a24565b62000228919062000ab4565b604051806020016040528060008152506200041860201b60201c565b6064601154600e5462000258919062000a24565b62000264919062000ab4565b60076000600c548152602001908152602001600020819055506064600f54600e5462000291919062000a24565b6200029d919062000ab4565b60076000600a548152602001908152602001600020819055506064601054600e54620002ca919062000a24565b620002d6919062000ab4565b60076000600b548152602001908152602001600020819055506064601254600e5462000303919062000a24565b6200030f919062000ab4565b6007600060095481526020019081526020016000208190555062001188565b80600290805190602001906200034692919062000900565b5050565b600033905090565b6000600360009054906101000a900473ffffffffffffffffffffffffffffffffffffffff16905081600360006101000a81548173ffffffffffffffffffffffffffffffffffffffff021916908373ffffffffffffffffffffffffffffffffffffffff1602179055508173ffffffffffffffffffffffffffffffffffffffff168173ffffffffffffffffffffffffffffffffffffffff167f8be0079c531659141344cd1fd0a4f28419497f9722a3daafe3b4186f6b6457e060405160405180910390a35050565b600073ffffffffffffffffffffffffffffffffffffffff168473ffffffffffffffffffffffffffffffffffffffff1614156200048b576040517f08c379a0000000000000000000000000000000000000000000000000000000008152600401620004829062000b73565b60405180910390fd5b60006200049d6200034a60201b60201c565b90506000620004b2856200060060201b60201c565b90506000620004c7856200060060201b60201c565b9050620004e0836000898585896200068160201b60201c565b8460008088815260200190815260200160002060008973ffffffffffffffffffffffffffffffffffffffff1673ffffffffffffffffffffffffffffffffffffffff168152602001908152602001600020600082825462000541919062000b95565b925050819055508673ffffffffffffffffffffffffffffffffffffffff16600073ffffffffffffffffffffffffffffffffffffffff168473ffffffffffffffffffffffffffffffffffffffff167fc3d58168c5ae7397731d063d5bbf3d657854427343f4c083240f7aacaa2d0f628989604051620005c192919062000c03565b60405180910390a4620005e0836000898585896200068960201b60201c565b620005f7836000898989896200069160201b60201c565b50505050505050565b60606000600167ffffffffffffffff81111562000622576200062162000c30565b5b604051908082528060200260200182016040528015620006515781602001602082028036833780820191505090505b50905082816000815181106200066c576200066b62000c5f565b5b60200260200101818152505080915050919050565b505050505050565b505050505050565b620006bd8473ffffffffffffffffffffffffffffffffffffffff166200088b60201b62001b641760201c565b1562000883578373ffffffffffffffffffffffffffffffffffffffff1663f23a6e6187878686866040518663ffffffff1660e01b81526004016200070695949392919062000d77565b6020604051808303816000875af19250505080156200074557506040513d601f19601f8201168201806040525081019062000742919062000e47565b60015b620007f7576200075462000e86565b806308c379a01415620007b857506200076c62000ee1565b80620007795750620007ba565b806040517f08c379a0000000000000000000000000000000000000000000000000000000008152600401620007af919062000fcf565b60405180910390fd5b505b6040517f08c379a0000000000000000000000000000000000000000000000000000000008152600401620007ee9062001069565b60405180910390fd5b63f23a6e6160e01b7bffffffffffffffffffffffffffffffffffffffffffffffffffffffff1916817bffffffffffffffffffffffffffffffffffffffffffffffffffffffff19161462000881576040517f08c379a0000000000000000000000000000000000000000000000000000000008152600401620008789062001101565b60405180910390fd5b505b505050505050565b6000808273ffffffffffffffffffffffffffffffffffffffff163b119050919050565b828054828255906000526020600020908101928215620008ed579160200282015b82811115620008ec578251825591602001919060010190620008cf565b5b509050620008fc919062000991565b5090565b8280546200090e9062001152565b90600052602060002090601f0160209004810192826200093257600085556200097e565b82601f106200094d57805160ff19168380011785556200097e565b828001600101855582156200097e579182015b828111156200097d57825182559160200191906001019062000960565b5b5090506200098d919062000991565b5090565b5b80821115620009ac57600081600090555060010162000992565b5090565b6000819050919050565b7f4e487b7100000000000000000000000000000000000000000000000000000000600052601160045260246000fd5b6000620009f682620009b0565b915062000a0383620009b0565b92508282101562000a195762000a18620009ba565b5b828203905092915050565b600062000a3182620009b0565b915062000a3e83620009b0565b9250817fffffffffffffffffffffffffffffffffffffffffffffffffffffffffffffffff048311821515161562000a7a5762000a79620009ba565b5b828202905092915050565b7f4e487b7100000000000000000000000000000000000000000000000000000000600052601260045260246000fd5b600062000ac182620009b0565b915062000ace83620009b0565b92508262000ae15762000ae062000a85565b5b828204905092915050565b600082825260208201905092915050565b7f455243313135353a206d696e7420746f20746865207a65726f2061646472657360008201527f7300000000000000000000000000000000000000000000000000000000000000602082015250565b600062000b5b60218362000aec565b915062000b688262000afd565b604082019050919050565b6000602082019050818103600083015262000b8e8162000b4c565b9050919050565b600062000ba282620009b0565b915062000baf83620009b0565b9250827fffffffffffffffffffffffffffffffffffffffffffffffffffffffffffffffff0382111562000be75762000be6620009ba565b5b828201905092915050565b62000bfd81620009b0565b82525050565b600060408201905062000c1a600083018562000bf2565b62000c29602083018462000bf2565b9392505050565b7f4e487b7100000000000000000000000000000000000000000000000000000000600052604160045260246000fd5b7f4e487b7100000000000000000000000000000000000000000000000000000000600052603260045260246000fd5b600073ffffffffffffffffffffffffffffffffffffffff82169050919050565b600062000cbb8262000c8e565b9050919050565b62000ccd8162000cae565b82525050565b600081519050919050565b600082825260208201905092915050565b60005b8381101562000d0f57808201518184015260208101905062000cf2565b8381111562000d1f576000848401525b50505050565b6000601f19601f8301169050919050565b600062000d438262000cd3565b62000d4f818562000cde565b935062000d6181856020860162000cef565b62000d6c8162000d25565b840191505092915050565b600060a08201905062000d8e600083018862000cc2565b62000d9d602083018762000cc2565b62000dac604083018662000bf2565b62000dbb606083018562000bf2565b818103608083015262000dcf818462000d36565b90509695505050505050565b6000604051905090565b600080fd5b60007fffffffff0000000000000000000000000000000000000000000000000000000082169050919050565b62000e218162000dea565b811462000e2d57600080fd5b50565b60008151905062000e418162000e16565b92915050565b60006020828403121562000e605762000e5f62000de5565b5b600062000e708482850162000e30565b91505092915050565b60008160e01c9050919050565b600060033d111562000ea85760046000803e62000ea560005162000e79565b90505b90565b62000eb68262000d25565b810181811067ffffffffffffffff8211171562000ed85762000ed762000c30565b5b80604052505050565b600060443d101562000ef35762000f80565b62000efd62000ddb565b60043d036004823e80513d602482011167ffffffffffffffff8211171562000f2757505062000f80565b808201805167ffffffffffffffff81111562000f47575050505062000f80565b80602083010160043d03850181111562000f6657505050505062000f80565b62000f778260200185018662000eab565b82955050505050505b90565b600081519050919050565b600062000f9b8262000f83565b62000fa7818562000aec565b935062000fb981856020860162000cef565b62000fc48162000d25565b840191505092915050565b6000602082019050818103600083015262000feb818462000f8e565b905092915050565b7f455243313135353a207472616e7366657220746f206e6f6e2d4552433131353560008201527f526563656976657220696d706c656d656e746572000000000000000000000000602082015250565b60006200105160348362000aec565b91506200105e8262000ff3565b604082019050919050565b60006020820190508181036000830152620010848162001042565b9050919050565b7f455243313135353a204552433131353552656365697665722072656a6563746560008201527f6420746f6b656e73000000000000000000000000000000000000000000000000602082015250565b6000620010e960288362000aec565b9150620010f6826200108b565b604082019050919050565b600060208201905081810360008301526200111c81620010da565b9050919050565b7f4e487b7100000000000000000000000000000000000000000000000000000000600052602260045260246000fd5b600060028204905060018216806200116b57607f821691505b6020821081141562001182576200118162001123565b5b50919050565b614c0380620011986000396000f3fe608060405234801561001057600080fd5b50600436106101c35760003560e01c8063715018a6116100f9578063cdda771511610097578063f242432a11610071578063f242432a14610518578063f2fde38b14610534578063f5298aca14610550578063f84f7dd01461056c576101c3565b8063cdda7715146104ac578063db401541146104ca578063e985e9c5146104e8576101c3565b80638da5cb5b116100d35780638da5cb5b14610424578063a22cb46514610442578063b55cd04b1461045e578063bf40fac11461047c576101c3565b8063715018a6146103ce5780637f14ba3f146103d85780637f7063e7146103f4576101c3565b80631ef16b43116101665780632eb2c2d6116101405780632eb2c2d6146103365780634e1273f4146103525780635fd4b08a1461038257806361ae0309146103b2576101c3565b80631ef16b43146102ca57806321636aa5146102e857806328eece1314610306576101c3565b80630ca1c5c9116101a25780630ca1c5c9146102445780630e89341c14610262578063156e29f614610292578063169bc486146102ae576101c3565b8062fdd58e146101c857806301ffc9a7146101f85780630c89c42114610228575b600080fd5b6101e260048036038101906101dd9190613001565b61058a565b6040516101ef9190613050565b60405180910390f35b610212600480360381019061020d91906130c3565b610653565b60405161021f919061310b565b60405180910390f35b610242600480360381019061023d9190613126565b610735565b005b61024c61096f565b6040516102599190613211565b60405180910390f35b61027c60048036038101906102779190613233565b610a21565b60405161028991906132f9565b60405180910390f35b6102ac60048036038101906102a7919061331b565b610ab5565b005b6102c860048036038101906102c39190613001565b610bd3565b005b6102d2610dc5565b6040516102df9190613050565b60405180910390f35b6102f0610dcb565b6040516102fd9190613050565b60405180910390f35b610320600480360381019061031b9190613126565b610dd1565b60405161032d9190613211565b60405180910390f35b610350600480360381019061034b919061356b565b610f9c565b005b61036c600480360381019061036791906136fd565b61108e565b6040516103799190613211565b60405180910390f35b61039c60048036038101906103979190613126565b6111a7565b6040516103a991906132f9565b60405180910390f35b6103cc60048036038101906103c79190613816565b611278565b005b6103d66114a5565b005b6103f260048036038101906103ed9190613001565b6114b9565b005b61040e60048036038101906104099190613233565b611647565b60405161041b9190613050565b60405180910390f35b61042c61166b565b6040516104399190613894565b60405180910390f35b61045c600480360381019061045791906138db565b611695565b005b6104666116ab565b6040516104739190613211565b60405180910390f35b6104966004803603810190610491919061391b565b61175d565b6040516104a39190613894565b60405180910390f35b6104b46117a5565b6040516104c19190613211565b60405180910390f35b6104d26118a0565b6040516104df9190613050565b60405180910390f35b61050260048036038101906104fd9190613964565b6118a6565b60405161050f919061310b565b60405180910390f35b610532600480360381019061052d91906139a4565b61193a565b005b61054e60048036038101906105499190613126565b6119f2565b005b61056a6004803603810190610565919061331b565b611a76565b005b610574611b5e565b6040516105819190613050565b60405180910390f35b60008073ffffffffffffffffffffffffffffffffffffffff168373ffffffffffffffffffffffffffffffffffffffff1614156105fb576040517f08c379a00000000000000000000000000000000000000000000000000000000081526004016105f290613aad565b60405180910390fd5b60008083815260200190815260200160002060008473ffffffffffffffffffffffffffffffffffffffff1673ffffffffffffffffffffffffffffffffffffffff16815260200190815260200160002054905092915050565b60007fd9b67a26000000000000000000000000000000000000000000000000000000007bffffffffffffffffffffffffffffffffffffffffffffffffffffffff1916827bffffffffffffffffffffffffffffffffffffffffffffffffffffffff1916148061071e57507f0e89341c000000000000000000000000000000000000000000000000000000007bffffffffffffffffffffffffffffffffffffffffffffffffffffffff1916827bffffffffffffffffffffffffffffffffffffffffffffffffffffffff1916145b8061072e575061072d82611b87565b5b9050919050565b61073d611bf1565b60011515600460008373ffffffffffffffffffffffffffffffffffffffff1673ffffffffffffffffffffffffffffffffffffffff1681526020019081526020016000206000600954815260200190815260200160002060009054906101000a900460ff161515146107e3576040517f08c379a00000000000000000000000000000000000000000000000000000000081526004016107da90613b19565b60405180910390fd5b60006107ee82610dd1565b905060005b81518110156109695760001515600460008573ffffffffffffffffffffffffffffffffffffffff1673ffffffffffffffffffffffffffffffffffffffff168152602001908152602001600020600084848151811061085457610853613b39565b5b6020026020010151815260200190815260200160002060009054906101000a900460ff161515141561088757505061096c565b6000151582828151811061089e5761089d613b39565b5b60200260200101518473ffffffffffffffffffffffffffffffffffffffff167fb8ab71d168de2395481e4653bcaf8113b8d414ee4f783094c4a67ec50b060f28600560008873ffffffffffffffffffffffffffffffffffffffff1673ffffffffffffffffffffffffffffffffffffffff16815260200190815260200160002060405161092a9190613c5e565b60405180910390a46109568383838151811061094957610948613b39565b5b6020026020010151611c6f565b808061096190613caf565b9150506107f3565b50505b50565b60606000600d8054905067ffffffffffffffff81111561099257610991613373565b5b6040519080825280602002602001820160405280156109c05781602001602082028036833780820191505090505b50905060005b600d80549050811015610a195760076000828152602001908152602001600020548282815181106109fa576109f9613b39565b5b6020026020010181815250508080610a1190613caf565b9150506109c6565b508091505090565b606060028054610a3090613b97565b80601f0160208091040260200160405190810160405280929190818152602001828054610a5c90613b97565b8015610aa95780601f10610a7e57610100808354040283529160200191610aa9565b820191906000526020600020905b815481529060010190602001808311610a8c57829003601f168201915b50505050509050919050565b610abd611bf1565b60011515600460008573ffffffffffffffffffffffffffffffffffffffff1673ffffffffffffffffffffffffffffffffffffffff1681526020019081526020016000206000600954815260200190815260200160002060009054906101000a900460ff16151514610b63576040517f08c379a0000000000000000000000000000000000000000000000000000000008152600401610b5a90613d44565b60405180910390fd5b80600760008481526020019081526020016000206000828254610b869190613d64565b92505081905550610bce8383836040518060400160405280600481526020017f3078303000000000000000000000000000000000000000000000000000000000815250611cdc565b505050565b610bdb611bf1565b60011515600460008473ffffffffffffffffffffffffffffffffffffffff1673ffffffffffffffffffffffffffffffffffffffff1681526020019081526020016000206000600954815260200190815260200160002060009054906101000a900460ff16151514610c81576040517f08c379a0000000000000000000000000000000000000000000000000000000008152600401610c7890613e06565b60405180910390fd5b60011515600460008473ffffffffffffffffffffffffffffffffffffffff1673ffffffffffffffffffffffffffffffffffffffff168152602001908152602001600020600083815260200190815260200160002060009054906101000a900460ff1615151415610d26576040517f08c379a0000000000000000000000000000000000000000000000000000000008152600401610d1d90613e98565b60405180910390fd5b60011515818373ffffffffffffffffffffffffffffffffffffffff167fb8ab71d168de2395481e4653bcaf8113b8d414ee4f783094c4a67ec50b060f28600560008773ffffffffffffffffffffffffffffffffffffffff1673ffffffffffffffffffffffffffffffffffffffff168152602001908152602001600020604051610daf9190613c5e565b60405180910390a4610dc18282611e8d565b5050565b600b5481565b60095481565b606060011515600460008473ffffffffffffffffffffffffffffffffffffffff1673ffffffffffffffffffffffffffffffffffffffff1681526020019081526020016000206000600954815260200190815260200160002060009054906101000a900460ff16151514610e79576040517f08c379a0000000000000000000000000000000000000000000000000000000008152600401610e7090613d44565b60405180910390fd5b6000600d8054905067ffffffffffffffff811115610e9a57610e99613373565b5b604051908082528060200260200182016040528015610ec85781602001602082028036833780820191505090505b5090506000600190506000600190505b600d80549050811015610f915760011515600460008773ffffffffffffffffffffffffffffffffffffffff1673ffffffffffffffffffffffffffffffffffffffff168152602001908152602001600020600083815260200190815260200160002060009054906101000a900460ff1615151415610f7e5780838381518110610f6357610f62613b39565b5b6020026020010181815250508180610f7a90613caf565b9250505b8080610f8990613caf565b915050610ed8565b508192505050919050565b60005b83518110156110795760011515600460008773ffffffffffffffffffffffffffffffffffffffff1673ffffffffffffffffffffffffffffffffffffffff168152602001908152602001600020600086848151811061100057610fff613b39565b5b6020026020010151815260200190815260200160002060009054906101000a900460ff16151514611066576040517f08c379a000000000000000000000000000000000000000000000000000000000815260040161105d90613f50565b60405180910390fd5b808061107190613caf565b915050610f9f565b506110878585858585611efa565b5050505050565b606081518351146110d4576040517f08c379a00000000000000000000000000000000000000000000000000000000081526004016110cb90613fe2565b60405180910390fd5b6000835167ffffffffffffffff8111156110f1576110f0613373565b5b60405190808252806020026020018201604052801561111f5781602001602082028036833780820191505090505b50905060005b845181101561119c5761116c85828151811061114457611143613b39565b5b602002602001015185838151811061115f5761115e613b39565b5b602002602001015161058a565b82828151811061117f5761117e613b39565b5b6020026020010181815250508061119590613caf565b9050611125565b508091505092915050565b6060600560008373ffffffffffffffffffffffffffffffffffffffff1673ffffffffffffffffffffffffffffffffffffffff16815260200190815260200160002080546111f390613b97565b80601f016020809104026020016040519081016040528092919081815260200182805461121f90613b97565b801561126c5780601f106112415761010080835404028352916020019161126c565b820191906000526020600020905b81548152906001019060200180831161124f57829003601f168201915b50505050509050919050565b611280611bf1565b60011515600460008573ffffffffffffffffffffffffffffffffffffffff1673ffffffffffffffffffffffffffffffffffffffff1681526020019081526020016000206000600954815260200190815260200160002060009054906101000a900460ff1615151415611327576040517f08c379a000000000000000000000000000000000000000000000000000000000815260040161131e9061404e565b60405180910390fd5b61133383600954611e8d565b80600560008573ffffffffffffffffffffffffffffffffffffffff1673ffffffffffffffffffffffffffffffffffffffff1681526020019081526020016000209080519060200190611386929190612eb6565b508260068260405161139891906140aa565b908152602001604051809103902060006101000a81548173ffffffffffffffffffffffffffffffffffffffff021916908373ffffffffffffffffffffffffffffffffffffffff160217905550600115156009548473ffffffffffffffffffffffffffffffffffffffff167fb8ab71d168de2395481e4653bcaf8113b8d414ee4f783094c4a67ec50b060f288460405161143191906132f9565b60405180910390a460095482146114a05760011515828473ffffffffffffffffffffffffffffffffffffffff167fb8ab71d168de2395481e4653bcaf8113b8d414ee4f783094c4a67ec50b060f288460405161148d91906132f9565b60405180910390a461149f8383611e8d565b5b505050565b6114ad611bf1565b6114b76000611f9b565b565b6114c1611bf1565b60008111611504576040517f08c379a00000000000000000000000000000000000000000000000000000000081526004016114fb90614133565b60405180910390fd5b60011515600460008473ffffffffffffffffffffffffffffffffffffffff1673ffffffffffffffffffffffffffffffffffffffff168152602001908152602001600020600083815260200190815260200160002060009054906101000a900460ff161515146115a8576040517f08c379a000000000000000000000000000000000000000000000000000000000815260040161159f906141c5565b60405180910390fd5b60001515818373ffffffffffffffffffffffffffffffffffffffff167fb8ab71d168de2395481e4653bcaf8113b8d414ee4f783094c4a67ec50b060f28600560008773ffffffffffffffffffffffffffffffffffffffff1673ffffffffffffffffffffffffffffffffffffffff1681526020019081526020016000206040516116319190613c5e565b60405180910390a46116438282611c6f565b5050565b600d818154811061165757600080fd5b906000526020600020016000915090505481565b6000600360009054906101000a900473ffffffffffffffffffffffffffffffffffffffff16905090565b6116a76116a0612061565b8383612069565b5050565b60606000600d8054905067ffffffffffffffff8111156116ce576116cd613373565b5b6040519080825280602002602001820160405280156116fc5781602001602082028036833780820191505090505b50905060005b600d8054905081101561175557600860008281526020019081526020016000205482828151811061173657611735613b39565b5b602002602001018181525050808061174d90613caf565b915050611702565b508091505090565b600060068260405161176f91906140aa565b908152602001604051809103902060009054906101000a900473ffffffffffffffffffffffffffffffffffffffff169050919050565b606060006001600d805490506117bb9190613d64565b67ffffffffffffffff8111156117d4576117d3613373565b5b6040519080825280602002602001820160405280156118025781602001602082028036833780820191505090505b5090506000805b601380549050811015611875576013818154811061182a57611829613b39565b5b906000526020600020015483828151811061184857611847613b39565b5b602002602001018181525050818061185f90613caf565b925050808061186d90613caf565b915050611809565b50600e5482828151811061188c5761188b613b39565b5b602002602001018181525050819250505090565b600a5481565b6000600160008473ffffffffffffffffffffffffffffffffffffffff1673ffffffffffffffffffffffffffffffffffffffff16815260200190815260200160002060008373ffffffffffffffffffffffffffffffffffffffff1673ffffffffffffffffffffffffffffffffffffffff16815260200190815260200160002060009054906101000a900460ff16905092915050565b60011515600460008673ffffffffffffffffffffffffffffffffffffffff1673ffffffffffffffffffffffffffffffffffffffff168152602001908152602001600020600085815260200190815260200160002060009054906101000a900460ff161515146119de576040517f08c379a00000000000000000000000000000000000000000000000000000000081526004016119d59061427d565b60405180910390fd5b6119eb85858585856121d6565b5050505050565b6119fa611bf1565b600073ffffffffffffffffffffffffffffffffffffffff168173ffffffffffffffffffffffffffffffffffffffff161415611a6a576040517f08c379a0000000000000000000000000000000000000000000000000000000008152600401611a619061430f565b60405180910390fd5b611a7381611f9b565b50565b611a7e611bf1565b60011515600460008573ffffffffffffffffffffffffffffffffffffffff1673ffffffffffffffffffffffffffffffffffffffff1681526020019081526020016000206000600954815260200190815260200160002060009054906101000a900460ff16151514611b24576040517f08c379a0000000000000000000000000000000000000000000000000000000008152600401611b1b90613d44565b60405180910390fd5b80600860008481526020019081526020016000206000828254611b479190613d64565b92505081905550611b59838383612277565b505050565b600c5481565b6000808273ffffffffffffffffffffffffffffffffffffffff163b119050919050565b60007f01ffc9a7000000000000000000000000000000000000000000000000000000007bffffffffffffffffffffffffffffffffffffffffffffffffffffffff1916827bffffffffffffffffffffffffffffffffffffffffffffffffffffffff1916149050919050565b611bf9612061565b73ffffffffffffffffffffffffffffffffffffffff16611c1761166b565b73ffffffffffffffffffffffffffffffffffffffff1614611c6d576040517f08c379a0000000000000000000000000000000000000000000000000000000008152600401611c649061437b565b60405180910390fd5b565b6000600460008473ffffffffffffffffffffffffffffffffffffffff1673ffffffffffffffffffffffffffffffffffffffff168152602001908152602001600020600083815260200190815260200160002060006101000a81548160ff0219169083151502179055505050565b600073ffffffffffffffffffffffffffffffffffffffff168473ffffffffffffffffffffffffffffffffffffffff161415611d4c576040517f08c379a0000000000000000000000000000000000000000000000000000000008152600401611d439061440d565b60405180910390fd5b6000611d56612061565b90506000611d63856124be565b90506000611d70856124be565b9050611d8183600089858589612538565b8460008088815260200190815260200160002060008973ffffffffffffffffffffffffffffffffffffffff1673ffffffffffffffffffffffffffffffffffffffff1681526020019081526020016000206000828254611de09190613d64565b925050819055508673ffffffffffffffffffffffffffffffffffffffff16600073ffffffffffffffffffffffffffffffffffffffff168473ffffffffffffffffffffffffffffffffffffffff167fc3d58168c5ae7397731d063d5bbf3d657854427343f4c083240f7aacaa2d0f628989604051611e5e92919061442d565b60405180910390a4611e7583600089858589612540565b611e8483600089898989612548565b50505050505050565b6001600460008473ffffffffffffffffffffffffffffffffffffffff1673ffffffffffffffffffffffffffffffffffffffff168152602001908152602001600020600083815260200190815260200160002060006101000a81548160ff0219169083151502179055505050565b611f02612061565b73ffffffffffffffffffffffffffffffffffffffff168573ffffffffffffffffffffffffffffffffffffffff161480611f485750611f4785611f42612061565b6118a6565b5b611f87576040517f08c379a0000000000000000000000000000000000000000000000000000000008152600401611f7e906144c8565b60405180910390fd5b611f948585858585612720565b5050505050565b6000600360009054906101000a900473ffffffffffffffffffffffffffffffffffffffff16905081600360006101000a81548173ffffffffffffffffffffffffffffffffffffffff021916908373ffffffffffffffffffffffffffffffffffffffff1602179055508173ffffffffffffffffffffffffffffffffffffffff168173ffffffffffffffffffffffffffffffffffffffff167f8be0079c531659141344cd1fd0a4f28419497f9722a3daafe3b4186f6b6457e060405160405180910390a35050565b600033905090565b8173ffffffffffffffffffffffffffffffffffffffff168373ffffffffffffffffffffffffffffffffffffffff1614156120d8576040517f08c379a00000000000000000000000000000000000000000000000000000000081526004016120cf9061455a565b60405180910390fd5b80600160008573ffffffffffffffffffffffffffffffffffffffff1673ffffffffffffffffffffffffffffffffffffffff16815260200190815260200160002060008473ffffffffffffffffffffffffffffffffffffffff1673ffffffffffffffffffffffffffffffffffffffff16815260200190815260200160002060006101000a81548160ff0219169083151502179055508173ffffffffffffffffffffffffffffffffffffffff168373ffffffffffffffffffffffffffffffffffffffff167f17307eab39ab6107e8899845ad3d59bd9653f200f220920489ca2b5937696c31836040516121c9919061310b565b60405180910390a3505050565b6121de612061565b73ffffffffffffffffffffffffffffffffffffffff168573ffffffffffffffffffffffffffffffffffffffff16148061222457506122238561221e612061565b6118a6565b5b612263576040517f08c379a000000000000000000000000000000000000000000000000000000000815260040161225a906144c8565b60405180910390fd5b6122708585858585612a42565b5050505050565b600073ffffffffffffffffffffffffffffffffffffffff168373ffffffffffffffffffffffffffffffffffffffff1614156122e7576040517f08c379a00000000000000000000000000000000000000000000000000000000081526004016122de906145ec565b60405180910390fd5b60006122f1612061565b905060006122fe846124be565b9050600061230b846124be565b905061232b83876000858560405180602001604052806000815250612538565b600080600087815260200190815260200160002060008873ffffffffffffffffffffffffffffffffffffffff1673ffffffffffffffffffffffffffffffffffffffff168152602001908152602001600020549050848110156123c2576040517f08c379a00000000000000000000000000000000000000000000000000000000081526004016123b99061467e565b60405180910390fd5b84810360008088815260200190815260200160002060008973ffffffffffffffffffffffffffffffffffffffff1673ffffffffffffffffffffffffffffffffffffffff16815260200190815260200160002081905550600073ffffffffffffffffffffffffffffffffffffffff168773ffffffffffffffffffffffffffffffffffffffff168573ffffffffffffffffffffffffffffffffffffffff167fc3d58168c5ae7397731d063d5bbf3d657854427343f4c083240f7aacaa2d0f62898960405161248f92919061442d565b60405180910390a46124b584886000868660405180602001604052806000815250612540565b50505050505050565b60606000600167ffffffffffffffff8111156124dd576124dc613373565b5b60405190808252806020026020018201604052801561250b5781602001602082028036833780820191505090505b509050828160008151811061252357612522613b39565b5b60200260200101818152505080915050919050565b505050505050565b505050505050565b6125678473ffffffffffffffffffffffffffffffffffffffff16611b64565b15612718578373ffffffffffffffffffffffffffffffffffffffff1663f23a6e6187878686866040518663ffffffff1660e01b81526004016125ad9594939291906146f3565b6020604051808303816000875af19250505080156125e957506040513d601f19601f820116820180604052508101906125e69190614762565b60015b61268f576125f561479c565b806308c379a01415612652575061260a6147be565b806126155750612654565b806040517f08c379a000000000000000000000000000000000000000000000000000000000815260040161264991906132f9565b60405180910390fd5b505b6040517f08c379a0000000000000000000000000000000000000000000000000000000008152600401612686906148c6565b60405180910390fd5b63f23a6e6160e01b7bffffffffffffffffffffffffffffffffffffffffffffffffffffffff1916817bffffffffffffffffffffffffffffffffffffffffffffffffffffffff191614612716576040517f08c379a000000000000000000000000000000000000000000000000000000000815260040161270d90614958565b60405180910390fd5b505b505050505050565b8151835114612764576040517f08c379a000000000000000000000000000000000000000000000000000000000815260040161275b906149ea565b60405180910390fd5b600073ffffffffffffffffffffffffffffffffffffffff168473ffffffffffffffffffffffffffffffffffffffff1614156127d4576040517f08c379a00000000000000000000000000000000000000000000000000000000081526004016127cb90614a7c565b60405180910390fd5b60006127de612061565b90506127ee818787878787612538565b60005b845181101561299f57600085828151811061280f5761280e613b39565b5b60200260200101519050600085838151811061282e5761282d613b39565b5b60200260200101519050600080600084815260200190815260200160002060008b73ffffffffffffffffffffffffffffffffffffffff1673ffffffffffffffffffffffffffffffffffffffff168152602001908152602001600020549050818110156128cf576040517f08c379a00000000000000000000000000000000000000000000000000000000081526004016128c690614b0e565b60405180910390fd5b81810360008085815260200190815260200160002060008c73ffffffffffffffffffffffffffffffffffffffff1673ffffffffffffffffffffffffffffffffffffffff168152602001908152602001600020819055508160008085815260200190815260200160002060008b73ffffffffffffffffffffffffffffffffffffffff1673ffffffffffffffffffffffffffffffffffffffff16815260200190815260200160002060008282546129849190613d64565b925050819055505050508061299890613caf565b90506127f1565b508473ffffffffffffffffffffffffffffffffffffffff168673ffffffffffffffffffffffffffffffffffffffff168273ffffffffffffffffffffffffffffffffffffffff167f4a39dc06d4c0dbc64b70af90fd698a233a518aa5d07e595d983b8c0526c8f7fb8787604051612a16929190614b2e565b60405180910390a4612a2c818787878787612540565b612a3a818787878787612cde565b505050505050565b600073ffffffffffffffffffffffffffffffffffffffff168473ffffffffffffffffffffffffffffffffffffffff161415612ab2576040517f08c379a0000000000000000000000000000000000000000000000000000000008152600401612aa990614a7c565b60405180910390fd5b6000612abc612061565b90506000612ac9856124be565b90506000612ad6856124be565b9050612ae6838989858589612538565b600080600088815260200190815260200160002060008a73ffffffffffffffffffffffffffffffffffffffff1673ffffffffffffffffffffffffffffffffffffffff16815260200190815260200160002054905085811015612b7d576040517f08c379a0000000000000000000000000000000000000000000000000000000008152600401612b7490614b0e565b60405180910390fd5b85810360008089815260200190815260200160002060008b73ffffffffffffffffffffffffffffffffffffffff1673ffffffffffffffffffffffffffffffffffffffff168152602001908152602001600020819055508560008089815260200190815260200160002060008a73ffffffffffffffffffffffffffffffffffffffff1673ffffffffffffffffffffffffffffffffffffffff1681526020019081526020016000206000828254612c329190613d64565b925050819055508773ffffffffffffffffffffffffffffffffffffffff168973ffffffffffffffffffffffffffffffffffffffff168573ffffffffffffffffffffffffffffffffffffffff167fc3d58168c5ae7397731d063d5bbf3d657854427343f4c083240f7aacaa2d0f628a8a604051612caf92919061442d565b60405180910390a4612cc5848a8a86868a612540565b612cd3848a8a8a8a8a612548565b505050505050505050565b612cfd8473ffffffffffffffffffffffffffffffffffffffff16611b64565b15612eae578373ffffffffffffffffffffffffffffffffffffffff1663bc197c8187878686866040518663ffffffff1660e01b8152600401612d43959493929190614b65565b6020604051808303816000875af1925050508015612d7f57506040513d601f19601f82011682018060405250810190612d7c9190614762565b60015b612e2557612d8b61479c565b806308c379a01415612de85750612da06147be565b80612dab5750612dea565b806040517f08c379a0000000000000000000000000000000000000000000000000000000008152600401612ddf91906132f9565b60405180910390fd5b505b6040517f08c379a0000000000000000000000000000000000000000000000000000000008152600401612e1c906148c6565b60405180910390fd5b63bc197c8160e01b7bffffffffffffffffffffffffffffffffffffffffffffffffffffffff1916817bffffffffffffffffffffffffffffffffffffffffffffffffffffffff191614612eac576040517f08c379a0000000000000000000000000000000000000000000000000000000008152600401612ea390614958565b60405180910390fd5b505b505050505050565b828054612ec290613b97565b90600052602060002090601f016020900481019282612ee45760008555612f2b565b82601f10612efd57805160ff1916838001178555612f2b565b82800160010185558215612f2b579182015b82811115612f2a578251825591602001919060010190612f0f565b5b509050612f389190612f3c565b5090565b5b80821115612f55576000816000905550600101612f3d565b5090565b6000604051905090565b600080fd5b600080fd5b600073ffffffffffffffffffffffffffffffffffffffff82169050919050565b6000612f9882612f6d565b9050919050565b612fa881612f8d565b8114612fb357600080fd5b50565b600081359050612fc581612f9f565b92915050565b6000819050919050565b612fde81612fcb565b8114612fe957600080fd5b50565b600081359050612ffb81612fd5565b92915050565b6000806040838503121561301857613017612f63565b5b600061302685828601612fb6565b925050602061303785828601612fec565b9150509250929050565b61304a81612fcb565b82525050565b60006020820190506130656000830184613041565b92915050565b60007fffffffff0000000000000000000000000000000000000000000000000000000082169050919050565b6130a08161306b565b81146130ab57600080fd5b50565b6000813590506130bd81613097565b92915050565b6000602082840312156130d9576130d8612f63565b5b60006130e7848285016130ae565b91505092915050565b60008115159050919050565b613105816130f0565b82525050565b600060208201905061312060008301846130fc565b92915050565b60006020828403121561313c5761313b612f63565b5b600061314a84828501612fb6565b91505092915050565b600081519050919050565b600082825260208201905092915050565b6000819050602082019050919050565b61318881612fcb565b82525050565b600061319a838361317f565b60208301905092915050565b6000602082019050919050565b60006131be82613153565b6131c8818561315e565b93506131d38361316f565b8060005b838110156132045781516131eb888261318e565b97506131f6836131a6565b9250506001810190506131d7565b5085935050505092915050565b6000602082019050818103600083015261322b81846131b3565b905092915050565b60006020828403121561324957613248612f63565b5b600061325784828501612fec565b91505092915050565b600081519050919050565b600082825260208201905092915050565b60005b8381101561329a57808201518184015260208101905061327f565b838111156132a9576000848401525b50505050565b6000601f19601f8301169050919050565b60006132cb82613260565b6132d5818561326b565b93506132e581856020860161327c565b6132ee816132af565b840191505092915050565b6000602082019050818103600083015261331381846132c0565b905092915050565b60008060006060848603121561333457613333612f63565b5b600061334286828701612fb6565b935050602061335386828701612fec565b925050604061336486828701612fec565b9150509250925092565b600080fd5b7f4e487b7100000000000000000000000000000000000000000000000000000000600052604160045260246000fd5b6133ab826132af565b810181811067ffffffffffffffff821117156133ca576133c9613373565b5b80604052505050565b60006133dd612f59565b90506133e982826133a2565b919050565b600067ffffffffffffffff82111561340957613408613373565b5b602082029050602081019050919050565b600080fd5b600061343261342d846133ee565b6133d3565b905080838252602082019050602084028301858111156134555761345461341a565b5b835b8181101561347e578061346a8882612fec565b845260208401935050602081019050613457565b5050509392505050565b600082601f83011261349d5761349c61336e565b5b81356134ad84826020860161341f565b91505092915050565b600080fd5b600067ffffffffffffffff8211156134d6576134d5613373565b5b6134df826132af565b9050602081019050919050565b82818337600083830152505050565b600061350e613509846134bb565b6133d3565b90508281526020810184848401111561352a576135296134b6565b5b6135358482856134ec565b509392505050565b600082601f8301126135525761355161336e565b5b81356135628482602086016134fb565b91505092915050565b600080600080600060a0868803121561358757613586612f63565b5b600061359588828901612fb6565b95505060206135a688828901612fb6565b945050604086013567ffffffffffffffff8111156135c7576135c6612f68565b5b6135d388828901613488565b935050606086013567ffffffffffffffff8111156135f4576135f3612f68565b5b61360088828901613488565b925050608086013567ffffffffffffffff81111561362157613620612f68565b5b61362d8882890161353d565b9150509295509295909350565b600067ffffffffffffffff82111561365557613654613373565b5b602082029050602081019050919050565b60006136796136748461363a565b6133d3565b9050808382526020820190506020840283018581111561369c5761369b61341a565b5b835b818110156136c557806136b18882612fb6565b84526020840193505060208101905061369e565b5050509392505050565b600082601f8301126136e4576136e361336e565b5b81356136f4848260208601613666565b91505092915050565b6000806040838503121561371457613713612f63565b5b600083013567ffffffffffffffff81111561373257613731612f68565b5b61373e858286016136cf565b925050602083013567ffffffffffffffff81111561375f5761375e612f68565b5b61376b85828601613488565b9150509250929050565b600067ffffffffffffffff8211156137905761378f613373565b5b613799826132af565b9050602081019050919050565b60006137b96137b484613775565b6133d3565b9050828152602081018484840111156137d5576137d46134b6565b5b6137e08482856134ec565b509392505050565b600082601f8301126137fd576137fc61336e565b5b813561380d8482602086016137a6565b91505092915050565b60008060006060848603121561382f5761382e612f63565b5b600061383d86828701612fb6565b935050602061384e86828701612fec565b925050604084013567ffffffffffffffff81111561386f5761386e612f68565b5b61387b868287016137e8565b9150509250925092565b61388e81612f8d565b82525050565b60006020820190506138a96000830184613885565b92915050565b6138b8816130f0565b81146138c357600080fd5b50565b6000813590506138d5816138af565b92915050565b600080604083850312156138f2576138f1612f63565b5b600061390085828601612fb6565b9250506020613911858286016138c6565b9150509250929050565b60006020828403121561393157613930612f63565b5b600082013567ffffffffffffffff81111561394f5761394e612f68565b5b61395b848285016137e8565b91505092915050565b6000806040838503121561397b5761397a612f63565b5b600061398985828601612fb6565b925050602061399a85828601612fb6565b9150509250929050565b600080600080600060a086880312156139c0576139bf612f63565b5b60006139ce88828901612fb6565b95505060206139df88828901612fb6565b94505060406139f088828901612fec565b9350506060613a0188828901612fec565b925050608086013567ffffffffffffffff811115613a2257613a21612f68565b5b613a2e8882890161353d565b9150509295509295909350565b7f455243313135353a2061646472657373207a65726f206973206e6f742061207660008201527f616c6964206f776e657200000000000000000000000000000000000000000000602082015250565b6000613a97602a8361326b565b9150613aa282613a3b565b604082019050919050565b60006020820190508181036000830152613ac681613a8a565b9050919050565b7f61646472657373206e6f74206164646564000000000000000000000000000000600082015250565b6000613b0360118361326b565b9150613b0e82613acd565b602082019050919050565b60006020820190508181036000830152613b3281613af6565b9050919050565b7f4e487b7100000000000000000000000000000000000000000000000000000000600052603260045260246000fd5b7f4e487b7100000000000000000000000000000000000000000000000000000000600052602260045260246000fd5b60006002820490506001821680613baf57607f821691505b60208210811415613bc357613bc2613b68565b5b50919050565b60008190508160005260206000209050919050565b60008154613beb81613b97565b613bf5818661326b565b94506001821660008114613c105760018114613c2257613c55565b60ff1983168652602086019350613c55565b613c2b85613bc9565b60005b83811015613c4d57815481890152600182019150602081019050613c2e565b808801955050505b50505092915050565b60006020820190508181036000830152613c788184613bde565b905092915050565b7f4e487b7100000000000000000000000000000000000000000000000000000000600052601160045260246000fd5b6000613cba82612fcb565b91507fffffffffffffffffffffffffffffffffffffffffffffffffffffffffffffffff821415613ced57613cec613c80565b5b600182019050919050565b7f6f7267616e697a6174696f6e206e6f7420616464656400000000000000000000600082015250565b6000613d2e60168361326b565b9150613d3982613cf8565b602082019050919050565b60006020820190508181036000830152613d5d81613d21565b9050919050565b6000613d6f82612fcb565b9150613d7a83612fcb565b9250827fffffffffffffffffffffffffffffffffffffffffffffffffffffffffffffffff03821115613daf57613dae613c80565b5b828201905092915050565b7f506c6561736520616464206f7267616e697a6174696f6e206669727374000000600082015250565b6000613df0601d8361326b565b9150613dfb82613dba565b602082019050919050565b60006020820190508181036000830152613e1f81613de3565b9050919050565b7f6172656120616c72656164792073657420666f722074686973206f7267616e6960008201527f7a6174696f6e0000000000000000000000000000000000000000000000000000602082015250565b6000613e8260268361326b565b9150613e8d82613e26565b604082019050919050565b60006020820190508181036000830152613eb181613e75565b9050919050565b7f74686973206f7267616e697a6174696f6e20646f6573206e6f7420686176652060008201527f7065726d697373696f6e20746f20726563656976652070617274206f6620746860208201527f6520626174636800000000000000000000000000000000000000000000000000604082015250565b6000613f3a60478361326b565b9150613f4582613eb8565b606082019050919050565b60006020820190508181036000830152613f6981613f2d565b9050919050565b7f455243313135353a206163636f756e747320616e6420696473206c656e67746860008201527f206d69736d617463680000000000000000000000000000000000000000000000602082015250565b6000613fcc60298361326b565b9150613fd782613f70565b604082019050919050565b60006020820190508181036000830152613ffb81613fbf565b9050919050565b7f6164647265737320616c72656164792061646465640000000000000000000000600082015250565b600061403860158361326b565b915061404382614002565b602082019050919050565b600060208201905081810360008301526140678161402b565b9050919050565b600081905092915050565b600061408482613260565b61408e818561406e565b935061409e81856020860161327c565b80840191505092915050565b60006140b68284614079565b915081905092915050565b7f746f206578636c756465206163636f756e7420616c746f67657468657220757360008201527f65207375624f7267206d6574686f640000000000000000000000000000000000602082015250565b600061411d602f8361326b565b9150614128826140c1565b604082019050919050565b6000602082019050818103600083015261414c81614110565b9050919050565b7f74686973206163636f756e74206973206e6f742072656769737465726564207460008201527f6f20746865206172656120737065636966696564000000000000000000000000602082015250565b60006141af60348361326b565b91506141ba82614153565b604082019050919050565b600060208201905081810360008301526141de816141a2565b9050919050565b7f74686973206f7267616e697a6174696f6e20646f6573206e6f7420686176652060008201527f7065726d697373696f6e20746f2072656365697665207468697320627564676560208201527f7400000000000000000000000000000000000000000000000000000000000000604082015250565b600061426760418361326b565b9150614272826141e5565b606082019050919050565b600060208201905081810360008301526142968161425a565b9050919050565b7f4f776e61626c653a206e6577206f776e657220697320746865207a65726f206160008201527f6464726573730000000000000000000000000000000000000000000000000000602082015250565b60006142f960268361326b565b91506143048261429d565b604082019050919050565b60006020820190508181036000830152614328816142ec565b9050919050565b7f4f776e61626c653a2063616c6c6572206973206e6f7420746865206f776e6572600082015250565b600061436560208361326b565b91506143708261432f565b602082019050919050565b6000602082019050818103600083015261439481614358565b9050919050565b7f455243313135353a206d696e7420746f20746865207a65726f2061646472657360008201527f7300000000000000000000000000000000000000000000000000000000000000602082015250565b60006143f760218361326b565b91506144028261439b565b604082019050919050565b60006020820190508181036000830152614426816143ea565b9050919050565b60006040820190506144426000830185613041565b61444f6020830184613041565b9392505050565b7f455243313135353a2063616c6c6572206973206e6f7420746f6b656e206f776e60008201527f6572206f7220617070726f766564000000000000000000000000000000000000602082015250565b60006144b2602e8361326b565b91506144bd82614456565b604082019050919050565b600060208201905081810360008301526144e1816144a5565b9050919050565b7f455243313135353a2073657474696e6720617070726f76616c2073746174757360008201527f20666f722073656c660000000000000000000000000000000000000000000000602082015250565b600061454460298361326b565b915061454f826144e8565b604082019050919050565b6000602082019050818103600083015261457381614537565b9050919050565b7f455243313135353a206275726e2066726f6d20746865207a65726f206164647260008201527f6573730000000000000000000000000000000000000000000000000000000000602082015250565b60006145d660238361326b565b91506145e18261457a565b604082019050919050565b60006020820190508181036000830152614605816145c9565b9050919050565b7f455243313135353a206275726e20616d6f756e7420657863656564732062616c60008201527f616e636500000000000000000000000000000000000000000000000000000000602082015250565b600061466860248361326b565b91506146738261460c565b604082019050919050565b600060208201905081810360008301526146978161465b565b9050919050565b600081519050919050565b600082825260208201905092915050565b60006146c58261469e565b6146cf81856146a9565b93506146df81856020860161327c565b6146e8816132af565b840191505092915050565b600060a0820190506147086000830188613885565b6147156020830187613885565b6147226040830186613041565b61472f6060830185613041565b818103608083015261474181846146ba565b90509695505050505050565b60008151905061475c81613097565b92915050565b60006020828403121561477857614777612f63565b5b60006147868482850161474d565b91505092915050565b60008160e01c9050919050565b600060033d11156147bb5760046000803e6147b860005161478f565b90505b90565b600060443d10156147ce57614851565b6147d6612f59565b60043d036004823e80513d602482011167ffffffffffffffff821117156147fe575050614851565b808201805167ffffffffffffffff81111561481c5750505050614851565b80602083010160043d038501811115614839575050505050614851565b614848826020018501866133a2565b82955050505050505b90565b7f455243313135353a207472616e7366657220746f206e6f6e2d4552433131353560008201527f526563656976657220696d706c656d656e746572000000000000000000000000602082015250565b60006148b060348361326b565b91506148bb82614854565b604082019050919050565b600060208201905081810360008301526148df816148a3565b9050919050565b7f455243313135353a204552433131353552656365697665722072656a6563746560008201527f6420746f6b656e73000000000000000000000000000000000000000000000000602082015250565b600061494260288361326b565b915061494d826148e6565b604082019050919050565b6000602082019050818103600083015261497181614935565b9050919050565b7f455243313135353a2069647320616e6420616d6f756e7473206c656e6774682060008201527f6d69736d61746368000000000000000000000000000000000000000000000000602082015250565b60006149d460288361326b565b91506149df82614978565b604082019050919050565b60006020820190508181036000830152614a03816149c7565b9050919050565b7f455243313135353a207472616e7366657220746f20746865207a65726f20616460008201527f6472657373000000000000000000000000000000000000000000000000000000602082015250565b6000614a6660258361326b565b9150614a7182614a0a565b604082019050919050565b60006020820190508181036000830152614a9581614a59565b9050919050565b7f455243313135353a20696e73756666696369656e742062616c616e636520666f60008201527f72207472616e7366657200000000000000000000000000000000000000000000602082015250565b6000614af8602a8361326b565b9150614b0382614a9c565b604082019050919050565b60006020820190508181036000830152614b2781614aeb565b9050919050565b60006040820190508181036000830152614b4881856131b3565b90508181036020830152614b5c81846131b3565b90509392505050565b600060a082019050614b7a6000830188613885565b614b876020830187613885565b8181036040830152614b9981866131b3565b90508181036060830152614bad81856131b3565b90508181036080830152614bc181846146ba565b9050969550505050505056fea26469706673582212203db819fae8d969ab4bbfff3857692865a385cd768025a120f0eadbb57db858a764736f6c634300080a003368747470733a2f2f636f6e736f6c652e66696c65626173652e636f6d2f6275636b6574732f6170702d6f7263616d656e746f2f7b617265617d2e6a736f6e",
  "devdoc": {
    "kind": "dev",
    "methods": {
      "balanceOf(address,uint256)": {
        "details": "See {IERC1155-balanceOf}. Requirements: - `account` cannot be the zero address."
      },
      "balanceOfBatch(address[],uint256[])": {
        "details": "See {IERC1155-balanceOfBatch}. Requirements: - `accounts` and `ids` must have the same length."
      },
      "isApprovedForAll(address,address)": {
        "details": "See {IERC1155-isApprovedForAll}."
      },
      "owner()": {
        "details": "Returns the address of the current owner."
      },
      "renounceOwnership()": {
        "details": "Leaves the contract without owner. It will not be possible to call `onlyOwner` functions anymore. Can only be called by the current owner. NOTE: Renouncing ownership will leave the contract without an owner, thereby removing any functionality that is only available to the owner."
      },
      "setApprovalForAll(address,bool)": {
        "details": "See {IERC1155-setApprovalForAll}."
      },
      "supportsInterface(bytes4)": {
        "details": "See {IERC165-supportsInterface}."
      },
      "transferOwnership(address)": {
        "details": "Transfers ownership of the contract to a new account (`newOwner`). Can only be called by the current owner."
      },
      "uri(uint256)": {
        "details": "See {IERC1155MetadataURI-uri}. This implementation returns the same URI for *all* token types. It relies on the token type ID substitution mechanism https://eips.ethereum.org/EIPS/eip-1155#metadata[defined in the EIP]. Clients calling this function must replace the `\\{id\\}` substring with the actual token type ID."
      }
    },
    "stateVariables": {
      "_orgAddress": {
        "details": "mapping name to address of org"
      },
      "_orgArea": {
        "details": "maps address to policy area to bool"
      },
      "_orgName": {
        "details": "mapping address to name of org"
      },
      "_totalBurned": {
        "details": "maps policy area to total burned"
      },
      "_totalMinted": {
        "details": "maps policy area to total minted"
      }
    },
    "version": 1
  },
  "userdoc": {
    "kind": "user",
    "methods": {},
    "version": 1
  },
  "storageLayout": {
    "storage": [
      {
        "astId": 138,
        "contract": "contracts/orcamento.sol:OrcamentoUniao2023",
        "label": "_balances",
        "offset": 0,
        "slot": "0",
        "type": "t_mapping(t_uint256,t_mapping(t_address,t_uint256))"
      },
      {
        "astId": 144,
        "contract": "contracts/orcamento.sol:OrcamentoUniao2023",
        "label": "_operatorApprovals",
        "offset": 0,
        "slot": "1",
        "type": "t_mapping(t_address,t_mapping(t_address,t_bool))"
      },
      {
        "astId": 146,
        "contract": "contracts/orcamento.sol:OrcamentoUniao2023",
        "label": "_uri",
        "offset": 0,
        "slot": "2",
        "type": "t_string_storage"
      },
      {
        "astId": 7,
        "contract": "contracts/orcamento.sol:OrcamentoUniao2023",
        "label": "_owner",
        "offset": 0,
        "slot": "3",
        "type": "t_address"
      },
      {
        "astId": 1916,
        "contract": "contracts/orcamento.sol:OrcamentoUniao2023",
        "label": "_orgArea",
        "offset": 0,
        "slot": "4",
        "type": "t_mapping(t_address,t_mapping(t_uint256,t_bool))"
      },
      {
        "astId": 1921,
        "contract": "contracts/orcamento.sol:OrcamentoUniao2023",
        "label": "_orgName",
        "offset": 0,
        "slot": "5",
        "type": "t_mapping(t_address,t_string_storage)"
      },
      {
        "astId": 1926,
        "contract": "contracts/orcamento.sol:OrcamentoUniao2023",
        "label": "_orgAddress",
        "offset": 0,
        "slot": "6",
        "type": "t_mapping(t_string_memory_ptr,t_address)"
      },
      {
        "astId": 1931,
        "contract": "contracts/orcamento.sol:OrcamentoUniao2023",
        "label": "_totalMinted",
        "offset": 0,
        "slot": "7",
        "type": "t_mapping(t_uint256,t_uint256)"
      },
      {
        "astId": 1936,
        "contract": "contracts/orcamento.sol:OrcamentoUniao2023",
        "label": "_totalBurned",
        "offset": 0,
        "slot": "8",
        "type": "t_mapping(t_uint256,t_uint256)"
      },
      {
        "astId": 1939,
        "contract": "contracts/orcamento.sol:OrcamentoUniao2023",
        "label": "OUTROS",
        "offset": 0,
        "slot": "9",
        "type": "t_uint256"
      },
      {
        "astId": 1942,
        "contract": "contracts/orcamento.sol:OrcamentoUniao2023",
        "label": "EDUCACAO",
        "offset": 0,
        "slot": "10",
        "type": "t_uint256"
      },
      {
        "astId": 1945,
        "contract": "contracts/orcamento.sol:OrcamentoUniao2023",
        "label": "INFRA",
        "offset": 0,
        "slot": "11",
        "type": "t_uint256"
      },
      {
        "astId": 1948,
        "contract": "contracts/orcamento.sol:OrcamentoUniao2023",
        "label": "SAUDE",
        "offset": 0,
        "slot": "12",
        "type": "t_uint256"
      },
      {
        "astId": 1956,
        "contract": "contracts/orcamento.sol:OrcamentoUniao2023",
        "label": "AREAS",
        "offset": 0,
        "slot": "13",
        "type": "t_array(t_uint256)dyn_storage"
      },
      {
        "astId": 1961,
        "contract": "contracts/orcamento.sol:OrcamentoUniao2023",
        "label": "_budget",
        "offset": 0,
        "slot": "14",
        "type": "t_uint256"
      },
      {
        "astId": 1964,
        "contract": "contracts/orcamento.sol:OrcamentoUniao2023",
        "label": "_ed",
        "offset": 0,
        "slot": "15",
        "type": "t_uint256"
      },
      {
        "astId": 1967,
        "contract": "contracts/orcamento.sol:OrcamentoUniao2023",
        "label": "_infra",
        "offset": 0,
        "slot": "16",
        "type": "t_uint256"
      },
      {
        "astId": 1970,
        "contract": "contracts/orcamento.sol:OrcamentoUniao2023",
        "label": "_health",
        "offset": 0,
        "slot": "17",
        "type": "t_uint256"
      },
      {
        "astId": 1979,
        "contract": "contracts/orcamento.sol:OrcamentoUniao2023",
        "label": "_other",
        "offset": 0,
        "slot": "18",
        "type": "t_uint256"
      },
      {
        "astId": 1987,
        "contract": "contracts/orcamento.sol:OrcamentoUniao2023",
        "label": "_budgetPart",
        "offset": 0,
        "slot": "19",
        "type": "t_array(t_uint256)dyn_storage"
      }
    ],
    "types": {
      "t_address": {
        "encoding": "inplace",
        "label": "address",
        "numberOfBytes": "20"
      },
      "t_array(t_uint256)dyn_storage": {
        "base": "t_uint256",
        "encoding": "dynamic_array",
        "label": "uint256[]",
        "numberOfBytes": "32"
      },
      "t_bool": {
        "encoding": "inplace",
        "label": "bool",
        "numberOfBytes": "1"
      },
      "t_mapping(t_address,t_bool)": {
        "encoding": "mapping",
        "key": "t_address",
        "label": "mapping(address => bool)",
        "numberOfBytes": "32",
        "value": "t_bool"
      },
      "t_mapping(t_address,t_mapping(t_address,t_bool))": {
        "encoding": "mapping",
        "key": "t_address",
        "label": "mapping(address => mapping(address => bool))",
        "numberOfBytes": "32",
        "value": "t_mapping(t_address,t_bool)"
      },
      "t_mapping(t_address,t_mapping(t_uint256,t_bool))": {
        "encoding": "mapping",
        "key": "t_address",
        "label": "mapping(address => mapping(uint256 => bool))",
        "numberOfBytes": "32",
        "value": "t_mapping(t_uint256,t_bool)"
      },
      "t_mapping(t_address,t_string_storage)": {
        "encoding": "mapping",
        "key": "t_address",
        "label": "mapping(address => string)",
        "numberOfBytes": "32",
        "value": "t_string_storage"
      },
      "t_mapping(t_address,t_uint256)": {
        "encoding": "mapping",
        "key": "t_address",
        "label": "mapping(address => uint256)",
        "numberOfBytes": "32",
        "value": "t_uint256"
      },
      "t_mapping(t_string_memory_ptr,t_address)": {
        "encoding": "mapping",
        "key": "t_string_memory_ptr",
        "label": "mapping(string => address)",
        "numberOfBytes": "32",
        "value": "t_address"
      },
      "t_mapping(t_uint256,t_bool)": {
        "encoding": "mapping",
        "key": "t_uint256",
        "label": "mapping(uint256 => bool)",
        "numberOfBytes": "32",
        "value": "t_bool"
      },
      "t_mapping(t_uint256,t_mapping(t_address,t_uint256))": {
        "encoding": "mapping",
        "key": "t_uint256",
        "label": "mapping(uint256 => mapping(address => uint256))",
        "numberOfBytes": "32",
        "value": "t_mapping(t_address,t_uint256)"
      },
      "t_mapping(t_uint256,t_uint256)": {
        "encoding": "mapping",
        "key": "t_uint256",
        "label": "mapping(uint256 => uint256)",
        "numberOfBytes": "32",
        "value": "t_uint256"
      },
      "t_string_memory_ptr": {
        "encoding": "bytes",
        "label": "string",
        "numberOfBytes": "32"
      },
      "t_string_storage": {
        "encoding": "bytes",
        "label": "string",
        "numberOfBytes": "32"
      },
      "t_uint256": {
        "encoding": "inplace",
        "label": "uint256",
        "numberOfBytes": "32"
      }
    }
  }
}