{
  "address": "0x5FbDB2315678afecb367f032d93F642f64180aa3",
  "abi": [
    {
      "inputs": [],
      "stateMutability": "nonpayable",
      "type": "constructor"
    },
    {
      "anonymous": false,
      "inputs": [
        {
          "indexed": true,
          "internalType": "address",
          "name": "account",
          "type": "address"
        },
        {
          "indexed": true,
          "internalType": "address",
          "name": "operator",
          "type": "address"
        },
        {
          "indexed": false,
          "internalType": "bool",
          "name": "approved",
          "type": "bool"
        }
      ],
      "name": "ApprovalForAll",
      "type": "event"
    },
    {
      "anonymous": false,
      "inputs": [
        {
          "indexed": true,
          "internalType": "address",
          "name": "previousOwner",
          "type": "address"
        },
        {
          "indexed": true,
          "internalType": "address",
          "name": "newOwner",
          "type": "address"
        }
      ],
      "name": "OwnershipTransferred",
      "type": "event"
    },
    {
      "anonymous": false,
      "inputs": [
        {
          "indexed": true,
          "internalType": "address",
          "name": "account",
          "type": "address"
        },
        {
          "indexed": true,
          "internalType": "uint256",
          "name": "area",
          "type": "uint256"
        },
        {
          "indexed": true,
          "internalType": "bool",
          "name": "added",
          "type": "bool"
        }
      ],
      "name": "Registry",
      "type": "event"
    },
    {
      "anonymous": false,
      "inputs": [
        {
          "indexed": true,
          "internalType": "address",
          "name": "operator",
          "type": "address"
        },
        {
          "indexed": true,
          "internalType": "address",
          "name": "from",
          "type": "address"
        },
        {
          "indexed": true,
          "internalType": "address",
          "name": "to",
          "type": "address"
        },
        {
          "indexed": false,
          "internalType": "uint256[]",
          "name": "ids",
          "type": "uint256[]"
        },
        {
          "indexed": false,
          "internalType": "uint256[]",
          "name": "values",
          "type": "uint256[]"
        }
      ],
      "name": "TransferBatch",
      "type": "event"
    },
    {
      "anonymous": false,
      "inputs": [
        {
          "indexed": true,
          "internalType": "address",
          "name": "operator",
          "type": "address"
        },
        {
          "indexed": true,
          "internalType": "address",
          "name": "from",
          "type": "address"
        },
        {
          "indexed": true,
          "internalType": "address",
          "name": "to",
          "type": "address"
        },
        {
          "indexed": false,
          "internalType": "uint256",
          "name": "id",
          "type": "uint256"
        },
        {
          "indexed": false,
          "internalType": "uint256",
          "name": "value",
          "type": "uint256"
        }
      ],
      "name": "TransferSingle",
      "type": "event"
    },
    {
      "anonymous": false,
      "inputs": [
        {
          "indexed": false,
          "internalType": "string",
          "name": "value",
          "type": "string"
        },
        {
          "indexed": true,
          "internalType": "uint256",
          "name": "id",
          "type": "uint256"
        }
      ],
      "name": "URI",
      "type": "event"
    },
    {
      "inputs": [
        {
          "internalType": "uint256",
          "name": "",
          "type": "uint256"
        }
      ],
      "name": "AREAS",
      "outputs": [
        {
          "internalType": "uint256",
          "name": "",
          "type": "uint256"
        }
      ],
      "stateMutability": "view",
      "type": "function"
    },
    {
      "inputs": [],
      "name": "EDUCACAO",
      "outputs": [
        {
          "internalType": "uint256",
          "name": "",
          "type": "uint256"
        }
      ],
      "stateMutability": "view",
      "type": "function"
    },
    {
      "inputs": [],
      "name": "INFRA",
      "outputs": [
        {
          "internalType": "uint256",
          "name": "",
          "type": "uint256"
        }
      ],
      "stateMutability": "view",
      "type": "function"
    },
    {
      "inputs": [],
      "name": "OUTROS",
      "outputs": [
        {
          "internalType": "uint256",
          "name": "",
          "type": "uint256"
        }
      ],
      "stateMutability": "view",
      "type": "function"
    },
    {
      "inputs": [],
      "name": "SAUDE",
      "outputs": [
        {
          "internalType": "uint256",
          "name": "",
          "type": "uint256"
        }
      ],
      "stateMutability": "view",
      "type": "function"
    },
    {
      "inputs": [
        {
          "internalType": "address",
          "name": "org",
          "type": "address"
        },
        {
          "internalType": "uint256",
          "name": "area",
          "type": "uint256"
        }
      ],
      "name": "addArea",
      "outputs": [],
      "stateMutability": "nonpayable",
      "type": "function"
    },
    {
      "inputs": [
        {
          "internalType": "address",
          "name": "org",
          "type": "address"
        },
        {
          "internalType": "uint256",
          "name": "area",
          "type": "uint256"
        }
      ],
      "name": "addOrg",
      "outputs": [],
      "stateMutability": "nonpayable",
      "type": "function"
    },
    {
      "inputs": [
        {
          "internalType": "address",
          "name": "account",
          "type": "address"
        },
        {
          "internalType": "uint256",
          "name": "id",
          "type": "uint256"
        }
      ],
      "name": "balanceOf",
      "outputs": [
        {
          "internalType": "uint256",
          "name": "",
          "type": "uint256"
        }
      ],
      "stateMutability": "view",
      "type": "function"
    },
    {
      "inputs": [
        {
          "internalType": "address[]",
          "name": "accounts",
          "type": "address[]"
        },
        {
          "internalType": "uint256[]",
          "name": "ids",
          "type": "uint256[]"
        }
      ],
      "name": "balanceOfBatch",
      "outputs": [
        {
          "internalType": "uint256[]",
          "name": "",
          "type": "uint256[]"
        }
      ],
      "stateMutability": "view",
      "type": "function"
    },
    {
      "inputs": [
        {
          "internalType": "address",
          "name": "from",
          "type": "address"
        },
        {
          "internalType": "uint256",
          "name": "area",
          "type": "uint256"
        },
        {
          "internalType": "uint256",
          "name": "amount",
          "type": "uint256"
        }
      ],
      "name": "burn",
      "outputs": [],
      "stateMutability": "nonpayable",
      "type": "function"
    },
    {
      "inputs": [
        {
          "internalType": "address",
          "name": "org",
          "type": "address"
        }
      ],
      "name": "getAreas",
      "outputs": [
        {
          "internalType": "uint256[]",
          "name": "",
          "type": "uint256[]"
        }
      ],
      "stateMutability": "view",
      "type": "function"
    },
    {
      "inputs": [],
      "name": "getInitialBudget",
      "outputs": [
        {
          "internalType": "uint256[]",
          "name": "",
          "type": "uint256[]"
        }
      ],
      "stateMutability": "view",
      "type": "function"
    },
    {
      "inputs": [],
      "name": "getTotalBurned",
      "outputs": [
        {
          "internalType": "uint256[]",
          "name": "",
          "type": "uint256[]"
        }
      ],
      "stateMutability": "view",
      "type": "function"
    },
    {
      "inputs": [],
      "name": "getTotalMinted",
      "outputs": [
        {
          "internalType": "uint256[]",
          "name": "",
          "type": "uint256[]"
        }
      ],
      "stateMutability": "view",
      "type": "function"
    },
    {
      "inputs": [
        {
          "internalType": "address",
          "name": "account",
          "type": "address"
        },
        {
          "internalType": "address",
          "name": "operator",
          "type": "address"
        }
      ],
      "name": "isApprovedForAll",
      "outputs": [
        {
          "internalType": "bool",
          "name": "",
          "type": "bool"
        }
      ],
      "stateMutability": "view",
      "type": "function"
    },
    {
      "inputs": [
        {
          "internalType": "address",
          "name": "to",
          "type": "address"
        },
        {
          "internalType": "uint256",
          "name": "area",
          "type": "uint256"
        },
        {
          "internalType": "uint256",
          "name": "amount",
          "type": "uint256"
        }
      ],
      "name": "mint",
      "outputs": [],
      "stateMutability": "nonpayable",
      "type": "function"
    },
    {
      "inputs": [],
      "name": "owner",
      "outputs": [
        {
          "internalType": "address",
          "name": "",
          "type": "address"
        }
      ],
      "stateMutability": "view",
      "type": "function"
    },
    {
      "inputs": [],
      "name": "renounceOwnership",
      "outputs": [],
      "stateMutability": "nonpayable",
      "type": "function"
    },
    {
      "inputs": [
        {
          "internalType": "address",
          "name": "from",
          "type": "address"
        },
        {
          "internalType": "address",
          "name": "to",
          "type": "address"
        },
        {
          "internalType": "uint256[]",
          "name": "areas",
          "type": "uint256[]"
        },
        {
          "internalType": "uint256[]",
          "name": "amounts",
          "type": "uint256[]"
        },
        {
          "internalType": "bytes",
          "name": "data",
          "type": "bytes"
        }
      ],
      "name": "safeBatchTransferFrom",
      "outputs": [],
      "stateMutability": "nonpayable",
      "type": "function"
    },
    {
      "inputs": [
        {
          "internalType": "address",
          "name": "from",
          "type": "address"
        },
        {
          "internalType": "address",
          "name": "to",
          "type": "address"
        },
        {
          "internalType": "uint256",
          "name": "area",
          "type": "uint256"
        },
        {
          "internalType": "uint256",
          "name": "amount",
          "type": "uint256"
        },
        {
          "internalType": "bytes",
          "name": "data",
          "type": "bytes"
        }
      ],
      "name": "safeTransferFrom",
      "outputs": [],
      "stateMutability": "nonpayable",
      "type": "function"
    },
    {
      "inputs": [
        {
          "internalType": "address",
          "name": "operator",
          "type": "address"
        },
        {
          "internalType": "bool",
          "name": "approved",
          "type": "bool"
        }
      ],
      "name": "setApprovalForAll",
      "outputs": [],
      "stateMutability": "nonpayable",
      "type": "function"
    },
    {
      "inputs": [
        {
          "internalType": "address",
          "name": "org",
          "type": "address"
        },
        {
          "internalType": "uint256",
          "name": "area",
          "type": "uint256"
        }
      ],
      "name": "subArea",
      "outputs": [],
      "stateMutability": "nonpayable",
      "type": "function"
    },
    {
      "inputs": [
        {
          "internalType": "address",
          "name": "org",
          "type": "address"
        }
      ],
      "name": "subOrg",
      "outputs": [],
      "stateMutability": "nonpayable",
      "type": "function"
    },
    {
      "inputs": [
        {
          "internalType": "bytes4",
          "name": "interfaceId",
          "type": "bytes4"
        }
      ],
      "name": "supportsInterface",
      "outputs": [
        {
          "internalType": "bool",
          "name": "",
          "type": "bool"
        }
      ],
      "stateMutability": "view",
      "type": "function"
    },
    {
      "inputs": [
        {
          "internalType": "address",
          "name": "newOwner",
          "type": "address"
        }
      ],
      "name": "transferOwnership",
      "outputs": [],
      "stateMutability": "nonpayable",
      "type": "function"
    },
    {
      "inputs": [
        {
          "internalType": "uint256",
          "name": "",
          "type": "uint256"
        }
      ],
      "name": "uri",
      "outputs": [
        {
          "internalType": "string",
          "name": "",
          "type": "string"
        }
      ],
      "stateMutability": "view",
      "type": "function"
    }
  ],
  "transactionHash": "0x3f1b38a6399874c398c1733b6d5d1d72fd081e86af74c71e76dd6880c1256de3",
  "args": [],
  "numDeployments": 1,
  "solcInputHash": "eb5c4b54e360be787a086f9b032b641a",
  "bytecode": "0x60806040526000600755600160085560026009556003600a556040518060800160405280600754815260200160085481526020016009548152602001600a54815250600b90600462000053929190620008ae565b5064e8d4a51000600c556005600d55600a600e556005600f55600e54600d54600f546064620000839190620009e9565b6200008f9190620009e9565b6200009b9190620009e9565b60105560405180608001604052806010548152602001600d548152602001600e548152602001600f548152506011906004620000d9929190620008ae565b50348015620000e757600080fd5b506040518060600160405280603e8152602001620055fb603e913962000113816200032e60201b60201c565b5062000134620001286200034a60201b60201c565b6200035260201b60201c565b6200017833600a546064600f54600c5462000150919062000a24565b6200015c919062000ab4565b604051806020016040528060008152506200041860201b60201c565b620001bc336008546064600d54600c5462000194919062000a24565b620001a0919062000ab4565b604051806020016040528060008152506200041860201b60201c565b62000200336009546064600e54600c54620001d8919062000a24565b620001e4919062000ab4565b604051806020016040528060008152506200041860201b60201c565b62000244336007546064601054600c546200021c919062000a24565b62000228919062000ab4565b604051806020016040528060008152506200041860201b60201c565b6064600f54600c5462000258919062000a24565b62000264919062000ab4565b60056000600a548152602001908152602001600020819055506064600d54600c5462000291919062000a24565b6200029d919062000ab4565b600560006008548152602001908152602001600020819055506064600e54600c54620002ca919062000a24565b620002d6919062000ab4565b600560006009548152602001908152602001600020819055506064601054600c5462000303919062000a24565b6200030f919062000ab4565b6005600060075481526020019081526020016000208190555062001188565b80600290805190602001906200034692919062000900565b5050565b600033905090565b6000600360009054906101000a900473ffffffffffffffffffffffffffffffffffffffff16905081600360006101000a81548173ffffffffffffffffffffffffffffffffffffffff021916908373ffffffffffffffffffffffffffffffffffffffff1602179055508173ffffffffffffffffffffffffffffffffffffffff168173ffffffffffffffffffffffffffffffffffffffff167f8be0079c531659141344cd1fd0a4f28419497f9722a3daafe3b4186f6b6457e060405160405180910390a35050565b600073ffffffffffffffffffffffffffffffffffffffff168473ffffffffffffffffffffffffffffffffffffffff1614156200048b576040517f08c379a0000000000000000000000000000000000000000000000000000000008152600401620004829062000b73565b60405180910390fd5b60006200049d6200034a60201b60201c565b90506000620004b2856200060060201b60201c565b90506000620004c7856200060060201b60201c565b9050620004e0836000898585896200068160201b60201c565b8460008088815260200190815260200160002060008973ffffffffffffffffffffffffffffffffffffffff1673ffffffffffffffffffffffffffffffffffffffff168152602001908152602001600020600082825462000541919062000b95565b925050819055508673ffffffffffffffffffffffffffffffffffffffff16600073ffffffffffffffffffffffffffffffffffffffff168473ffffffffffffffffffffffffffffffffffffffff167fc3d58168c5ae7397731d063d5bbf3d657854427343f4c083240f7aacaa2d0f628989604051620005c192919062000c03565b60405180910390a4620005e0836000898585896200068960201b60201c565b620005f7836000898989896200069160201b60201c565b50505050505050565b60606000600167ffffffffffffffff81111562000622576200062162000c30565b5b604051908082528060200260200182016040528015620006515781602001602082028036833780820191505090505b50905082816000815181106200066c576200066b62000c5f565b5b60200260200101818152505080915050919050565b505050505050565b505050505050565b620006bd8473ffffffffffffffffffffffffffffffffffffffff166200088b60201b6200163a1760201c565b1562000883578373ffffffffffffffffffffffffffffffffffffffff1663f23a6e6187878686866040518663ffffffff1660e01b81526004016200070695949392919062000d77565b6020604051808303816000875af19250505080156200074557506040513d601f19601f8201168201806040525081019062000742919062000e47565b60015b620007f7576200075462000e86565b806308c379a01415620007b857506200076c62000ee1565b80620007795750620007ba565b806040517f08c379a0000000000000000000000000000000000000000000000000000000008152600401620007af919062000fcf565b60405180910390fd5b505b6040517f08c379a0000000000000000000000000000000000000000000000000000000008152600401620007ee9062001069565b60405180910390fd5b63f23a6e6160e01b7bffffffffffffffffffffffffffffffffffffffffffffffffffffffff1916817bffffffffffffffffffffffffffffffffffffffffffffffffffffffff19161462000881576040517f08c379a0000000000000000000000000000000000000000000000000000000008152600401620008789062001101565b60405180910390fd5b505b505050505050565b6000808273ffffffffffffffffffffffffffffffffffffffff163b119050919050565b828054828255906000526020600020908101928215620008ed579160200282015b82811115620008ec578251825591602001919060010190620008cf565b5b509050620008fc919062000991565b5090565b8280546200090e9062001152565b90600052602060002090601f0160209004810192826200093257600085556200097e565b82601f106200094d57805160ff19168380011785556200097e565b828001600101855582156200097e579182015b828111156200097d57825182559160200191906001019062000960565b5b5090506200098d919062000991565b5090565b5b80821115620009ac57600081600090555060010162000992565b5090565b6000819050919050565b7f4e487b7100000000000000000000000000000000000000000000000000000000600052601160045260246000fd5b6000620009f682620009b0565b915062000a0383620009b0565b92508282101562000a195762000a18620009ba565b5b828203905092915050565b600062000a3182620009b0565b915062000a3e83620009b0565b9250817fffffffffffffffffffffffffffffffffffffffffffffffffffffffffffffffff048311821515161562000a7a5762000a79620009ba565b5b828202905092915050565b7f4e487b7100000000000000000000000000000000000000000000000000000000600052601260045260246000fd5b600062000ac182620009b0565b915062000ace83620009b0565b92508262000ae15762000ae062000a85565b5b828204905092915050565b600082825260208201905092915050565b7f455243313135353a206d696e7420746f20746865207a65726f2061646472657360008201527f7300000000000000000000000000000000000000000000000000000000000000602082015250565b600062000b5b60218362000aec565b915062000b688262000afd565b604082019050919050565b6000602082019050818103600083015262000b8e8162000b4c565b9050919050565b600062000ba282620009b0565b915062000baf83620009b0565b9250827fffffffffffffffffffffffffffffffffffffffffffffffffffffffffffffffff0382111562000be75762000be6620009ba565b5b828201905092915050565b62000bfd81620009b0565b82525050565b600060408201905062000c1a600083018562000bf2565b62000c29602083018462000bf2565b9392505050565b7f4e487b7100000000000000000000000000000000000000000000000000000000600052604160045260246000fd5b7f4e487b7100000000000000000000000000000000000000000000000000000000600052603260045260246000fd5b600073ffffffffffffffffffffffffffffffffffffffff82169050919050565b600062000cbb8262000c8e565b9050919050565b62000ccd8162000cae565b82525050565b600081519050919050565b600082825260208201905092915050565b60005b8381101562000d0f57808201518184015260208101905062000cf2565b8381111562000d1f576000848401525b50505050565b6000601f19601f8301169050919050565b600062000d438262000cd3565b62000d4f818562000cde565b935062000d6181856020860162000cef565b62000d6c8162000d25565b840191505092915050565b600060a08201905062000d8e600083018862000cc2565b62000d9d602083018762000cc2565b62000dac604083018662000bf2565b62000dbb606083018562000bf2565b818103608083015262000dcf818462000d36565b90509695505050505050565b6000604051905090565b600080fd5b60007fffffffff0000000000000000000000000000000000000000000000000000000082169050919050565b62000e218162000dea565b811462000e2d57600080fd5b50565b60008151905062000e418162000e16565b92915050565b60006020828403121562000e605762000e5f62000de5565b5b600062000e708482850162000e30565b91505092915050565b60008160e01c9050919050565b600060033d111562000ea85760046000803e62000ea560005162000e79565b90505b90565b62000eb68262000d25565b810181811067ffffffffffffffff8211171562000ed85762000ed762000c30565b5b80604052505050565b600060443d101562000ef35762000f80565b62000efd62000ddb565b60043d036004823e80513d602482011167ffffffffffffffff8211171562000f2757505062000f80565b808201805167ffffffffffffffff81111562000f47575050505062000f80565b80602083010160043d03850181111562000f6657505050505062000f80565b62000f778260200185018662000eab565b82955050505050505b90565b600081519050919050565b600062000f9b8262000f83565b62000fa7818562000aec565b935062000fb981856020860162000cef565b62000fc48162000d25565b840191505092915050565b6000602082019050818103600083015262000feb818462000f8e565b905092915050565b7f455243313135353a207472616e7366657220746f206e6f6e2d4552433131353560008201527f526563656976657220696d706c656d656e746572000000000000000000000000602082015250565b60006200105160348362000aec565b91506200105e8262000ff3565b604082019050919050565b60006020820190508181036000830152620010848162001042565b9050919050565b7f455243313135353a204552433131353552656365697665722072656a6563746560008201527f6420746f6b656e73000000000000000000000000000000000000000000000000602082015250565b6000620010e960288362000aec565b9150620010f6826200108b565b604082019050919050565b600060208201905081810360008301526200111c81620010da565b9050919050565b7f4e487b7100000000000000000000000000000000000000000000000000000000600052602260045260246000fd5b600060028204905060018216806200116b57607f821691505b6020821081141562001182576200118162001123565b5b50919050565b61446380620011986000396000f3fe608060405234801561001057600080fd5b506004361061018d5760003560e01c80637f14ba3f116100de578063cdda771511610097578063f242432a11610071578063f242432a14610482578063f2fde38b1461049e578063f5298aca146104ba578063f84f7dd0146104d65761018d565b8063cdda771514610416578063db40154114610434578063e985e9c5146104525761018d565b80637f14ba3f146103565780637f7063e7146103725780638da5cb5b146103a2578063a22cb465146103c0578063b55cd04b146103dc578063c5cc8524146103fa5761018d565b8063169bc4861161014b57806328eece131161012557806328eece13146102d05780632eb2c2d6146103005780634e1273f41461031c578063715018a61461034c5761018d565b8063169bc486146102785780631ef16b431461029457806321636aa5146102b25761018d565b8062fdd58e1461019257806301ffc9a7146101c25780630c89c421146101f25780630ca1c5c91461020e5780630e89341c1461022c578063156e29f61461025c575b600080fd5b6101ac60048036038101906101a79190612ac4565b6104f4565b6040516101b99190612b13565b60405180910390f35b6101dc60048036038101906101d79190612b86565b6105bd565b6040516101e99190612bce565b60405180910390f35b61020c60048036038101906102079190612be9565b61069f565b005b61021661082e565b6040516102239190612cd4565b60405180910390f35b61024660048036038101906102419190612cf6565b6108e0565b6040516102539190612dbc565b60405180910390f35b61027660048036038101906102719190612dde565b610974565b005b610292600480360381019061028d9190612ac4565b610a68565b005b61029c610bc9565b6040516102a99190612b13565b60405180910390f35b6102ba610bcf565b6040516102c79190612b13565b60405180910390f35b6102ea60048036038101906102e59190612be9565b610bd5565b6040516102f79190612cd4565b60405180910390f35b61031a6004803603810190610315919061302e565b610da0565b005b610336600480360381019061033191906131c0565b610e92565b6040516103439190612cd4565b60405180910390f35b610354610fab565b005b610370600480360381019061036b9190612ac4565b610fbf565b005b61038c60048036038101906103879190612cf6565b6110bc565b6040516103999190612b13565b60405180910390f35b6103aa6110e0565b6040516103b79190613247565b60405180910390f35b6103da60048036038101906103d5919061328e565b61110a565b005b6103e4611120565b6040516103f19190612cd4565b60405180910390f35b610414600480360381019061040f9190612ac4565b6111d2565b005b61041e6112a5565b60405161042b9190612cd4565b60405180910390f35b61043c6113a0565b6040516104499190612b13565b60405180910390f35b61046c600480360381019061046791906132ce565b6113a6565b6040516104799190612bce565b60405180910390f35b61049c6004803603810190610497919061330e565b61143a565b005b6104b860048036038101906104b39190612be9565b6114f2565b005b6104d460048036038101906104cf9190612dde565b611576565b005b6104de611634565b6040516104eb9190612b13565b60405180910390f35b60008073ffffffffffffffffffffffffffffffffffffffff168373ffffffffffffffffffffffffffffffffffffffff161415610565576040517f08c379a000000000000000000000000000000000000000000000000000000000815260040161055c90613417565b60405180910390fd5b60008083815260200190815260200160002060008473ffffffffffffffffffffffffffffffffffffffff1673ffffffffffffffffffffffffffffffffffffffff16815260200190815260200160002054905092915050565b60007fd9b67a26000000000000000000000000000000000000000000000000000000007bffffffffffffffffffffffffffffffffffffffffffffffffffffffff1916827bffffffffffffffffffffffffffffffffffffffffffffffffffffffff1916148061068857507f0e89341c000000000000000000000000000000000000000000000000000000007bffffffffffffffffffffffffffffffffffffffffffffffffffffffff1916827bffffffffffffffffffffffffffffffffffffffffffffffffffffffff1916145b8061069857506106978261165d565b5b9050919050565b6106a76116c7565b60011515600460008373ffffffffffffffffffffffffffffffffffffffff1673ffffffffffffffffffffffffffffffffffffffff1681526020019081526020016000206000600754815260200190815260200160002060009054906101000a900460ff1615151461074d576040517f08c379a000000000000000000000000000000000000000000000000000000000815260040161074490613483565b60405180910390fd5b600061075882610bd5565b905060005b81518110156108285760001515600460008573ffffffffffffffffffffffffffffffffffffffff1673ffffffffffffffffffffffffffffffffffffffff16815260200190815260200160002060008484815181106107be576107bd6134a3565b5b6020026020010151815260200190815260200160002060009054906101000a900460ff16151514156107f157505061082b565b61081583838381518110610808576108076134a3565b5b6020026020010151611745565b808061082090613501565b91505061075d565b50505b50565b60606000600b8054905067ffffffffffffffff81111561085157610850612e36565b5b60405190808252806020026020018201604052801561087f5781602001602082028036833780820191505090505b50905060005b600b805490508110156108d85760056000828152602001908152602001600020548282815181106108b9576108b86134a3565b5b60200260200101818152505080806108d090613501565b915050610885565b508091505090565b6060600280546108ef90613579565b80601f016020809104026020016040519081016040528092919081815260200182805461091b90613579565b80156109685780601f1061093d57610100808354040283529160200191610968565b820191906000526020600020905b81548152906001019060200180831161094b57829003601f168201915b50505050509050919050565b61097c6116c7565b60011515600460008573ffffffffffffffffffffffffffffffffffffffff1673ffffffffffffffffffffffffffffffffffffffff1681526020019081526020016000206000600754815260200190815260200160002060009054906101000a900460ff16151514610a22576040517f08c379a0000000000000000000000000000000000000000000000000000000008152600401610a19906135f7565b60405180910390fd5b610a638383836040518060400160405280600481526020017f30783030000000000000000000000000000000000000000000000000000000008152506117fa565b505050565b610a706116c7565b60011515600460008473ffffffffffffffffffffffffffffffffffffffff1673ffffffffffffffffffffffffffffffffffffffff1681526020019081526020016000206000600754815260200190815260200160002060009054906101000a900460ff16151514610b16576040517f08c379a0000000000000000000000000000000000000000000000000000000008152600401610b0d90613663565b60405180910390fd5b60011515600460008473ffffffffffffffffffffffffffffffffffffffff1673ffffffffffffffffffffffffffffffffffffffff168152602001908152602001600020600083815260200190815260200160002060009054906101000a900460ff1615151415610bbb576040517f08c379a0000000000000000000000000000000000000000000000000000000008152600401610bb2906136f5565b60405180910390fd5b610bc582826119ab565b5050565b60095481565b60075481565b606060011515600460008473ffffffffffffffffffffffffffffffffffffffff1673ffffffffffffffffffffffffffffffffffffffff1681526020019081526020016000206000600754815260200190815260200160002060009054906101000a900460ff16151514610c7d576040517f08c379a0000000000000000000000000000000000000000000000000000000008152600401610c74906135f7565b60405180910390fd5b6000600b8054905067ffffffffffffffff811115610c9e57610c9d612e36565b5b604051908082528060200260200182016040528015610ccc5781602001602082028036833780820191505090505b5090506000600190506000600190505b600b80549050811015610d955760011515600460008773ffffffffffffffffffffffffffffffffffffffff1673ffffffffffffffffffffffffffffffffffffffff168152602001908152602001600020600083815260200190815260200160002060009054906101000a900460ff1615151415610d825780838381518110610d6757610d666134a3565b5b6020026020010181815250508180610d7e90613501565b9250505b8080610d8d90613501565b915050610cdc565b508192505050919050565b60005b8351811015610e7d5760011515600460008773ffffffffffffffffffffffffffffffffffffffff1673ffffffffffffffffffffffffffffffffffffffff1681526020019081526020016000206000868481518110610e0457610e036134a3565b5b6020026020010151815260200190815260200160002060009054906101000a900460ff16151514610e6a576040517f08c379a0000000000000000000000000000000000000000000000000000000008152600401610e61906137ad565b60405180910390fd5b8080610e7590613501565b915050610da3565b50610e8b8585858585611a60565b5050505050565b60608151835114610ed8576040517f08c379a0000000000000000000000000000000000000000000000000000000008152600401610ecf9061383f565b60405180910390fd5b6000835167ffffffffffffffff811115610ef557610ef4612e36565b5b604051908082528060200260200182016040528015610f235781602001602082028036833780820191505090505b50905060005b8451811015610fa057610f70858281518110610f4857610f476134a3565b5b6020026020010151858381518110610f6357610f626134a3565b5b60200260200101516104f4565b828281518110610f8357610f826134a3565b5b60200260200101818152505080610f9990613501565b9050610f29565b508091505092915050565b610fb36116c7565b610fbd6000611b01565b565b610fc76116c7565b6000811161100a576040517f08c379a0000000000000000000000000000000000000000000000000000000008152600401611001906138d1565b60405180910390fd5b60011515600460008473ffffffffffffffffffffffffffffffffffffffff1673ffffffffffffffffffffffffffffffffffffffff168152602001908152602001600020600083815260200190815260200160002060009054906101000a900460ff161515146110ae576040517f08c379a00000000000000000000000000000000000000000000000000000000081526004016110a590613963565b60405180910390fd5b6110b88282611745565b5050565b600b81815481106110cc57600080fd5b906000526020600020016000915090505481565b6000600360009054906101000a900473ffffffffffffffffffffffffffffffffffffffff16905090565b61111c611115611bc7565b8383611bcf565b5050565b60606000600b8054905067ffffffffffffffff81111561114357611142612e36565b5b6040519080825280602002602001820160405280156111715781602001602082028036833780820191505090505b50905060005b600b805490508110156111ca5760066000828152602001908152602001600020548282815181106111ab576111aa6134a3565b5b60200260200101818152505080806111c290613501565b915050611177565b508091505090565b6111da6116c7565b60011515600460008473ffffffffffffffffffffffffffffffffffffffff1673ffffffffffffffffffffffffffffffffffffffff1681526020019081526020016000206000600754815260200190815260200160002060009054906101000a900460ff1615151415611281576040517f08c379a0000000000000000000000000000000000000000000000000000000008152600401611278906139cf565b60405180910390fd5b61128d826007546119ab565b60075481146112a1576112a082826119ab565b5b5050565b606060006001600b805490506112bb91906139ef565b67ffffffffffffffff8111156112d4576112d3612e36565b5b6040519080825280602002602001820160405280156113025781602001602082028036833780820191505090505b5090506000805b601180549050811015611375576011818154811061132a576113296134a3565b5b9060005260206000200154838281518110611348576113476134a3565b5b602002602001018181525050818061135f90613501565b925050808061136d90613501565b915050611309565b50600c5482828151811061138c5761138b6134a3565b5b602002602001018181525050819250505090565b60085481565b6000600160008473ffffffffffffffffffffffffffffffffffffffff1673ffffffffffffffffffffffffffffffffffffffff16815260200190815260200160002060008373ffffffffffffffffffffffffffffffffffffffff1673ffffffffffffffffffffffffffffffffffffffff16815260200190815260200160002060009054906101000a900460ff16905092915050565b60011515600460008673ffffffffffffffffffffffffffffffffffffffff1673ffffffffffffffffffffffffffffffffffffffff168152602001908152602001600020600085815260200190815260200160002060009054906101000a900460ff161515146114de576040517f08c379a00000000000000000000000000000000000000000000000000000000081526004016114d590613add565b60405180910390fd5b6114eb8585858585611d3c565b5050505050565b6114fa6116c7565b600073ffffffffffffffffffffffffffffffffffffffff168173ffffffffffffffffffffffffffffffffffffffff16141561156a576040517f08c379a000000000000000000000000000000000000000000000000000000000815260040161156190613b6f565b60405180910390fd5b61157381611b01565b50565b61157e6116c7565b60011515600460008573ffffffffffffffffffffffffffffffffffffffff1673ffffffffffffffffffffffffffffffffffffffff1681526020019081526020016000206000600754815260200190815260200160002060009054906101000a900460ff16151514611624576040517f08c379a000000000000000000000000000000000000000000000000000000000815260040161161b906135f7565b60405180910390fd5b61162f838383611ddd565b505050565b600a5481565b6000808273ffffffffffffffffffffffffffffffffffffffff163b119050919050565b60007f01ffc9a7000000000000000000000000000000000000000000000000000000007bffffffffffffffffffffffffffffffffffffffffffffffffffffffff1916827bffffffffffffffffffffffffffffffffffffffffffffffffffffffff1916149050919050565b6116cf611bc7565b73ffffffffffffffffffffffffffffffffffffffff166116ed6110e0565b73ffffffffffffffffffffffffffffffffffffffff1614611743576040517f08c379a000000000000000000000000000000000000000000000000000000000815260040161173a90613bdb565b60405180910390fd5b565b6000600460008473ffffffffffffffffffffffffffffffffffffffff1673ffffffffffffffffffffffffffffffffffffffff168152602001908152602001600020600083815260200190815260200160002060006101000a81548160ff02191690831515021790555060001515818373ffffffffffffffffffffffffffffffffffffffff167fb1838829a17d2860e6e86b6817310df2d1cc8e52f7232a66f9b3787b8f281a4860405160405180910390a45050565b600073ffffffffffffffffffffffffffffffffffffffff168473ffffffffffffffffffffffffffffffffffffffff16141561186a576040517f08c379a000000000000000000000000000000000000000000000000000000000815260040161186190613c6d565b60405180910390fd5b6000611874611bc7565b9050600061188185612024565b9050600061188e85612024565b905061189f8360008985858961209e565b8460008088815260200190815260200160002060008973ffffffffffffffffffffffffffffffffffffffff1673ffffffffffffffffffffffffffffffffffffffff16815260200190815260200160002060008282546118fe91906139ef565b925050819055508673ffffffffffffffffffffffffffffffffffffffff16600073ffffffffffffffffffffffffffffffffffffffff168473ffffffffffffffffffffffffffffffffffffffff167fc3d58168c5ae7397731d063d5bbf3d657854427343f4c083240f7aacaa2d0f62898960405161197c929190613c8d565b60405180910390a4611993836000898585896120a6565b6119a2836000898989896120ae565b50505050505050565b6001600460008473ffffffffffffffffffffffffffffffffffffffff1673ffffffffffffffffffffffffffffffffffffffff168152602001908152602001600020600083815260200190815260200160002060006101000a81548160ff02191690831515021790555060011515818373ffffffffffffffffffffffffffffffffffffffff167fb1838829a17d2860e6e86b6817310df2d1cc8e52f7232a66f9b3787b8f281a4860405160405180910390a45050565b611a68611bc7565b73ffffffffffffffffffffffffffffffffffffffff168573ffffffffffffffffffffffffffffffffffffffff161480611aae5750611aad85611aa8611bc7565b6113a6565b5b611aed576040517f08c379a0000000000000000000000000000000000000000000000000000000008152600401611ae490613d28565b60405180910390fd5b611afa8585858585612286565b5050505050565b6000600360009054906101000a900473ffffffffffffffffffffffffffffffffffffffff16905081600360006101000a81548173ffffffffffffffffffffffffffffffffffffffff021916908373ffffffffffffffffffffffffffffffffffffffff1602179055508173ffffffffffffffffffffffffffffffffffffffff168173ffffffffffffffffffffffffffffffffffffffff167f8be0079c531659141344cd1fd0a4f28419497f9722a3daafe3b4186f6b6457e060405160405180910390a35050565b600033905090565b8173ffffffffffffffffffffffffffffffffffffffff168373ffffffffffffffffffffffffffffffffffffffff161415611c3e576040517f08c379a0000000000000000000000000000000000000000000000000000000008152600401611c3590613dba565b60405180910390fd5b80600160008573ffffffffffffffffffffffffffffffffffffffff1673ffffffffffffffffffffffffffffffffffffffff16815260200190815260200160002060008473ffffffffffffffffffffffffffffffffffffffff1673ffffffffffffffffffffffffffffffffffffffff16815260200190815260200160002060006101000a81548160ff0219169083151502179055508173ffffffffffffffffffffffffffffffffffffffff168373ffffffffffffffffffffffffffffffffffffffff167f17307eab39ab6107e8899845ad3d59bd9653f200f220920489ca2b5937696c3183604051611d2f9190612bce565b60405180910390a3505050565b611d44611bc7565b73ffffffffffffffffffffffffffffffffffffffff168573ffffffffffffffffffffffffffffffffffffffff161480611d8a5750611d8985611d84611bc7565b6113a6565b5b611dc9576040517f08c379a0000000000000000000000000000000000000000000000000000000008152600401611dc090613d28565b60405180910390fd5b611dd685858585856125a8565b5050505050565b600073ffffffffffffffffffffffffffffffffffffffff168373ffffffffffffffffffffffffffffffffffffffff161415611e4d576040517f08c379a0000000000000000000000000000000000000000000000000000000008152600401611e4490613e4c565b60405180910390fd5b6000611e57611bc7565b90506000611e6484612024565b90506000611e7184612024565b9050611e918387600085856040518060200160405280600081525061209e565b600080600087815260200190815260200160002060008873ffffffffffffffffffffffffffffffffffffffff1673ffffffffffffffffffffffffffffffffffffffff16815260200190815260200160002054905084811015611f28576040517f08c379a0000000000000000000000000000000000000000000000000000000008152600401611f1f90613ede565b60405180910390fd5b84810360008088815260200190815260200160002060008973ffffffffffffffffffffffffffffffffffffffff1673ffffffffffffffffffffffffffffffffffffffff16815260200190815260200160002081905550600073ffffffffffffffffffffffffffffffffffffffff168773ffffffffffffffffffffffffffffffffffffffff168573ffffffffffffffffffffffffffffffffffffffff167fc3d58168c5ae7397731d063d5bbf3d657854427343f4c083240f7aacaa2d0f628989604051611ff5929190613c8d565b60405180910390a461201b848860008686604051806020016040528060008152506120a6565b50505050505050565b60606000600167ffffffffffffffff81111561204357612042612e36565b5b6040519080825280602002602001820160405280156120715781602001602082028036833780820191505090505b5090508281600081518110612089576120886134a3565b5b60200260200101818152505080915050919050565b505050505050565b505050505050565b6120cd8473ffffffffffffffffffffffffffffffffffffffff1661163a565b1561227e578373ffffffffffffffffffffffffffffffffffffffff1663f23a6e6187878686866040518663ffffffff1660e01b8152600401612113959493929190613f53565b6020604051808303816000875af192505050801561214f57506040513d601f19601f8201168201806040525081019061214c9190613fc2565b60015b6121f55761215b613ffc565b806308c379a014156121b8575061217061401e565b8061217b57506121ba565b806040517f08c379a00000000000000000000000000000000000000000000000000000000081526004016121af9190612dbc565b60405180910390fd5b505b6040517f08c379a00000000000000000000000000000000000000000000000000000000081526004016121ec90614126565b60405180910390fd5b63f23a6e6160e01b7bffffffffffffffffffffffffffffffffffffffffffffffffffffffff1916817bffffffffffffffffffffffffffffffffffffffffffffffffffffffff19161461227c576040517f08c379a0000000000000000000000000000000000000000000000000000000008152600401612273906141b8565b60405180910390fd5b505b505050505050565b81518351146122ca576040517f08c379a00000000000000000000000000000000000000000000000000000000081526004016122c19061424a565b60405180910390fd5b600073ffffffffffffffffffffffffffffffffffffffff168473ffffffffffffffffffffffffffffffffffffffff16141561233a576040517f08c379a0000000000000000000000000000000000000000000000000000000008152600401612331906142dc565b60405180910390fd5b6000612344611bc7565b905061235481878787878761209e565b60005b8451811015612505576000858281518110612375576123746134a3565b5b602002602001015190506000858381518110612394576123936134a3565b5b60200260200101519050600080600084815260200190815260200160002060008b73ffffffffffffffffffffffffffffffffffffffff1673ffffffffffffffffffffffffffffffffffffffff16815260200190815260200160002054905081811015612435576040517f08c379a000000000000000000000000000000000000000000000000000000000815260040161242c9061436e565b60405180910390fd5b81810360008085815260200190815260200160002060008c73ffffffffffffffffffffffffffffffffffffffff1673ffffffffffffffffffffffffffffffffffffffff168152602001908152602001600020819055508160008085815260200190815260200160002060008b73ffffffffffffffffffffffffffffffffffffffff1673ffffffffffffffffffffffffffffffffffffffff16815260200190815260200160002060008282546124ea91906139ef565b92505081905550505050806124fe90613501565b9050612357565b508473ffffffffffffffffffffffffffffffffffffffff168673ffffffffffffffffffffffffffffffffffffffff168273ffffffffffffffffffffffffffffffffffffffff167f4a39dc06d4c0dbc64b70af90fd698a233a518aa5d07e595d983b8c0526c8f7fb878760405161257c92919061438e565b60405180910390a46125928187878787876120a6565b6125a0818787878787612844565b505050505050565b600073ffffffffffffffffffffffffffffffffffffffff168473ffffffffffffffffffffffffffffffffffffffff161415612618576040517f08c379a000000000000000000000000000000000000000000000000000000000815260040161260f906142dc565b60405180910390fd5b6000612622611bc7565b9050600061262f85612024565b9050600061263c85612024565b905061264c83898985858961209e565b600080600088815260200190815260200160002060008a73ffffffffffffffffffffffffffffffffffffffff1673ffffffffffffffffffffffffffffffffffffffff168152602001908152602001600020549050858110156126e3576040517f08c379a00000000000000000000000000000000000000000000000000000000081526004016126da9061436e565b60405180910390fd5b85810360008089815260200190815260200160002060008b73ffffffffffffffffffffffffffffffffffffffff1673ffffffffffffffffffffffffffffffffffffffff168152602001908152602001600020819055508560008089815260200190815260200160002060008a73ffffffffffffffffffffffffffffffffffffffff1673ffffffffffffffffffffffffffffffffffffffff168152602001908152602001600020600082825461279891906139ef565b925050819055508773ffffffffffffffffffffffffffffffffffffffff168973ffffffffffffffffffffffffffffffffffffffff168573ffffffffffffffffffffffffffffffffffffffff167fc3d58168c5ae7397731d063d5bbf3d657854427343f4c083240f7aacaa2d0f628a8a604051612815929190613c8d565b60405180910390a461282b848a8a86868a6120a6565b612839848a8a8a8a8a6120ae565b505050505050505050565b6128638473ffffffffffffffffffffffffffffffffffffffff1661163a565b15612a14578373ffffffffffffffffffffffffffffffffffffffff1663bc197c8187878686866040518663ffffffff1660e01b81526004016128a99594939291906143c5565b6020604051808303816000875af19250505080156128e557506040513d601f19601f820116820180604052508101906128e29190613fc2565b60015b61298b576128f1613ffc565b806308c379a0141561294e575061290661401e565b806129115750612950565b806040517f08c379a00000000000000000000000000000000000000000000000000000000081526004016129459190612dbc565b60405180910390fd5b505b6040517f08c379a000000000000000000000000000000000000000000000000000000000815260040161298290614126565b60405180910390fd5b63bc197c8160e01b7bffffffffffffffffffffffffffffffffffffffffffffffffffffffff1916817bffffffffffffffffffffffffffffffffffffffffffffffffffffffff191614612a12576040517f08c379a0000000000000000000000000000000000000000000000000000000008152600401612a09906141b8565b60405180910390fd5b505b505050505050565b6000604051905090565b600080fd5b600080fd5b600073ffffffffffffffffffffffffffffffffffffffff82169050919050565b6000612a5b82612a30565b9050919050565b612a6b81612a50565b8114612a7657600080fd5b50565b600081359050612a8881612a62565b92915050565b6000819050919050565b612aa181612a8e565b8114612aac57600080fd5b50565b600081359050612abe81612a98565b92915050565b60008060408385031215612adb57612ada612a26565b5b6000612ae985828601612a79565b9250506020612afa85828601612aaf565b9150509250929050565b612b0d81612a8e565b82525050565b6000602082019050612b286000830184612b04565b92915050565b60007fffffffff0000000000000000000000000000000000000000000000000000000082169050919050565b612b6381612b2e565b8114612b6e57600080fd5b50565b600081359050612b8081612b5a565b92915050565b600060208284031215612b9c57612b9b612a26565b5b6000612baa84828501612b71565b91505092915050565b60008115159050919050565b612bc881612bb3565b82525050565b6000602082019050612be36000830184612bbf565b92915050565b600060208284031215612bff57612bfe612a26565b5b6000612c0d84828501612a79565b91505092915050565b600081519050919050565b600082825260208201905092915050565b6000819050602082019050919050565b612c4b81612a8e565b82525050565b6000612c5d8383612c42565b60208301905092915050565b6000602082019050919050565b6000612c8182612c16565b612c8b8185612c21565b9350612c9683612c32565b8060005b83811015612cc7578151612cae8882612c51565b9750612cb983612c69565b925050600181019050612c9a565b5085935050505092915050565b60006020820190508181036000830152612cee8184612c76565b905092915050565b600060208284031215612d0c57612d0b612a26565b5b6000612d1a84828501612aaf565b91505092915050565b600081519050919050565b600082825260208201905092915050565b60005b83811015612d5d578082015181840152602081019050612d42565b83811115612d6c576000848401525b50505050565b6000601f19601f8301169050919050565b6000612d8e82612d23565b612d988185612d2e565b9350612da8818560208601612d3f565b612db181612d72565b840191505092915050565b60006020820190508181036000830152612dd68184612d83565b905092915050565b600080600060608486031215612df757612df6612a26565b5b6000612e0586828701612a79565b9350506020612e1686828701612aaf565b9250506040612e2786828701612aaf565b9150509250925092565b600080fd5b7f4e487b7100000000000000000000000000000000000000000000000000000000600052604160045260246000fd5b612e6e82612d72565b810181811067ffffffffffffffff82111715612e8d57612e8c612e36565b5b80604052505050565b6000612ea0612a1c565b9050612eac8282612e65565b919050565b600067ffffffffffffffff821115612ecc57612ecb612e36565b5b602082029050602081019050919050565b600080fd5b6000612ef5612ef084612eb1565b612e96565b90508083825260208201905060208402830185811115612f1857612f17612edd565b5b835b81811015612f415780612f2d8882612aaf565b845260208401935050602081019050612f1a565b5050509392505050565b600082601f830112612f6057612f5f612e31565b5b8135612f70848260208601612ee2565b91505092915050565b600080fd5b600067ffffffffffffffff821115612f9957612f98612e36565b5b612fa282612d72565b9050602081019050919050565b82818337600083830152505050565b6000612fd1612fcc84612f7e565b612e96565b905082815260208101848484011115612fed57612fec612f79565b5b612ff8848285612faf565b509392505050565b600082601f83011261301557613014612e31565b5b8135613025848260208601612fbe565b91505092915050565b600080600080600060a0868803121561304a57613049612a26565b5b600061305888828901612a79565b955050602061306988828901612a79565b945050604086013567ffffffffffffffff81111561308a57613089612a2b565b5b61309688828901612f4b565b935050606086013567ffffffffffffffff8111156130b7576130b6612a2b565b5b6130c388828901612f4b565b925050608086013567ffffffffffffffff8111156130e4576130e3612a2b565b5b6130f088828901613000565b9150509295509295909350565b600067ffffffffffffffff82111561311857613117612e36565b5b602082029050602081019050919050565b600061313c613137846130fd565b612e96565b9050808382526020820190506020840283018581111561315f5761315e612edd565b5b835b8181101561318857806131748882612a79565b845260208401935050602081019050613161565b5050509392505050565b600082601f8301126131a7576131a6612e31565b5b81356131b7848260208601613129565b91505092915050565b600080604083850312156131d7576131d6612a26565b5b600083013567ffffffffffffffff8111156131f5576131f4612a2b565b5b61320185828601613192565b925050602083013567ffffffffffffffff81111561322257613221612a2b565b5b61322e85828601612f4b565b9150509250929050565b61324181612a50565b82525050565b600060208201905061325c6000830184613238565b92915050565b61326b81612bb3565b811461327657600080fd5b50565b60008135905061328881613262565b92915050565b600080604083850312156132a5576132a4612a26565b5b60006132b385828601612a79565b92505060206132c485828601613279565b9150509250929050565b600080604083850312156132e5576132e4612a26565b5b60006132f385828601612a79565b925050602061330485828601612a79565b9150509250929050565b600080600080600060a0868803121561332a57613329612a26565b5b600061333888828901612a79565b955050602061334988828901612a79565b945050604061335a88828901612aaf565b935050606061336b88828901612aaf565b925050608086013567ffffffffffffffff81111561338c5761338b612a2b565b5b61339888828901613000565b9150509295509295909350565b7f455243313135353a2061646472657373207a65726f206973206e6f742061207660008201527f616c6964206f776e657200000000000000000000000000000000000000000000602082015250565b6000613401602a83612d2e565b915061340c826133a5565b604082019050919050565b60006020820190508181036000830152613430816133f4565b9050919050565b7f61646472657373206e6f74206164646564000000000000000000000000000000600082015250565b600061346d601183612d2e565b915061347882613437565b602082019050919050565b6000602082019050818103600083015261349c81613460565b9050919050565b7f4e487b7100000000000000000000000000000000000000000000000000000000600052603260045260246000fd5b7f4e487b7100000000000000000000000000000000000000000000000000000000600052601160045260246000fd5b600061350c82612a8e565b91507fffffffffffffffffffffffffffffffffffffffffffffffffffffffffffffffff82141561353f5761353e6134d2565b5b600182019050919050565b7f4e487b7100000000000000000000000000000000000000000000000000000000600052602260045260246000fd5b6000600282049050600182168061359157607f821691505b602082108114156135a5576135a461354a565b5b50919050565b7f6f7267616e697a6174696f6e206e6f7420616464656400000000000000000000600082015250565b60006135e1601683612d2e565b91506135ec826135ab565b602082019050919050565b60006020820190508181036000830152613610816135d4565b9050919050565b7f506c6561736520616464206f7267616e697a6174696f6e206669727374000000600082015250565b600061364d601d83612d2e565b915061365882613617565b602082019050919050565b6000602082019050818103600083015261367c81613640565b9050919050565b7f6172656120616c72656164792073657420666f722074686973206f7267616e6960008201527f7a6174696f6e0000000000000000000000000000000000000000000000000000602082015250565b60006136df602683612d2e565b91506136ea82613683565b604082019050919050565b6000602082019050818103600083015261370e816136d2565b9050919050565b7f74686973206f7267616e697a6174696f6e20646f6573206e6f7420686176652060008201527f7065726d697373696f6e20746f20726563656976652070617274206f6620746860208201527f6520626174636800000000000000000000000000000000000000000000000000604082015250565b6000613797604783612d2e565b91506137a282613715565b606082019050919050565b600060208201905081810360008301526137c68161378a565b9050919050565b7f455243313135353a206163636f756e747320616e6420696473206c656e67746860008201527f206d69736d617463680000000000000000000000000000000000000000000000602082015250565b6000613829602983612d2e565b9150613834826137cd565b604082019050919050565b600060208201905081810360008301526138588161381c565b9050919050565b7f746f206578636c756465206163636f756e7420616c746f67657468657220757360008201527f65207375624f7267206d6574686f640000000000000000000000000000000000602082015250565b60006138bb602f83612d2e565b91506138c68261385f565b604082019050919050565b600060208201905081810360008301526138ea816138ae565b9050919050565b7f74686973206163636f756e74206973206e6f742072656769737465726564207460008201527f6f20746865206172656120737065636966696564000000000000000000000000602082015250565b600061394d603483612d2e565b9150613958826138f1565b604082019050919050565b6000602082019050818103600083015261397c81613940565b9050919050565b7f6164647265737320616c72656164792061646465640000000000000000000000600082015250565b60006139b9601583612d2e565b91506139c482613983565b602082019050919050565b600060208201905081810360008301526139e8816139ac565b9050919050565b60006139fa82612a8e565b9150613a0583612a8e565b9250827fffffffffffffffffffffffffffffffffffffffffffffffffffffffffffffffff03821115613a3a57613a396134d2565b5b828201905092915050565b7f74686973206f7267616e697a6174696f6e20646f6573206e6f7420686176652060008201527f7065726d697373696f6e20746f2072656365697665207468697320627564676560208201527f7400000000000000000000000000000000000000000000000000000000000000604082015250565b6000613ac7604183612d2e565b9150613ad282613a45565b606082019050919050565b60006020820190508181036000830152613af681613aba565b9050919050565b7f4f776e61626c653a206e6577206f776e657220697320746865207a65726f206160008201527f6464726573730000000000000000000000000000000000000000000000000000602082015250565b6000613b59602683612d2e565b9150613b6482613afd565b604082019050919050565b60006020820190508181036000830152613b8881613b4c565b9050919050565b7f4f776e61626c653a2063616c6c6572206973206e6f7420746865206f776e6572600082015250565b6000613bc5602083612d2e565b9150613bd082613b8f565b602082019050919050565b60006020820190508181036000830152613bf481613bb8565b9050919050565b7f455243313135353a206d696e7420746f20746865207a65726f2061646472657360008201527f7300000000000000000000000000000000000000000000000000000000000000602082015250565b6000613c57602183612d2e565b9150613c6282613bfb565b604082019050919050565b60006020820190508181036000830152613c8681613c4a565b9050919050565b6000604082019050613ca26000830185612b04565b613caf6020830184612b04565b9392505050565b7f455243313135353a2063616c6c6572206973206e6f7420746f6b656e206f776e60008201527f6572206f7220617070726f766564000000000000000000000000000000000000602082015250565b6000613d12602e83612d2e565b9150613d1d82613cb6565b604082019050919050565b60006020820190508181036000830152613d4181613d05565b9050919050565b7f455243313135353a2073657474696e6720617070726f76616c2073746174757360008201527f20666f722073656c660000000000000000000000000000000000000000000000602082015250565b6000613da4602983612d2e565b9150613daf82613d48565b604082019050919050565b60006020820190508181036000830152613dd381613d97565b9050919050565b7f455243313135353a206275726e2066726f6d20746865207a65726f206164647260008201527f6573730000000000000000000000000000000000000000000000000000000000602082015250565b6000613e36602383612d2e565b9150613e4182613dda565b604082019050919050565b60006020820190508181036000830152613e6581613e29565b9050919050565b7f455243313135353a206275726e20616d6f756e7420657863656564732062616c60008201527f616e636500000000000000000000000000000000000000000000000000000000602082015250565b6000613ec8602483612d2e565b9150613ed382613e6c565b604082019050919050565b60006020820190508181036000830152613ef781613ebb565b9050919050565b600081519050919050565b600082825260208201905092915050565b6000613f2582613efe565b613f2f8185613f09565b9350613f3f818560208601612d3f565b613f4881612d72565b840191505092915050565b600060a082019050613f686000830188613238565b613f756020830187613238565b613f826040830186612b04565b613f8f6060830185612b04565b8181036080830152613fa18184613f1a565b90509695505050505050565b600081519050613fbc81612b5a565b92915050565b600060208284031215613fd857613fd7612a26565b5b6000613fe684828501613fad565b91505092915050565b60008160e01c9050919050565b600060033d111561401b5760046000803e614018600051613fef565b90505b90565b600060443d101561402e576140b1565b614036612a1c565b60043d036004823e80513d602482011167ffffffffffffffff8211171561405e5750506140b1565b808201805167ffffffffffffffff81111561407c57505050506140b1565b80602083010160043d0385018111156140995750505050506140b1565b6140a882602001850186612e65565b82955050505050505b90565b7f455243313135353a207472616e7366657220746f206e6f6e2d4552433131353560008201527f526563656976657220696d706c656d656e746572000000000000000000000000602082015250565b6000614110603483612d2e565b915061411b826140b4565b604082019050919050565b6000602082019050818103600083015261413f81614103565b9050919050565b7f455243313135353a204552433131353552656365697665722072656a6563746560008201527f6420746f6b656e73000000000000000000000000000000000000000000000000602082015250565b60006141a2602883612d2e565b91506141ad82614146565b604082019050919050565b600060208201905081810360008301526141d181614195565b9050919050565b7f455243313135353a2069647320616e6420616d6f756e7473206c656e6774682060008201527f6d69736d61746368000000000000000000000000000000000000000000000000602082015250565b6000614234602883612d2e565b915061423f826141d8565b604082019050919050565b6000602082019050818103600083015261426381614227565b9050919050565b7f455243313135353a207472616e7366657220746f20746865207a65726f20616460008201527f6472657373000000000000000000000000000000000000000000000000000000602082015250565b60006142c6602583612d2e565b91506142d18261426a565b604082019050919050565b600060208201905081810360008301526142f5816142b9565b9050919050565b7f455243313135353a20696e73756666696369656e742062616c616e636520666f60008201527f72207472616e7366657200000000000000000000000000000000000000000000602082015250565b6000614358602a83612d2e565b9150614363826142fc565b604082019050919050565b600060208201905081810360008301526143878161434b565b9050919050565b600060408201905081810360008301526143a88185612c76565b905081810360208301526143bc8184612c76565b90509392505050565b600060a0820190506143da6000830188613238565b6143e76020830187613238565b81810360408301526143f98186612c76565b9050818103606083015261440d8185612c76565b905081810360808301526144218184613f1a565b9050969550505050505056fea2646970667358221220c4a6702177a74596b7d4aebec6074bb96a2188ad5233461f32d47a71f577d70864736f6c634300080a003368747470733a2f2f636f6e736f6c652e66696c65626173652e636f6d2f6275636b6574732f6170702d6f7263616d656e746f2f7b617265617d2e6a736f6e",
  "devdoc": {
    "kind": "dev",
    "methods": {
      "balanceOf(address,uint256)": {
        "details": "See {IERC1155-balanceOf}. Requirements: - `account` cannot be the zero address."
      },
      "balanceOfBatch(address[],uint256[])": {
        "details": "See {IERC1155-balanceOfBatch}. Requirements: - `accounts` and `ids` must have the same length."
      },
      "isApprovedForAll(address,address)": {
        "details": "See {IERC1155-isApprovedForAll}."
      },
      "owner()": {
        "details": "Returns the address of the current owner."
      },
      "renounceOwnership()": {
        "details": "Leaves the contract without owner. It will not be possible to call `onlyOwner` functions anymore. Can only be called by the current owner. NOTE: Renouncing ownership will leave the contract without an owner, thereby removing any functionality that is only available to the owner."
      },
      "setApprovalForAll(address,bool)": {
        "details": "See {IERC1155-setApprovalForAll}."
      },
      "supportsInterface(bytes4)": {
        "details": "See {IERC165-supportsInterface}."
      },
      "transferOwnership(address)": {
        "details": "Transfers ownership of the contract to a new account (`newOwner`). Can only be called by the current owner."
      },
      "uri(uint256)": {
        "details": "See {IERC1155MetadataURI-uri}. This implementation returns the same URI for *all* token types. It relies on the token type ID substitution mechanism https://eips.ethereum.org/EIPS/eip-1155#metadata[defined in the EIP]. Clients calling this function must replace the `\\{id\\}` substring with the actual token type ID."
      }
    },
    "stateVariables": {
      "_orgArea": {
        "details": "maps address to policy area to bool"
      },
      "_totalBurned": {
        "details": "maps policy area to total burned"
      },
      "_totalMinted": {
        "details": "maps policy area to total minted"
      }
    },
    "version": 1
  },
  "userdoc": {
    "kind": "user",
    "methods": {},
    "version": 1
  },
  "storageLayout": {
    "storage": [
      {
        "astId": 138,
        "contract": "contracts/orcamento.sol:OrcamentoUniao2023",
        "label": "_balances",
        "offset": 0,
        "slot": "0",
        "type": "t_mapping(t_uint256,t_mapping(t_address,t_uint256))"
      },
      {
        "astId": 144,
        "contract": "contracts/orcamento.sol:OrcamentoUniao2023",
        "label": "_operatorApprovals",
        "offset": 0,
        "slot": "1",
        "type": "t_mapping(t_address,t_mapping(t_address,t_bool))"
      },
      {
        "astId": 146,
        "contract": "contracts/orcamento.sol:OrcamentoUniao2023",
        "label": "_uri",
        "offset": 0,
        "slot": "2",
        "type": "t_string_storage"
      },
      {
        "astId": 7,
        "contract": "contracts/orcamento.sol:OrcamentoUniao2023",
        "label": "_owner",
        "offset": 0,
        "slot": "3",
        "type": "t_address"
      },
      {
        "astId": 1916,
        "contract": "contracts/orcamento.sol:OrcamentoUniao2023",
        "label": "_orgArea",
        "offset": 0,
        "slot": "4",
        "type": "t_mapping(t_address,t_mapping(t_uint256,t_bool))"
      },
      {
        "astId": 1921,
        "contract": "contracts/orcamento.sol:OrcamentoUniao2023",
        "label": "_totalMinted",
        "offset": 0,
        "slot": "5",
        "type": "t_mapping(t_uint256,t_uint256)"
      },
      {
        "astId": 1926,
        "contract": "contracts/orcamento.sol:OrcamentoUniao2023",
        "label": "_totalBurned",
        "offset": 0,
        "slot": "6",
        "type": "t_mapping(t_uint256,t_uint256)"
      },
      {
        "astId": 1929,
        "contract": "contracts/orcamento.sol:OrcamentoUniao2023",
        "label": "OUTROS",
        "offset": 0,
        "slot": "7",
        "type": "t_uint256"
      },
      {
        "astId": 1932,
        "contract": "contracts/orcamento.sol:OrcamentoUniao2023",
        "label": "EDUCACAO",
        "offset": 0,
        "slot": "8",
        "type": "t_uint256"
      },
      {
        "astId": 1935,
        "contract": "contracts/orcamento.sol:OrcamentoUniao2023",
        "label": "INFRA",
        "offset": 0,
        "slot": "9",
        "type": "t_uint256"
      },
      {
        "astId": 1938,
        "contract": "contracts/orcamento.sol:OrcamentoUniao2023",
        "label": "SAUDE",
        "offset": 0,
        "slot": "10",
        "type": "t_uint256"
      },
      {
        "astId": 1946,
        "contract": "contracts/orcamento.sol:OrcamentoUniao2023",
        "label": "AREAS",
        "offset": 0,
        "slot": "11",
        "type": "t_array(t_uint256)dyn_storage"
      },
      {
        "astId": 1951,
        "contract": "contracts/orcamento.sol:OrcamentoUniao2023",
        "label": "_budget",
        "offset": 0,
        "slot": "12",
        "type": "t_uint256"
      },
      {
        "astId": 1954,
        "contract": "contracts/orcamento.sol:OrcamentoUniao2023",
        "label": "_ed",
        "offset": 0,
        "slot": "13",
        "type": "t_uint256"
      },
      {
        "astId": 1957,
        "contract": "contracts/orcamento.sol:OrcamentoUniao2023",
        "label": "_infra",
        "offset": 0,
        "slot": "14",
        "type": "t_uint256"
      },
      {
        "astId": 1960,
        "contract": "contracts/orcamento.sol:OrcamentoUniao2023",
        "label": "_health",
        "offset": 0,
        "slot": "15",
        "type": "t_uint256"
      },
      {
        "astId": 1969,
        "contract": "contracts/orcamento.sol:OrcamentoUniao2023",
        "label": "_other",
        "offset": 0,
        "slot": "16",
        "type": "t_uint256"
      },
      {
        "astId": 1977,
        "contract": "contracts/orcamento.sol:OrcamentoUniao2023",
        "label": "_budgetPart",
        "offset": 0,
        "slot": "17",
        "type": "t_array(t_uint256)dyn_storage"
      }
    ],
    "types": {
      "t_address": {
        "encoding": "inplace",
        "label": "address",
        "numberOfBytes": "20"
      },
      "t_array(t_uint256)dyn_storage": {
        "base": "t_uint256",
        "encoding": "dynamic_array",
        "label": "uint256[]",
        "numberOfBytes": "32"
      },
      "t_bool": {
        "encoding": "inplace",
        "label": "bool",
        "numberOfBytes": "1"
      },
      "t_mapping(t_address,t_bool)": {
        "encoding": "mapping",
        "key": "t_address",
        "label": "mapping(address => bool)",
        "numberOfBytes": "32",
        "value": "t_bool"
      },
      "t_mapping(t_address,t_mapping(t_address,t_bool))": {
        "encoding": "mapping",
        "key": "t_address",
        "label": "mapping(address => mapping(address => bool))",
        "numberOfBytes": "32",
        "value": "t_mapping(t_address,t_bool)"
      },
      "t_mapping(t_address,t_mapping(t_uint256,t_bool))": {
        "encoding": "mapping",
        "key": "t_address",
        "label": "mapping(address => mapping(uint256 => bool))",
        "numberOfBytes": "32",
        "value": "t_mapping(t_uint256,t_bool)"
      },
      "t_mapping(t_address,t_uint256)": {
        "encoding": "mapping",
        "key": "t_address",
        "label": "mapping(address => uint256)",
        "numberOfBytes": "32",
        "value": "t_uint256"
      },
      "t_mapping(t_uint256,t_bool)": {
        "encoding": "mapping",
        "key": "t_uint256",
        "label": "mapping(uint256 => bool)",
        "numberOfBytes": "32",
        "value": "t_bool"
      },
      "t_mapping(t_uint256,t_mapping(t_address,t_uint256))": {
        "encoding": "mapping",
        "key": "t_uint256",
        "label": "mapping(uint256 => mapping(address => uint256))",
        "numberOfBytes": "32",
        "value": "t_mapping(t_address,t_uint256)"
      },
      "t_mapping(t_uint256,t_uint256)": {
        "encoding": "mapping",
        "key": "t_uint256",
        "label": "mapping(uint256 => uint256)",
        "numberOfBytes": "32",
        "value": "t_uint256"
      },
      "t_string_storage": {
        "encoding": "bytes",
        "label": "string",
        "numberOfBytes": "32"
      },
      "t_uint256": {
        "encoding": "inplace",
        "label": "uint256",
        "numberOfBytes": "32"
      }
    }
  }
}