{
  "address": "0x5FbDB2315678afecb367f032d93F642f64180aa3",
  "abi": [
    {
      "inputs": [],
      "stateMutability": "nonpayable",
      "type": "constructor"
    },
    {
      "anonymous": false,
      "inputs": [
        {
          "indexed": true,
          "internalType": "address",
          "name": "account",
          "type": "address"
        },
        {
          "indexed": true,
          "internalType": "address",
          "name": "operator",
          "type": "address"
        },
        {
          "indexed": false,
          "internalType": "bool",
          "name": "approved",
          "type": "bool"
        }
      ],
      "name": "ApprovalForAll",
      "type": "event"
    },
    {
      "anonymous": false,
      "inputs": [
        {
          "indexed": true,
          "internalType": "address",
          "name": "previousOwner",
          "type": "address"
        },
        {
          "indexed": true,
          "internalType": "address",
          "name": "newOwner",
          "type": "address"
        }
      ],
      "name": "OwnershipTransferred",
      "type": "event"
    },
    {
      "anonymous": false,
      "inputs": [
        {
          "indexed": true,
          "internalType": "address",
          "name": "account",
          "type": "address"
        },
        {
          "indexed": true,
          "internalType": "uint256",
          "name": "area",
          "type": "uint256"
        },
        {
          "indexed": true,
          "internalType": "bool",
          "name": "added",
          "type": "bool"
        },
        {
          "indexed": false,
          "internalType": "string",
          "name": "name",
          "type": "string"
        }
      ],
      "name": "Registry",
      "type": "event"
    },
    {
      "anonymous": false,
      "inputs": [
        {
          "indexed": true,
          "internalType": "address",
          "name": "operator",
          "type": "address"
        },
        {
          "indexed": true,
          "internalType": "address",
          "name": "from",
          "type": "address"
        },
        {
          "indexed": true,
          "internalType": "address",
          "name": "to",
          "type": "address"
        },
        {
          "indexed": false,
          "internalType": "uint256[]",
          "name": "ids",
          "type": "uint256[]"
        },
        {
          "indexed": false,
          "internalType": "uint256[]",
          "name": "values",
          "type": "uint256[]"
        }
      ],
      "name": "TransferBatch",
      "type": "event"
    },
    {
      "anonymous": false,
      "inputs": [
        {
          "indexed": true,
          "internalType": "address",
          "name": "operator",
          "type": "address"
        },
        {
          "indexed": true,
          "internalType": "address",
          "name": "from",
          "type": "address"
        },
        {
          "indexed": true,
          "internalType": "address",
          "name": "to",
          "type": "address"
        },
        {
          "indexed": false,
          "internalType": "uint256",
          "name": "id",
          "type": "uint256"
        },
        {
          "indexed": false,
          "internalType": "uint256",
          "name": "value",
          "type": "uint256"
        }
      ],
      "name": "TransferSingle",
      "type": "event"
    },
    {
      "anonymous": false,
      "inputs": [
        {
          "indexed": false,
          "internalType": "string",
          "name": "value",
          "type": "string"
        },
        {
          "indexed": true,
          "internalType": "uint256",
          "name": "id",
          "type": "uint256"
        }
      ],
      "name": "URI",
      "type": "event"
    },
    {
      "inputs": [
        {
          "internalType": "uint256",
          "name": "",
          "type": "uint256"
        }
      ],
      "name": "AREAS",
      "outputs": [
        {
          "internalType": "uint256",
          "name": "",
          "type": "uint256"
        }
      ],
      "stateMutability": "view",
      "type": "function"
    },
    {
      "inputs": [],
      "name": "EDUCACAO",
      "outputs": [
        {
          "internalType": "uint256",
          "name": "",
          "type": "uint256"
        }
      ],
      "stateMutability": "view",
      "type": "function"
    },
    {
      "inputs": [],
      "name": "INFRA",
      "outputs": [
        {
          "internalType": "uint256",
          "name": "",
          "type": "uint256"
        }
      ],
      "stateMutability": "view",
      "type": "function"
    },
    {
      "inputs": [],
      "name": "OUTROS",
      "outputs": [
        {
          "internalType": "uint256",
          "name": "",
          "type": "uint256"
        }
      ],
      "stateMutability": "view",
      "type": "function"
    },
    {
      "inputs": [],
      "name": "SAUDE",
      "outputs": [
        {
          "internalType": "uint256",
          "name": "",
          "type": "uint256"
        }
      ],
      "stateMutability": "view",
      "type": "function"
    },
    {
      "inputs": [
        {
          "internalType": "address",
          "name": "org",
          "type": "address"
        },
        {
          "internalType": "uint256",
          "name": "area",
          "type": "uint256"
        }
      ],
      "name": "addArea",
      "outputs": [],
      "stateMutability": "nonpayable",
      "type": "function"
    },
    {
      "inputs": [
        {
          "internalType": "address",
          "name": "org",
          "type": "address"
        },
        {
          "internalType": "uint256",
          "name": "area",
          "type": "uint256"
        },
        {
          "internalType": "string",
          "name": "name",
          "type": "string"
        }
      ],
      "name": "addOrg",
      "outputs": [],
      "stateMutability": "nonpayable",
      "type": "function"
    },
    {
      "inputs": [
        {
          "internalType": "address",
          "name": "account",
          "type": "address"
        },
        {
          "internalType": "uint256",
          "name": "id",
          "type": "uint256"
        }
      ],
      "name": "balanceOf",
      "outputs": [
        {
          "internalType": "uint256",
          "name": "",
          "type": "uint256"
        }
      ],
      "stateMutability": "view",
      "type": "function"
    },
    {
      "inputs": [
        {
          "internalType": "address[]",
          "name": "accounts",
          "type": "address[]"
        },
        {
          "internalType": "uint256[]",
          "name": "ids",
          "type": "uint256[]"
        }
      ],
      "name": "balanceOfBatch",
      "outputs": [
        {
          "internalType": "uint256[]",
          "name": "",
          "type": "uint256[]"
        }
      ],
      "stateMutability": "view",
      "type": "function"
    },
    {
      "inputs": [
        {
          "internalType": "string",
          "name": "name",
          "type": "string"
        }
      ],
      "name": "getAddress",
      "outputs": [
        {
          "internalType": "address",
          "name": "",
          "type": "address"
        }
      ],
      "stateMutability": "view",
      "type": "function"
    },
    {
      "inputs": [
        {
          "internalType": "address",
          "name": "org",
          "type": "address"
        }
      ],
      "name": "getAreas",
      "outputs": [
        {
          "internalType": "uint256[]",
          "name": "",
          "type": "uint256[]"
        }
      ],
      "stateMutability": "view",
      "type": "function"
    },
    {
      "inputs": [
        {
          "internalType": "address",
          "name": "org",
          "type": "address"
        }
      ],
      "name": "getName",
      "outputs": [
        {
          "internalType": "string",
          "name": "",
          "type": "string"
        }
      ],
      "stateMutability": "view",
      "type": "function"
    },
    {
      "inputs": [
        {
          "internalType": "address",
          "name": "account",
          "type": "address"
        },
        {
          "internalType": "address",
          "name": "operator",
          "type": "address"
        }
      ],
      "name": "isApprovedForAll",
      "outputs": [
        {
          "internalType": "bool",
          "name": "",
          "type": "bool"
        }
      ],
      "stateMutability": "view",
      "type": "function"
    },
    {
      "inputs": [],
      "name": "owner",
      "outputs": [
        {
          "internalType": "address",
          "name": "",
          "type": "address"
        }
      ],
      "stateMutability": "view",
      "type": "function"
    },
    {
      "inputs": [],
      "name": "renounceOwnership",
      "outputs": [],
      "stateMutability": "nonpayable",
      "type": "function"
    },
    {
      "inputs": [
        {
          "internalType": "address",
          "name": "from",
          "type": "address"
        },
        {
          "internalType": "address",
          "name": "to",
          "type": "address"
        },
        {
          "internalType": "uint256[]",
          "name": "areas",
          "type": "uint256[]"
        },
        {
          "internalType": "uint256[]",
          "name": "amounts",
          "type": "uint256[]"
        },
        {
          "internalType": "bytes",
          "name": "data",
          "type": "bytes"
        }
      ],
      "name": "safeBatchTransferFrom",
      "outputs": [],
      "stateMutability": "nonpayable",
      "type": "function"
    },
    {
      "inputs": [
        {
          "internalType": "address",
          "name": "from",
          "type": "address"
        },
        {
          "internalType": "address",
          "name": "to",
          "type": "address"
        },
        {
          "internalType": "uint256",
          "name": "area",
          "type": "uint256"
        },
        {
          "internalType": "uint256",
          "name": "amount",
          "type": "uint256"
        },
        {
          "internalType": "bytes",
          "name": "data",
          "type": "bytes"
        }
      ],
      "name": "safeTransferFrom",
      "outputs": [],
      "stateMutability": "nonpayable",
      "type": "function"
    },
    {
      "inputs": [
        {
          "internalType": "address",
          "name": "operator",
          "type": "address"
        },
        {
          "internalType": "bool",
          "name": "approved",
          "type": "bool"
        }
      ],
      "name": "setApprovalForAll",
      "outputs": [],
      "stateMutability": "nonpayable",
      "type": "function"
    },
    {
      "inputs": [
        {
          "internalType": "address",
          "name": "org",
          "type": "address"
        },
        {
          "internalType": "uint256",
          "name": "area",
          "type": "uint256"
        }
      ],
      "name": "subArea",
      "outputs": [],
      "stateMutability": "nonpayable",
      "type": "function"
    },
    {
      "inputs": [
        {
          "internalType": "address",
          "name": "org",
          "type": "address"
        }
      ],
      "name": "subOrg",
      "outputs": [],
      "stateMutability": "nonpayable",
      "type": "function"
    },
    {
      "inputs": [
        {
          "internalType": "bytes4",
          "name": "interfaceId",
          "type": "bytes4"
        }
      ],
      "name": "supportsInterface",
      "outputs": [
        {
          "internalType": "bool",
          "name": "",
          "type": "bool"
        }
      ],
      "stateMutability": "view",
      "type": "function"
    },
    {
      "inputs": [
        {
          "internalType": "address",
          "name": "newOwner",
          "type": "address"
        }
      ],
      "name": "transferOwnership",
      "outputs": [],
      "stateMutability": "nonpayable",
      "type": "function"
    },
    {
      "inputs": [
        {
          "internalType": "uint256",
          "name": "",
          "type": "uint256"
        }
      ],
      "name": "uri",
      "outputs": [
        {
          "internalType": "string",
          "name": "",
          "type": "string"
        }
      ],
      "stateMutability": "view",
      "type": "function"
    }
  ],
  "transactionHash": "0x7e3b4334e892e8a9407be299e72a027922a2d109d91f16f39f12481d9feef5eb",
  "args": [],
  "numDeployments": 1,
  "solcInputHash": "bd203d43bbb784d6e0664c8cea1c93a9",
  "bytecode": "0x60806040526000600755600160085560026009556003600a556040518060800160405280600754815260200160085481526020016009548152602001600a54815250600b906004620000539291906200078e565b5064e8d4a51000600c556005600d55600a600e556005600f553480156200007957600080fd5b506040518060600160405280603e815260200162004f5e603e9139620000a5816200020e60201b60201c565b50620000c6620000ba6200022a60201b60201c565b6200023260201b60201c565b6200010a33600a546064600f54600c54620000e29190620008c9565b620000ee919062000959565b60405180602001604052806000815250620002f860201b60201c565b6200014e336008546064600d54600c54620001269190620008c9565b62000132919062000959565b60405180602001604052806000815250620002f860201b60201c565b62000192336009546064600e54600c546200016a9190620008c9565b62000176919062000959565b60405180602001604052806000815250620002f860201b60201c565b6000600e54600d54600f546064620001ab919062000991565b620001b7919062000991565b620001c3919062000991565b90506200020733600754606484600c54620001df9190620008c9565b620001eb919062000959565b60405180602001604052806000815250620002f860201b60201c565b5062001068565b806002908051906020019062000226929190620007e0565b5050565b600033905090565b6000600360009054906101000a900473ffffffffffffffffffffffffffffffffffffffff16905081600360006101000a81548173ffffffffffffffffffffffffffffffffffffffff021916908373ffffffffffffffffffffffffffffffffffffffff1602179055508173ffffffffffffffffffffffffffffffffffffffff168173ffffffffffffffffffffffffffffffffffffffff167f8be0079c531659141344cd1fd0a4f28419497f9722a3daafe3b4186f6b6457e060405160405180910390a35050565b600073ffffffffffffffffffffffffffffffffffffffff168473ffffffffffffffffffffffffffffffffffffffff1614156200036b576040517f08c379a0000000000000000000000000000000000000000000000000000000008152600401620003629062000a53565b60405180910390fd5b60006200037d6200022a60201b60201c565b905060006200039285620004e060201b60201c565b90506000620003a785620004e060201b60201c565b9050620003c0836000898585896200056160201b60201c565b8460008088815260200190815260200160002060008973ffffffffffffffffffffffffffffffffffffffff1673ffffffffffffffffffffffffffffffffffffffff168152602001908152602001600020600082825462000421919062000a75565b925050819055508673ffffffffffffffffffffffffffffffffffffffff16600073ffffffffffffffffffffffffffffffffffffffff168473ffffffffffffffffffffffffffffffffffffffff167fc3d58168c5ae7397731d063d5bbf3d657854427343f4c083240f7aacaa2d0f628989604051620004a192919062000ae3565b60405180910390a4620004c0836000898585896200056960201b60201c565b620004d7836000898989896200057160201b60201c565b50505050505050565b60606000600167ffffffffffffffff81111562000502576200050162000b10565b5b604051908082528060200260200182016040528015620005315781602001602082028036833780820191505090505b50905082816000815181106200054c576200054b62000b3f565b5b60200260200101818152505080915050919050565b505050505050565b505050505050565b6200059d8473ffffffffffffffffffffffffffffffffffffffff166200076b60201b620014ff1760201c565b1562000763578373ffffffffffffffffffffffffffffffffffffffff1663f23a6e6187878686866040518663ffffffff1660e01b8152600401620005e695949392919062000c57565b6020604051808303816000875af19250505080156200062557506040513d601f19601f8201168201806040525081019062000622919062000d27565b60015b620006d7576200063462000d66565b806308c379a014156200069857506200064c62000dc1565b806200065957506200069a565b806040517f08c379a00000000000000000000000000000000000000000000000000000000081526004016200068f919062000eaf565b60405180910390fd5b505b6040517f08c379a0000000000000000000000000000000000000000000000000000000008152600401620006ce9062000f49565b60405180910390fd5b63f23a6e6160e01b7bffffffffffffffffffffffffffffffffffffffffffffffffffffffff1916817bffffffffffffffffffffffffffffffffffffffffffffffffffffffff19161462000761576040517f08c379a0000000000000000000000000000000000000000000000000000000008152600401620007589062000fe1565b60405180910390fd5b505b505050505050565b6000808273ffffffffffffffffffffffffffffffffffffffff163b119050919050565b828054828255906000526020600020908101928215620007cd579160200282015b82811115620007cc578251825591602001919060010190620007af565b5b509050620007dc919062000871565b5090565b828054620007ee9062001032565b90600052602060002090601f0160209004810192826200081257600085556200085e565b82601f106200082d57805160ff19168380011785556200085e565b828001600101855582156200085e579182015b828111156200085d57825182559160200191906001019062000840565b5b5090506200086d919062000871565b5090565b5b808211156200088c57600081600090555060010162000872565b5090565b6000819050919050565b7f4e487b7100000000000000000000000000000000000000000000000000000000600052601160045260246000fd5b6000620008d68262000890565b9150620008e38362000890565b9250817fffffffffffffffffffffffffffffffffffffffffffffffffffffffffffffffff04831182151516156200091f576200091e6200089a565b5b828202905092915050565b7f4e487b7100000000000000000000000000000000000000000000000000000000600052601260045260246000fd5b6000620009668262000890565b9150620009738362000890565b9250826200098657620009856200092a565b5b828204905092915050565b60006200099e8262000890565b9150620009ab8362000890565b925082821015620009c157620009c06200089a565b5b828203905092915050565b600082825260208201905092915050565b7f455243313135353a206d696e7420746f20746865207a65726f2061646472657360008201527f7300000000000000000000000000000000000000000000000000000000000000602082015250565b600062000a3b602183620009cc565b915062000a4882620009dd565b604082019050919050565b6000602082019050818103600083015262000a6e8162000a2c565b9050919050565b600062000a828262000890565b915062000a8f8362000890565b9250827fffffffffffffffffffffffffffffffffffffffffffffffffffffffffffffffff0382111562000ac75762000ac66200089a565b5b828201905092915050565b62000add8162000890565b82525050565b600060408201905062000afa600083018562000ad2565b62000b09602083018462000ad2565b9392505050565b7f4e487b7100000000000000000000000000000000000000000000000000000000600052604160045260246000fd5b7f4e487b7100000000000000000000000000000000000000000000000000000000600052603260045260246000fd5b600073ffffffffffffffffffffffffffffffffffffffff82169050919050565b600062000b9b8262000b6e565b9050919050565b62000bad8162000b8e565b82525050565b600081519050919050565b600082825260208201905092915050565b60005b8381101562000bef57808201518184015260208101905062000bd2565b8381111562000bff576000848401525b50505050565b6000601f19601f8301169050919050565b600062000c238262000bb3565b62000c2f818562000bbe565b935062000c4181856020860162000bcf565b62000c4c8162000c05565b840191505092915050565b600060a08201905062000c6e600083018862000ba2565b62000c7d602083018762000ba2565b62000c8c604083018662000ad2565b62000c9b606083018562000ad2565b818103608083015262000caf818462000c16565b90509695505050505050565b6000604051905090565b600080fd5b60007fffffffff0000000000000000000000000000000000000000000000000000000082169050919050565b62000d018162000cca565b811462000d0d57600080fd5b50565b60008151905062000d218162000cf6565b92915050565b60006020828403121562000d405762000d3f62000cc5565b5b600062000d508482850162000d10565b91505092915050565b60008160e01c9050919050565b600060033d111562000d885760046000803e62000d8560005162000d59565b90505b90565b62000d968262000c05565b810181811067ffffffffffffffff8211171562000db85762000db762000b10565b5b80604052505050565b600060443d101562000dd35762000e60565b62000ddd62000cbb565b60043d036004823e80513d602482011167ffffffffffffffff8211171562000e0757505062000e60565b808201805167ffffffffffffffff81111562000e27575050505062000e60565b80602083010160043d03850181111562000e4657505050505062000e60565b62000e578260200185018662000d8b565b82955050505050505b90565b600081519050919050565b600062000e7b8262000e63565b62000e878185620009cc565b935062000e9981856020860162000bcf565b62000ea48162000c05565b840191505092915050565b6000602082019050818103600083015262000ecb818462000e6e565b905092915050565b7f455243313135353a207472616e7366657220746f206e6f6e2d4552433131353560008201527f526563656976657220696d706c656d656e746572000000000000000000000000602082015250565b600062000f31603483620009cc565b915062000f3e8262000ed3565b604082019050919050565b6000602082019050818103600083015262000f648162000f22565b9050919050565b7f455243313135353a204552433131353552656365697665722072656a6563746560008201527f6420746f6b656e73000000000000000000000000000000000000000000000000602082015250565b600062000fc9602883620009cc565b915062000fd68262000f6b565b604082019050919050565b6000602082019050818103600083015262000ffc8162000fba565b9050919050565b7f4e487b7100000000000000000000000000000000000000000000000000000000600052602260045260246000fd5b600060028204905060018216806200104b57607f821691505b6020821081141562001062576200106162001003565b5b50919050565b613ee680620010786000396000f3fe608060405234801561001057600080fd5b506004361061014c5760003560e01c806361ae0309116100c3578063bf40fac11161007c578063bf40fac1146103ad578063db401541146103dd578063e985e9c5146103fb578063f242432a1461042b578063f2fde38b14610447578063f84f7dd0146104635761014c565b806361ae030914610301578063715018a61461031d5780637f14ba3f146103275780637f7063e7146103435780638da5cb5b14610373578063a22cb465146103915761014c565b80631ef16b43116101155780631ef16b431461021957806321636aa51461023757806328eece13146102555780632eb2c2d6146102855780634e1273f4146102a15780635fd4b08a146102d15761014c565b8062fdd58e1461015157806301ffc9a7146101815780630c89c421146101b15780630e89341c146101cd578063169bc486146101fd575b600080fd5b61016b600480360381019061016691906125a4565b610481565b60405161017891906125f3565b60405180910390f35b61019b60048036038101906101969190612666565b61054a565b6040516101a891906126ae565b60405180910390f35b6101cb60048036038101906101c691906126c9565b61062c565b005b6101e760048036038101906101e291906126f6565b610830565b6040516101f491906127bc565b60405180910390f35b610217600480360381019061021291906125a4565b6108c4565b005b610221610a80565b60405161022e91906125f3565b60405180910390f35b61023f610a86565b60405161024c91906125f3565b60405180910390f35b61026f600480360381019061026a91906126c9565b610a8c565b60405161027c919061289c565b60405180910390f35b61029f600480360381019061029a9190612abb565b610c57565b005b6102bb60048036038101906102b69190612c4d565b610d49565b6040516102c8919061289c565b60405180910390f35b6102eb60048036038101906102e691906126c9565b610e62565b6040516102f891906127bc565b60405180910390f35b61031b60048036038101906103169190612d66565b610f33565b005b61032561110b565b005b610341600480360381019061033c91906125a4565b61111f565b005b61035d600480360381019061035891906126f6565b611277565b60405161036a91906125f3565b60405180910390f35b61037b61129b565b6040516103889190612de4565b60405180910390f35b6103ab60048036038101906103a69190612e2b565b6112c5565b005b6103c760048036038101906103c29190612e6b565b6112db565b6040516103d49190612de4565b60405180910390f35b6103e5611323565b6040516103f291906125f3565b60405180910390f35b61041560048036038101906104109190612eb4565b611329565b60405161042291906126ae565b60405180910390f35b61044560048036038101906104409190612ef4565b6113bd565b005b610461600480360381019061045c91906126c9565b611475565b005b61046b6114f9565b60405161047891906125f3565b60405180910390f35b60008073ffffffffffffffffffffffffffffffffffffffff168373ffffffffffffffffffffffffffffffffffffffff1614156104f2576040517f08c379a00000000000000000000000000000000000000000000000000000000081526004016104e990612ffd565b60405180910390fd5b60008083815260200190815260200160002060008473ffffffffffffffffffffffffffffffffffffffff1673ffffffffffffffffffffffffffffffffffffffff16815260200190815260200160002054905092915050565b60007fd9b67a26000000000000000000000000000000000000000000000000000000007bffffffffffffffffffffffffffffffffffffffffffffffffffffffff1916827bffffffffffffffffffffffffffffffffffffffffffffffffffffffff1916148061061557507f0e89341c000000000000000000000000000000000000000000000000000000007bffffffffffffffffffffffffffffffffffffffffffffffffffffffff1916827bffffffffffffffffffffffffffffffffffffffffffffffffffffffff1916145b80610625575061062482611522565b5b9050919050565b61063461158c565b60011515600460008373ffffffffffffffffffffffffffffffffffffffff1673ffffffffffffffffffffffffffffffffffffffff1681526020019081526020016000206000600754815260200190815260200160002060009054906101000a900460ff161515146106da576040517f08c379a00000000000000000000000000000000000000000000000000000000081526004016106d190613069565b60405180910390fd5b60006106e582610a8c565b905060005b815181101561082a5760001515600460008573ffffffffffffffffffffffffffffffffffffffff1673ffffffffffffffffffffffffffffffffffffffff168152602001908152602001600020600084848151811061074b5761074a613089565b5b6020026020010151815260200190815260200160002060009054906101000a900460ff161515141561077e57505061082d565b6000151582828151811061079557610794613089565b5b60200260200101518473ffffffffffffffffffffffffffffffffffffffff167fb8ab71d168de2395481e4653bcaf8113b8d414ee4f783094c4a67ec50b060f286107de87610e62565b6040516107eb91906127bc565b60405180910390a46108178383838151811061080a57610809613089565b5b602002602001015161160a565b8080610822906130e7565b9150506106ea565b50505b50565b60606002805461083f9061315f565b80601f016020809104026020016040519081016040528092919081815260200182805461086b9061315f565b80156108b85780601f1061088d576101008083540402835291602001916108b8565b820191906000526020600020905b81548152906001019060200180831161089b57829003601f168201915b50505050509050919050565b6108cc61158c565b60011515600460008473ffffffffffffffffffffffffffffffffffffffff1673ffffffffffffffffffffffffffffffffffffffff1681526020019081526020016000206000600754815260200190815260200160002060009054906101000a900460ff16151514610972576040517f08c379a0000000000000000000000000000000000000000000000000000000008152600401610969906131dd565b60405180910390fd5b60011515600460008473ffffffffffffffffffffffffffffffffffffffff1673ffffffffffffffffffffffffffffffffffffffff168152602001908152602001600020600083815260200190815260200160002060009054906101000a900460ff1615151415610a17576040517f08c379a0000000000000000000000000000000000000000000000000000000008152600401610a0e9061326f565b60405180910390fd5b60011515818373ffffffffffffffffffffffffffffffffffffffff167fb8ab71d168de2395481e4653bcaf8113b8d414ee4f783094c4a67ec50b060f28610a5d86610e62565b604051610a6a91906127bc565b60405180910390a4610a7c8282611677565b5050565b60095481565b60075481565b606060011515600460008473ffffffffffffffffffffffffffffffffffffffff1673ffffffffffffffffffffffffffffffffffffffff1681526020019081526020016000206000600754815260200190815260200160002060009054906101000a900460ff16151514610b34576040517f08c379a0000000000000000000000000000000000000000000000000000000008152600401610b2b906132db565b60405180910390fd5b6000600b8054905067ffffffffffffffff811115610b5557610b546128c3565b5b604051908082528060200260200182016040528015610b835781602001602082028036833780820191505090505b5090506000600190506000600190505b600b80549050811015610c4c5760011515600460008773ffffffffffffffffffffffffffffffffffffffff1673ffffffffffffffffffffffffffffffffffffffff168152602001908152602001600020600083815260200190815260200160002060009054906101000a900460ff1615151415610c395780838381518110610c1e57610c1d613089565b5b6020026020010181815250508180610c35906130e7565b9250505b8080610c44906130e7565b915050610b93565b508192505050919050565b60005b8351811015610d345760011515600460008773ffffffffffffffffffffffffffffffffffffffff1673ffffffffffffffffffffffffffffffffffffffff1681526020019081526020016000206000868481518110610cbb57610cba613089565b5b6020026020010151815260200190815260200160002060009054906101000a900460ff16151514610d21576040517f08c379a0000000000000000000000000000000000000000000000000000000008152600401610d1890613393565b60405180910390fd5b8080610d2c906130e7565b915050610c5a565b50610d4285858585856116e4565b5050505050565b60608151835114610d8f576040517f08c379a0000000000000000000000000000000000000000000000000000000008152600401610d8690613425565b60405180910390fd5b6000835167ffffffffffffffff811115610dac57610dab6128c3565b5b604051908082528060200260200182016040528015610dda5781602001602082028036833780820191505090505b50905060005b8451811015610e5757610e27858281518110610dff57610dfe613089565b5b6020026020010151858381518110610e1a57610e19613089565b5b6020026020010151610481565b828281518110610e3a57610e39613089565b5b60200260200101818152505080610e50906130e7565b9050610de0565b508091505092915050565b6060600560008373ffffffffffffffffffffffffffffffffffffffff1673ffffffffffffffffffffffffffffffffffffffff1681526020019081526020016000208054610eae9061315f565b80601f0160208091040260200160405190810160405280929190818152602001828054610eda9061315f565b8015610f275780601f10610efc57610100808354040283529160200191610f27565b820191906000526020600020905b815481529060010190602001808311610f0a57829003601f168201915b50505050509050919050565b610f3b61158c565b60011515600460008573ffffffffffffffffffffffffffffffffffffffff1673ffffffffffffffffffffffffffffffffffffffff1681526020019081526020016000206000600754815260200190815260200160002060009054906101000a900460ff1615151415610fe2576040517f08c379a0000000000000000000000000000000000000000000000000000000008152600401610fd990613491565b60405180910390fd5b610fee83600754611677565b80600560008573ffffffffffffffffffffffffffffffffffffffff1673ffffffffffffffffffffffffffffffffffffffff1681526020019081526020016000209080519060200190611041929190612459565b508260068260405161105391906134ed565b908152602001604051809103902060006101000a81548173ffffffffffffffffffffffffffffffffffffffff021916908373ffffffffffffffffffffffffffffffffffffffff16021790555060011515828473ffffffffffffffffffffffffffffffffffffffff167fb8ab71d168de2395481e4653bcaf8113b8d414ee4f783094c4a67ec50b060f28846040516110ea91906127bc565b60405180910390a46007548214611106576111058383611677565b5b505050565b61111361158c565b61111d6000611785565b565b61112761158c565b6000811161116a576040517f08c379a000000000000000000000000000000000000000000000000000000000815260040161116190613576565b60405180910390fd5b60011515600460008473ffffffffffffffffffffffffffffffffffffffff1673ffffffffffffffffffffffffffffffffffffffff168152602001908152602001600020600083815260200190815260200160002060009054906101000a900460ff1615151461120e576040517f08c379a000000000000000000000000000000000000000000000000000000000815260040161120590613608565b60405180910390fd5b60001515818373ffffffffffffffffffffffffffffffffffffffff167fb8ab71d168de2395481e4653bcaf8113b8d414ee4f783094c4a67ec50b060f2861125486610e62565b60405161126191906127bc565b60405180910390a4611273828261160a565b5050565b600b818154811061128757600080fd5b906000526020600020016000915090505481565b6000600360009054906101000a900473ffffffffffffffffffffffffffffffffffffffff16905090565b6112d76112d061184b565b8383611853565b5050565b60006006826040516112ed91906134ed565b908152602001604051809103902060009054906101000a900473ffffffffffffffffffffffffffffffffffffffff169050919050565b60085481565b6000600160008473ffffffffffffffffffffffffffffffffffffffff1673ffffffffffffffffffffffffffffffffffffffff16815260200190815260200160002060008373ffffffffffffffffffffffffffffffffffffffff1673ffffffffffffffffffffffffffffffffffffffff16815260200190815260200160002060009054906101000a900460ff16905092915050565b60011515600460008673ffffffffffffffffffffffffffffffffffffffff1673ffffffffffffffffffffffffffffffffffffffff168152602001908152602001600020600085815260200190815260200160002060009054906101000a900460ff16151514611461576040517f08c379a0000000000000000000000000000000000000000000000000000000008152600401611458906136c0565b60405180910390fd5b61146e85858585856119c0565b5050505050565b61147d61158c565b600073ffffffffffffffffffffffffffffffffffffffff168173ffffffffffffffffffffffffffffffffffffffff1614156114ed576040517f08c379a00000000000000000000000000000000000000000000000000000000081526004016114e490613752565b60405180910390fd5b6114f681611785565b50565b600a5481565b6000808273ffffffffffffffffffffffffffffffffffffffff163b119050919050565b60007f01ffc9a7000000000000000000000000000000000000000000000000000000007bffffffffffffffffffffffffffffffffffffffffffffffffffffffff1916827bffffffffffffffffffffffffffffffffffffffffffffffffffffffff1916149050919050565b61159461184b565b73ffffffffffffffffffffffffffffffffffffffff166115b261129b565b73ffffffffffffffffffffffffffffffffffffffff1614611608576040517f08c379a00000000000000000000000000000000000000000000000000000000081526004016115ff906137be565b60405180910390fd5b565b6000600460008473ffffffffffffffffffffffffffffffffffffffff1673ffffffffffffffffffffffffffffffffffffffff168152602001908152602001600020600083815260200190815260200160002060006101000a81548160ff0219169083151502179055505050565b6001600460008473ffffffffffffffffffffffffffffffffffffffff1673ffffffffffffffffffffffffffffffffffffffff168152602001908152602001600020600083815260200190815260200160002060006101000a81548160ff0219169083151502179055505050565b6116ec61184b565b73ffffffffffffffffffffffffffffffffffffffff168573ffffffffffffffffffffffffffffffffffffffff16148061173257506117318561172c61184b565b611329565b5b611771576040517f08c379a000000000000000000000000000000000000000000000000000000000815260040161176890613850565b60405180910390fd5b61177e8585858585611a61565b5050505050565b6000600360009054906101000a900473ffffffffffffffffffffffffffffffffffffffff16905081600360006101000a81548173ffffffffffffffffffffffffffffffffffffffff021916908373ffffffffffffffffffffffffffffffffffffffff1602179055508173ffffffffffffffffffffffffffffffffffffffff168173ffffffffffffffffffffffffffffffffffffffff167f8be0079c531659141344cd1fd0a4f28419497f9722a3daafe3b4186f6b6457e060405160405180910390a35050565b600033905090565b8173ffffffffffffffffffffffffffffffffffffffff168373ffffffffffffffffffffffffffffffffffffffff1614156118c2576040517f08c379a00000000000000000000000000000000000000000000000000000000081526004016118b9906138e2565b60405180910390fd5b80600160008573ffffffffffffffffffffffffffffffffffffffff1673ffffffffffffffffffffffffffffffffffffffff16815260200190815260200160002060008473ffffffffffffffffffffffffffffffffffffffff1673ffffffffffffffffffffffffffffffffffffffff16815260200190815260200160002060006101000a81548160ff0219169083151502179055508173ffffffffffffffffffffffffffffffffffffffff168373ffffffffffffffffffffffffffffffffffffffff167f17307eab39ab6107e8899845ad3d59bd9653f200f220920489ca2b5937696c31836040516119b391906126ae565b60405180910390a3505050565b6119c861184b565b73ffffffffffffffffffffffffffffffffffffffff168573ffffffffffffffffffffffffffffffffffffffff161480611a0e5750611a0d85611a0861184b565b611329565b5b611a4d576040517f08c379a0000000000000000000000000000000000000000000000000000000008152600401611a4490613850565b60405180910390fd5b611a5a8585858585611d83565b5050505050565b8151835114611aa5576040517f08c379a0000000000000000000000000000000000000000000000000000000008152600401611a9c90613974565b60405180910390fd5b600073ffffffffffffffffffffffffffffffffffffffff168473ffffffffffffffffffffffffffffffffffffffff161415611b15576040517f08c379a0000000000000000000000000000000000000000000000000000000008152600401611b0c90613a06565b60405180910390fd5b6000611b1f61184b565b9050611b2f81878787878761201f565b60005b8451811015611ce0576000858281518110611b5057611b4f613089565b5b602002602001015190506000858381518110611b6f57611b6e613089565b5b60200260200101519050600080600084815260200190815260200160002060008b73ffffffffffffffffffffffffffffffffffffffff1673ffffffffffffffffffffffffffffffffffffffff16815260200190815260200160002054905081811015611c10576040517f08c379a0000000000000000000000000000000000000000000000000000000008152600401611c0790613a98565b60405180910390fd5b81810360008085815260200190815260200160002060008c73ffffffffffffffffffffffffffffffffffffffff1673ffffffffffffffffffffffffffffffffffffffff168152602001908152602001600020819055508160008085815260200190815260200160002060008b73ffffffffffffffffffffffffffffffffffffffff1673ffffffffffffffffffffffffffffffffffffffff1681526020019081526020016000206000828254611cc59190613ab8565b9250508190555050505080611cd9906130e7565b9050611b32565b508473ffffffffffffffffffffffffffffffffffffffff168673ffffffffffffffffffffffffffffffffffffffff168273ffffffffffffffffffffffffffffffffffffffff167f4a39dc06d4c0dbc64b70af90fd698a233a518aa5d07e595d983b8c0526c8f7fb8787604051611d57929190613b0e565b60405180910390a4611d6d818787878787612027565b611d7b81878787878761202f565b505050505050565b600073ffffffffffffffffffffffffffffffffffffffff168473ffffffffffffffffffffffffffffffffffffffff161415611df3576040517f08c379a0000000000000000000000000000000000000000000000000000000008152600401611dea90613a06565b60405180910390fd5b6000611dfd61184b565b90506000611e0a85612207565b90506000611e1785612207565b9050611e2783898985858961201f565b600080600088815260200190815260200160002060008a73ffffffffffffffffffffffffffffffffffffffff1673ffffffffffffffffffffffffffffffffffffffff16815260200190815260200160002054905085811015611ebe576040517f08c379a0000000000000000000000000000000000000000000000000000000008152600401611eb590613a98565b60405180910390fd5b85810360008089815260200190815260200160002060008b73ffffffffffffffffffffffffffffffffffffffff1673ffffffffffffffffffffffffffffffffffffffff168152602001908152602001600020819055508560008089815260200190815260200160002060008a73ffffffffffffffffffffffffffffffffffffffff1673ffffffffffffffffffffffffffffffffffffffff1681526020019081526020016000206000828254611f739190613ab8565b925050819055508773ffffffffffffffffffffffffffffffffffffffff168973ffffffffffffffffffffffffffffffffffffffff168573ffffffffffffffffffffffffffffffffffffffff167fc3d58168c5ae7397731d063d5bbf3d657854427343f4c083240f7aacaa2d0f628a8a604051611ff0929190613b45565b60405180910390a4612006848a8a86868a612027565b612014848a8a8a8a8a612281565b505050505050505050565b505050505050565b505050505050565b61204e8473ffffffffffffffffffffffffffffffffffffffff166114ff565b156121ff578373ffffffffffffffffffffffffffffffffffffffff1663bc197c8187878686866040518663ffffffff1660e01b8152600401612094959493929190613bc3565b6020604051808303816000875af19250505080156120d057506040513d601f19601f820116820180604052508101906120cd9190613c40565b60015b612176576120dc613c7a565b806308c379a0141561213957506120f1613c9c565b806120fc575061213b565b806040517f08c379a000000000000000000000000000000000000000000000000000000000815260040161213091906127bc565b60405180910390fd5b505b6040517f08c379a000000000000000000000000000000000000000000000000000000000815260040161216d90613da4565b60405180910390fd5b63bc197c8160e01b7bffffffffffffffffffffffffffffffffffffffffffffffffffffffff1916817bffffffffffffffffffffffffffffffffffffffffffffffffffffffff1916146121fd576040517f08c379a00000000000000000000000000000000000000000000000000000000081526004016121f490613e36565b60405180910390fd5b505b505050505050565b60606000600167ffffffffffffffff811115612226576122256128c3565b5b6040519080825280602002602001820160405280156122545781602001602082028036833780820191505090505b509050828160008151811061226c5761226b613089565b5b60200260200101818152505080915050919050565b6122a08473ffffffffffffffffffffffffffffffffffffffff166114ff565b15612451578373ffffffffffffffffffffffffffffffffffffffff1663f23a6e6187878686866040518663ffffffff1660e01b81526004016122e6959493929190613e56565b6020604051808303816000875af192505050801561232257506040513d601f19601f8201168201806040525081019061231f9190613c40565b60015b6123c85761232e613c7a565b806308c379a0141561238b5750612343613c9c565b8061234e575061238d565b806040517f08c379a000000000000000000000000000000000000000000000000000000000815260040161238291906127bc565b60405180910390fd5b505b6040517f08c379a00000000000000000000000000000000000000000000000000000000081526004016123bf90613da4565b60405180910390fd5b63f23a6e6160e01b7bffffffffffffffffffffffffffffffffffffffffffffffffffffffff1916817bffffffffffffffffffffffffffffffffffffffffffffffffffffffff19161461244f576040517f08c379a000000000000000000000000000000000000000000000000000000000815260040161244690613e36565b60405180910390fd5b505b505050505050565b8280546124659061315f565b90600052602060002090601f01602090048101928261248757600085556124ce565b82601f106124a057805160ff19168380011785556124ce565b828001600101855582156124ce579182015b828111156124cd5782518255916020019190600101906124b2565b5b5090506124db91906124df565b5090565b5b808211156124f85760008160009055506001016124e0565b5090565b6000604051905090565b600080fd5b600080fd5b600073ffffffffffffffffffffffffffffffffffffffff82169050919050565b600061253b82612510565b9050919050565b61254b81612530565b811461255657600080fd5b50565b60008135905061256881612542565b92915050565b6000819050919050565b6125818161256e565b811461258c57600080fd5b50565b60008135905061259e81612578565b92915050565b600080604083850312156125bb576125ba612506565b5b60006125c985828601612559565b92505060206125da8582860161258f565b9150509250929050565b6125ed8161256e565b82525050565b600060208201905061260860008301846125e4565b92915050565b60007fffffffff0000000000000000000000000000000000000000000000000000000082169050919050565b6126438161260e565b811461264e57600080fd5b50565b6000813590506126608161263a565b92915050565b60006020828403121561267c5761267b612506565b5b600061268a84828501612651565b91505092915050565b60008115159050919050565b6126a881612693565b82525050565b60006020820190506126c3600083018461269f565b92915050565b6000602082840312156126df576126de612506565b5b60006126ed84828501612559565b91505092915050565b60006020828403121561270c5761270b612506565b5b600061271a8482850161258f565b91505092915050565b600081519050919050565b600082825260208201905092915050565b60005b8381101561275d578082015181840152602081019050612742565b8381111561276c576000848401525b50505050565b6000601f19601f8301169050919050565b600061278e82612723565b612798818561272e565b93506127a881856020860161273f565b6127b181612772565b840191505092915050565b600060208201905081810360008301526127d68184612783565b905092915050565b600081519050919050565b600082825260208201905092915050565b6000819050602082019050919050565b6128138161256e565b82525050565b6000612825838361280a565b60208301905092915050565b6000602082019050919050565b6000612849826127de565b61285381856127e9565b935061285e836127fa565b8060005b8381101561288f5781516128768882612819565b975061288183612831565b925050600181019050612862565b5085935050505092915050565b600060208201905081810360008301526128b6818461283e565b905092915050565b600080fd5b7f4e487b7100000000000000000000000000000000000000000000000000000000600052604160045260246000fd5b6128fb82612772565b810181811067ffffffffffffffff8211171561291a576129196128c3565b5b80604052505050565b600061292d6124fc565b905061293982826128f2565b919050565b600067ffffffffffffffff821115612959576129586128c3565b5b602082029050602081019050919050565b600080fd5b600061298261297d8461293e565b612923565b905080838252602082019050602084028301858111156129a5576129a461296a565b5b835b818110156129ce57806129ba888261258f565b8452602084019350506020810190506129a7565b5050509392505050565b600082601f8301126129ed576129ec6128be565b5b81356129fd84826020860161296f565b91505092915050565b600080fd5b600067ffffffffffffffff821115612a2657612a256128c3565b5b612a2f82612772565b9050602081019050919050565b82818337600083830152505050565b6000612a5e612a5984612a0b565b612923565b905082815260208101848484011115612a7a57612a79612a06565b5b612a85848285612a3c565b509392505050565b600082601f830112612aa257612aa16128be565b5b8135612ab2848260208601612a4b565b91505092915050565b600080600080600060a08688031215612ad757612ad6612506565b5b6000612ae588828901612559565b9550506020612af688828901612559565b945050604086013567ffffffffffffffff811115612b1757612b1661250b565b5b612b23888289016129d8565b935050606086013567ffffffffffffffff811115612b4457612b4361250b565b5b612b50888289016129d8565b925050608086013567ffffffffffffffff811115612b7157612b7061250b565b5b612b7d88828901612a8d565b9150509295509295909350565b600067ffffffffffffffff821115612ba557612ba46128c3565b5b602082029050602081019050919050565b6000612bc9612bc484612b8a565b612923565b90508083825260208201905060208402830185811115612bec57612beb61296a565b5b835b81811015612c155780612c018882612559565b845260208401935050602081019050612bee565b5050509392505050565b600082601f830112612c3457612c336128be565b5b8135612c44848260208601612bb6565b91505092915050565b60008060408385031215612c6457612c63612506565b5b600083013567ffffffffffffffff811115612c8257612c8161250b565b5b612c8e85828601612c1f565b925050602083013567ffffffffffffffff811115612caf57612cae61250b565b5b612cbb858286016129d8565b9150509250929050565b600067ffffffffffffffff821115612ce057612cdf6128c3565b5b612ce982612772565b9050602081019050919050565b6000612d09612d0484612cc5565b612923565b905082815260208101848484011115612d2557612d24612a06565b5b612d30848285612a3c565b509392505050565b600082601f830112612d4d57612d4c6128be565b5b8135612d5d848260208601612cf6565b91505092915050565b600080600060608486031215612d7f57612d7e612506565b5b6000612d8d86828701612559565b9350506020612d9e8682870161258f565b925050604084013567ffffffffffffffff811115612dbf57612dbe61250b565b5b612dcb86828701612d38565b9150509250925092565b612dde81612530565b82525050565b6000602082019050612df96000830184612dd5565b92915050565b612e0881612693565b8114612e1357600080fd5b50565b600081359050612e2581612dff565b92915050565b60008060408385031215612e4257612e41612506565b5b6000612e5085828601612559565b9250506020612e6185828601612e16565b9150509250929050565b600060208284031215612e8157612e80612506565b5b600082013567ffffffffffffffff811115612e9f57612e9e61250b565b5b612eab84828501612d38565b91505092915050565b60008060408385031215612ecb57612eca612506565b5b6000612ed985828601612559565b9250506020612eea85828601612559565b9150509250929050565b600080600080600060a08688031215612f1057612f0f612506565b5b6000612f1e88828901612559565b9550506020612f2f88828901612559565b9450506040612f408882890161258f565b9350506060612f518882890161258f565b925050608086013567ffffffffffffffff811115612f7257612f7161250b565b5b612f7e88828901612a8d565b9150509295509295909350565b7f455243313135353a2061646472657373207a65726f206973206e6f742061207660008201527f616c6964206f776e657200000000000000000000000000000000000000000000602082015250565b6000612fe7602a8361272e565b9150612ff282612f8b565b604082019050919050565b6000602082019050818103600083015261301681612fda565b9050919050565b7f61646472657373206e6f74206164646564000000000000000000000000000000600082015250565b600061305360118361272e565b915061305e8261301d565b602082019050919050565b6000602082019050818103600083015261308281613046565b9050919050565b7f4e487b7100000000000000000000000000000000000000000000000000000000600052603260045260246000fd5b7f4e487b7100000000000000000000000000000000000000000000000000000000600052601160045260246000fd5b60006130f28261256e565b91507fffffffffffffffffffffffffffffffffffffffffffffffffffffffffffffffff821415613125576131246130b8565b5b600182019050919050565b7f4e487b7100000000000000000000000000000000000000000000000000000000600052602260045260246000fd5b6000600282049050600182168061317757607f821691505b6020821081141561318b5761318a613130565b5b50919050565b7f506c6561736520616464206f7267616e697a6174696f6e206669727374000000600082015250565b60006131c7601d8361272e565b91506131d282613191565b602082019050919050565b600060208201905081810360008301526131f6816131ba565b9050919050565b7f6172656120616c72656164792073657420666f722074686973206f7267616e6960008201527f7a6174696f6e0000000000000000000000000000000000000000000000000000602082015250565b600061325960268361272e565b9150613264826131fd565b604082019050919050565b600060208201905081810360008301526132888161324c565b9050919050565b7f6f7267616e697a6174696f6e206e6f7420616464656400000000000000000000600082015250565b60006132c560168361272e565b91506132d08261328f565b602082019050919050565b600060208201905081810360008301526132f4816132b8565b9050919050565b7f74686973206f7267616e697a6174696f6e20646f6573206e6f7420686176652060008201527f7065726d697373696f6e20746f20726563656976652070617274206f6620746860208201527f6520626174636800000000000000000000000000000000000000000000000000604082015250565b600061337d60478361272e565b9150613388826132fb565b606082019050919050565b600060208201905081810360008301526133ac81613370565b9050919050565b7f455243313135353a206163636f756e747320616e6420696473206c656e67746860008201527f206d69736d617463680000000000000000000000000000000000000000000000602082015250565b600061340f60298361272e565b915061341a826133b3565b604082019050919050565b6000602082019050818103600083015261343e81613402565b9050919050565b7f6164647265737320616c72656164792061646465640000000000000000000000600082015250565b600061347b60158361272e565b915061348682613445565b602082019050919050565b600060208201905081810360008301526134aa8161346e565b9050919050565b600081905092915050565b60006134c782612723565b6134d181856134b1565b93506134e181856020860161273f565b80840191505092915050565b60006134f982846134bc565b915081905092915050565b7f746f206578636c756465206163636f756e7420616c746f67657468657220757360008201527f65207375624f7267206d6574686f640000000000000000000000000000000000602082015250565b6000613560602f8361272e565b915061356b82613504565b604082019050919050565b6000602082019050818103600083015261358f81613553565b9050919050565b7f74686973206163636f756e74206973206e6f742072656769737465726564207460008201527f6f20746865206172656120737065636966696564000000000000000000000000602082015250565b60006135f260348361272e565b91506135fd82613596565b604082019050919050565b60006020820190508181036000830152613621816135e5565b9050919050565b7f74686973206f7267616e697a6174696f6e20646f6573206e6f7420686176652060008201527f7065726d697373696f6e20746f2072656365697665207468697320627564676560208201527f7400000000000000000000000000000000000000000000000000000000000000604082015250565b60006136aa60418361272e565b91506136b582613628565b606082019050919050565b600060208201905081810360008301526136d98161369d565b9050919050565b7f4f776e61626c653a206e6577206f776e657220697320746865207a65726f206160008201527f6464726573730000000000000000000000000000000000000000000000000000602082015250565b600061373c60268361272e565b9150613747826136e0565b604082019050919050565b6000602082019050818103600083015261376b8161372f565b9050919050565b7f4f776e61626c653a2063616c6c6572206973206e6f7420746865206f776e6572600082015250565b60006137a860208361272e565b91506137b382613772565b602082019050919050565b600060208201905081810360008301526137d78161379b565b9050919050565b7f455243313135353a2063616c6c6572206973206e6f7420746f6b656e206f776e60008201527f6572206f7220617070726f766564000000000000000000000000000000000000602082015250565b600061383a602e8361272e565b9150613845826137de565b604082019050919050565b600060208201905081810360008301526138698161382d565b9050919050565b7f455243313135353a2073657474696e6720617070726f76616c2073746174757360008201527f20666f722073656c660000000000000000000000000000000000000000000000602082015250565b60006138cc60298361272e565b91506138d782613870565b604082019050919050565b600060208201905081810360008301526138fb816138bf565b9050919050565b7f455243313135353a2069647320616e6420616d6f756e7473206c656e6774682060008201527f6d69736d61746368000000000000000000000000000000000000000000000000602082015250565b600061395e60288361272e565b915061396982613902565b604082019050919050565b6000602082019050818103600083015261398d81613951565b9050919050565b7f455243313135353a207472616e7366657220746f20746865207a65726f20616460008201527f6472657373000000000000000000000000000000000000000000000000000000602082015250565b60006139f060258361272e565b91506139fb82613994565b604082019050919050565b60006020820190508181036000830152613a1f816139e3565b9050919050565b7f455243313135353a20696e73756666696369656e742062616c616e636520666f60008201527f72207472616e7366657200000000000000000000000000000000000000000000602082015250565b6000613a82602a8361272e565b9150613a8d82613a26565b604082019050919050565b60006020820190508181036000830152613ab181613a75565b9050919050565b6000613ac38261256e565b9150613ace8361256e565b9250827fffffffffffffffffffffffffffffffffffffffffffffffffffffffffffffffff03821115613b0357613b026130b8565b5b828201905092915050565b60006040820190508181036000830152613b28818561283e565b90508181036020830152613b3c818461283e565b90509392505050565b6000604082019050613b5a60008301856125e4565b613b6760208301846125e4565b9392505050565b600081519050919050565b600082825260208201905092915050565b6000613b9582613b6e565b613b9f8185613b79565b9350613baf81856020860161273f565b613bb881612772565b840191505092915050565b600060a082019050613bd86000830188612dd5565b613be56020830187612dd5565b8181036040830152613bf7818661283e565b90508181036060830152613c0b818561283e565b90508181036080830152613c1f8184613b8a565b90509695505050505050565b600081519050613c3a8161263a565b92915050565b600060208284031215613c5657613c55612506565b5b6000613c6484828501613c2b565b91505092915050565b60008160e01c9050919050565b600060033d1115613c995760046000803e613c96600051613c6d565b90505b90565b600060443d1015613cac57613d2f565b613cb46124fc565b60043d036004823e80513d602482011167ffffffffffffffff82111715613cdc575050613d2f565b808201805167ffffffffffffffff811115613cfa5750505050613d2f565b80602083010160043d038501811115613d17575050505050613d2f565b613d26826020018501866128f2565b82955050505050505b90565b7f455243313135353a207472616e7366657220746f206e6f6e2d4552433131353560008201527f526563656976657220696d706c656d656e746572000000000000000000000000602082015250565b6000613d8e60348361272e565b9150613d9982613d32565b604082019050919050565b60006020820190508181036000830152613dbd81613d81565b9050919050565b7f455243313135353a204552433131353552656365697665722072656a6563746560008201527f6420746f6b656e73000000000000000000000000000000000000000000000000602082015250565b6000613e2060288361272e565b9150613e2b82613dc4565b604082019050919050565b60006020820190508181036000830152613e4f81613e13565b9050919050565b600060a082019050613e6b6000830188612dd5565b613e786020830187612dd5565b613e8560408301866125e4565b613e9260608301856125e4565b8181036080830152613ea48184613b8a565b9050969550505050505056fea26469706673582212200f32d6d998e57a5ba5bda61815e4d059b8396c80b12d1cf689a926aa6dae70f764736f6c634300080a003368747470733a2f2f636f6e736f6c652e66696c65626173652e636f6d2f6275636b6574732f6170702d6f7263616d656e746f2f7b617265617d2e6a736f6e",
  "devdoc": {
    "kind": "dev",
    "methods": {
      "balanceOf(address,uint256)": {
        "details": "See {IERC1155-balanceOf}. Requirements: - `account` cannot be the zero address."
      },
      "balanceOfBatch(address[],uint256[])": {
        "details": "See {IERC1155-balanceOfBatch}. Requirements: - `accounts` and `ids` must have the same length."
      },
      "isApprovedForAll(address,address)": {
        "details": "See {IERC1155-isApprovedForAll}."
      },
      "owner()": {
        "details": "Returns the address of the current owner."
      },
      "renounceOwnership()": {
        "details": "Leaves the contract without owner. It will not be possible to call `onlyOwner` functions anymore. Can only be called by the current owner. NOTE: Renouncing ownership will leave the contract without an owner, thereby removing any functionality that is only available to the owner."
      },
      "setApprovalForAll(address,bool)": {
        "details": "See {IERC1155-setApprovalForAll}."
      },
      "supportsInterface(bytes4)": {
        "details": "See {IERC165-supportsInterface}."
      },
      "transferOwnership(address)": {
        "details": "Transfers ownership of the contract to a new account (`newOwner`). Can only be called by the current owner."
      },
      "uri(uint256)": {
        "details": "See {IERC1155MetadataURI-uri}. This implementation returns the same URI for *all* token types. It relies on the token type ID substitution mechanism https://eips.ethereum.org/EIPS/eip-1155#metadata[defined in the EIP]. Clients calling this function must replace the `\\{id\\}` substring with the actual token type ID."
      }
    },
    "stateVariables": {
      "_orgAddress": {
        "details": "mapping name to address of org"
      },
      "_orgArea": {
        "details": "mapping address to policy area to bool"
      },
      "_orgName": {
        "details": "mapping address to name of org"
      }
    },
    "version": 1
  },
  "userdoc": {
    "kind": "user",
    "methods": {},
    "version": 1
  },
  "storageLayout": {
    "storage": [
      {
        "astId": 138,
        "contract": "contracts/orcamento.sol:OrcamentoUniao2023",
        "label": "_balances",
        "offset": 0,
        "slot": "0",
        "type": "t_mapping(t_uint256,t_mapping(t_address,t_uint256))"
      },
      {
        "astId": 144,
        "contract": "contracts/orcamento.sol:OrcamentoUniao2023",
        "label": "_operatorApprovals",
        "offset": 0,
        "slot": "1",
        "type": "t_mapping(t_address,t_mapping(t_address,t_bool))"
      },
      {
        "astId": 146,
        "contract": "contracts/orcamento.sol:OrcamentoUniao2023",
        "label": "_uri",
        "offset": 0,
        "slot": "2",
        "type": "t_string_storage"
      },
      {
        "astId": 7,
        "contract": "contracts/orcamento.sol:OrcamentoUniao2023",
        "label": "_owner",
        "offset": 0,
        "slot": "3",
        "type": "t_address"
      },
      {
        "astId": 1916,
        "contract": "contracts/orcamento.sol:OrcamentoUniao2023",
        "label": "_orgArea",
        "offset": 0,
        "slot": "4",
        "type": "t_mapping(t_address,t_mapping(t_uint256,t_bool))"
      },
      {
        "astId": 1921,
        "contract": "contracts/orcamento.sol:OrcamentoUniao2023",
        "label": "_orgName",
        "offset": 0,
        "slot": "5",
        "type": "t_mapping(t_address,t_string_storage)"
      },
      {
        "astId": 1926,
        "contract": "contracts/orcamento.sol:OrcamentoUniao2023",
        "label": "_orgAddress",
        "offset": 0,
        "slot": "6",
        "type": "t_mapping(t_string_memory_ptr,t_address)"
      },
      {
        "astId": 1929,
        "contract": "contracts/orcamento.sol:OrcamentoUniao2023",
        "label": "OUTROS",
        "offset": 0,
        "slot": "7",
        "type": "t_uint256"
      },
      {
        "astId": 1932,
        "contract": "contracts/orcamento.sol:OrcamentoUniao2023",
        "label": "EDUCACAO",
        "offset": 0,
        "slot": "8",
        "type": "t_uint256"
      },
      {
        "astId": 1935,
        "contract": "contracts/orcamento.sol:OrcamentoUniao2023",
        "label": "INFRA",
        "offset": 0,
        "slot": "9",
        "type": "t_uint256"
      },
      {
        "astId": 1938,
        "contract": "contracts/orcamento.sol:OrcamentoUniao2023",
        "label": "SAUDE",
        "offset": 0,
        "slot": "10",
        "type": "t_uint256"
      },
      {
        "astId": 1946,
        "contract": "contracts/orcamento.sol:OrcamentoUniao2023",
        "label": "AREAS",
        "offset": 0,
        "slot": "11",
        "type": "t_array(t_uint256)dyn_storage"
      },
      {
        "astId": 1951,
        "contract": "contracts/orcamento.sol:OrcamentoUniao2023",
        "label": "_budget",
        "offset": 0,
        "slot": "12",
        "type": "t_uint256"
      },
      {
        "astId": 1954,
        "contract": "contracts/orcamento.sol:OrcamentoUniao2023",
        "label": "_ed",
        "offset": 0,
        "slot": "13",
        "type": "t_uint256"
      },
      {
        "astId": 1957,
        "contract": "contracts/orcamento.sol:OrcamentoUniao2023",
        "label": "_infra",
        "offset": 0,
        "slot": "14",
        "type": "t_uint256"
      },
      {
        "astId": 1960,
        "contract": "contracts/orcamento.sol:OrcamentoUniao2023",
        "label": "_health",
        "offset": 0,
        "slot": "15",
        "type": "t_uint256"
      }
    ],
    "types": {
      "t_address": {
        "encoding": "inplace",
        "label": "address",
        "numberOfBytes": "20"
      },
      "t_array(t_uint256)dyn_storage": {
        "base": "t_uint256",
        "encoding": "dynamic_array",
        "label": "uint256[]",
        "numberOfBytes": "32"
      },
      "t_bool": {
        "encoding": "inplace",
        "label": "bool",
        "numberOfBytes": "1"
      },
      "t_mapping(t_address,t_bool)": {
        "encoding": "mapping",
        "key": "t_address",
        "label": "mapping(address => bool)",
        "numberOfBytes": "32",
        "value": "t_bool"
      },
      "t_mapping(t_address,t_mapping(t_address,t_bool))": {
        "encoding": "mapping",
        "key": "t_address",
        "label": "mapping(address => mapping(address => bool))",
        "numberOfBytes": "32",
        "value": "t_mapping(t_address,t_bool)"
      },
      "t_mapping(t_address,t_mapping(t_uint256,t_bool))": {
        "encoding": "mapping",
        "key": "t_address",
        "label": "mapping(address => mapping(uint256 => bool))",
        "numberOfBytes": "32",
        "value": "t_mapping(t_uint256,t_bool)"
      },
      "t_mapping(t_address,t_string_storage)": {
        "encoding": "mapping",
        "key": "t_address",
        "label": "mapping(address => string)",
        "numberOfBytes": "32",
        "value": "t_string_storage"
      },
      "t_mapping(t_address,t_uint256)": {
        "encoding": "mapping",
        "key": "t_address",
        "label": "mapping(address => uint256)",
        "numberOfBytes": "32",
        "value": "t_uint256"
      },
      "t_mapping(t_string_memory_ptr,t_address)": {
        "encoding": "mapping",
        "key": "t_string_memory_ptr",
        "label": "mapping(string => address)",
        "numberOfBytes": "32",
        "value": "t_address"
      },
      "t_mapping(t_uint256,t_bool)": {
        "encoding": "mapping",
        "key": "t_uint256",
        "label": "mapping(uint256 => bool)",
        "numberOfBytes": "32",
        "value": "t_bool"
      },
      "t_mapping(t_uint256,t_mapping(t_address,t_uint256))": {
        "encoding": "mapping",
        "key": "t_uint256",
        "label": "mapping(uint256 => mapping(address => uint256))",
        "numberOfBytes": "32",
        "value": "t_mapping(t_address,t_uint256)"
      },
      "t_string_memory_ptr": {
        "encoding": "bytes",
        "label": "string",
        "numberOfBytes": "32"
      },
      "t_string_storage": {
        "encoding": "bytes",
        "label": "string",
        "numberOfBytes": "32"
      },
      "t_uint256": {
        "encoding": "inplace",
        "label": "uint256",
        "numberOfBytes": "32"
      }
    }
  }
}