{
  "address": "0x5FbDB2315678afecb367f032d93F642f64180aa3",
  "abi": [
    {
      "inputs": [],
      "stateMutability": "nonpayable",
      "type": "constructor"
    },
    {
      "anonymous": false,
      "inputs": [
        {
          "indexed": true,
          "internalType": "address",
          "name": "account",
          "type": "address"
        },
        {
          "indexed": true,
          "internalType": "address",
          "name": "operator",
          "type": "address"
        },
        {
          "indexed": false,
          "internalType": "bool",
          "name": "approved",
          "type": "bool"
        }
      ],
      "name": "ApprovalForAll",
      "type": "event"
    },
    {
      "anonymous": false,
      "inputs": [
        {
          "indexed": true,
          "internalType": "address",
          "name": "previousOwner",
          "type": "address"
        },
        {
          "indexed": true,
          "internalType": "address",
          "name": "newOwner",
          "type": "address"
        }
      ],
      "name": "OwnershipTransferred",
      "type": "event"
    },
    {
      "anonymous": false,
      "inputs": [
        {
          "indexed": true,
          "internalType": "address",
          "name": "account",
          "type": "address"
        },
        {
          "indexed": true,
          "internalType": "uint256",
          "name": "area",
          "type": "uint256"
        },
        {
          "indexed": true,
          "internalType": "bool",
          "name": "added",
          "type": "bool"
        }
      ],
      "name": "Registry",
      "type": "event"
    },
    {
      "anonymous": false,
      "inputs": [
        {
          "indexed": true,
          "internalType": "address",
          "name": "operator",
          "type": "address"
        },
        {
          "indexed": true,
          "internalType": "address",
          "name": "from",
          "type": "address"
        },
        {
          "indexed": true,
          "internalType": "address",
          "name": "to",
          "type": "address"
        },
        {
          "indexed": false,
          "internalType": "uint256[]",
          "name": "ids",
          "type": "uint256[]"
        },
        {
          "indexed": false,
          "internalType": "uint256[]",
          "name": "values",
          "type": "uint256[]"
        }
      ],
      "name": "TransferBatch",
      "type": "event"
    },
    {
      "anonymous": false,
      "inputs": [
        {
          "indexed": true,
          "internalType": "address",
          "name": "operator",
          "type": "address"
        },
        {
          "indexed": true,
          "internalType": "address",
          "name": "from",
          "type": "address"
        },
        {
          "indexed": true,
          "internalType": "address",
          "name": "to",
          "type": "address"
        },
        {
          "indexed": false,
          "internalType": "uint256",
          "name": "id",
          "type": "uint256"
        },
        {
          "indexed": false,
          "internalType": "uint256",
          "name": "value",
          "type": "uint256"
        }
      ],
      "name": "TransferSingle",
      "type": "event"
    },
    {
      "anonymous": false,
      "inputs": [
        {
          "indexed": false,
          "internalType": "string",
          "name": "value",
          "type": "string"
        },
        {
          "indexed": true,
          "internalType": "uint256",
          "name": "id",
          "type": "uint256"
        }
      ],
      "name": "URI",
      "type": "event"
    },
    {
      "inputs": [
        {
          "internalType": "uint256",
          "name": "",
          "type": "uint256"
        }
      ],
      "name": "AREAS",
      "outputs": [
        {
          "internalType": "uint256",
          "name": "",
          "type": "uint256"
        }
      ],
      "stateMutability": "view",
      "type": "function"
    },
    {
      "inputs": [],
      "name": "EDUCACAO",
      "outputs": [
        {
          "internalType": "uint256",
          "name": "",
          "type": "uint256"
        }
      ],
      "stateMutability": "view",
      "type": "function"
    },
    {
      "inputs": [],
      "name": "INFRA",
      "outputs": [
        {
          "internalType": "uint256",
          "name": "",
          "type": "uint256"
        }
      ],
      "stateMutability": "view",
      "type": "function"
    },
    {
      "inputs": [],
      "name": "OUTROS",
      "outputs": [
        {
          "internalType": "uint256",
          "name": "",
          "type": "uint256"
        }
      ],
      "stateMutability": "view",
      "type": "function"
    },
    {
      "inputs": [],
      "name": "SAUDE",
      "outputs": [
        {
          "internalType": "uint256",
          "name": "",
          "type": "uint256"
        }
      ],
      "stateMutability": "view",
      "type": "function"
    },
    {
      "inputs": [
        {
          "internalType": "address",
          "name": "org",
          "type": "address"
        },
        {
          "internalType": "uint256",
          "name": "area",
          "type": "uint256"
        }
      ],
      "name": "addArea",
      "outputs": [],
      "stateMutability": "nonpayable",
      "type": "function"
    },
    {
      "inputs": [
        {
          "internalType": "address",
          "name": "org",
          "type": "address"
        },
        {
          "internalType": "uint256",
          "name": "area",
          "type": "uint256"
        }
      ],
      "name": "addOrg",
      "outputs": [],
      "stateMutability": "nonpayable",
      "type": "function"
    },
    {
      "inputs": [
        {
          "internalType": "address",
          "name": "account",
          "type": "address"
        },
        {
          "internalType": "uint256",
          "name": "id",
          "type": "uint256"
        }
      ],
      "name": "balanceOf",
      "outputs": [
        {
          "internalType": "uint256",
          "name": "",
          "type": "uint256"
        }
      ],
      "stateMutability": "view",
      "type": "function"
    },
    {
      "inputs": [
        {
          "internalType": "address[]",
          "name": "accounts",
          "type": "address[]"
        },
        {
          "internalType": "uint256[]",
          "name": "ids",
          "type": "uint256[]"
        }
      ],
      "name": "balanceOfBatch",
      "outputs": [
        {
          "internalType": "uint256[]",
          "name": "",
          "type": "uint256[]"
        }
      ],
      "stateMutability": "view",
      "type": "function"
    },
    {
      "inputs": [
        {
          "internalType": "address",
          "name": "from",
          "type": "address"
        },
        {
          "internalType": "uint256",
          "name": "area",
          "type": "uint256"
        },
        {
          "internalType": "uint256",
          "name": "amount",
          "type": "uint256"
        }
      ],
      "name": "burn",
      "outputs": [],
      "stateMutability": "nonpayable",
      "type": "function"
    },
    {
      "inputs": [
        {
          "internalType": "address",
          "name": "org",
          "type": "address"
        }
      ],
      "name": "getAreas",
      "outputs": [
        {
          "internalType": "uint256[]",
          "name": "",
          "type": "uint256[]"
        }
      ],
      "stateMutability": "view",
      "type": "function"
    },
    {
      "inputs": [],
      "name": "getInitialBudget",
      "outputs": [
        {
          "internalType": "uint256[]",
          "name": "",
          "type": "uint256[]"
        }
      ],
      "stateMutability": "view",
      "type": "function"
    },
    {
      "inputs": [
        {
          "internalType": "address",
          "name": "account",
          "type": "address"
        },
        {
          "internalType": "address",
          "name": "operator",
          "type": "address"
        }
      ],
      "name": "isApprovedForAll",
      "outputs": [
        {
          "internalType": "bool",
          "name": "",
          "type": "bool"
        }
      ],
      "stateMutability": "view",
      "type": "function"
    },
    {
      "inputs": [
        {
          "internalType": "address",
          "name": "to",
          "type": "address"
        },
        {
          "internalType": "uint256",
          "name": "area",
          "type": "uint256"
        },
        {
          "internalType": "uint256",
          "name": "amount",
          "type": "uint256"
        }
      ],
      "name": "mint",
      "outputs": [],
      "stateMutability": "nonpayable",
      "type": "function"
    },
    {
      "inputs": [],
      "name": "owner",
      "outputs": [
        {
          "internalType": "address",
          "name": "",
          "type": "address"
        }
      ],
      "stateMutability": "view",
      "type": "function"
    },
    {
      "inputs": [],
      "name": "renounceOwnership",
      "outputs": [],
      "stateMutability": "nonpayable",
      "type": "function"
    },
    {
      "inputs": [
        {
          "internalType": "address",
          "name": "from",
          "type": "address"
        },
        {
          "internalType": "address",
          "name": "to",
          "type": "address"
        },
        {
          "internalType": "uint256[]",
          "name": "areas",
          "type": "uint256[]"
        },
        {
          "internalType": "uint256[]",
          "name": "amounts",
          "type": "uint256[]"
        },
        {
          "internalType": "bytes",
          "name": "data",
          "type": "bytes"
        }
      ],
      "name": "safeBatchTransferFrom",
      "outputs": [],
      "stateMutability": "nonpayable",
      "type": "function"
    },
    {
      "inputs": [
        {
          "internalType": "address",
          "name": "from",
          "type": "address"
        },
        {
          "internalType": "address",
          "name": "to",
          "type": "address"
        },
        {
          "internalType": "uint256",
          "name": "area",
          "type": "uint256"
        },
        {
          "internalType": "uint256",
          "name": "amount",
          "type": "uint256"
        },
        {
          "internalType": "bytes",
          "name": "data",
          "type": "bytes"
        }
      ],
      "name": "safeTransferFrom",
      "outputs": [],
      "stateMutability": "nonpayable",
      "type": "function"
    },
    {
      "inputs": [
        {
          "internalType": "address",
          "name": "operator",
          "type": "address"
        },
        {
          "internalType": "bool",
          "name": "approved",
          "type": "bool"
        }
      ],
      "name": "setApprovalForAll",
      "outputs": [],
      "stateMutability": "nonpayable",
      "type": "function"
    },
    {
      "inputs": [
        {
          "internalType": "address",
          "name": "org",
          "type": "address"
        },
        {
          "internalType": "uint256",
          "name": "area",
          "type": "uint256"
        }
      ],
      "name": "subArea",
      "outputs": [],
      "stateMutability": "nonpayable",
      "type": "function"
    },
    {
      "inputs": [
        {
          "internalType": "address",
          "name": "org",
          "type": "address"
        }
      ],
      "name": "subOrg",
      "outputs": [],
      "stateMutability": "nonpayable",
      "type": "function"
    },
    {
      "inputs": [
        {
          "internalType": "bytes4",
          "name": "interfaceId",
          "type": "bytes4"
        }
      ],
      "name": "supportsInterface",
      "outputs": [
        {
          "internalType": "bool",
          "name": "",
          "type": "bool"
        }
      ],
      "stateMutability": "view",
      "type": "function"
    },
    {
      "inputs": [
        {
          "internalType": "address",
          "name": "newOwner",
          "type": "address"
        }
      ],
      "name": "transferOwnership",
      "outputs": [],
      "stateMutability": "nonpayable",
      "type": "function"
    },
    {
      "inputs": [
        {
          "internalType": "uint256",
          "name": "",
          "type": "uint256"
        }
      ],
      "name": "uri",
      "outputs": [
        {
          "internalType": "string",
          "name": "",
          "type": "string"
        }
      ],
      "stateMutability": "view",
      "type": "function"
    }
  ],
  "transactionHash": "0xdd40a3edb3a324279b14a8bcbef3d30e27b977ff02b68fe8c9921feaf3382417",
  "args": [],
  "numDeployments": 1,
  "solcInputHash": "d0a1d39c67524dabed9884ca82268048",
  "bytecode": "0x608060405260006005556001600655600260075560036008556040518060800160405280600554815260200160065481526020016007548152602001600854815250600990600462000053929190620007ca565b5064e8d4a51000600a556005600b55600a600c556005600d55600c54600b54600d54606462000083919062000905565b6200008f919062000905565b6200009b919062000905565b600e556040518060800160405280600e548152602001600b548152602001600c548152602001600d54815250600f906004620000d9929190620007ca565b50348015620000e757600080fd5b506040518060600160405280603e815260200162005341603e913962000113816200024a60201b60201c565b5062000134620001286200026660201b60201c565b6200026e60201b60201c565b62000178336008546064600d54600a5462000150919062000940565b6200015c9190620009d0565b604051806020016040528060008152506200033460201b60201c565b620001bc336006546064600b54600a5462000194919062000940565b620001a09190620009d0565b604051806020016040528060008152506200033460201b60201c565b62000200336007546064600c54600a54620001d8919062000940565b620001e49190620009d0565b604051806020016040528060008152506200033460201b60201c565b62000244336005546064600e54600a546200021c919062000940565b620002289190620009d0565b604051806020016040528060008152506200033460201b60201c565b620010a4565b8060029080519060200190620002629291906200081c565b5050565b600033905090565b6000600360009054906101000a900473ffffffffffffffffffffffffffffffffffffffff16905081600360006101000a81548173ffffffffffffffffffffffffffffffffffffffff021916908373ffffffffffffffffffffffffffffffffffffffff1602179055508173ffffffffffffffffffffffffffffffffffffffff168173ffffffffffffffffffffffffffffffffffffffff167f8be0079c531659141344cd1fd0a4f28419497f9722a3daafe3b4186f6b6457e060405160405180910390a35050565b600073ffffffffffffffffffffffffffffffffffffffff168473ffffffffffffffffffffffffffffffffffffffff161415620003a7576040517f08c379a00000000000000000000000000000000000000000000000000000000081526004016200039e9062000a8f565b60405180910390fd5b6000620003b96200026660201b60201c565b90506000620003ce856200051c60201b60201c565b90506000620003e3856200051c60201b60201c565b9050620003fc836000898585896200059d60201b60201c565b8460008088815260200190815260200160002060008973ffffffffffffffffffffffffffffffffffffffff1673ffffffffffffffffffffffffffffffffffffffff16815260200190815260200160002060008282546200045d919062000ab1565b925050819055508673ffffffffffffffffffffffffffffffffffffffff16600073ffffffffffffffffffffffffffffffffffffffff168473ffffffffffffffffffffffffffffffffffffffff167fc3d58168c5ae7397731d063d5bbf3d657854427343f4c083240f7aacaa2d0f628989604051620004dd92919062000b1f565b60405180910390a4620004fc83600089858589620005a560201b60201c565b6200051383600089898989620005ad60201b60201c565b50505050505050565b60606000600167ffffffffffffffff8111156200053e576200053d62000b4c565b5b6040519080825280602002602001820160405280156200056d5781602001602082028036833780820191505090505b509050828160008151811062000588576200058762000b7b565b5b60200260200101818152505080915050919050565b505050505050565b505050505050565b620005d98473ffffffffffffffffffffffffffffffffffffffff16620007a760201b620014641760201c565b156200079f578373ffffffffffffffffffffffffffffffffffffffff1663f23a6e6187878686866040518663ffffffff1660e01b81526004016200062295949392919062000c93565b6020604051808303816000875af19250505080156200066157506040513d601f19601f820116820180604052508101906200065e919062000d63565b60015b62000713576200067062000da2565b806308c379a01415620006d457506200068862000dfd565b80620006955750620006d6565b806040517f08c379a0000000000000000000000000000000000000000000000000000000008152600401620006cb919062000eeb565b60405180910390fd5b505b6040517f08c379a00000000000000000000000000000000000000000000000000000000081526004016200070a9062000f85565b60405180910390fd5b63f23a6e6160e01b7bffffffffffffffffffffffffffffffffffffffffffffffffffffffff1916817bffffffffffffffffffffffffffffffffffffffffffffffffffffffff1916146200079d576040517f08c379a000000000000000000000000000000000000000000000000000000000815260040162000794906200101d565b60405180910390fd5b505b505050505050565b6000808273ffffffffffffffffffffffffffffffffffffffff163b119050919050565b82805482825590600052602060002090810192821562000809579160200282015b8281111562000808578251825591602001919060010190620007eb565b5b509050620008189190620008ad565b5090565b8280546200082a906200106e565b90600052602060002090601f0160209004810192826200084e57600085556200089a565b82601f106200086957805160ff19168380011785556200089a565b828001600101855582156200089a579182015b82811115620008995782518255916020019190600101906200087c565b5b509050620008a99190620008ad565b5090565b5b80821115620008c8576000816000905550600101620008ae565b5090565b6000819050919050565b7f4e487b7100000000000000000000000000000000000000000000000000000000600052601160045260246000fd5b60006200091282620008cc565b91506200091f83620008cc565b925082821015620009355762000934620008d6565b5b828203905092915050565b60006200094d82620008cc565b91506200095a83620008cc565b9250817fffffffffffffffffffffffffffffffffffffffffffffffffffffffffffffffff0483118215151615620009965762000995620008d6565b5b828202905092915050565b7f4e487b7100000000000000000000000000000000000000000000000000000000600052601260045260246000fd5b6000620009dd82620008cc565b9150620009ea83620008cc565b925082620009fd57620009fc620009a1565b5b828204905092915050565b600082825260208201905092915050565b7f455243313135353a206d696e7420746f20746865207a65726f2061646472657360008201527f7300000000000000000000000000000000000000000000000000000000000000602082015250565b600062000a7760218362000a08565b915062000a848262000a19565b604082019050919050565b6000602082019050818103600083015262000aaa8162000a68565b9050919050565b600062000abe82620008cc565b915062000acb83620008cc565b9250827fffffffffffffffffffffffffffffffffffffffffffffffffffffffffffffffff0382111562000b035762000b02620008d6565b5b828201905092915050565b62000b1981620008cc565b82525050565b600060408201905062000b36600083018562000b0e565b62000b45602083018462000b0e565b9392505050565b7f4e487b7100000000000000000000000000000000000000000000000000000000600052604160045260246000fd5b7f4e487b7100000000000000000000000000000000000000000000000000000000600052603260045260246000fd5b600073ffffffffffffffffffffffffffffffffffffffff82169050919050565b600062000bd78262000baa565b9050919050565b62000be98162000bca565b82525050565b600081519050919050565b600082825260208201905092915050565b60005b8381101562000c2b57808201518184015260208101905062000c0e565b8381111562000c3b576000848401525b50505050565b6000601f19601f8301169050919050565b600062000c5f8262000bef565b62000c6b818562000bfa565b935062000c7d81856020860162000c0b565b62000c888162000c41565b840191505092915050565b600060a08201905062000caa600083018862000bde565b62000cb9602083018762000bde565b62000cc8604083018662000b0e565b62000cd7606083018562000b0e565b818103608083015262000ceb818462000c52565b90509695505050505050565b6000604051905090565b600080fd5b60007fffffffff0000000000000000000000000000000000000000000000000000000082169050919050565b62000d3d8162000d06565b811462000d4957600080fd5b50565b60008151905062000d5d8162000d32565b92915050565b60006020828403121562000d7c5762000d7b62000d01565b5b600062000d8c8482850162000d4c565b91505092915050565b60008160e01c9050919050565b600060033d111562000dc45760046000803e62000dc160005162000d95565b90505b90565b62000dd28262000c41565b810181811067ffffffffffffffff8211171562000df45762000df362000b4c565b5b80604052505050565b600060443d101562000e0f5762000e9c565b62000e1962000cf7565b60043d036004823e80513d602482011167ffffffffffffffff8211171562000e4357505062000e9c565b808201805167ffffffffffffffff81111562000e63575050505062000e9c565b80602083010160043d03850181111562000e8257505050505062000e9c565b62000e938260200185018662000dc7565b82955050505050505b90565b600081519050919050565b600062000eb78262000e9f565b62000ec3818562000a08565b935062000ed581856020860162000c0b565b62000ee08162000c41565b840191505092915050565b6000602082019050818103600083015262000f07818462000eaa565b905092915050565b7f455243313135353a207472616e7366657220746f206e6f6e2d4552433131353560008201527f526563656976657220696d706c656d656e746572000000000000000000000000602082015250565b600062000f6d60348362000a08565b915062000f7a8262000f0f565b604082019050919050565b6000602082019050818103600083015262000fa08162000f5e565b9050919050565b7f455243313135353a204552433131353552656365697665722072656a6563746560008201527f6420746f6b656e73000000000000000000000000000000000000000000000000602082015250565b60006200100560288362000a08565b9150620010128262000fa7565b604082019050919050565b60006020820190508181036000830152620010388162000ff6565b9050919050565b7f4e487b7100000000000000000000000000000000000000000000000000000000600052602260045260246000fd5b600060028204905060018216806200108757607f821691505b602082108114156200109e576200109d6200103f565b5b50919050565b61428d80620010b46000396000f3fe608060405234801561001057600080fd5b50600436106101575760003560e01c80637f14ba3f116100c3578063db4015411161007c578063db401541146103c2578063e985e9c5146103e0578063f242432a14610410578063f2fde38b1461042c578063f5298aca14610448578063f84f7dd01461046457610157565b80637f14ba3f146103025780637f7063e71461031e5780638da5cb5b1461034e578063a22cb4651461036c578063c5cc852414610388578063cdda7715146103a457610157565b80631ef16b43116101155780631ef16b431461024057806321636aa51461025e57806328eece131461027c5780632eb2c2d6146102ac5780634e1273f4146102c8578063715018a6146102f857610157565b8062fdd58e1461015c57806301ffc9a71461018c5780630c89c421146101bc5780630e89341c146101d8578063156e29f614610208578063169bc48614610224575b600080fd5b610176600480360381019061017191906128ee565b610482565b604051610183919061293d565b60405180910390f35b6101a660048036038101906101a191906129b0565b61054b565b6040516101b391906129f8565b60405180910390f35b6101d660048036038101906101d19190612a13565b61062d565b005b6101f260048036038101906101ed9190612a40565b6107bc565b6040516101ff9190612b06565b60405180910390f35b610222600480360381019061021d9190612b28565b610850565b005b61023e600480360381019061023991906128ee565b610944565b005b610248610aa5565b604051610255919061293d565b60405180910390f35b610266610aab565b604051610273919061293d565b60405180910390f35b61029660048036038101906102919190612a13565b610ab1565b6040516102a39190612c39565b60405180910390f35b6102c660048036038101906102c19190612e58565b610c7c565b005b6102e260048036038101906102dd9190612fea565b610d6e565b6040516102ef9190612c39565b60405180910390f35b610300610e87565b005b61031c600480360381019061031791906128ee565b610e9b565b005b61033860048036038101906103339190612a40565b610f98565b604051610345919061293d565b60405180910390f35b610356610fbc565b6040516103639190613071565b60405180910390f35b610386600480360381019061038191906130b8565b610fe6565b005b6103a2600480360381019061039d91906128ee565b610ffc565b005b6103ac6110cf565b6040516103b99190612c39565b60405180910390f35b6103ca6111ca565b6040516103d7919061293d565b60405180910390f35b6103fa60048036038101906103f591906130f8565b6111d0565b60405161040791906129f8565b60405180910390f35b61042a60048036038101906104259190613138565b611264565b005b61044660048036038101906104419190612a13565b61131c565b005b610462600480360381019061045d9190612b28565b6113a0565b005b61046c61145e565b604051610479919061293d565b60405180910390f35b60008073ffffffffffffffffffffffffffffffffffffffff168373ffffffffffffffffffffffffffffffffffffffff1614156104f3576040517f08c379a00000000000000000000000000000000000000000000000000000000081526004016104ea90613241565b60405180910390fd5b60008083815260200190815260200160002060008473ffffffffffffffffffffffffffffffffffffffff1673ffffffffffffffffffffffffffffffffffffffff16815260200190815260200160002054905092915050565b60007fd9b67a26000000000000000000000000000000000000000000000000000000007bffffffffffffffffffffffffffffffffffffffffffffffffffffffff1916827bffffffffffffffffffffffffffffffffffffffffffffffffffffffff1916148061061657507f0e89341c000000000000000000000000000000000000000000000000000000007bffffffffffffffffffffffffffffffffffffffffffffffffffffffff1916827bffffffffffffffffffffffffffffffffffffffffffffffffffffffff1916145b80610626575061062582611487565b5b9050919050565b6106356114f1565b60011515600460008373ffffffffffffffffffffffffffffffffffffffff1673ffffffffffffffffffffffffffffffffffffffff1681526020019081526020016000206000600554815260200190815260200160002060009054906101000a900460ff161515146106db576040517f08c379a00000000000000000000000000000000000000000000000000000000081526004016106d2906132ad565b60405180910390fd5b60006106e682610ab1565b905060005b81518110156107b65760001515600460008573ffffffffffffffffffffffffffffffffffffffff1673ffffffffffffffffffffffffffffffffffffffff168152602001908152602001600020600084848151811061074c5761074b6132cd565b5b6020026020010151815260200190815260200160002060009054906101000a900460ff161515141561077f5750506107b9565b6107a383838381518110610796576107956132cd565b5b602002602001015161156f565b80806107ae9061332b565b9150506106eb565b50505b50565b6060600280546107cb906133a3565b80601f01602080910402602001604051908101604052809291908181526020018280546107f7906133a3565b80156108445780601f1061081957610100808354040283529160200191610844565b820191906000526020600020905b81548152906001019060200180831161082757829003601f168201915b50505050509050919050565b6108586114f1565b60011515600460008573ffffffffffffffffffffffffffffffffffffffff1673ffffffffffffffffffffffffffffffffffffffff1681526020019081526020016000206000600554815260200190815260200160002060009054906101000a900460ff161515146108fe576040517f08c379a00000000000000000000000000000000000000000000000000000000081526004016108f590613421565b60405180910390fd5b61093f8383836040518060400160405280600481526020017f3078303000000000000000000000000000000000000000000000000000000000815250611624565b505050565b61094c6114f1565b60011515600460008473ffffffffffffffffffffffffffffffffffffffff1673ffffffffffffffffffffffffffffffffffffffff1681526020019081526020016000206000600554815260200190815260200160002060009054906101000a900460ff161515146109f2576040517f08c379a00000000000000000000000000000000000000000000000000000000081526004016109e99061348d565b60405180910390fd5b60011515600460008473ffffffffffffffffffffffffffffffffffffffff1673ffffffffffffffffffffffffffffffffffffffff168152602001908152602001600020600083815260200190815260200160002060009054906101000a900460ff1615151415610a97576040517f08c379a0000000000000000000000000000000000000000000000000000000008152600401610a8e9061351f565b60405180910390fd5b610aa182826117d5565b5050565b60075481565b60055481565b606060011515600460008473ffffffffffffffffffffffffffffffffffffffff1673ffffffffffffffffffffffffffffffffffffffff1681526020019081526020016000206000600554815260200190815260200160002060009054906101000a900460ff16151514610b59576040517f08c379a0000000000000000000000000000000000000000000000000000000008152600401610b5090613421565b60405180910390fd5b600060098054905067ffffffffffffffff811115610b7a57610b79612c60565b5b604051908082528060200260200182016040528015610ba85781602001602082028036833780820191505090505b5090506000600190506000600190505b600980549050811015610c715760011515600460008773ffffffffffffffffffffffffffffffffffffffff1673ffffffffffffffffffffffffffffffffffffffff168152602001908152602001600020600083815260200190815260200160002060009054906101000a900460ff1615151415610c5e5780838381518110610c4357610c426132cd565b5b6020026020010181815250508180610c5a9061332b565b9250505b8080610c699061332b565b915050610bb8565b508192505050919050565b60005b8351811015610d595760011515600460008773ffffffffffffffffffffffffffffffffffffffff1673ffffffffffffffffffffffffffffffffffffffff1681526020019081526020016000206000868481518110610ce057610cdf6132cd565b5b6020026020010151815260200190815260200160002060009054906101000a900460ff16151514610d46576040517f08c379a0000000000000000000000000000000000000000000000000000000008152600401610d3d906135d7565b60405180910390fd5b8080610d519061332b565b915050610c7f565b50610d67858585858561188a565b5050505050565b60608151835114610db4576040517f08c379a0000000000000000000000000000000000000000000000000000000008152600401610dab90613669565b60405180910390fd5b6000835167ffffffffffffffff811115610dd157610dd0612c60565b5b604051908082528060200260200182016040528015610dff5781602001602082028036833780820191505090505b50905060005b8451811015610e7c57610e4c858281518110610e2457610e236132cd565b5b6020026020010151858381518110610e3f57610e3e6132cd565b5b6020026020010151610482565b828281518110610e5f57610e5e6132cd565b5b60200260200101818152505080610e759061332b565b9050610e05565b508091505092915050565b610e8f6114f1565b610e99600061192b565b565b610ea36114f1565b60008111610ee6576040517f08c379a0000000000000000000000000000000000000000000000000000000008152600401610edd906136fb565b60405180910390fd5b60011515600460008473ffffffffffffffffffffffffffffffffffffffff1673ffffffffffffffffffffffffffffffffffffffff168152602001908152602001600020600083815260200190815260200160002060009054906101000a900460ff16151514610f8a576040517f08c379a0000000000000000000000000000000000000000000000000000000008152600401610f819061378d565b60405180910390fd5b610f94828261156f565b5050565b60098181548110610fa857600080fd5b906000526020600020016000915090505481565b6000600360009054906101000a900473ffffffffffffffffffffffffffffffffffffffff16905090565b610ff8610ff16119f1565b83836119f9565b5050565b6110046114f1565b60011515600460008473ffffffffffffffffffffffffffffffffffffffff1673ffffffffffffffffffffffffffffffffffffffff1681526020019081526020016000206000600554815260200190815260200160002060009054906101000a900460ff16151514156110ab576040517f08c379a00000000000000000000000000000000000000000000000000000000081526004016110a2906137f9565b60405180910390fd5b6110b7826005546117d5565b60055481146110cb576110ca82826117d5565b5b5050565b6060600060016009805490506110e59190613819565b67ffffffffffffffff8111156110fe576110fd612c60565b5b60405190808252806020026020018201604052801561112c5781602001602082028036833780820191505090505b5090506000805b600f8054905081101561119f57600f8181548110611154576111536132cd565b5b9060005260206000200154838281518110611172576111716132cd565b5b60200260200101818152505081806111899061332b565b92505080806111979061332b565b915050611133565b50600a548282815181106111b6576111b56132cd565b5b602002602001018181525050819250505090565b60065481565b6000600160008473ffffffffffffffffffffffffffffffffffffffff1673ffffffffffffffffffffffffffffffffffffffff16815260200190815260200160002060008373ffffffffffffffffffffffffffffffffffffffff1673ffffffffffffffffffffffffffffffffffffffff16815260200190815260200160002060009054906101000a900460ff16905092915050565b60011515600460008673ffffffffffffffffffffffffffffffffffffffff1673ffffffffffffffffffffffffffffffffffffffff168152602001908152602001600020600085815260200190815260200160002060009054906101000a900460ff16151514611308576040517f08c379a00000000000000000000000000000000000000000000000000000000081526004016112ff90613907565b60405180910390fd5b6113158585858585611b66565b5050505050565b6113246114f1565b600073ffffffffffffffffffffffffffffffffffffffff168173ffffffffffffffffffffffffffffffffffffffff161415611394576040517f08c379a000000000000000000000000000000000000000000000000000000000815260040161138b90613999565b60405180910390fd5b61139d8161192b565b50565b6113a86114f1565b60011515600460008573ffffffffffffffffffffffffffffffffffffffff1673ffffffffffffffffffffffffffffffffffffffff1681526020019081526020016000206000600554815260200190815260200160002060009054906101000a900460ff1615151461144e576040517f08c379a000000000000000000000000000000000000000000000000000000000815260040161144590613421565b60405180910390fd5b611459838383611c07565b505050565b60085481565b6000808273ffffffffffffffffffffffffffffffffffffffff163b119050919050565b60007f01ffc9a7000000000000000000000000000000000000000000000000000000007bffffffffffffffffffffffffffffffffffffffffffffffffffffffff1916827bffffffffffffffffffffffffffffffffffffffffffffffffffffffff1916149050919050565b6114f96119f1565b73ffffffffffffffffffffffffffffffffffffffff16611517610fbc565b73ffffffffffffffffffffffffffffffffffffffff161461156d576040517f08c379a000000000000000000000000000000000000000000000000000000000815260040161156490613a05565b60405180910390fd5b565b6000600460008473ffffffffffffffffffffffffffffffffffffffff1673ffffffffffffffffffffffffffffffffffffffff168152602001908152602001600020600083815260200190815260200160002060006101000a81548160ff02191690831515021790555060001515818373ffffffffffffffffffffffffffffffffffffffff167fb1838829a17d2860e6e86b6817310df2d1cc8e52f7232a66f9b3787b8f281a4860405160405180910390a45050565b600073ffffffffffffffffffffffffffffffffffffffff168473ffffffffffffffffffffffffffffffffffffffff161415611694576040517f08c379a000000000000000000000000000000000000000000000000000000000815260040161168b90613a97565b60405180910390fd5b600061169e6119f1565b905060006116ab85611e4e565b905060006116b885611e4e565b90506116c983600089858589611ec8565b8460008088815260200190815260200160002060008973ffffffffffffffffffffffffffffffffffffffff1673ffffffffffffffffffffffffffffffffffffffff16815260200190815260200160002060008282546117289190613819565b925050819055508673ffffffffffffffffffffffffffffffffffffffff16600073ffffffffffffffffffffffffffffffffffffffff168473ffffffffffffffffffffffffffffffffffffffff167fc3d58168c5ae7397731d063d5bbf3d657854427343f4c083240f7aacaa2d0f6289896040516117a6929190613ab7565b60405180910390a46117bd83600089858589611ed0565b6117cc83600089898989611ed8565b50505050505050565b6001600460008473ffffffffffffffffffffffffffffffffffffffff1673ffffffffffffffffffffffffffffffffffffffff168152602001908152602001600020600083815260200190815260200160002060006101000a81548160ff02191690831515021790555060011515818373ffffffffffffffffffffffffffffffffffffffff167fb1838829a17d2860e6e86b6817310df2d1cc8e52f7232a66f9b3787b8f281a4860405160405180910390a45050565b6118926119f1565b73ffffffffffffffffffffffffffffffffffffffff168573ffffffffffffffffffffffffffffffffffffffff1614806118d857506118d7856118d26119f1565b6111d0565b5b611917576040517f08c379a000000000000000000000000000000000000000000000000000000000815260040161190e90613b52565b60405180910390fd5b61192485858585856120b0565b5050505050565b6000600360009054906101000a900473ffffffffffffffffffffffffffffffffffffffff16905081600360006101000a81548173ffffffffffffffffffffffffffffffffffffffff021916908373ffffffffffffffffffffffffffffffffffffffff1602179055508173ffffffffffffffffffffffffffffffffffffffff168173ffffffffffffffffffffffffffffffffffffffff167f8be0079c531659141344cd1fd0a4f28419497f9722a3daafe3b4186f6b6457e060405160405180910390a35050565b600033905090565b8173ffffffffffffffffffffffffffffffffffffffff168373ffffffffffffffffffffffffffffffffffffffff161415611a68576040517f08c379a0000000000000000000000000000000000000000000000000000000008152600401611a5f90613be4565b60405180910390fd5b80600160008573ffffffffffffffffffffffffffffffffffffffff1673ffffffffffffffffffffffffffffffffffffffff16815260200190815260200160002060008473ffffffffffffffffffffffffffffffffffffffff1673ffffffffffffffffffffffffffffffffffffffff16815260200190815260200160002060006101000a81548160ff0219169083151502179055508173ffffffffffffffffffffffffffffffffffffffff168373ffffffffffffffffffffffffffffffffffffffff167f17307eab39ab6107e8899845ad3d59bd9653f200f220920489ca2b5937696c3183604051611b5991906129f8565b60405180910390a3505050565b611b6e6119f1565b73ffffffffffffffffffffffffffffffffffffffff168573ffffffffffffffffffffffffffffffffffffffff161480611bb45750611bb385611bae6119f1565b6111d0565b5b611bf3576040517f08c379a0000000000000000000000000000000000000000000000000000000008152600401611bea90613b52565b60405180910390fd5b611c0085858585856123d2565b5050505050565b600073ffffffffffffffffffffffffffffffffffffffff168373ffffffffffffffffffffffffffffffffffffffff161415611c77576040517f08c379a0000000000000000000000000000000000000000000000000000000008152600401611c6e90613c76565b60405180910390fd5b6000611c816119f1565b90506000611c8e84611e4e565b90506000611c9b84611e4e565b9050611cbb83876000858560405180602001604052806000815250611ec8565b600080600087815260200190815260200160002060008873ffffffffffffffffffffffffffffffffffffffff1673ffffffffffffffffffffffffffffffffffffffff16815260200190815260200160002054905084811015611d52576040517f08c379a0000000000000000000000000000000000000000000000000000000008152600401611d4990613d08565b60405180910390fd5b84810360008088815260200190815260200160002060008973ffffffffffffffffffffffffffffffffffffffff1673ffffffffffffffffffffffffffffffffffffffff16815260200190815260200160002081905550600073ffffffffffffffffffffffffffffffffffffffff168773ffffffffffffffffffffffffffffffffffffffff168573ffffffffffffffffffffffffffffffffffffffff167fc3d58168c5ae7397731d063d5bbf3d657854427343f4c083240f7aacaa2d0f628989604051611e1f929190613ab7565b60405180910390a4611e4584886000868660405180602001604052806000815250611ed0565b50505050505050565b60606000600167ffffffffffffffff811115611e6d57611e6c612c60565b5b604051908082528060200260200182016040528015611e9b5781602001602082028036833780820191505090505b5090508281600081518110611eb357611eb26132cd565b5b60200260200101818152505080915050919050565b505050505050565b505050505050565b611ef78473ffffffffffffffffffffffffffffffffffffffff16611464565b156120a8578373ffffffffffffffffffffffffffffffffffffffff1663f23a6e6187878686866040518663ffffffff1660e01b8152600401611f3d959493929190613d7d565b6020604051808303816000875af1925050508015611f7957506040513d601f19601f82011682018060405250810190611f769190613dec565b60015b61201f57611f85613e26565b806308c379a01415611fe25750611f9a613e48565b80611fa55750611fe4565b806040517f08c379a0000000000000000000000000000000000000000000000000000000008152600401611fd99190612b06565b60405180910390fd5b505b6040517f08c379a000000000000000000000000000000000000000000000000000000000815260040161201690613f50565b60405180910390fd5b63f23a6e6160e01b7bffffffffffffffffffffffffffffffffffffffffffffffffffffffff1916817bffffffffffffffffffffffffffffffffffffffffffffffffffffffff1916146120a6576040517f08c379a000000000000000000000000000000000000000000000000000000000815260040161209d90613fe2565b60405180910390fd5b505b505050505050565b81518351146120f4576040517f08c379a00000000000000000000000000000000000000000000000000000000081526004016120eb90614074565b60405180910390fd5b600073ffffffffffffffffffffffffffffffffffffffff168473ffffffffffffffffffffffffffffffffffffffff161415612164576040517f08c379a000000000000000000000000000000000000000000000000000000000815260040161215b90614106565b60405180910390fd5b600061216e6119f1565b905061217e818787878787611ec8565b60005b845181101561232f57600085828151811061219f5761219e6132cd565b5b6020026020010151905060008583815181106121be576121bd6132cd565b5b60200260200101519050600080600084815260200190815260200160002060008b73ffffffffffffffffffffffffffffffffffffffff1673ffffffffffffffffffffffffffffffffffffffff1681526020019081526020016000205490508181101561225f576040517f08c379a000000000000000000000000000000000000000000000000000000000815260040161225690614198565b60405180910390fd5b81810360008085815260200190815260200160002060008c73ffffffffffffffffffffffffffffffffffffffff1673ffffffffffffffffffffffffffffffffffffffff168152602001908152602001600020819055508160008085815260200190815260200160002060008b73ffffffffffffffffffffffffffffffffffffffff1673ffffffffffffffffffffffffffffffffffffffff16815260200190815260200160002060008282546123149190613819565b92505081905550505050806123289061332b565b9050612181565b508473ffffffffffffffffffffffffffffffffffffffff168673ffffffffffffffffffffffffffffffffffffffff168273ffffffffffffffffffffffffffffffffffffffff167f4a39dc06d4c0dbc64b70af90fd698a233a518aa5d07e595d983b8c0526c8f7fb87876040516123a69291906141b8565b60405180910390a46123bc818787878787611ed0565b6123ca81878787878761266e565b505050505050565b600073ffffffffffffffffffffffffffffffffffffffff168473ffffffffffffffffffffffffffffffffffffffff161415612442576040517f08c379a000000000000000000000000000000000000000000000000000000000815260040161243990614106565b60405180910390fd5b600061244c6119f1565b9050600061245985611e4e565b9050600061246685611e4e565b9050612476838989858589611ec8565b600080600088815260200190815260200160002060008a73ffffffffffffffffffffffffffffffffffffffff1673ffffffffffffffffffffffffffffffffffffffff1681526020019081526020016000205490508581101561250d576040517f08c379a000000000000000000000000000000000000000000000000000000000815260040161250490614198565b60405180910390fd5b85810360008089815260200190815260200160002060008b73ffffffffffffffffffffffffffffffffffffffff1673ffffffffffffffffffffffffffffffffffffffff168152602001908152602001600020819055508560008089815260200190815260200160002060008a73ffffffffffffffffffffffffffffffffffffffff1673ffffffffffffffffffffffffffffffffffffffff16815260200190815260200160002060008282546125c29190613819565b925050819055508773ffffffffffffffffffffffffffffffffffffffff168973ffffffffffffffffffffffffffffffffffffffff168573ffffffffffffffffffffffffffffffffffffffff167fc3d58168c5ae7397731d063d5bbf3d657854427343f4c083240f7aacaa2d0f628a8a60405161263f929190613ab7565b60405180910390a4612655848a8a86868a611ed0565b612663848a8a8a8a8a611ed8565b505050505050505050565b61268d8473ffffffffffffffffffffffffffffffffffffffff16611464565b1561283e578373ffffffffffffffffffffffffffffffffffffffff1663bc197c8187878686866040518663ffffffff1660e01b81526004016126d39594939291906141ef565b6020604051808303816000875af192505050801561270f57506040513d601f19601f8201168201806040525081019061270c9190613dec565b60015b6127b55761271b613e26565b806308c379a014156127785750612730613e48565b8061273b575061277a565b806040517f08c379a000000000000000000000000000000000000000000000000000000000815260040161276f9190612b06565b60405180910390fd5b505b6040517f08c379a00000000000000000000000000000000000000000000000000000000081526004016127ac90613f50565b60405180910390fd5b63bc197c8160e01b7bffffffffffffffffffffffffffffffffffffffffffffffffffffffff1916817bffffffffffffffffffffffffffffffffffffffffffffffffffffffff19161461283c576040517f08c379a000000000000000000000000000000000000000000000000000000000815260040161283390613fe2565b60405180910390fd5b505b505050505050565b6000604051905090565b600080fd5b600080fd5b600073ffffffffffffffffffffffffffffffffffffffff82169050919050565b60006128858261285a565b9050919050565b6128958161287a565b81146128a057600080fd5b50565b6000813590506128b28161288c565b92915050565b6000819050919050565b6128cb816128b8565b81146128d657600080fd5b50565b6000813590506128e8816128c2565b92915050565b6000806040838503121561290557612904612850565b5b6000612913858286016128a3565b9250506020612924858286016128d9565b9150509250929050565b612937816128b8565b82525050565b6000602082019050612952600083018461292e565b92915050565b60007fffffffff0000000000000000000000000000000000000000000000000000000082169050919050565b61298d81612958565b811461299857600080fd5b50565b6000813590506129aa81612984565b92915050565b6000602082840312156129c6576129c5612850565b5b60006129d48482850161299b565b91505092915050565b60008115159050919050565b6129f2816129dd565b82525050565b6000602082019050612a0d60008301846129e9565b92915050565b600060208284031215612a2957612a28612850565b5b6000612a37848285016128a3565b91505092915050565b600060208284031215612a5657612a55612850565b5b6000612a64848285016128d9565b91505092915050565b600081519050919050565b600082825260208201905092915050565b60005b83811015612aa7578082015181840152602081019050612a8c565b83811115612ab6576000848401525b50505050565b6000601f19601f8301169050919050565b6000612ad882612a6d565b612ae28185612a78565b9350612af2818560208601612a89565b612afb81612abc565b840191505092915050565b60006020820190508181036000830152612b208184612acd565b905092915050565b600080600060608486031215612b4157612b40612850565b5b6000612b4f868287016128a3565b9350506020612b60868287016128d9565b9250506040612b71868287016128d9565b9150509250925092565b600081519050919050565b600082825260208201905092915050565b6000819050602082019050919050565b612bb0816128b8565b82525050565b6000612bc28383612ba7565b60208301905092915050565b6000602082019050919050565b6000612be682612b7b565b612bf08185612b86565b9350612bfb83612b97565b8060005b83811015612c2c578151612c138882612bb6565b9750612c1e83612bce565b925050600181019050612bff565b5085935050505092915050565b60006020820190508181036000830152612c538184612bdb565b905092915050565b600080fd5b7f4e487b7100000000000000000000000000000000000000000000000000000000600052604160045260246000fd5b612c9882612abc565b810181811067ffffffffffffffff82111715612cb757612cb6612c60565b5b80604052505050565b6000612cca612846565b9050612cd68282612c8f565b919050565b600067ffffffffffffffff821115612cf657612cf5612c60565b5b602082029050602081019050919050565b600080fd5b6000612d1f612d1a84612cdb565b612cc0565b90508083825260208201905060208402830185811115612d4257612d41612d07565b5b835b81811015612d6b5780612d5788826128d9565b845260208401935050602081019050612d44565b5050509392505050565b600082601f830112612d8a57612d89612c5b565b5b8135612d9a848260208601612d0c565b91505092915050565b600080fd5b600067ffffffffffffffff821115612dc357612dc2612c60565b5b612dcc82612abc565b9050602081019050919050565b82818337600083830152505050565b6000612dfb612df684612da8565b612cc0565b905082815260208101848484011115612e1757612e16612da3565b5b612e22848285612dd9565b509392505050565b600082601f830112612e3f57612e3e612c5b565b5b8135612e4f848260208601612de8565b91505092915050565b600080600080600060a08688031215612e7457612e73612850565b5b6000612e82888289016128a3565b9550506020612e93888289016128a3565b945050604086013567ffffffffffffffff811115612eb457612eb3612855565b5b612ec088828901612d75565b935050606086013567ffffffffffffffff811115612ee157612ee0612855565b5b612eed88828901612d75565b925050608086013567ffffffffffffffff811115612f0e57612f0d612855565b5b612f1a88828901612e2a565b9150509295509295909350565b600067ffffffffffffffff821115612f4257612f41612c60565b5b602082029050602081019050919050565b6000612f66612f6184612f27565b612cc0565b90508083825260208201905060208402830185811115612f8957612f88612d07565b5b835b81811015612fb25780612f9e88826128a3565b845260208401935050602081019050612f8b565b5050509392505050565b600082601f830112612fd157612fd0612c5b565b5b8135612fe1848260208601612f53565b91505092915050565b6000806040838503121561300157613000612850565b5b600083013567ffffffffffffffff81111561301f5761301e612855565b5b61302b85828601612fbc565b925050602083013567ffffffffffffffff81111561304c5761304b612855565b5b61305885828601612d75565b9150509250929050565b61306b8161287a565b82525050565b60006020820190506130866000830184613062565b92915050565b613095816129dd565b81146130a057600080fd5b50565b6000813590506130b28161308c565b92915050565b600080604083850312156130cf576130ce612850565b5b60006130dd858286016128a3565b92505060206130ee858286016130a3565b9150509250929050565b6000806040838503121561310f5761310e612850565b5b600061311d858286016128a3565b925050602061312e858286016128a3565b9150509250929050565b600080600080600060a0868803121561315457613153612850565b5b6000613162888289016128a3565b9550506020613173888289016128a3565b9450506040613184888289016128d9565b9350506060613195888289016128d9565b925050608086013567ffffffffffffffff8111156131b6576131b5612855565b5b6131c288828901612e2a565b9150509295509295909350565b7f455243313135353a2061646472657373207a65726f206973206e6f742061207660008201527f616c6964206f776e657200000000000000000000000000000000000000000000602082015250565b600061322b602a83612a78565b9150613236826131cf565b604082019050919050565b6000602082019050818103600083015261325a8161321e565b9050919050565b7f61646472657373206e6f74206164646564000000000000000000000000000000600082015250565b6000613297601183612a78565b91506132a282613261565b602082019050919050565b600060208201905081810360008301526132c68161328a565b9050919050565b7f4e487b7100000000000000000000000000000000000000000000000000000000600052603260045260246000fd5b7f4e487b7100000000000000000000000000000000000000000000000000000000600052601160045260246000fd5b6000613336826128b8565b91507fffffffffffffffffffffffffffffffffffffffffffffffffffffffffffffffff821415613369576133686132fc565b5b600182019050919050565b7f4e487b7100000000000000000000000000000000000000000000000000000000600052602260045260246000fd5b600060028204905060018216806133bb57607f821691505b602082108114156133cf576133ce613374565b5b50919050565b7f6f7267616e697a6174696f6e206e6f7420616464656400000000000000000000600082015250565b600061340b601683612a78565b9150613416826133d5565b602082019050919050565b6000602082019050818103600083015261343a816133fe565b9050919050565b7f506c6561736520616464206f7267616e697a6174696f6e206669727374000000600082015250565b6000613477601d83612a78565b915061348282613441565b602082019050919050565b600060208201905081810360008301526134a68161346a565b9050919050565b7f6172656120616c72656164792073657420666f722074686973206f7267616e6960008201527f7a6174696f6e0000000000000000000000000000000000000000000000000000602082015250565b6000613509602683612a78565b9150613514826134ad565b604082019050919050565b60006020820190508181036000830152613538816134fc565b9050919050565b7f74686973206f7267616e697a6174696f6e20646f6573206e6f7420686176652060008201527f7065726d697373696f6e20746f20726563656976652070617274206f6620746860208201527f6520626174636800000000000000000000000000000000000000000000000000604082015250565b60006135c1604783612a78565b91506135cc8261353f565b606082019050919050565b600060208201905081810360008301526135f0816135b4565b9050919050565b7f455243313135353a206163636f756e747320616e6420696473206c656e67746860008201527f206d69736d617463680000000000000000000000000000000000000000000000602082015250565b6000613653602983612a78565b915061365e826135f7565b604082019050919050565b6000602082019050818103600083015261368281613646565b9050919050565b7f746f206578636c756465206163636f756e7420616c746f67657468657220757360008201527f65207375624f7267206d6574686f640000000000000000000000000000000000602082015250565b60006136e5602f83612a78565b91506136f082613689565b604082019050919050565b60006020820190508181036000830152613714816136d8565b9050919050565b7f74686973206163636f756e74206973206e6f742072656769737465726564207460008201527f6f20746865206172656120737065636966696564000000000000000000000000602082015250565b6000613777603483612a78565b91506137828261371b565b604082019050919050565b600060208201905081810360008301526137a68161376a565b9050919050565b7f6164647265737320616c72656164792061646465640000000000000000000000600082015250565b60006137e3601583612a78565b91506137ee826137ad565b602082019050919050565b60006020820190508181036000830152613812816137d6565b9050919050565b6000613824826128b8565b915061382f836128b8565b9250827fffffffffffffffffffffffffffffffffffffffffffffffffffffffffffffffff03821115613864576138636132fc565b5b828201905092915050565b7f74686973206f7267616e697a6174696f6e20646f6573206e6f7420686176652060008201527f7065726d697373696f6e20746f2072656365697665207468697320627564676560208201527f7400000000000000000000000000000000000000000000000000000000000000604082015250565b60006138f1604183612a78565b91506138fc8261386f565b606082019050919050565b60006020820190508181036000830152613920816138e4565b9050919050565b7f4f776e61626c653a206e6577206f776e657220697320746865207a65726f206160008201527f6464726573730000000000000000000000000000000000000000000000000000602082015250565b6000613983602683612a78565b915061398e82613927565b604082019050919050565b600060208201905081810360008301526139b281613976565b9050919050565b7f4f776e61626c653a2063616c6c6572206973206e6f7420746865206f776e6572600082015250565b60006139ef602083612a78565b91506139fa826139b9565b602082019050919050565b60006020820190508181036000830152613a1e816139e2565b9050919050565b7f455243313135353a206d696e7420746f20746865207a65726f2061646472657360008201527f7300000000000000000000000000000000000000000000000000000000000000602082015250565b6000613a81602183612a78565b9150613a8c82613a25565b604082019050919050565b60006020820190508181036000830152613ab081613a74565b9050919050565b6000604082019050613acc600083018561292e565b613ad9602083018461292e565b9392505050565b7f455243313135353a2063616c6c6572206973206e6f7420746f6b656e206f776e60008201527f6572206f7220617070726f766564000000000000000000000000000000000000602082015250565b6000613b3c602e83612a78565b9150613b4782613ae0565b604082019050919050565b60006020820190508181036000830152613b6b81613b2f565b9050919050565b7f455243313135353a2073657474696e6720617070726f76616c2073746174757360008201527f20666f722073656c660000000000000000000000000000000000000000000000602082015250565b6000613bce602983612a78565b9150613bd982613b72565b604082019050919050565b60006020820190508181036000830152613bfd81613bc1565b9050919050565b7f455243313135353a206275726e2066726f6d20746865207a65726f206164647260008201527f6573730000000000000000000000000000000000000000000000000000000000602082015250565b6000613c60602383612a78565b9150613c6b82613c04565b604082019050919050565b60006020820190508181036000830152613c8f81613c53565b9050919050565b7f455243313135353a206275726e20616d6f756e7420657863656564732062616c60008201527f616e636500000000000000000000000000000000000000000000000000000000602082015250565b6000613cf2602483612a78565b9150613cfd82613c96565b604082019050919050565b60006020820190508181036000830152613d2181613ce5565b9050919050565b600081519050919050565b600082825260208201905092915050565b6000613d4f82613d28565b613d598185613d33565b9350613d69818560208601612a89565b613d7281612abc565b840191505092915050565b600060a082019050613d926000830188613062565b613d9f6020830187613062565b613dac604083018661292e565b613db9606083018561292e565b8181036080830152613dcb8184613d44565b90509695505050505050565b600081519050613de681612984565b92915050565b600060208284031215613e0257613e01612850565b5b6000613e1084828501613dd7565b91505092915050565b60008160e01c9050919050565b600060033d1115613e455760046000803e613e42600051613e19565b90505b90565b600060443d1015613e5857613edb565b613e60612846565b60043d036004823e80513d602482011167ffffffffffffffff82111715613e88575050613edb565b808201805167ffffffffffffffff811115613ea65750505050613edb565b80602083010160043d038501811115613ec3575050505050613edb565b613ed282602001850186612c8f565b82955050505050505b90565b7f455243313135353a207472616e7366657220746f206e6f6e2d4552433131353560008201527f526563656976657220696d706c656d656e746572000000000000000000000000602082015250565b6000613f3a603483612a78565b9150613f4582613ede565b604082019050919050565b60006020820190508181036000830152613f6981613f2d565b9050919050565b7f455243313135353a204552433131353552656365697665722072656a6563746560008201527f6420746f6b656e73000000000000000000000000000000000000000000000000602082015250565b6000613fcc602883612a78565b9150613fd782613f70565b604082019050919050565b60006020820190508181036000830152613ffb81613fbf565b9050919050565b7f455243313135353a2069647320616e6420616d6f756e7473206c656e6774682060008201527f6d69736d61746368000000000000000000000000000000000000000000000000602082015250565b600061405e602883612a78565b915061406982614002565b604082019050919050565b6000602082019050818103600083015261408d81614051565b9050919050565b7f455243313135353a207472616e7366657220746f20746865207a65726f20616460008201527f6472657373000000000000000000000000000000000000000000000000000000602082015250565b60006140f0602583612a78565b91506140fb82614094565b604082019050919050565b6000602082019050818103600083015261411f816140e3565b9050919050565b7f455243313135353a20696e73756666696369656e742062616c616e636520666f60008201527f72207472616e7366657200000000000000000000000000000000000000000000602082015250565b6000614182602a83612a78565b915061418d82614126565b604082019050919050565b600060208201905081810360008301526141b181614175565b9050919050565b600060408201905081810360008301526141d28185612bdb565b905081810360208301526141e68184612bdb565b90509392505050565b600060a0820190506142046000830188613062565b6142116020830187613062565b81810360408301526142238186612bdb565b905081810360608301526142378185612bdb565b9050818103608083015261424b8184613d44565b9050969550505050505056fea2646970667358221220187b0a7deb46762f02d9b09f404969b5df52d85087ac96c874a2b4b782f421ae64736f6c634300080a003368747470733a2f2f636f6e736f6c652e66696c65626173652e636f6d2f6275636b6574732f6170702d6f7263616d656e746f2f7b617265617d2e6a736f6e",
  "devdoc": {
    "kind": "dev",
    "methods": {
      "balanceOf(address,uint256)": {
        "details": "See {IERC1155-balanceOf}. Requirements: - `account` cannot be the zero address."
      },
      "balanceOfBatch(address[],uint256[])": {
        "details": "See {IERC1155-balanceOfBatch}. Requirements: - `accounts` and `ids` must have the same length."
      },
      "isApprovedForAll(address,address)": {
        "details": "See {IERC1155-isApprovedForAll}."
      },
      "owner()": {
        "details": "Returns the address of the current owner."
      },
      "renounceOwnership()": {
        "details": "Leaves the contract without owner. It will not be possible to call `onlyOwner` functions anymore. Can only be called by the current owner. NOTE: Renouncing ownership will leave the contract without an owner, thereby removing any functionality that is only available to the owner."
      },
      "setApprovalForAll(address,bool)": {
        "details": "See {IERC1155-setApprovalForAll}."
      },
      "supportsInterface(bytes4)": {
        "details": "See {IERC165-supportsInterface}."
      },
      "transferOwnership(address)": {
        "details": "Transfers ownership of the contract to a new account (`newOwner`). Can only be called by the current owner."
      },
      "uri(uint256)": {
        "details": "See {IERC1155MetadataURI-uri}. This implementation returns the same URI for *all* token types. It relies on the token type ID substitution mechanism https://eips.ethereum.org/EIPS/eip-1155#metadata[defined in the EIP]. Clients calling this function must replace the `\\{id\\}` substring with the actual token type ID."
      }
    },
    "stateVariables": {
      "_orgArea": {
        "details": "mapping address to policy area to bool"
      }
    },
    "version": 1
  },
  "userdoc": {
    "kind": "user",
    "methods": {},
    "version": 1
  },
  "storageLayout": {
    "storage": [
      {
        "astId": 138,
        "contract": "contracts/orcamento.sol:OrcamentoUniao2023",
        "label": "_balances",
        "offset": 0,
        "slot": "0",
        "type": "t_mapping(t_uint256,t_mapping(t_address,t_uint256))"
      },
      {
        "astId": 144,
        "contract": "contracts/orcamento.sol:OrcamentoUniao2023",
        "label": "_operatorApprovals",
        "offset": 0,
        "slot": "1",
        "type": "t_mapping(t_address,t_mapping(t_address,t_bool))"
      },
      {
        "astId": 146,
        "contract": "contracts/orcamento.sol:OrcamentoUniao2023",
        "label": "_uri",
        "offset": 0,
        "slot": "2",
        "type": "t_string_storage"
      },
      {
        "astId": 7,
        "contract": "contracts/orcamento.sol:OrcamentoUniao2023",
        "label": "_owner",
        "offset": 0,
        "slot": "3",
        "type": "t_address"
      },
      {
        "astId": 1916,
        "contract": "contracts/orcamento.sol:OrcamentoUniao2023",
        "label": "_orgArea",
        "offset": 0,
        "slot": "4",
        "type": "t_mapping(t_address,t_mapping(t_uint256,t_bool))"
      },
      {
        "astId": 1919,
        "contract": "contracts/orcamento.sol:OrcamentoUniao2023",
        "label": "OUTROS",
        "offset": 0,
        "slot": "5",
        "type": "t_uint256"
      },
      {
        "astId": 1922,
        "contract": "contracts/orcamento.sol:OrcamentoUniao2023",
        "label": "EDUCACAO",
        "offset": 0,
        "slot": "6",
        "type": "t_uint256"
      },
      {
        "astId": 1925,
        "contract": "contracts/orcamento.sol:OrcamentoUniao2023",
        "label": "INFRA",
        "offset": 0,
        "slot": "7",
        "type": "t_uint256"
      },
      {
        "astId": 1928,
        "contract": "contracts/orcamento.sol:OrcamentoUniao2023",
        "label": "SAUDE",
        "offset": 0,
        "slot": "8",
        "type": "t_uint256"
      },
      {
        "astId": 1936,
        "contract": "contracts/orcamento.sol:OrcamentoUniao2023",
        "label": "AREAS",
        "offset": 0,
        "slot": "9",
        "type": "t_array(t_uint256)dyn_storage"
      },
      {
        "astId": 1941,
        "contract": "contracts/orcamento.sol:OrcamentoUniao2023",
        "label": "_budget",
        "offset": 0,
        "slot": "10",
        "type": "t_uint256"
      },
      {
        "astId": 1944,
        "contract": "contracts/orcamento.sol:OrcamentoUniao2023",
        "label": "_ed",
        "offset": 0,
        "slot": "11",
        "type": "t_uint256"
      },
      {
        "astId": 1947,
        "contract": "contracts/orcamento.sol:OrcamentoUniao2023",
        "label": "_infra",
        "offset": 0,
        "slot": "12",
        "type": "t_uint256"
      },
      {
        "astId": 1950,
        "contract": "contracts/orcamento.sol:OrcamentoUniao2023",
        "label": "_health",
        "offset": 0,
        "slot": "13",
        "type": "t_uint256"
      },
      {
        "astId": 1959,
        "contract": "contracts/orcamento.sol:OrcamentoUniao2023",
        "label": "_other",
        "offset": 0,
        "slot": "14",
        "type": "t_uint256"
      },
      {
        "astId": 1967,
        "contract": "contracts/orcamento.sol:OrcamentoUniao2023",
        "label": "_budgetPart",
        "offset": 0,
        "slot": "15",
        "type": "t_array(t_uint256)dyn_storage"
      }
    ],
    "types": {
      "t_address": {
        "encoding": "inplace",
        "label": "address",
        "numberOfBytes": "20"
      },
      "t_array(t_uint256)dyn_storage": {
        "base": "t_uint256",
        "encoding": "dynamic_array",
        "label": "uint256[]",
        "numberOfBytes": "32"
      },
      "t_bool": {
        "encoding": "inplace",
        "label": "bool",
        "numberOfBytes": "1"
      },
      "t_mapping(t_address,t_bool)": {
        "encoding": "mapping",
        "key": "t_address",
        "label": "mapping(address => bool)",
        "numberOfBytes": "32",
        "value": "t_bool"
      },
      "t_mapping(t_address,t_mapping(t_address,t_bool))": {
        "encoding": "mapping",
        "key": "t_address",
        "label": "mapping(address => mapping(address => bool))",
        "numberOfBytes": "32",
        "value": "t_mapping(t_address,t_bool)"
      },
      "t_mapping(t_address,t_mapping(t_uint256,t_bool))": {
        "encoding": "mapping",
        "key": "t_address",
        "label": "mapping(address => mapping(uint256 => bool))",
        "numberOfBytes": "32",
        "value": "t_mapping(t_uint256,t_bool)"
      },
      "t_mapping(t_address,t_uint256)": {
        "encoding": "mapping",
        "key": "t_address",
        "label": "mapping(address => uint256)",
        "numberOfBytes": "32",
        "value": "t_uint256"
      },
      "t_mapping(t_uint256,t_bool)": {
        "encoding": "mapping",
        "key": "t_uint256",
        "label": "mapping(uint256 => bool)",
        "numberOfBytes": "32",
        "value": "t_bool"
      },
      "t_mapping(t_uint256,t_mapping(t_address,t_uint256))": {
        "encoding": "mapping",
        "key": "t_uint256",
        "label": "mapping(uint256 => mapping(address => uint256))",
        "numberOfBytes": "32",
        "value": "t_mapping(t_address,t_uint256)"
      },
      "t_string_storage": {
        "encoding": "bytes",
        "label": "string",
        "numberOfBytes": "32"
      },
      "t_uint256": {
        "encoding": "inplace",
        "label": "uint256",
        "numberOfBytes": "32"
      }
    }
  }
}