{
  "address": "0x5FbDB2315678afecb367f032d93F642f64180aa3",
  "abi": [
    {
      "inputs": [],
      "stateMutability": "nonpayable",
      "type": "constructor"
    },
    {
      "anonymous": false,
      "inputs": [
        {
          "indexed": true,
          "internalType": "address",
          "name": "account",
          "type": "address"
        },
        {
          "indexed": true,
          "internalType": "address",
          "name": "operator",
          "type": "address"
        },
        {
          "indexed": false,
          "internalType": "bool",
          "name": "approved",
          "type": "bool"
        }
      ],
      "name": "ApprovalForAll",
      "type": "event"
    },
    {
      "anonymous": false,
      "inputs": [
        {
          "indexed": true,
          "internalType": "address",
          "name": "previousOwner",
          "type": "address"
        },
        {
          "indexed": true,
          "internalType": "address",
          "name": "newOwner",
          "type": "address"
        }
      ],
      "name": "OwnershipTransferred",
      "type": "event"
    },
    {
      "anonymous": false,
      "inputs": [
        {
          "indexed": true,
          "internalType": "address",
          "name": "operator",
          "type": "address"
        },
        {
          "indexed": true,
          "internalType": "address",
          "name": "from",
          "type": "address"
        },
        {
          "indexed": true,
          "internalType": "address",
          "name": "to",
          "type": "address"
        },
        {
          "indexed": false,
          "internalType": "uint256[]",
          "name": "ids",
          "type": "uint256[]"
        },
        {
          "indexed": false,
          "internalType": "uint256[]",
          "name": "values",
          "type": "uint256[]"
        }
      ],
      "name": "TransferBatch",
      "type": "event"
    },
    {
      "anonymous": false,
      "inputs": [
        {
          "indexed": true,
          "internalType": "address",
          "name": "operator",
          "type": "address"
        },
        {
          "indexed": true,
          "internalType": "address",
          "name": "from",
          "type": "address"
        },
        {
          "indexed": true,
          "internalType": "address",
          "name": "to",
          "type": "address"
        },
        {
          "indexed": false,
          "internalType": "uint256",
          "name": "id",
          "type": "uint256"
        },
        {
          "indexed": false,
          "internalType": "uint256",
          "name": "value",
          "type": "uint256"
        }
      ],
      "name": "TransferSingle",
      "type": "event"
    },
    {
      "anonymous": false,
      "inputs": [
        {
          "indexed": false,
          "internalType": "string",
          "name": "value",
          "type": "string"
        },
        {
          "indexed": true,
          "internalType": "uint256",
          "name": "id",
          "type": "uint256"
        }
      ],
      "name": "URI",
      "type": "event"
    },
    {
      "anonymous": false,
      "inputs": [
        {
          "indexed": false,
          "internalType": "uint256",
          "name": "input",
          "type": "uint256"
        },
        {
          "indexed": false,
          "internalType": "address",
          "name": "caller",
          "type": "address"
        }
      ],
      "name": "testeEvento",
      "type": "event"
    },
    {
      "inputs": [
        {
          "internalType": "uint256",
          "name": "",
          "type": "uint256"
        }
      ],
      "name": "AREAS",
      "outputs": [
        {
          "internalType": "uint256",
          "name": "",
          "type": "uint256"
        }
      ],
      "stateMutability": "view",
      "type": "function"
    },
    {
      "inputs": [],
      "name": "EDUCACAO",
      "outputs": [
        {
          "internalType": "uint256",
          "name": "",
          "type": "uint256"
        }
      ],
      "stateMutability": "view",
      "type": "function"
    },
    {
      "inputs": [],
      "name": "INFRA",
      "outputs": [
        {
          "internalType": "uint256",
          "name": "",
          "type": "uint256"
        }
      ],
      "stateMutability": "view",
      "type": "function"
    },
    {
      "inputs": [],
      "name": "OUTROS",
      "outputs": [
        {
          "internalType": "uint256",
          "name": "",
          "type": "uint256"
        }
      ],
      "stateMutability": "view",
      "type": "function"
    },
    {
      "inputs": [],
      "name": "SAUDE",
      "outputs": [
        {
          "internalType": "uint256",
          "name": "",
          "type": "uint256"
        }
      ],
      "stateMutability": "view",
      "type": "function"
    },
    {
      "inputs": [
        {
          "internalType": "address",
          "name": "org",
          "type": "address"
        },
        {
          "internalType": "uint256",
          "name": "area",
          "type": "uint256"
        }
      ],
      "name": "addArea",
      "outputs": [],
      "stateMutability": "nonpayable",
      "type": "function"
    },
    {
      "inputs": [
        {
          "internalType": "address",
          "name": "org",
          "type": "address"
        },
        {
          "internalType": "uint256",
          "name": "area",
          "type": "uint256"
        }
      ],
      "name": "addOrg",
      "outputs": [],
      "stateMutability": "nonpayable",
      "type": "function"
    },
    {
      "inputs": [
        {
          "internalType": "address",
          "name": "account",
          "type": "address"
        },
        {
          "internalType": "uint256",
          "name": "id",
          "type": "uint256"
        }
      ],
      "name": "balanceOf",
      "outputs": [
        {
          "internalType": "uint256",
          "name": "",
          "type": "uint256"
        }
      ],
      "stateMutability": "view",
      "type": "function"
    },
    {
      "inputs": [
        {
          "internalType": "address[]",
          "name": "accounts",
          "type": "address[]"
        },
        {
          "internalType": "uint256[]",
          "name": "ids",
          "type": "uint256[]"
        }
      ],
      "name": "balanceOfBatch",
      "outputs": [
        {
          "internalType": "uint256[]",
          "name": "",
          "type": "uint256[]"
        }
      ],
      "stateMutability": "view",
      "type": "function"
    },
    {
      "inputs": [
        {
          "internalType": "address",
          "name": "org",
          "type": "address"
        }
      ],
      "name": "getAreas",
      "outputs": [
        {
          "internalType": "uint256[]",
          "name": "",
          "type": "uint256[]"
        }
      ],
      "stateMutability": "view",
      "type": "function"
    },
    {
      "inputs": [
        {
          "internalType": "address",
          "name": "account",
          "type": "address"
        },
        {
          "internalType": "address",
          "name": "operator",
          "type": "address"
        }
      ],
      "name": "isApprovedForAll",
      "outputs": [
        {
          "internalType": "bool",
          "name": "",
          "type": "bool"
        }
      ],
      "stateMutability": "view",
      "type": "function"
    },
    {
      "inputs": [],
      "name": "owner",
      "outputs": [
        {
          "internalType": "address",
          "name": "",
          "type": "address"
        }
      ],
      "stateMutability": "view",
      "type": "function"
    },
    {
      "inputs": [],
      "name": "renounceOwnership",
      "outputs": [],
      "stateMutability": "nonpayable",
      "type": "function"
    },
    {
      "inputs": [
        {
          "internalType": "address",
          "name": "from",
          "type": "address"
        },
        {
          "internalType": "address",
          "name": "to",
          "type": "address"
        },
        {
          "internalType": "uint256[]",
          "name": "areas",
          "type": "uint256[]"
        },
        {
          "internalType": "uint256[]",
          "name": "amounts",
          "type": "uint256[]"
        },
        {
          "internalType": "bytes",
          "name": "data",
          "type": "bytes"
        }
      ],
      "name": "safeBatchTransferFrom",
      "outputs": [],
      "stateMutability": "nonpayable",
      "type": "function"
    },
    {
      "inputs": [
        {
          "internalType": "address",
          "name": "from",
          "type": "address"
        },
        {
          "internalType": "address",
          "name": "to",
          "type": "address"
        },
        {
          "internalType": "uint256",
          "name": "area",
          "type": "uint256"
        },
        {
          "internalType": "uint256",
          "name": "amount",
          "type": "uint256"
        },
        {
          "internalType": "bytes",
          "name": "data",
          "type": "bytes"
        }
      ],
      "name": "safeTransferFrom",
      "outputs": [],
      "stateMutability": "nonpayable",
      "type": "function"
    },
    {
      "inputs": [
        {
          "internalType": "address",
          "name": "operator",
          "type": "address"
        },
        {
          "internalType": "bool",
          "name": "approved",
          "type": "bool"
        }
      ],
      "name": "setApprovalForAll",
      "outputs": [],
      "stateMutability": "nonpayable",
      "type": "function"
    },
    {
      "inputs": [
        {
          "internalType": "bytes4",
          "name": "interfaceId",
          "type": "bytes4"
        }
      ],
      "name": "supportsInterface",
      "outputs": [
        {
          "internalType": "bool",
          "name": "",
          "type": "bool"
        }
      ],
      "stateMutability": "view",
      "type": "function"
    },
    {
      "inputs": [
        {
          "internalType": "uint256",
          "name": "trossoqualquer",
          "type": "uint256"
        }
      ],
      "name": "teste",
      "outputs": [],
      "stateMutability": "nonpayable",
      "type": "function"
    },
    {
      "inputs": [
        {
          "internalType": "address",
          "name": "newOwner",
          "type": "address"
        }
      ],
      "name": "transferOwnership",
      "outputs": [],
      "stateMutability": "nonpayable",
      "type": "function"
    },
    {
      "inputs": [
        {
          "internalType": "uint256",
          "name": "",
          "type": "uint256"
        }
      ],
      "name": "uri",
      "outputs": [
        {
          "internalType": "string",
          "name": "",
          "type": "string"
        }
      ],
      "stateMutability": "view",
      "type": "function"
    }
  ],
  "transactionHash": "0xb101110b0728edda2e2f78cb3fa98e4daa4ce8fbf11ba9db5bfc8ba35d55e8c6",
  "args": [],
  "numDeployments": 1,
  "solcInputHash": "673d4ec686cb8d5650e2ec67471c9db8",
  "bytecode": "0x6080604052600060055560016006556002600755600360085560405180608001604052806005548152602001600654815260200160075481526020016008548152506009906004620000539291906200078e565b5064e8d4a51000600a556005600b55600a600c556005600d553480156200007957600080fd5b506040518060600160405280603e8152602001620045bd603e9139620000a5816200020e60201b60201c565b50620000c6620000ba6200022a60201b60201c565b6200023260201b60201c565b6200010a336008546064600d54600a54620000e29190620008c9565b620000ee919062000959565b60405180602001604052806000815250620002f860201b60201c565b6200014e336006546064600b54600a54620001269190620008c9565b62000132919062000959565b60405180602001604052806000815250620002f860201b60201c565b62000192336007546064600c54600a546200016a9190620008c9565b62000176919062000959565b60405180602001604052806000815250620002f860201b60201c565b6000600c54600b54600d546064620001ab919062000991565b620001b7919062000991565b620001c3919062000991565b90506200020733600554606484600a54620001df9190620008c9565b620001eb919062000959565b60405180602001604052806000815250620002f860201b60201c565b5062001068565b806002908051906020019062000226929190620007e0565b5050565b600033905090565b6000600360009054906101000a900473ffffffffffffffffffffffffffffffffffffffff16905081600360006101000a81548173ffffffffffffffffffffffffffffffffffffffff021916908373ffffffffffffffffffffffffffffffffffffffff1602179055508173ffffffffffffffffffffffffffffffffffffffff168173ffffffffffffffffffffffffffffffffffffffff167f8be0079c531659141344cd1fd0a4f28419497f9722a3daafe3b4186f6b6457e060405160405180910390a35050565b600073ffffffffffffffffffffffffffffffffffffffff168473ffffffffffffffffffffffffffffffffffffffff1614156200036b576040517f08c379a0000000000000000000000000000000000000000000000000000000008152600401620003629062000a53565b60405180910390fd5b60006200037d6200022a60201b60201c565b905060006200039285620004e060201b60201c565b90506000620003a785620004e060201b60201c565b9050620003c0836000898585896200056160201b60201c565b8460008088815260200190815260200160002060008973ffffffffffffffffffffffffffffffffffffffff1673ffffffffffffffffffffffffffffffffffffffff168152602001908152602001600020600082825462000421919062000a75565b925050819055508673ffffffffffffffffffffffffffffffffffffffff16600073ffffffffffffffffffffffffffffffffffffffff168473ffffffffffffffffffffffffffffffffffffffff167fc3d58168c5ae7397731d063d5bbf3d657854427343f4c083240f7aacaa2d0f628989604051620004a192919062000ae3565b60405180910390a4620004c0836000898585896200056960201b60201c565b620004d7836000898989896200057160201b60201c565b50505050505050565b60606000600167ffffffffffffffff81111562000502576200050162000b10565b5b604051908082528060200260200182016040528015620005315781602001602082028036833780820191505090505b50905082816000815181106200054c576200054b62000b3f565b5b60200260200101818152505080915050919050565b505050505050565b505050505050565b6200059d8473ffffffffffffffffffffffffffffffffffffffff166200076b60201b62000f151760201c565b1562000763578373ffffffffffffffffffffffffffffffffffffffff1663f23a6e6187878686866040518663ffffffff1660e01b8152600401620005e695949392919062000c57565b6020604051808303816000875af19250505080156200062557506040513d601f19601f8201168201806040525081019062000622919062000d27565b60015b620006d7576200063462000d66565b806308c379a014156200069857506200064c62000dc1565b806200065957506200069a565b806040517f08c379a00000000000000000000000000000000000000000000000000000000081526004016200068f919062000eaf565b60405180910390fd5b505b6040517f08c379a0000000000000000000000000000000000000000000000000000000008152600401620006ce9062000f49565b60405180910390fd5b63f23a6e6160e01b7bffffffffffffffffffffffffffffffffffffffffffffffffffffffff1916817bffffffffffffffffffffffffffffffffffffffffffffffffffffffff19161462000761576040517f08c379a0000000000000000000000000000000000000000000000000000000008152600401620007589062000fe1565b60405180910390fd5b505b505050505050565b6000808273ffffffffffffffffffffffffffffffffffffffff163b119050919050565b828054828255906000526020600020908101928215620007cd579160200282015b82811115620007cc578251825591602001919060010190620007af565b5b509050620007dc919062000871565b5090565b828054620007ee9062001032565b90600052602060002090601f0160209004810192826200081257600085556200085e565b82601f106200082d57805160ff19168380011785556200085e565b828001600101855582156200085e579182015b828111156200085d57825182559160200191906001019062000840565b5b5090506200086d919062000871565b5090565b5b808211156200088c57600081600090555060010162000872565b5090565b6000819050919050565b7f4e487b7100000000000000000000000000000000000000000000000000000000600052601160045260246000fd5b6000620008d68262000890565b9150620008e38362000890565b9250817fffffffffffffffffffffffffffffffffffffffffffffffffffffffffffffffff04831182151516156200091f576200091e6200089a565b5b828202905092915050565b7f4e487b7100000000000000000000000000000000000000000000000000000000600052601260045260246000fd5b6000620009668262000890565b9150620009738362000890565b9250826200098657620009856200092a565b5b828204905092915050565b60006200099e8262000890565b9150620009ab8362000890565b925082821015620009c157620009c06200089a565b5b828203905092915050565b600082825260208201905092915050565b7f455243313135353a206d696e7420746f20746865207a65726f2061646472657360008201527f7300000000000000000000000000000000000000000000000000000000000000602082015250565b600062000a3b602183620009cc565b915062000a4882620009dd565b604082019050919050565b6000602082019050818103600083015262000a6e8162000a2c565b9050919050565b600062000a828262000890565b915062000a8f8362000890565b9250827fffffffffffffffffffffffffffffffffffffffffffffffffffffffffffffffff0382111562000ac75762000ac66200089a565b5b828201905092915050565b62000add8162000890565b82525050565b600060408201905062000afa600083018562000ad2565b62000b09602083018462000ad2565b9392505050565b7f4e487b7100000000000000000000000000000000000000000000000000000000600052604160045260246000fd5b7f4e487b7100000000000000000000000000000000000000000000000000000000600052603260045260246000fd5b600073ffffffffffffffffffffffffffffffffffffffff82169050919050565b600062000b9b8262000b6e565b9050919050565b62000bad8162000b8e565b82525050565b600081519050919050565b600082825260208201905092915050565b60005b8381101562000bef57808201518184015260208101905062000bd2565b8381111562000bff576000848401525b50505050565b6000601f19601f8301169050919050565b600062000c238262000bb3565b62000c2f818562000bbe565b935062000c4181856020860162000bcf565b62000c4c8162000c05565b840191505092915050565b600060a08201905062000c6e600083018862000ba2565b62000c7d602083018762000ba2565b62000c8c604083018662000ad2565b62000c9b606083018562000ad2565b818103608083015262000caf818462000c16565b90509695505050505050565b6000604051905090565b600080fd5b60007fffffffff0000000000000000000000000000000000000000000000000000000082169050919050565b62000d018162000cca565b811462000d0d57600080fd5b50565b60008151905062000d218162000cf6565b92915050565b60006020828403121562000d405762000d3f62000cc5565b5b600062000d508482850162000d10565b91505092915050565b60008160e01c9050919050565b600060033d111562000d885760046000803e62000d8560005162000d59565b90505b90565b62000d968262000c05565b810181811067ffffffffffffffff8211171562000db85762000db762000b10565b5b80604052505050565b600060443d101562000dd35762000e60565b62000ddd62000cbb565b60043d036004823e80513d602482011167ffffffffffffffff8211171562000e0757505062000e60565b808201805167ffffffffffffffff81111562000e27575050505062000e60565b80602083010160043d03850181111562000e4657505050505062000e60565b62000e578260200185018662000d8b565b82955050505050505b90565b600081519050919050565b600062000e7b8262000e63565b62000e878185620009cc565b935062000e9981856020860162000bcf565b62000ea48162000c05565b840191505092915050565b6000602082019050818103600083015262000ecb818462000e6e565b905092915050565b7f455243313135353a207472616e7366657220746f206e6f6e2d4552433131353560008201527f526563656976657220696d706c656d656e746572000000000000000000000000602082015250565b600062000f31603483620009cc565b915062000f3e8262000ed3565b604082019050919050565b6000602082019050818103600083015262000f648162000f22565b9050919050565b7f455243313135353a204552433131353552656365697665722072656a6563746560008201527f6420746f6b656e73000000000000000000000000000000000000000000000000602082015250565b600062000fc9602883620009cc565b915062000fd68262000f6b565b604082019050919050565b6000602082019050818103600083015262000ffc8162000fba565b9050919050565b7f4e487b7100000000000000000000000000000000000000000000000000000000600052602260045260246000fd5b600060028204905060018216806200104b57607f821691505b6020821081141562001062576200106162001003565b5b50919050565b61354580620010786000396000f3fe608060405234801561001057600080fd5b506004361061012b5760003560e01c80637f7063e7116100ad578063db40154111610071578063db40154114610340578063e985e9c51461035e578063f242432a1461038e578063f2fde38b146103aa578063f84f7dd0146103c65761012b565b80637f7063e71461029e5780638da5cb5b146102ce578063a22cb465146102ec578063a87d7dd414610308578063c5cc8524146103245761012b565b806321636aa5116100f457806321636aa5146101fa57806328eece13146102185780632eb2c2d6146102485780634e1273f414610264578063715018a6146102945761012b565b8062fdd58e1461013057806301ffc9a7146101605780630e89341c14610190578063169bc486146101c05780631ef16b43146101dc575b600080fd5b61014a60048036038101906101459190611eaa565b6103e4565b6040516101579190611ef9565b60405180910390f35b61017a60048036038101906101759190611f6c565b6104ad565b6040516101879190611fb4565b60405180910390f35b6101aa60048036038101906101a59190611fcf565b61058f565b6040516101b79190612095565b60405180910390f35b6101da60048036038101906101d59190611eaa565b610623565b005b6101e4610784565b6040516101f19190611ef9565b60405180910390f35b61020261078a565b60405161020f9190611ef9565b60405180910390f35b610232600480360381019061022d91906120b7565b610790565b60405161023f91906121a2565b60405180910390f35b610262600480360381019061025d91906123c1565b61095b565b005b61027e60048036038101906102799190612553565b610a4d565b60405161028b91906121a2565b60405180910390f35b61029c610b66565b005b6102b860048036038101906102b39190611fcf565b610b7a565b6040516102c59190611ef9565b60405180910390f35b6102d6610b9e565b6040516102e391906125da565b60405180910390f35b61030660048036038101906103019190612621565b610bc8565b005b610322600480360381019061031d9190611fcf565b610bde565b005b61033e60048036038101906103399190611eaa565b610c66565b005b610348610d39565b6040516103559190611ef9565b60405180910390f35b61037860048036038101906103739190612661565b610d3f565b6040516103859190611fb4565b60405180910390f35b6103a860048036038101906103a391906126a1565b610dd3565b005b6103c460048036038101906103bf91906120b7565b610e8b565b005b6103ce610f0f565b6040516103db9190611ef9565b60405180910390f35b60008073ffffffffffffffffffffffffffffffffffffffff168373ffffffffffffffffffffffffffffffffffffffff161415610455576040517f08c379a000000000000000000000000000000000000000000000000000000000815260040161044c906127aa565b60405180910390fd5b60008083815260200190815260200160002060008473ffffffffffffffffffffffffffffffffffffffff1673ffffffffffffffffffffffffffffffffffffffff16815260200190815260200160002054905092915050565b60007fd9b67a26000000000000000000000000000000000000000000000000000000007bffffffffffffffffffffffffffffffffffffffffffffffffffffffff1916827bffffffffffffffffffffffffffffffffffffffffffffffffffffffff1916148061057857507f0e89341c000000000000000000000000000000000000000000000000000000007bffffffffffffffffffffffffffffffffffffffffffffffffffffffff1916827bffffffffffffffffffffffffffffffffffffffffffffffffffffffff1916145b80610588575061058782610f38565b5b9050919050565b60606002805461059e906127f9565b80601f01602080910402602001604051908101604052809291908181526020018280546105ca906127f9565b80156106175780601f106105ec57610100808354040283529160200191610617565b820191906000526020600020905b8154815290600101906020018083116105fa57829003601f168201915b50505050509050919050565b61062b610fa2565b60011515600460008473ffffffffffffffffffffffffffffffffffffffff1673ffffffffffffffffffffffffffffffffffffffff1681526020019081526020016000206000600554815260200190815260200160002060009054906101000a900460ff161515146106d1576040517f08c379a00000000000000000000000000000000000000000000000000000000081526004016106c890612877565b60405180910390fd5b60011515600460008473ffffffffffffffffffffffffffffffffffffffff1673ffffffffffffffffffffffffffffffffffffffff168152602001908152602001600020600083815260200190815260200160002060009054906101000a900460ff1615151415610776576040517f08c379a000000000000000000000000000000000000000000000000000000000815260040161076d90612909565b60405180910390fd5b6107808282611020565b5050565b60075481565b60055481565b606060011515600460008473ffffffffffffffffffffffffffffffffffffffff1673ffffffffffffffffffffffffffffffffffffffff1681526020019081526020016000206000600554815260200190815260200160002060009054906101000a900460ff16151514610838576040517f08c379a000000000000000000000000000000000000000000000000000000000815260040161082f90612975565b60405180910390fd5b600060098054905067ffffffffffffffff811115610859576108586121c9565b5b6040519080825280602002602001820160405280156108875781602001602082028036833780820191505090505b5090506000600190506000600190505b6009805490508110156109505760011515600460008773ffffffffffffffffffffffffffffffffffffffff1673ffffffffffffffffffffffffffffffffffffffff168152602001908152602001600020600083815260200190815260200160002060009054906101000a900460ff161515141561093d578083838151811061092257610921612995565b5b6020026020010181815250508180610939906129f3565b9250505b8080610948906129f3565b915050610897565b508192505050919050565b60005b8351811015610a385760011515600460008773ffffffffffffffffffffffffffffffffffffffff1673ffffffffffffffffffffffffffffffffffffffff16815260200190815260200160002060008684815181106109bf576109be612995565b5b6020026020010151815260200190815260200160002060009054906101000a900460ff16151514610a25576040517f08c379a0000000000000000000000000000000000000000000000000000000008152600401610a1c90612ad4565b60405180910390fd5b8080610a30906129f3565b91505061095e565b50610a46858585858561108d565b5050505050565b60608151835114610a93576040517f08c379a0000000000000000000000000000000000000000000000000000000008152600401610a8a90612b66565b60405180910390fd5b6000835167ffffffffffffffff811115610ab057610aaf6121c9565b5b604051908082528060200260200182016040528015610ade5781602001602082028036833780820191505090505b50905060005b8451811015610b5b57610b2b858281518110610b0357610b02612995565b5b6020026020010151858381518110610b1e57610b1d612995565b5b60200260200101516103e4565b828281518110610b3e57610b3d612995565b5b60200260200101818152505080610b54906129f3565b9050610ae4565b508091505092915050565b610b6e610fa2565b610b78600061112e565b565b60098181548110610b8a57600080fd5b906000526020600020016000915090505481565b6000600360009054906101000a900473ffffffffffffffffffffffffffffffffffffffff16905090565b610bda610bd36111f4565b83836111fc565b5050565b60008114610c21576040517f08c379a0000000000000000000000000000000000000000000000000000000008152600401610c1890612bd2565b60405180910390fd5b80600e819055507fdb15800a8d1c02fb522125ebb079a495010c82232e903b9d30a7f05979830d2f600e5433604051610c5b929190612bf2565b60405180910390a150565b610c6e610fa2565b60011515600460008473ffffffffffffffffffffffffffffffffffffffff1673ffffffffffffffffffffffffffffffffffffffff1681526020019081526020016000206000600554815260200190815260200160002060009054906101000a900460ff1615151415610d15576040517f08c379a0000000000000000000000000000000000000000000000000000000008152600401610d0c90612c67565b60405180910390fd5b610d2182600554611020565b6005548114610d3557610d348282611020565b5b5050565b60065481565b6000600160008473ffffffffffffffffffffffffffffffffffffffff1673ffffffffffffffffffffffffffffffffffffffff16815260200190815260200160002060008373ffffffffffffffffffffffffffffffffffffffff1673ffffffffffffffffffffffffffffffffffffffff16815260200190815260200160002060009054906101000a900460ff16905092915050565b60011515600460008673ffffffffffffffffffffffffffffffffffffffff1673ffffffffffffffffffffffffffffffffffffffff168152602001908152602001600020600085815260200190815260200160002060009054906101000a900460ff16151514610e77576040517f08c379a0000000000000000000000000000000000000000000000000000000008152600401610e6e90612d1f565b60405180910390fd5b610e848585858585611369565b5050505050565b610e93610fa2565b600073ffffffffffffffffffffffffffffffffffffffff168173ffffffffffffffffffffffffffffffffffffffff161415610f03576040517f08c379a0000000000000000000000000000000000000000000000000000000008152600401610efa90612db1565b60405180910390fd5b610f0c8161112e565b50565b60085481565b6000808273ffffffffffffffffffffffffffffffffffffffff163b119050919050565b60007f01ffc9a7000000000000000000000000000000000000000000000000000000007bffffffffffffffffffffffffffffffffffffffffffffffffffffffff1916827bffffffffffffffffffffffffffffffffffffffffffffffffffffffff1916149050919050565b610faa6111f4565b73ffffffffffffffffffffffffffffffffffffffff16610fc8610b9e565b73ffffffffffffffffffffffffffffffffffffffff161461101e576040517f08c379a000000000000000000000000000000000000000000000000000000000815260040161101590612e1d565b60405180910390fd5b565b6001600460008473ffffffffffffffffffffffffffffffffffffffff1673ffffffffffffffffffffffffffffffffffffffff168152602001908152602001600020600083815260200190815260200160002060006101000a81548160ff0219169083151502179055505050565b6110956111f4565b73ffffffffffffffffffffffffffffffffffffffff168573ffffffffffffffffffffffffffffffffffffffff1614806110db57506110da856110d56111f4565b610d3f565b5b61111a576040517f08c379a000000000000000000000000000000000000000000000000000000000815260040161111190612eaf565b60405180910390fd5b611127858585858561140a565b5050505050565b6000600360009054906101000a900473ffffffffffffffffffffffffffffffffffffffff16905081600360006101000a81548173ffffffffffffffffffffffffffffffffffffffff021916908373ffffffffffffffffffffffffffffffffffffffff1602179055508173ffffffffffffffffffffffffffffffffffffffff168173ffffffffffffffffffffffffffffffffffffffff167f8be0079c531659141344cd1fd0a4f28419497f9722a3daafe3b4186f6b6457e060405160405180910390a35050565b600033905090565b8173ffffffffffffffffffffffffffffffffffffffff168373ffffffffffffffffffffffffffffffffffffffff16141561126b576040517f08c379a000000000000000000000000000000000000000000000000000000000815260040161126290612f41565b60405180910390fd5b80600160008573ffffffffffffffffffffffffffffffffffffffff1673ffffffffffffffffffffffffffffffffffffffff16815260200190815260200160002060008473ffffffffffffffffffffffffffffffffffffffff1673ffffffffffffffffffffffffffffffffffffffff16815260200190815260200160002060006101000a81548160ff0219169083151502179055508173ffffffffffffffffffffffffffffffffffffffff168373ffffffffffffffffffffffffffffffffffffffff167f17307eab39ab6107e8899845ad3d59bd9653f200f220920489ca2b5937696c318360405161135c9190611fb4565b60405180910390a3505050565b6113716111f4565b73ffffffffffffffffffffffffffffffffffffffff168573ffffffffffffffffffffffffffffffffffffffff1614806113b757506113b6856113b16111f4565b610d3f565b5b6113f6576040517f08c379a00000000000000000000000000000000000000000000000000000000081526004016113ed90612eaf565b60405180910390fd5b611403858585858561172c565b5050505050565b815183511461144e576040517f08c379a000000000000000000000000000000000000000000000000000000000815260040161144590612fd3565b60405180910390fd5b600073ffffffffffffffffffffffffffffffffffffffff168473ffffffffffffffffffffffffffffffffffffffff1614156114be576040517f08c379a00000000000000000000000000000000000000000000000000000000081526004016114b590613065565b60405180910390fd5b60006114c86111f4565b90506114d88187878787876119c8565b60005b84518110156116895760008582815181106114f9576114f8612995565b5b60200260200101519050600085838151811061151857611517612995565b5b60200260200101519050600080600084815260200190815260200160002060008b73ffffffffffffffffffffffffffffffffffffffff1673ffffffffffffffffffffffffffffffffffffffff168152602001908152602001600020549050818110156115b9576040517f08c379a00000000000000000000000000000000000000000000000000000000081526004016115b0906130f7565b60405180910390fd5b81810360008085815260200190815260200160002060008c73ffffffffffffffffffffffffffffffffffffffff1673ffffffffffffffffffffffffffffffffffffffff168152602001908152602001600020819055508160008085815260200190815260200160002060008b73ffffffffffffffffffffffffffffffffffffffff1673ffffffffffffffffffffffffffffffffffffffff168152602001908152602001600020600082825461166e9190613117565b9250508190555050505080611682906129f3565b90506114db565b508473ffffffffffffffffffffffffffffffffffffffff168673ffffffffffffffffffffffffffffffffffffffff168273ffffffffffffffffffffffffffffffffffffffff167f4a39dc06d4c0dbc64b70af90fd698a233a518aa5d07e595d983b8c0526c8f7fb878760405161170092919061316d565b60405180910390a46117168187878787876119d0565b6117248187878787876119d8565b505050505050565b600073ffffffffffffffffffffffffffffffffffffffff168473ffffffffffffffffffffffffffffffffffffffff16141561179c576040517f08c379a000000000000000000000000000000000000000000000000000000000815260040161179390613065565b60405180910390fd5b60006117a66111f4565b905060006117b385611bb0565b905060006117c085611bb0565b90506117d08389898585896119c8565b600080600088815260200190815260200160002060008a73ffffffffffffffffffffffffffffffffffffffff1673ffffffffffffffffffffffffffffffffffffffff16815260200190815260200160002054905085811015611867576040517f08c379a000000000000000000000000000000000000000000000000000000000815260040161185e906130f7565b60405180910390fd5b85810360008089815260200190815260200160002060008b73ffffffffffffffffffffffffffffffffffffffff1673ffffffffffffffffffffffffffffffffffffffff168152602001908152602001600020819055508560008089815260200190815260200160002060008a73ffffffffffffffffffffffffffffffffffffffff1673ffffffffffffffffffffffffffffffffffffffff168152602001908152602001600020600082825461191c9190613117565b925050819055508773ffffffffffffffffffffffffffffffffffffffff168973ffffffffffffffffffffffffffffffffffffffff168573ffffffffffffffffffffffffffffffffffffffff167fc3d58168c5ae7397731d063d5bbf3d657854427343f4c083240f7aacaa2d0f628a8a6040516119999291906131a4565b60405180910390a46119af848a8a86868a6119d0565b6119bd848a8a8a8a8a611c2a565b505050505050505050565b505050505050565b505050505050565b6119f78473ffffffffffffffffffffffffffffffffffffffff16610f15565b15611ba8578373ffffffffffffffffffffffffffffffffffffffff1663bc197c8187878686866040518663ffffffff1660e01b8152600401611a3d959493929190613222565b6020604051808303816000875af1925050508015611a7957506040513d601f19601f82011682018060405250810190611a76919061329f565b60015b611b1f57611a856132d9565b806308c379a01415611ae25750611a9a6132fb565b80611aa55750611ae4565b806040517f08c379a0000000000000000000000000000000000000000000000000000000008152600401611ad99190612095565b60405180910390fd5b505b6040517f08c379a0000000000000000000000000000000000000000000000000000000008152600401611b1690613403565b60405180910390fd5b63bc197c8160e01b7bffffffffffffffffffffffffffffffffffffffffffffffffffffffff1916817bffffffffffffffffffffffffffffffffffffffffffffffffffffffff191614611ba6576040517f08c379a0000000000000000000000000000000000000000000000000000000008152600401611b9d90613495565b60405180910390fd5b505b505050505050565b60606000600167ffffffffffffffff811115611bcf57611bce6121c9565b5b604051908082528060200260200182016040528015611bfd5781602001602082028036833780820191505090505b5090508281600081518110611c1557611c14612995565b5b60200260200101818152505080915050919050565b611c498473ffffffffffffffffffffffffffffffffffffffff16610f15565b15611dfa578373ffffffffffffffffffffffffffffffffffffffff1663f23a6e6187878686866040518663ffffffff1660e01b8152600401611c8f9594939291906134b5565b6020604051808303816000875af1925050508015611ccb57506040513d601f19601f82011682018060405250810190611cc8919061329f565b60015b611d7157611cd76132d9565b806308c379a01415611d345750611cec6132fb565b80611cf75750611d36565b806040517f08c379a0000000000000000000000000000000000000000000000000000000008152600401611d2b9190612095565b60405180910390fd5b505b6040517f08c379a0000000000000000000000000000000000000000000000000000000008152600401611d6890613403565b60405180910390fd5b63f23a6e6160e01b7bffffffffffffffffffffffffffffffffffffffffffffffffffffffff1916817bffffffffffffffffffffffffffffffffffffffffffffffffffffffff191614611df8576040517f08c379a0000000000000000000000000000000000000000000000000000000008152600401611def90613495565b60405180910390fd5b505b505050505050565b6000604051905090565b600080fd5b600080fd5b600073ffffffffffffffffffffffffffffffffffffffff82169050919050565b6000611e4182611e16565b9050919050565b611e5181611e36565b8114611e5c57600080fd5b50565b600081359050611e6e81611e48565b92915050565b6000819050919050565b611e8781611e74565b8114611e9257600080fd5b50565b600081359050611ea481611e7e565b92915050565b60008060408385031215611ec157611ec0611e0c565b5b6000611ecf85828601611e5f565b9250506020611ee085828601611e95565b9150509250929050565b611ef381611e74565b82525050565b6000602082019050611f0e6000830184611eea565b92915050565b60007fffffffff0000000000000000000000000000000000000000000000000000000082169050919050565b611f4981611f14565b8114611f5457600080fd5b50565b600081359050611f6681611f40565b92915050565b600060208284031215611f8257611f81611e0c565b5b6000611f9084828501611f57565b91505092915050565b60008115159050919050565b611fae81611f99565b82525050565b6000602082019050611fc96000830184611fa5565b92915050565b600060208284031215611fe557611fe4611e0c565b5b6000611ff384828501611e95565b91505092915050565b600081519050919050565b600082825260208201905092915050565b60005b8381101561203657808201518184015260208101905061201b565b83811115612045576000848401525b50505050565b6000601f19601f8301169050919050565b600061206782611ffc565b6120718185612007565b9350612081818560208601612018565b61208a8161204b565b840191505092915050565b600060208201905081810360008301526120af818461205c565b905092915050565b6000602082840312156120cd576120cc611e0c565b5b60006120db84828501611e5f565b91505092915050565b600081519050919050565b600082825260208201905092915050565b6000819050602082019050919050565b61211981611e74565b82525050565b600061212b8383612110565b60208301905092915050565b6000602082019050919050565b600061214f826120e4565b61215981856120ef565b935061216483612100565b8060005b8381101561219557815161217c888261211f565b975061218783612137565b925050600181019050612168565b5085935050505092915050565b600060208201905081810360008301526121bc8184612144565b905092915050565b600080fd5b7f4e487b7100000000000000000000000000000000000000000000000000000000600052604160045260246000fd5b6122018261204b565b810181811067ffffffffffffffff821117156122205761221f6121c9565b5b80604052505050565b6000612233611e02565b905061223f82826121f8565b919050565b600067ffffffffffffffff82111561225f5761225e6121c9565b5b602082029050602081019050919050565b600080fd5b600061228861228384612244565b612229565b905080838252602082019050602084028301858111156122ab576122aa612270565b5b835b818110156122d457806122c08882611e95565b8452602084019350506020810190506122ad565b5050509392505050565b600082601f8301126122f3576122f26121c4565b5b8135612303848260208601612275565b91505092915050565b600080fd5b600067ffffffffffffffff82111561232c5761232b6121c9565b5b6123358261204b565b9050602081019050919050565b82818337600083830152505050565b600061236461235f84612311565b612229565b9050828152602081018484840111156123805761237f61230c565b5b61238b848285612342565b509392505050565b600082601f8301126123a8576123a76121c4565b5b81356123b8848260208601612351565b91505092915050565b600080600080600060a086880312156123dd576123dc611e0c565b5b60006123eb88828901611e5f565b95505060206123fc88828901611e5f565b945050604086013567ffffffffffffffff81111561241d5761241c611e11565b5b612429888289016122de565b935050606086013567ffffffffffffffff81111561244a57612449611e11565b5b612456888289016122de565b925050608086013567ffffffffffffffff81111561247757612476611e11565b5b61248388828901612393565b9150509295509295909350565b600067ffffffffffffffff8211156124ab576124aa6121c9565b5b602082029050602081019050919050565b60006124cf6124ca84612490565b612229565b905080838252602082019050602084028301858111156124f2576124f1612270565b5b835b8181101561251b57806125078882611e5f565b8452602084019350506020810190506124f4565b5050509392505050565b600082601f83011261253a576125396121c4565b5b813561254a8482602086016124bc565b91505092915050565b6000806040838503121561256a57612569611e0c565b5b600083013567ffffffffffffffff81111561258857612587611e11565b5b61259485828601612525565b925050602083013567ffffffffffffffff8111156125b5576125b4611e11565b5b6125c1858286016122de565b9150509250929050565b6125d481611e36565b82525050565b60006020820190506125ef60008301846125cb565b92915050565b6125fe81611f99565b811461260957600080fd5b50565b60008135905061261b816125f5565b92915050565b6000806040838503121561263857612637611e0c565b5b600061264685828601611e5f565b92505060206126578582860161260c565b9150509250929050565b6000806040838503121561267857612677611e0c565b5b600061268685828601611e5f565b925050602061269785828601611e5f565b9150509250929050565b600080600080600060a086880312156126bd576126bc611e0c565b5b60006126cb88828901611e5f565b95505060206126dc88828901611e5f565b94505060406126ed88828901611e95565b93505060606126fe88828901611e95565b925050608086013567ffffffffffffffff81111561271f5761271e611e11565b5b61272b88828901612393565b9150509295509295909350565b7f455243313135353a2061646472657373207a65726f206973206e6f742061207660008201527f616c6964206f776e657200000000000000000000000000000000000000000000602082015250565b6000612794602a83612007565b915061279f82612738565b604082019050919050565b600060208201905081810360008301526127c381612787565b9050919050565b7f4e487b7100000000000000000000000000000000000000000000000000000000600052602260045260246000fd5b6000600282049050600182168061281157607f821691505b60208210811415612825576128246127ca565b5b50919050565b7f506c6561736520616464206f7267616e697a6174696f6e206669727374000000600082015250565b6000612861601d83612007565b915061286c8261282b565b602082019050919050565b6000602082019050818103600083015261289081612854565b9050919050565b7f6172656120616c72656164792073657420666f722074686973206f7267616e6960008201527f7a6174696f6e0000000000000000000000000000000000000000000000000000602082015250565b60006128f3602683612007565b91506128fe82612897565b604082019050919050565b60006020820190508181036000830152612922816128e6565b9050919050565b7f6f7267616e697a6174696f6e206e6f7420616464656400000000000000000000600082015250565b600061295f601683612007565b915061296a82612929565b602082019050919050565b6000602082019050818103600083015261298e81612952565b9050919050565b7f4e487b7100000000000000000000000000000000000000000000000000000000600052603260045260246000fd5b7f4e487b7100000000000000000000000000000000000000000000000000000000600052601160045260246000fd5b60006129fe82611e74565b91507fffffffffffffffffffffffffffffffffffffffffffffffffffffffffffffffff821415612a3157612a306129c4565b5b600182019050919050565b7f74686973206f7267616e697a6174696f6e20646f6573206e6f7420686176652060008201527f7065726d697373696f6e20746f20726563656976652070617274206f6620746860208201527f6520626174636800000000000000000000000000000000000000000000000000604082015250565b6000612abe604783612007565b9150612ac982612a3c565b606082019050919050565b60006020820190508181036000830152612aed81612ab1565b9050919050565b7f455243313135353a206163636f756e747320616e6420696473206c656e67746860008201527f206d69736d617463680000000000000000000000000000000000000000000000602082015250565b6000612b50602983612007565b9150612b5b82612af4565b604082019050919050565b60006020820190508181036000830152612b7f81612b43565b9050919050565b7f74726f73736f7175616c71756572206e616f206568207a65726f000000000000600082015250565b6000612bbc601a83612007565b9150612bc782612b86565b602082019050919050565b60006020820190508181036000830152612beb81612baf565b9050919050565b6000604082019050612c076000830185611eea565b612c1460208301846125cb565b9392505050565b7f6164647265737320616c72656164792061646465640000000000000000000000600082015250565b6000612c51601583612007565b9150612c5c82612c1b565b602082019050919050565b60006020820190508181036000830152612c8081612c44565b9050919050565b7f74686973206f7267616e697a6174696f6e20646f6573206e6f7420686176652060008201527f7065726d697373696f6e20746f2072656365697665207468697320627564676560208201527f7400000000000000000000000000000000000000000000000000000000000000604082015250565b6000612d09604183612007565b9150612d1482612c87565b606082019050919050565b60006020820190508181036000830152612d3881612cfc565b9050919050565b7f4f776e61626c653a206e6577206f776e657220697320746865207a65726f206160008201527f6464726573730000000000000000000000000000000000000000000000000000602082015250565b6000612d9b602683612007565b9150612da682612d3f565b604082019050919050565b60006020820190508181036000830152612dca81612d8e565b9050919050565b7f4f776e61626c653a2063616c6c6572206973206e6f7420746865206f776e6572600082015250565b6000612e07602083612007565b9150612e1282612dd1565b602082019050919050565b60006020820190508181036000830152612e3681612dfa565b9050919050565b7f455243313135353a2063616c6c6572206973206e6f7420746f6b656e206f776e60008201527f6572206f7220617070726f766564000000000000000000000000000000000000602082015250565b6000612e99602e83612007565b9150612ea482612e3d565b604082019050919050565b60006020820190508181036000830152612ec881612e8c565b9050919050565b7f455243313135353a2073657474696e6720617070726f76616c2073746174757360008201527f20666f722073656c660000000000000000000000000000000000000000000000602082015250565b6000612f2b602983612007565b9150612f3682612ecf565b604082019050919050565b60006020820190508181036000830152612f5a81612f1e565b9050919050565b7f455243313135353a2069647320616e6420616d6f756e7473206c656e6774682060008201527f6d69736d61746368000000000000000000000000000000000000000000000000602082015250565b6000612fbd602883612007565b9150612fc882612f61565b604082019050919050565b60006020820190508181036000830152612fec81612fb0565b9050919050565b7f455243313135353a207472616e7366657220746f20746865207a65726f20616460008201527f6472657373000000000000000000000000000000000000000000000000000000602082015250565b600061304f602583612007565b915061305a82612ff3565b604082019050919050565b6000602082019050818103600083015261307e81613042565b9050919050565b7f455243313135353a20696e73756666696369656e742062616c616e636520666f60008201527f72207472616e7366657200000000000000000000000000000000000000000000602082015250565b60006130e1602a83612007565b91506130ec82613085565b604082019050919050565b60006020820190508181036000830152613110816130d4565b9050919050565b600061312282611e74565b915061312d83611e74565b9250827fffffffffffffffffffffffffffffffffffffffffffffffffffffffffffffffff03821115613162576131616129c4565b5b828201905092915050565b600060408201905081810360008301526131878185612144565b9050818103602083015261319b8184612144565b90509392505050565b60006040820190506131b96000830185611eea565b6131c66020830184611eea565b9392505050565b600081519050919050565b600082825260208201905092915050565b60006131f4826131cd565b6131fe81856131d8565b935061320e818560208601612018565b6132178161204b565b840191505092915050565b600060a08201905061323760008301886125cb565b61324460208301876125cb565b81810360408301526132568186612144565b9050818103606083015261326a8185612144565b9050818103608083015261327e81846131e9565b90509695505050505050565b60008151905061329981611f40565b92915050565b6000602082840312156132b5576132b4611e0c565b5b60006132c38482850161328a565b91505092915050565b60008160e01c9050919050565b600060033d11156132f85760046000803e6132f56000516132cc565b90505b90565b600060443d101561330b5761338e565b613313611e02565b60043d036004823e80513d602482011167ffffffffffffffff8211171561333b57505061338e565b808201805167ffffffffffffffff811115613359575050505061338e565b80602083010160043d03850181111561337657505050505061338e565b613385826020018501866121f8565b82955050505050505b90565b7f455243313135353a207472616e7366657220746f206e6f6e2d4552433131353560008201527f526563656976657220696d706c656d656e746572000000000000000000000000602082015250565b60006133ed603483612007565b91506133f882613391565b604082019050919050565b6000602082019050818103600083015261341c816133e0565b9050919050565b7f455243313135353a204552433131353552656365697665722072656a6563746560008201527f6420746f6b656e73000000000000000000000000000000000000000000000000602082015250565b600061347f602883612007565b915061348a82613423565b604082019050919050565b600060208201905081810360008301526134ae81613472565b9050919050565b600060a0820190506134ca60008301886125cb565b6134d760208301876125cb565b6134e46040830186611eea565b6134f16060830185611eea565b818103608083015261350381846131e9565b9050969550505050505056fea264697066735822122094676058802c6eeb77fbcb1cd24f159f1288bf1f71d42d76bbd2abff7884a12f64736f6c634300080a003368747470733a2f2f636f6e736f6c652e66696c65626173652e636f6d2f6275636b6574732f6170702d6f7263616d656e746f2f7b617265617d2e6a736f6e",
  "devdoc": {
    "kind": "dev",
    "methods": {
      "balanceOf(address,uint256)": {
        "details": "See {IERC1155-balanceOf}. Requirements: - `account` cannot be the zero address."
      },
      "balanceOfBatch(address[],uint256[])": {
        "details": "See {IERC1155-balanceOfBatch}. Requirements: - `accounts` and `ids` must have the same length."
      },
      "isApprovedForAll(address,address)": {
        "details": "See {IERC1155-isApprovedForAll}."
      },
      "owner()": {
        "details": "Returns the address of the current owner."
      },
      "renounceOwnership()": {
        "details": "Leaves the contract without owner. It will not be possible to call `onlyOwner` functions anymore. Can only be called by the current owner. NOTE: Renouncing ownership will leave the contract without an owner, thereby removing any functionality that is only available to the owner."
      },
      "setApprovalForAll(address,bool)": {
        "details": "See {IERC1155-setApprovalForAll}."
      },
      "supportsInterface(bytes4)": {
        "details": "See {IERC165-supportsInterface}."
      },
      "transferOwnership(address)": {
        "details": "Transfers ownership of the contract to a new account (`newOwner`). Can only be called by the current owner."
      },
      "uri(uint256)": {
        "details": "See {IERC1155MetadataURI-uri}. This implementation returns the same URI for *all* token types. It relies on the token type ID substitution mechanism https://eips.ethereum.org/EIPS/eip-1155#metadata[defined in the EIP]. Clients calling this function must replace the `\\{id\\}` substring with the actual token type ID."
      }
    },
    "stateVariables": {
      "_orgArea": {
        "details": "mapping address to policy area to bool"
      }
    },
    "version": 1
  },
  "userdoc": {
    "kind": "user",
    "methods": {},
    "version": 1
  },
  "storageLayout": {
    "storage": [
      {
        "astId": 138,
        "contract": "contracts/orcamento.sol:OrcamentoUniao2023",
        "label": "_balances",
        "offset": 0,
        "slot": "0",
        "type": "t_mapping(t_uint256,t_mapping(t_address,t_uint256))"
      },
      {
        "astId": 144,
        "contract": "contracts/orcamento.sol:OrcamentoUniao2023",
        "label": "_operatorApprovals",
        "offset": 0,
        "slot": "1",
        "type": "t_mapping(t_address,t_mapping(t_address,t_bool))"
      },
      {
        "astId": 146,
        "contract": "contracts/orcamento.sol:OrcamentoUniao2023",
        "label": "_uri",
        "offset": 0,
        "slot": "2",
        "type": "t_string_storage"
      },
      {
        "astId": 7,
        "contract": "contracts/orcamento.sol:OrcamentoUniao2023",
        "label": "_owner",
        "offset": 0,
        "slot": "3",
        "type": "t_address"
      },
      {
        "astId": 1916,
        "contract": "contracts/orcamento.sol:OrcamentoUniao2023",
        "label": "_orgArea",
        "offset": 0,
        "slot": "4",
        "type": "t_mapping(t_address,t_mapping(t_uint256,t_bool))"
      },
      {
        "astId": 1919,
        "contract": "contracts/orcamento.sol:OrcamentoUniao2023",
        "label": "OUTROS",
        "offset": 0,
        "slot": "5",
        "type": "t_uint256"
      },
      {
        "astId": 1922,
        "contract": "contracts/orcamento.sol:OrcamentoUniao2023",
        "label": "EDUCACAO",
        "offset": 0,
        "slot": "6",
        "type": "t_uint256"
      },
      {
        "astId": 1925,
        "contract": "contracts/orcamento.sol:OrcamentoUniao2023",
        "label": "INFRA",
        "offset": 0,
        "slot": "7",
        "type": "t_uint256"
      },
      {
        "astId": 1928,
        "contract": "contracts/orcamento.sol:OrcamentoUniao2023",
        "label": "SAUDE",
        "offset": 0,
        "slot": "8",
        "type": "t_uint256"
      },
      {
        "astId": 1936,
        "contract": "contracts/orcamento.sol:OrcamentoUniao2023",
        "label": "AREAS",
        "offset": 0,
        "slot": "9",
        "type": "t_array(t_uint256)dyn_storage"
      },
      {
        "astId": 1941,
        "contract": "contracts/orcamento.sol:OrcamentoUniao2023",
        "label": "_budget",
        "offset": 0,
        "slot": "10",
        "type": "t_uint256"
      },
      {
        "astId": 1944,
        "contract": "contracts/orcamento.sol:OrcamentoUniao2023",
        "label": "_ed",
        "offset": 0,
        "slot": "11",
        "type": "t_uint256"
      },
      {
        "astId": 1947,
        "contract": "contracts/orcamento.sol:OrcamentoUniao2023",
        "label": "_infra",
        "offset": 0,
        "slot": "12",
        "type": "t_uint256"
      },
      {
        "astId": 1950,
        "contract": "contracts/orcamento.sol:OrcamentoUniao2023",
        "label": "_health",
        "offset": 0,
        "slot": "13",
        "type": "t_uint256"
      },
      {
        "astId": 2274,
        "contract": "contracts/orcamento.sol:OrcamentoUniao2023",
        "label": "umValor",
        "offset": 0,
        "slot": "14",
        "type": "t_uint256"
      }
    ],
    "types": {
      "t_address": {
        "encoding": "inplace",
        "label": "address",
        "numberOfBytes": "20"
      },
      "t_array(t_uint256)dyn_storage": {
        "base": "t_uint256",
        "encoding": "dynamic_array",
        "label": "uint256[]",
        "numberOfBytes": "32"
      },
      "t_bool": {
        "encoding": "inplace",
        "label": "bool",
        "numberOfBytes": "1"
      },
      "t_mapping(t_address,t_bool)": {
        "encoding": "mapping",
        "key": "t_address",
        "label": "mapping(address => bool)",
        "numberOfBytes": "32",
        "value": "t_bool"
      },
      "t_mapping(t_address,t_mapping(t_address,t_bool))": {
        "encoding": "mapping",
        "key": "t_address",
        "label": "mapping(address => mapping(address => bool))",
        "numberOfBytes": "32",
        "value": "t_mapping(t_address,t_bool)"
      },
      "t_mapping(t_address,t_mapping(t_uint256,t_bool))": {
        "encoding": "mapping",
        "key": "t_address",
        "label": "mapping(address => mapping(uint256 => bool))",
        "numberOfBytes": "32",
        "value": "t_mapping(t_uint256,t_bool)"
      },
      "t_mapping(t_address,t_uint256)": {
        "encoding": "mapping",
        "key": "t_address",
        "label": "mapping(address => uint256)",
        "numberOfBytes": "32",
        "value": "t_uint256"
      },
      "t_mapping(t_uint256,t_bool)": {
        "encoding": "mapping",
        "key": "t_uint256",
        "label": "mapping(uint256 => bool)",
        "numberOfBytes": "32",
        "value": "t_bool"
      },
      "t_mapping(t_uint256,t_mapping(t_address,t_uint256))": {
        "encoding": "mapping",
        "key": "t_uint256",
        "label": "mapping(uint256 => mapping(address => uint256))",
        "numberOfBytes": "32",
        "value": "t_mapping(t_address,t_uint256)"
      },
      "t_string_storage": {
        "encoding": "bytes",
        "label": "string",
        "numberOfBytes": "32"
      },
      "t_uint256": {
        "encoding": "inplace",
        "label": "uint256",
        "numberOfBytes": "32"
      }
    }
  }
}