{
  "address": "0x5FbDB2315678afecb367f032d93F642f64180aa3",
  "abi": [
    {
      "inputs": [],
      "stateMutability": "nonpayable",
      "type": "constructor"
    },
    {
      "anonymous": false,
      "inputs": [
        {
          "indexed": true,
          "internalType": "address",
          "name": "account",
          "type": "address"
        },
        {
          "indexed": true,
          "internalType": "address",
          "name": "operator",
          "type": "address"
        },
        {
          "indexed": false,
          "internalType": "bool",
          "name": "approved",
          "type": "bool"
        }
      ],
      "name": "ApprovalForAll",
      "type": "event"
    },
    {
      "anonymous": false,
      "inputs": [
        {
          "indexed": true,
          "internalType": "address",
          "name": "previousOwner",
          "type": "address"
        },
        {
          "indexed": true,
          "internalType": "address",
          "name": "newOwner",
          "type": "address"
        }
      ],
      "name": "OwnershipTransferred",
      "type": "event"
    },
    {
      "anonymous": false,
      "inputs": [
        {
          "indexed": true,
          "internalType": "address",
          "name": "account",
          "type": "address"
        },
        {
          "indexed": true,
          "internalType": "uint256",
          "name": "area",
          "type": "uint256"
        },
        {
          "indexed": true,
          "internalType": "bool",
          "name": "added",
          "type": "bool"
        },
        {
          "indexed": false,
          "internalType": "string",
          "name": "name",
          "type": "string"
        }
      ],
      "name": "Registry",
      "type": "event"
    },
    {
      "anonymous": false,
      "inputs": [
        {
          "indexed": true,
          "internalType": "address",
          "name": "operator",
          "type": "address"
        },
        {
          "indexed": true,
          "internalType": "address",
          "name": "from",
          "type": "address"
        },
        {
          "indexed": true,
          "internalType": "address",
          "name": "to",
          "type": "address"
        },
        {
          "indexed": false,
          "internalType": "uint256[]",
          "name": "ids",
          "type": "uint256[]"
        },
        {
          "indexed": false,
          "internalType": "uint256[]",
          "name": "values",
          "type": "uint256[]"
        }
      ],
      "name": "TransferBatch",
      "type": "event"
    },
    {
      "anonymous": false,
      "inputs": [
        {
          "indexed": true,
          "internalType": "address",
          "name": "operator",
          "type": "address"
        },
        {
          "indexed": true,
          "internalType": "address",
          "name": "from",
          "type": "address"
        },
        {
          "indexed": true,
          "internalType": "address",
          "name": "to",
          "type": "address"
        },
        {
          "indexed": false,
          "internalType": "uint256",
          "name": "id",
          "type": "uint256"
        },
        {
          "indexed": false,
          "internalType": "uint256",
          "name": "value",
          "type": "uint256"
        }
      ],
      "name": "TransferSingle",
      "type": "event"
    },
    {
      "anonymous": false,
      "inputs": [
        {
          "indexed": false,
          "internalType": "string",
          "name": "value",
          "type": "string"
        },
        {
          "indexed": true,
          "internalType": "uint256",
          "name": "id",
          "type": "uint256"
        }
      ],
      "name": "URI",
      "type": "event"
    },
    {
      "inputs": [
        {
          "internalType": "uint256",
          "name": "",
          "type": "uint256"
        }
      ],
      "name": "AREAS",
      "outputs": [
        {
          "internalType": "uint256",
          "name": "",
          "type": "uint256"
        }
      ],
      "stateMutability": "view",
      "type": "function"
    },
    {
      "inputs": [],
      "name": "EDUCACAO",
      "outputs": [
        {
          "internalType": "uint256",
          "name": "",
          "type": "uint256"
        }
      ],
      "stateMutability": "view",
      "type": "function"
    },
    {
      "inputs": [],
      "name": "INFRA",
      "outputs": [
        {
          "internalType": "uint256",
          "name": "",
          "type": "uint256"
        }
      ],
      "stateMutability": "view",
      "type": "function"
    },
    {
      "inputs": [],
      "name": "OUTROS",
      "outputs": [
        {
          "internalType": "uint256",
          "name": "",
          "type": "uint256"
        }
      ],
      "stateMutability": "view",
      "type": "function"
    },
    {
      "inputs": [],
      "name": "SAUDE",
      "outputs": [
        {
          "internalType": "uint256",
          "name": "",
          "type": "uint256"
        }
      ],
      "stateMutability": "view",
      "type": "function"
    },
    {
      "inputs": [
        {
          "internalType": "address",
          "name": "org",
          "type": "address"
        },
        {
          "internalType": "uint256",
          "name": "area",
          "type": "uint256"
        }
      ],
      "name": "addArea",
      "outputs": [],
      "stateMutability": "nonpayable",
      "type": "function"
    },
    {
      "inputs": [
        {
          "internalType": "address",
          "name": "org",
          "type": "address"
        },
        {
          "internalType": "uint256",
          "name": "area",
          "type": "uint256"
        },
        {
          "internalType": "string",
          "name": "name",
          "type": "string"
        }
      ],
      "name": "addOrg",
      "outputs": [],
      "stateMutability": "nonpayable",
      "type": "function"
    },
    {
      "inputs": [
        {
          "internalType": "address",
          "name": "account",
          "type": "address"
        },
        {
          "internalType": "uint256",
          "name": "id",
          "type": "uint256"
        }
      ],
      "name": "balanceOf",
      "outputs": [
        {
          "internalType": "uint256",
          "name": "",
          "type": "uint256"
        }
      ],
      "stateMutability": "view",
      "type": "function"
    },
    {
      "inputs": [
        {
          "internalType": "address[]",
          "name": "accounts",
          "type": "address[]"
        },
        {
          "internalType": "uint256[]",
          "name": "ids",
          "type": "uint256[]"
        }
      ],
      "name": "balanceOfBatch",
      "outputs": [
        {
          "internalType": "uint256[]",
          "name": "",
          "type": "uint256[]"
        }
      ],
      "stateMutability": "view",
      "type": "function"
    },
    {
      "inputs": [
        {
          "internalType": "address",
          "name": "from",
          "type": "address"
        },
        {
          "internalType": "uint256",
          "name": "area",
          "type": "uint256"
        },
        {
          "internalType": "uint256",
          "name": "amount",
          "type": "uint256"
        }
      ],
      "name": "burn",
      "outputs": [],
      "stateMutability": "nonpayable",
      "type": "function"
    },
    {
      "inputs": [
        {
          "internalType": "string",
          "name": "name",
          "type": "string"
        }
      ],
      "name": "getAddress",
      "outputs": [
        {
          "internalType": "address",
          "name": "",
          "type": "address"
        }
      ],
      "stateMutability": "view",
      "type": "function"
    },
    {
      "inputs": [
        {
          "internalType": "address",
          "name": "org",
          "type": "address"
        }
      ],
      "name": "getAreas",
      "outputs": [
        {
          "internalType": "uint256[]",
          "name": "",
          "type": "uint256[]"
        }
      ],
      "stateMutability": "view",
      "type": "function"
    },
    {
      "inputs": [
        {
          "internalType": "address",
          "name": "org",
          "type": "address"
        }
      ],
      "name": "getName",
      "outputs": [
        {
          "internalType": "string",
          "name": "",
          "type": "string"
        }
      ],
      "stateMutability": "view",
      "type": "function"
    },
    {
      "inputs": [
        {
          "internalType": "address",
          "name": "account",
          "type": "address"
        },
        {
          "internalType": "address",
          "name": "operator",
          "type": "address"
        }
      ],
      "name": "isApprovedForAll",
      "outputs": [
        {
          "internalType": "bool",
          "name": "",
          "type": "bool"
        }
      ],
      "stateMutability": "view",
      "type": "function"
    },
    {
      "inputs": [
        {
          "internalType": "address",
          "name": "to",
          "type": "address"
        },
        {
          "internalType": "uint256",
          "name": "area",
          "type": "uint256"
        },
        {
          "internalType": "uint256",
          "name": "amount",
          "type": "uint256"
        }
      ],
      "name": "mint",
      "outputs": [],
      "stateMutability": "nonpayable",
      "type": "function"
    },
    {
      "inputs": [],
      "name": "owner",
      "outputs": [
        {
          "internalType": "address",
          "name": "",
          "type": "address"
        }
      ],
      "stateMutability": "view",
      "type": "function"
    },
    {
      "inputs": [],
      "name": "renounceOwnership",
      "outputs": [],
      "stateMutability": "nonpayable",
      "type": "function"
    },
    {
      "inputs": [
        {
          "internalType": "address",
          "name": "from",
          "type": "address"
        },
        {
          "internalType": "address",
          "name": "to",
          "type": "address"
        },
        {
          "internalType": "uint256[]",
          "name": "areas",
          "type": "uint256[]"
        },
        {
          "internalType": "uint256[]",
          "name": "amounts",
          "type": "uint256[]"
        },
        {
          "internalType": "bytes",
          "name": "data",
          "type": "bytes"
        }
      ],
      "name": "safeBatchTransferFrom",
      "outputs": [],
      "stateMutability": "nonpayable",
      "type": "function"
    },
    {
      "inputs": [
        {
          "internalType": "address",
          "name": "from",
          "type": "address"
        },
        {
          "internalType": "address",
          "name": "to",
          "type": "address"
        },
        {
          "internalType": "uint256",
          "name": "area",
          "type": "uint256"
        },
        {
          "internalType": "uint256",
          "name": "amount",
          "type": "uint256"
        },
        {
          "internalType": "bytes",
          "name": "data",
          "type": "bytes"
        }
      ],
      "name": "safeTransferFrom",
      "outputs": [],
      "stateMutability": "nonpayable",
      "type": "function"
    },
    {
      "inputs": [
        {
          "internalType": "address",
          "name": "operator",
          "type": "address"
        },
        {
          "internalType": "bool",
          "name": "approved",
          "type": "bool"
        }
      ],
      "name": "setApprovalForAll",
      "outputs": [],
      "stateMutability": "nonpayable",
      "type": "function"
    },
    {
      "inputs": [
        {
          "internalType": "address",
          "name": "org",
          "type": "address"
        },
        {
          "internalType": "uint256",
          "name": "area",
          "type": "uint256"
        }
      ],
      "name": "subArea",
      "outputs": [],
      "stateMutability": "nonpayable",
      "type": "function"
    },
    {
      "inputs": [
        {
          "internalType": "address",
          "name": "org",
          "type": "address"
        }
      ],
      "name": "subOrg",
      "outputs": [],
      "stateMutability": "nonpayable",
      "type": "function"
    },
    {
      "inputs": [
        {
          "internalType": "bytes4",
          "name": "interfaceId",
          "type": "bytes4"
        }
      ],
      "name": "supportsInterface",
      "outputs": [
        {
          "internalType": "bool",
          "name": "",
          "type": "bool"
        }
      ],
      "stateMutability": "view",
      "type": "function"
    },
    {
      "inputs": [
        {
          "internalType": "address",
          "name": "newOwner",
          "type": "address"
        }
      ],
      "name": "transferOwnership",
      "outputs": [],
      "stateMutability": "nonpayable",
      "type": "function"
    },
    {
      "inputs": [
        {
          "internalType": "uint256",
          "name": "",
          "type": "uint256"
        }
      ],
      "name": "uri",
      "outputs": [
        {
          "internalType": "string",
          "name": "",
          "type": "string"
        }
      ],
      "stateMutability": "view",
      "type": "function"
    }
  ],
  "transactionHash": "0x86272e9e99099de92f5440a54ca06dcc95a11b2bf1726e5a34ba420710b29a0e",
  "args": [],
  "numDeployments": 1,
  "solcInputHash": "2b3f3c7acba1cee79e101d3e44c58000",
  "bytecode": "0x60806040526000600755600160085560026009556003600a556040518060800160405280600754815260200160085481526020016009548152602001600a54815250600b906004620000539291906200078e565b5064e8d4a51000600c556005600d55600a600e556005600f553480156200007957600080fd5b506040518060600160405280603e81526020016200591d603e9139620000a5816200020e60201b60201c565b50620000c6620000ba6200022a60201b60201c565b6200023260201b60201c565b6200010a33600a546064600f54600c54620000e29190620008c9565b620000ee919062000959565b60405180602001604052806000815250620002f860201b60201c565b6200014e336008546064600d54600c54620001269190620008c9565b62000132919062000959565b60405180602001604052806000815250620002f860201b60201c565b62000192336009546064600e54600c546200016a9190620008c9565b62000176919062000959565b60405180602001604052806000815250620002f860201b60201c565b6000600e54600d54600f546064620001ab919062000991565b620001b7919062000991565b620001c3919062000991565b90506200020733600754606484600c54620001df9190620008c9565b620001eb919062000959565b60405180602001604052806000815250620002f860201b60201c565b5062001068565b806002908051906020019062000226929190620007e0565b5050565b600033905090565b6000600360009054906101000a900473ffffffffffffffffffffffffffffffffffffffff16905081600360006101000a81548173ffffffffffffffffffffffffffffffffffffffff021916908373ffffffffffffffffffffffffffffffffffffffff1602179055508173ffffffffffffffffffffffffffffffffffffffff168173ffffffffffffffffffffffffffffffffffffffff167f8be0079c531659141344cd1fd0a4f28419497f9722a3daafe3b4186f6b6457e060405160405180910390a35050565b600073ffffffffffffffffffffffffffffffffffffffff168473ffffffffffffffffffffffffffffffffffffffff1614156200036b576040517f08c379a0000000000000000000000000000000000000000000000000000000008152600401620003629062000a53565b60405180910390fd5b60006200037d6200022a60201b60201c565b905060006200039285620004e060201b60201c565b90506000620003a785620004e060201b60201c565b9050620003c0836000898585896200056160201b60201c565b8460008088815260200190815260200160002060008973ffffffffffffffffffffffffffffffffffffffff1673ffffffffffffffffffffffffffffffffffffffff168152602001908152602001600020600082825462000421919062000a75565b925050819055508673ffffffffffffffffffffffffffffffffffffffff16600073ffffffffffffffffffffffffffffffffffffffff168473ffffffffffffffffffffffffffffffffffffffff167fc3d58168c5ae7397731d063d5bbf3d657854427343f4c083240f7aacaa2d0f628989604051620004a192919062000ae3565b60405180910390a4620004c0836000898585896200056960201b60201c565b620004d7836000898989896200057160201b60201c565b50505050505050565b60606000600167ffffffffffffffff81111562000502576200050162000b10565b5b604051908082528060200260200182016040528015620005315781602001602082028036833780820191505090505b50905082816000815181106200054c576200054b62000b3f565b5b60200260200101818152505080915050919050565b505050505050565b505050505050565b6200059d8473ffffffffffffffffffffffffffffffffffffffff166200076b60201b620018061760201c565b1562000763578373ffffffffffffffffffffffffffffffffffffffff1663f23a6e6187878686866040518663ffffffff1660e01b8152600401620005e695949392919062000c57565b6020604051808303816000875af19250505080156200062557506040513d601f19601f8201168201806040525081019062000622919062000d27565b60015b620006d7576200063462000d66565b806308c379a014156200069857506200064c62000dc1565b806200065957506200069a565b806040517f08c379a00000000000000000000000000000000000000000000000000000000081526004016200068f919062000eaf565b60405180910390fd5b505b6040517f08c379a0000000000000000000000000000000000000000000000000000000008152600401620006ce9062000f49565b60405180910390fd5b63f23a6e6160e01b7bffffffffffffffffffffffffffffffffffffffffffffffffffffffff1916817bffffffffffffffffffffffffffffffffffffffffffffffffffffffff19161462000761576040517f08c379a0000000000000000000000000000000000000000000000000000000008152600401620007589062000fe1565b60405180910390fd5b505b505050505050565b6000808273ffffffffffffffffffffffffffffffffffffffff163b119050919050565b828054828255906000526020600020908101928215620007cd579160200282015b82811115620007cc578251825591602001919060010190620007af565b5b509050620007dc919062000871565b5090565b828054620007ee9062001032565b90600052602060002090601f0160209004810192826200081257600085556200085e565b82601f106200082d57805160ff19168380011785556200085e565b828001600101855582156200085e579182015b828111156200085d57825182559160200191906001019062000840565b5b5090506200086d919062000871565b5090565b5b808211156200088c57600081600090555060010162000872565b5090565b6000819050919050565b7f4e487b7100000000000000000000000000000000000000000000000000000000600052601160045260246000fd5b6000620008d68262000890565b9150620008e38362000890565b9250817fffffffffffffffffffffffffffffffffffffffffffffffffffffffffffffffff04831182151516156200091f576200091e6200089a565b5b828202905092915050565b7f4e487b7100000000000000000000000000000000000000000000000000000000600052601260045260246000fd5b6000620009668262000890565b9150620009738362000890565b9250826200098657620009856200092a565b5b828204905092915050565b60006200099e8262000890565b9150620009ab8362000890565b925082821015620009c157620009c06200089a565b5b828203905092915050565b600082825260208201905092915050565b7f455243313135353a206d696e7420746f20746865207a65726f2061646472657360008201527f7300000000000000000000000000000000000000000000000000000000000000602082015250565b600062000a3b602183620009cc565b915062000a4882620009dd565b604082019050919050565b6000602082019050818103600083015262000a6e8162000a2c565b9050919050565b600062000a828262000890565b915062000a8f8362000890565b9250827fffffffffffffffffffffffffffffffffffffffffffffffffffffffffffffffff0382111562000ac75762000ac66200089a565b5b828201905092915050565b62000add8162000890565b82525050565b600060408201905062000afa600083018562000ad2565b62000b09602083018462000ad2565b9392505050565b7f4e487b7100000000000000000000000000000000000000000000000000000000600052604160045260246000fd5b7f4e487b7100000000000000000000000000000000000000000000000000000000600052603260045260246000fd5b600073ffffffffffffffffffffffffffffffffffffffff82169050919050565b600062000b9b8262000b6e565b9050919050565b62000bad8162000b8e565b82525050565b600081519050919050565b600082825260208201905092915050565b60005b8381101562000bef57808201518184015260208101905062000bd2565b8381111562000bff576000848401525b50505050565b6000601f19601f8301169050919050565b600062000c238262000bb3565b62000c2f818562000bbe565b935062000c4181856020860162000bcf565b62000c4c8162000c05565b840191505092915050565b600060a08201905062000c6e600083018862000ba2565b62000c7d602083018762000ba2565b62000c8c604083018662000ad2565b62000c9b606083018562000ad2565b818103608083015262000caf818462000c16565b90509695505050505050565b6000604051905090565b600080fd5b60007fffffffff0000000000000000000000000000000000000000000000000000000082169050919050565b62000d018162000cca565b811462000d0d57600080fd5b50565b60008151905062000d218162000cf6565b92915050565b60006020828403121562000d405762000d3f62000cc5565b5b600062000d508482850162000d10565b91505092915050565b60008160e01c9050919050565b600060033d111562000d885760046000803e62000d8560005162000d59565b90505b90565b62000d968262000c05565b810181811067ffffffffffffffff8211171562000db85762000db762000b10565b5b80604052505050565b600060443d101562000dd35762000e60565b62000ddd62000cbb565b60043d036004823e80513d602482011167ffffffffffffffff8211171562000e0757505062000e60565b808201805167ffffffffffffffff81111562000e27575050505062000e60565b80602083010160043d03850181111562000e4657505050505062000e60565b62000e578260200185018662000d8b565b82955050505050505b90565b600081519050919050565b600062000e7b8262000e63565b62000e878185620009cc565b935062000e9981856020860162000bcf565b62000ea48162000c05565b840191505092915050565b6000602082019050818103600083015262000ecb818462000e6e565b905092915050565b7f455243313135353a207472616e7366657220746f206e6f6e2d4552433131353560008201527f526563656976657220696d706c656d656e746572000000000000000000000000602082015250565b600062000f31603483620009cc565b915062000f3e8262000ed3565b604082019050919050565b6000602082019050818103600083015262000f648162000f22565b9050919050565b7f455243313135353a204552433131353552656365697665722072656a6563746560008201527f6420746f6b656e73000000000000000000000000000000000000000000000000602082015250565b600062000fc9602883620009cc565b915062000fd68262000f6b565b604082019050919050565b6000602082019050818103600083015262000ffc8162000fba565b9050919050565b7f4e487b7100000000000000000000000000000000000000000000000000000000600052602260045260246000fd5b600060028204905060018216806200104b57607f821691505b6020821081141562001062576200106162001003565b5b50919050565b6148a580620010786000396000f3fe608060405234801561001057600080fd5b50600436106101725760003560e01c806361ae0309116100de578063bf40fac111610097578063f242432a11610071578063f242432a1461046d578063f2fde38b14610489578063f5298aca146104a5578063f84f7dd0146104c157610172565b8063bf40fac1146103ef578063db4015411461041f578063e985e9c51461043d57610172565b806361ae030914610343578063715018a61461035f5780637f14ba3f146103695780637f7063e7146103855780638da5cb5b146103b5578063a22cb465146103d357610172565b80631ef16b43116101305780631ef16b431461025b57806321636aa51461027957806328eece13146102975780632eb2c2d6146102c75780634e1273f4146102e35780635fd4b08a1461031357610172565b8062fdd58e1461017757806301ffc9a7146101a75780630c89c421146101d75780630e89341c146101f3578063156e29f614610223578063169bc4861461023f575b600080fd5b610191600480360381019061018c9190612ca3565b6104df565b60405161019e9190612cf2565b60405180910390f35b6101c160048036038101906101bc9190612d65565b6105a8565b6040516101ce9190612dad565b60405180910390f35b6101f160048036038101906101ec9190612dc8565b61068a565b005b61020d60048036038101906102089190612df5565b6108c4565b60405161021a9190612ebb565b60405180910390f35b61023d60048036038101906102389190612edd565b610958565b005b61025960048036038101906102549190612ca3565b610a4c565b005b610263610c3e565b6040516102709190612cf2565b60405180910390f35b610281610c44565b60405161028e9190612cf2565b60405180910390f35b6102b160048036038101906102ac9190612dc8565b610c4a565b6040516102be9190612fee565b60405180910390f35b6102e160048036038101906102dc919061320d565b610e15565b005b6102fd60048036038101906102f8919061339f565b610f07565b60405161030a9190612fee565b60405180910390f35b61032d60048036038101906103289190612dc8565b611020565b60405161033a9190612ebb565b60405180910390f35b61035d600480360381019061035891906134b8565b6110f1565b005b61036761131e565b005b610383600480360381019061037e9190612ca3565b611332565b005b61039f600480360381019061039a9190612df5565b6114c0565b6040516103ac9190612cf2565b60405180910390f35b6103bd6114e4565b6040516103ca9190613536565b60405180910390f35b6103ed60048036038101906103e8919061357d565b61150e565b005b610409600480360381019061040491906135bd565b611524565b6040516104169190613536565b60405180910390f35b61042761156c565b6040516104349190612cf2565b60405180910390f35b61045760048036038101906104529190613606565b611572565b6040516104649190612dad565b60405180910390f35b61048760048036038101906104829190613646565b611606565b005b6104a3600480360381019061049e9190612dc8565b6116be565b005b6104bf60048036038101906104ba9190612edd565b611742565b005b6104c9611800565b6040516104d69190612cf2565b60405180910390f35b60008073ffffffffffffffffffffffffffffffffffffffff168373ffffffffffffffffffffffffffffffffffffffff161415610550576040517f08c379a00000000000000000000000000000000000000000000000000000000081526004016105479061374f565b60405180910390fd5b60008083815260200190815260200160002060008473ffffffffffffffffffffffffffffffffffffffff1673ffffffffffffffffffffffffffffffffffffffff16815260200190815260200160002054905092915050565b60007fd9b67a26000000000000000000000000000000000000000000000000000000007bffffffffffffffffffffffffffffffffffffffffffffffffffffffff1916827bffffffffffffffffffffffffffffffffffffffffffffffffffffffff1916148061067357507f0e89341c000000000000000000000000000000000000000000000000000000007bffffffffffffffffffffffffffffffffffffffffffffffffffffffff1916827bffffffffffffffffffffffffffffffffffffffffffffffffffffffff1916145b80610683575061068282611829565b5b9050919050565b610692611893565b60011515600460008373ffffffffffffffffffffffffffffffffffffffff1673ffffffffffffffffffffffffffffffffffffffff1681526020019081526020016000206000600754815260200190815260200160002060009054906101000a900460ff16151514610738576040517f08c379a000000000000000000000000000000000000000000000000000000000815260040161072f906137bb565b60405180910390fd5b600061074382610c4a565b905060005b81518110156108be5760001515600460008573ffffffffffffffffffffffffffffffffffffffff1673ffffffffffffffffffffffffffffffffffffffff16815260200190815260200160002060008484815181106107a9576107a86137db565b5b6020026020010151815260200190815260200160002060009054906101000a900460ff16151514156107dc5750506108c1565b600015158282815181106107f3576107f26137db565b5b60200260200101518473ffffffffffffffffffffffffffffffffffffffff167fb8ab71d168de2395481e4653bcaf8113b8d414ee4f783094c4a67ec50b060f28600560008873ffffffffffffffffffffffffffffffffffffffff1673ffffffffffffffffffffffffffffffffffffffff16815260200190815260200160002060405161087f9190613900565b60405180910390a46108ab8383838151811061089e5761089d6137db565b5b6020026020010151611911565b80806108b690613951565b915050610748565b50505b50565b6060600280546108d390613839565b80601f01602080910402602001604051908101604052809291908181526020018280546108ff90613839565b801561094c5780601f106109215761010080835404028352916020019161094c565b820191906000526020600020905b81548152906001019060200180831161092f57829003601f168201915b50505050509050919050565b610960611893565b60011515600460008573ffffffffffffffffffffffffffffffffffffffff1673ffffffffffffffffffffffffffffffffffffffff1681526020019081526020016000206000600754815260200190815260200160002060009054906101000a900460ff16151514610a06576040517f08c379a00000000000000000000000000000000000000000000000000000000081526004016109fd906139e6565b60405180910390fd5b610a478383836040518060400160405280600481526020017f307830300000000000000000000000000000000000000000000000000000000081525061197e565b505050565b610a54611893565b60011515600460008473ffffffffffffffffffffffffffffffffffffffff1673ffffffffffffffffffffffffffffffffffffffff1681526020019081526020016000206000600754815260200190815260200160002060009054906101000a900460ff16151514610afa576040517f08c379a0000000000000000000000000000000000000000000000000000000008152600401610af190613a52565b60405180910390fd5b60011515600460008473ffffffffffffffffffffffffffffffffffffffff1673ffffffffffffffffffffffffffffffffffffffff168152602001908152602001600020600083815260200190815260200160002060009054906101000a900460ff1615151415610b9f576040517f08c379a0000000000000000000000000000000000000000000000000000000008152600401610b9690613ae4565b60405180910390fd5b60011515818373ffffffffffffffffffffffffffffffffffffffff167fb8ab71d168de2395481e4653bcaf8113b8d414ee4f783094c4a67ec50b060f28600560008773ffffffffffffffffffffffffffffffffffffffff1673ffffffffffffffffffffffffffffffffffffffff168152602001908152602001600020604051610c289190613900565b60405180910390a4610c3a8282611b2f565b5050565b60095481565b60075481565b606060011515600460008473ffffffffffffffffffffffffffffffffffffffff1673ffffffffffffffffffffffffffffffffffffffff1681526020019081526020016000206000600754815260200190815260200160002060009054906101000a900460ff16151514610cf2576040517f08c379a0000000000000000000000000000000000000000000000000000000008152600401610ce9906139e6565b60405180910390fd5b6000600b8054905067ffffffffffffffff811115610d1357610d12613015565b5b604051908082528060200260200182016040528015610d415781602001602082028036833780820191505090505b5090506000600190506000600190505b600b80549050811015610e0a5760011515600460008773ffffffffffffffffffffffffffffffffffffffff1673ffffffffffffffffffffffffffffffffffffffff168152602001908152602001600020600083815260200190815260200160002060009054906101000a900460ff1615151415610df75780838381518110610ddc57610ddb6137db565b5b6020026020010181815250508180610df390613951565b9250505b8080610e0290613951565b915050610d51565b508192505050919050565b60005b8351811015610ef25760011515600460008773ffffffffffffffffffffffffffffffffffffffff1673ffffffffffffffffffffffffffffffffffffffff1681526020019081526020016000206000868481518110610e7957610e786137db565b5b6020026020010151815260200190815260200160002060009054906101000a900460ff16151514610edf576040517f08c379a0000000000000000000000000000000000000000000000000000000008152600401610ed690613b9c565b60405180910390fd5b8080610eea90613951565b915050610e18565b50610f008585858585611b9c565b5050505050565b60608151835114610f4d576040517f08c379a0000000000000000000000000000000000000000000000000000000008152600401610f4490613c2e565b60405180910390fd5b6000835167ffffffffffffffff811115610f6a57610f69613015565b5b604051908082528060200260200182016040528015610f985781602001602082028036833780820191505090505b50905060005b845181101561101557610fe5858281518110610fbd57610fbc6137db565b5b6020026020010151858381518110610fd857610fd76137db565b5b60200260200101516104df565b828281518110610ff857610ff76137db565b5b6020026020010181815250508061100e90613951565b9050610f9e565b508091505092915050565b6060600560008373ffffffffffffffffffffffffffffffffffffffff1673ffffffffffffffffffffffffffffffffffffffff168152602001908152602001600020805461106c90613839565b80601f016020809104026020016040519081016040528092919081815260200182805461109890613839565b80156110e55780601f106110ba576101008083540402835291602001916110e5565b820191906000526020600020905b8154815290600101906020018083116110c857829003601f168201915b50505050509050919050565b6110f9611893565b60011515600460008573ffffffffffffffffffffffffffffffffffffffff1673ffffffffffffffffffffffffffffffffffffffff1681526020019081526020016000206000600754815260200190815260200160002060009054906101000a900460ff16151514156111a0576040517f08c379a000000000000000000000000000000000000000000000000000000000815260040161119790613c9a565b60405180910390fd5b6111ac83600754611b2f565b80600560008573ffffffffffffffffffffffffffffffffffffffff1673ffffffffffffffffffffffffffffffffffffffff16815260200190815260200160002090805190602001906111ff929190612b58565b50826006826040516112119190613cf6565b908152602001604051809103902060006101000a81548173ffffffffffffffffffffffffffffffffffffffff021916908373ffffffffffffffffffffffffffffffffffffffff160217905550600115156007548473ffffffffffffffffffffffffffffffffffffffff167fb8ab71d168de2395481e4653bcaf8113b8d414ee4f783094c4a67ec50b060f28846040516112aa9190612ebb565b60405180910390a460075482146113195760011515828473ffffffffffffffffffffffffffffffffffffffff167fb8ab71d168de2395481e4653bcaf8113b8d414ee4f783094c4a67ec50b060f28846040516113069190612ebb565b60405180910390a46113188383611b2f565b5b505050565b611326611893565b6113306000611c3d565b565b61133a611893565b6000811161137d576040517f08c379a000000000000000000000000000000000000000000000000000000000815260040161137490613d7f565b60405180910390fd5b60011515600460008473ffffffffffffffffffffffffffffffffffffffff1673ffffffffffffffffffffffffffffffffffffffff168152602001908152602001600020600083815260200190815260200160002060009054906101000a900460ff16151514611421576040517f08c379a000000000000000000000000000000000000000000000000000000000815260040161141890613e11565b60405180910390fd5b60001515818373ffffffffffffffffffffffffffffffffffffffff167fb8ab71d168de2395481e4653bcaf8113b8d414ee4f783094c4a67ec50b060f28600560008773ffffffffffffffffffffffffffffffffffffffff1673ffffffffffffffffffffffffffffffffffffffff1681526020019081526020016000206040516114aa9190613900565b60405180910390a46114bc8282611911565b5050565b600b81815481106114d057600080fd5b906000526020600020016000915090505481565b6000600360009054906101000a900473ffffffffffffffffffffffffffffffffffffffff16905090565b611520611519611d03565b8383611d0b565b5050565b60006006826040516115369190613cf6565b908152602001604051809103902060009054906101000a900473ffffffffffffffffffffffffffffffffffffffff169050919050565b60085481565b6000600160008473ffffffffffffffffffffffffffffffffffffffff1673ffffffffffffffffffffffffffffffffffffffff16815260200190815260200160002060008373ffffffffffffffffffffffffffffffffffffffff1673ffffffffffffffffffffffffffffffffffffffff16815260200190815260200160002060009054906101000a900460ff16905092915050565b60011515600460008673ffffffffffffffffffffffffffffffffffffffff1673ffffffffffffffffffffffffffffffffffffffff168152602001908152602001600020600085815260200190815260200160002060009054906101000a900460ff161515146116aa576040517f08c379a00000000000000000000000000000000000000000000000000000000081526004016116a190613ec9565b60405180910390fd5b6116b78585858585611e78565b5050505050565b6116c6611893565b600073ffffffffffffffffffffffffffffffffffffffff168173ffffffffffffffffffffffffffffffffffffffff161415611736576040517f08c379a000000000000000000000000000000000000000000000000000000000815260040161172d90613f5b565b60405180910390fd5b61173f81611c3d565b50565b61174a611893565b60011515600460008573ffffffffffffffffffffffffffffffffffffffff1673ffffffffffffffffffffffffffffffffffffffff1681526020019081526020016000206000600754815260200190815260200160002060009054906101000a900460ff161515146117f0576040517f08c379a00000000000000000000000000000000000000000000000000000000081526004016117e7906139e6565b60405180910390fd5b6117fb838383611f19565b505050565b600a5481565b6000808273ffffffffffffffffffffffffffffffffffffffff163b119050919050565b60007f01ffc9a7000000000000000000000000000000000000000000000000000000007bffffffffffffffffffffffffffffffffffffffffffffffffffffffff1916827bffffffffffffffffffffffffffffffffffffffffffffffffffffffff1916149050919050565b61189b611d03565b73ffffffffffffffffffffffffffffffffffffffff166118b96114e4565b73ffffffffffffffffffffffffffffffffffffffff161461190f576040517f08c379a000000000000000000000000000000000000000000000000000000000815260040161190690613fc7565b60405180910390fd5b565b6000600460008473ffffffffffffffffffffffffffffffffffffffff1673ffffffffffffffffffffffffffffffffffffffff168152602001908152602001600020600083815260200190815260200160002060006101000a81548160ff0219169083151502179055505050565b600073ffffffffffffffffffffffffffffffffffffffff168473ffffffffffffffffffffffffffffffffffffffff1614156119ee576040517f08c379a00000000000000000000000000000000000000000000000000000000081526004016119e590614059565b60405180910390fd5b60006119f8611d03565b90506000611a0585612160565b90506000611a1285612160565b9050611a23836000898585896121da565b8460008088815260200190815260200160002060008973ffffffffffffffffffffffffffffffffffffffff1673ffffffffffffffffffffffffffffffffffffffff1681526020019081526020016000206000828254611a829190614079565b925050819055508673ffffffffffffffffffffffffffffffffffffffff16600073ffffffffffffffffffffffffffffffffffffffff168473ffffffffffffffffffffffffffffffffffffffff167fc3d58168c5ae7397731d063d5bbf3d657854427343f4c083240f7aacaa2d0f628989604051611b009291906140cf565b60405180910390a4611b17836000898585896121e2565b611b26836000898989896121ea565b50505050505050565b6001600460008473ffffffffffffffffffffffffffffffffffffffff1673ffffffffffffffffffffffffffffffffffffffff168152602001908152602001600020600083815260200190815260200160002060006101000a81548160ff0219169083151502179055505050565b611ba4611d03565b73ffffffffffffffffffffffffffffffffffffffff168573ffffffffffffffffffffffffffffffffffffffff161480611bea5750611be985611be4611d03565b611572565b5b611c29576040517f08c379a0000000000000000000000000000000000000000000000000000000008152600401611c209061416a565b60405180910390fd5b611c3685858585856123c2565b5050505050565b6000600360009054906101000a900473ffffffffffffffffffffffffffffffffffffffff16905081600360006101000a81548173ffffffffffffffffffffffffffffffffffffffff021916908373ffffffffffffffffffffffffffffffffffffffff1602179055508173ffffffffffffffffffffffffffffffffffffffff168173ffffffffffffffffffffffffffffffffffffffff167f8be0079c531659141344cd1fd0a4f28419497f9722a3daafe3b4186f6b6457e060405160405180910390a35050565b600033905090565b8173ffffffffffffffffffffffffffffffffffffffff168373ffffffffffffffffffffffffffffffffffffffff161415611d7a576040517f08c379a0000000000000000000000000000000000000000000000000000000008152600401611d71906141fc565b60405180910390fd5b80600160008573ffffffffffffffffffffffffffffffffffffffff1673ffffffffffffffffffffffffffffffffffffffff16815260200190815260200160002060008473ffffffffffffffffffffffffffffffffffffffff1673ffffffffffffffffffffffffffffffffffffffff16815260200190815260200160002060006101000a81548160ff0219169083151502179055508173ffffffffffffffffffffffffffffffffffffffff168373ffffffffffffffffffffffffffffffffffffffff167f17307eab39ab6107e8899845ad3d59bd9653f200f220920489ca2b5937696c3183604051611e6b9190612dad565b60405180910390a3505050565b611e80611d03565b73ffffffffffffffffffffffffffffffffffffffff168573ffffffffffffffffffffffffffffffffffffffff161480611ec65750611ec585611ec0611d03565b611572565b5b611f05576040517f08c379a0000000000000000000000000000000000000000000000000000000008152600401611efc9061416a565b60405180910390fd5b611f1285858585856126e4565b5050505050565b600073ffffffffffffffffffffffffffffffffffffffff168373ffffffffffffffffffffffffffffffffffffffff161415611f89576040517f08c379a0000000000000000000000000000000000000000000000000000000008152600401611f809061428e565b60405180910390fd5b6000611f93611d03565b90506000611fa084612160565b90506000611fad84612160565b9050611fcd838760008585604051806020016040528060008152506121da565b600080600087815260200190815260200160002060008873ffffffffffffffffffffffffffffffffffffffff1673ffffffffffffffffffffffffffffffffffffffff16815260200190815260200160002054905084811015612064576040517f08c379a000000000000000000000000000000000000000000000000000000000815260040161205b90614320565b60405180910390fd5b84810360008088815260200190815260200160002060008973ffffffffffffffffffffffffffffffffffffffff1673ffffffffffffffffffffffffffffffffffffffff16815260200190815260200160002081905550600073ffffffffffffffffffffffffffffffffffffffff168773ffffffffffffffffffffffffffffffffffffffff168573ffffffffffffffffffffffffffffffffffffffff167fc3d58168c5ae7397731d063d5bbf3d657854427343f4c083240f7aacaa2d0f6289896040516121319291906140cf565b60405180910390a4612157848860008686604051806020016040528060008152506121e2565b50505050505050565b60606000600167ffffffffffffffff81111561217f5761217e613015565b5b6040519080825280602002602001820160405280156121ad5781602001602082028036833780820191505090505b50905082816000815181106121c5576121c46137db565b5b60200260200101818152505080915050919050565b505050505050565b505050505050565b6122098473ffffffffffffffffffffffffffffffffffffffff16611806565b156123ba578373ffffffffffffffffffffffffffffffffffffffff1663f23a6e6187878686866040518663ffffffff1660e01b815260040161224f959493929190614395565b6020604051808303816000875af192505050801561228b57506040513d601f19601f820116820180604052508101906122889190614404565b60015b6123315761229761443e565b806308c379a014156122f457506122ac614460565b806122b757506122f6565b806040517f08c379a00000000000000000000000000000000000000000000000000000000081526004016122eb9190612ebb565b60405180910390fd5b505b6040517f08c379a000000000000000000000000000000000000000000000000000000000815260040161232890614568565b60405180910390fd5b63f23a6e6160e01b7bffffffffffffffffffffffffffffffffffffffffffffffffffffffff1916817bffffffffffffffffffffffffffffffffffffffffffffffffffffffff1916146123b8576040517f08c379a00000000000000000000000000000000000000000000000000000000081526004016123af906145fa565b60405180910390fd5b505b505050505050565b8151835114612406576040517f08c379a00000000000000000000000000000000000000000000000000000000081526004016123fd9061468c565b60405180910390fd5b600073ffffffffffffffffffffffffffffffffffffffff168473ffffffffffffffffffffffffffffffffffffffff161415612476576040517f08c379a000000000000000000000000000000000000000000000000000000000815260040161246d9061471e565b60405180910390fd5b6000612480611d03565b90506124908187878787876121da565b60005b84518110156126415760008582815181106124b1576124b06137db565b5b6020026020010151905060008583815181106124d0576124cf6137db565b5b60200260200101519050600080600084815260200190815260200160002060008b73ffffffffffffffffffffffffffffffffffffffff1673ffffffffffffffffffffffffffffffffffffffff16815260200190815260200160002054905081811015612571576040517f08c379a0000000000000000000000000000000000000000000000000000000008152600401612568906147b0565b60405180910390fd5b81810360008085815260200190815260200160002060008c73ffffffffffffffffffffffffffffffffffffffff1673ffffffffffffffffffffffffffffffffffffffff168152602001908152602001600020819055508160008085815260200190815260200160002060008b73ffffffffffffffffffffffffffffffffffffffff1673ffffffffffffffffffffffffffffffffffffffff16815260200190815260200160002060008282546126269190614079565b925050819055505050508061263a90613951565b9050612493565b508473ffffffffffffffffffffffffffffffffffffffff168673ffffffffffffffffffffffffffffffffffffffff168273ffffffffffffffffffffffffffffffffffffffff167f4a39dc06d4c0dbc64b70af90fd698a233a518aa5d07e595d983b8c0526c8f7fb87876040516126b89291906147d0565b60405180910390a46126ce8187878787876121e2565b6126dc818787878787612980565b505050505050565b600073ffffffffffffffffffffffffffffffffffffffff168473ffffffffffffffffffffffffffffffffffffffff161415612754576040517f08c379a000000000000000000000000000000000000000000000000000000000815260040161274b9061471e565b60405180910390fd5b600061275e611d03565b9050600061276b85612160565b9050600061277885612160565b90506127888389898585896121da565b600080600088815260200190815260200160002060008a73ffffffffffffffffffffffffffffffffffffffff1673ffffffffffffffffffffffffffffffffffffffff1681526020019081526020016000205490508581101561281f576040517f08c379a0000000000000000000000000000000000000000000000000000000008152600401612816906147b0565b60405180910390fd5b85810360008089815260200190815260200160002060008b73ffffffffffffffffffffffffffffffffffffffff1673ffffffffffffffffffffffffffffffffffffffff168152602001908152602001600020819055508560008089815260200190815260200160002060008a73ffffffffffffffffffffffffffffffffffffffff1673ffffffffffffffffffffffffffffffffffffffff16815260200190815260200160002060008282546128d49190614079565b925050819055508773ffffffffffffffffffffffffffffffffffffffff168973ffffffffffffffffffffffffffffffffffffffff168573ffffffffffffffffffffffffffffffffffffffff167fc3d58168c5ae7397731d063d5bbf3d657854427343f4c083240f7aacaa2d0f628a8a6040516129519291906140cf565b60405180910390a4612967848a8a86868a6121e2565b612975848a8a8a8a8a6121ea565b505050505050505050565b61299f8473ffffffffffffffffffffffffffffffffffffffff16611806565b15612b50578373ffffffffffffffffffffffffffffffffffffffff1663bc197c8187878686866040518663ffffffff1660e01b81526004016129e5959493929190614807565b6020604051808303816000875af1925050508015612a2157506040513d601f19601f82011682018060405250810190612a1e9190614404565b60015b612ac757612a2d61443e565b806308c379a01415612a8a5750612a42614460565b80612a4d5750612a8c565b806040517f08c379a0000000000000000000000000000000000000000000000000000000008152600401612a819190612ebb565b60405180910390fd5b505b6040517f08c379a0000000000000000000000000000000000000000000000000000000008152600401612abe90614568565b60405180910390fd5b63bc197c8160e01b7bffffffffffffffffffffffffffffffffffffffffffffffffffffffff1916817bffffffffffffffffffffffffffffffffffffffffffffffffffffffff191614612b4e576040517f08c379a0000000000000000000000000000000000000000000000000000000008152600401612b45906145fa565b60405180910390fd5b505b505050505050565b828054612b6490613839565b90600052602060002090601f016020900481019282612b865760008555612bcd565b82601f10612b9f57805160ff1916838001178555612bcd565b82800160010185558215612bcd579182015b82811115612bcc578251825591602001919060010190612bb1565b5b509050612bda9190612bde565b5090565b5b80821115612bf7576000816000905550600101612bdf565b5090565b6000604051905090565b600080fd5b600080fd5b600073ffffffffffffffffffffffffffffffffffffffff82169050919050565b6000612c3a82612c0f565b9050919050565b612c4a81612c2f565b8114612c5557600080fd5b50565b600081359050612c6781612c41565b92915050565b6000819050919050565b612c8081612c6d565b8114612c8b57600080fd5b50565b600081359050612c9d81612c77565b92915050565b60008060408385031215612cba57612cb9612c05565b5b6000612cc885828601612c58565b9250506020612cd985828601612c8e565b9150509250929050565b612cec81612c6d565b82525050565b6000602082019050612d076000830184612ce3565b92915050565b60007fffffffff0000000000000000000000000000000000000000000000000000000082169050919050565b612d4281612d0d565b8114612d4d57600080fd5b50565b600081359050612d5f81612d39565b92915050565b600060208284031215612d7b57612d7a612c05565b5b6000612d8984828501612d50565b91505092915050565b60008115159050919050565b612da781612d92565b82525050565b6000602082019050612dc26000830184612d9e565b92915050565b600060208284031215612dde57612ddd612c05565b5b6000612dec84828501612c58565b91505092915050565b600060208284031215612e0b57612e0a612c05565b5b6000612e1984828501612c8e565b91505092915050565b600081519050919050565b600082825260208201905092915050565b60005b83811015612e5c578082015181840152602081019050612e41565b83811115612e6b576000848401525b50505050565b6000601f19601f8301169050919050565b6000612e8d82612e22565b612e978185612e2d565b9350612ea7818560208601612e3e565b612eb081612e71565b840191505092915050565b60006020820190508181036000830152612ed58184612e82565b905092915050565b600080600060608486031215612ef657612ef5612c05565b5b6000612f0486828701612c58565b9350506020612f1586828701612c8e565b9250506040612f2686828701612c8e565b9150509250925092565b600081519050919050565b600082825260208201905092915050565b6000819050602082019050919050565b612f6581612c6d565b82525050565b6000612f778383612f5c565b60208301905092915050565b6000602082019050919050565b6000612f9b82612f30565b612fa58185612f3b565b9350612fb083612f4c565b8060005b83811015612fe1578151612fc88882612f6b565b9750612fd383612f83565b925050600181019050612fb4565b5085935050505092915050565b600060208201905081810360008301526130088184612f90565b905092915050565b600080fd5b7f4e487b7100000000000000000000000000000000000000000000000000000000600052604160045260246000fd5b61304d82612e71565b810181811067ffffffffffffffff8211171561306c5761306b613015565b5b80604052505050565b600061307f612bfb565b905061308b8282613044565b919050565b600067ffffffffffffffff8211156130ab576130aa613015565b5b602082029050602081019050919050565b600080fd5b60006130d46130cf84613090565b613075565b905080838252602082019050602084028301858111156130f7576130f66130bc565b5b835b81811015613120578061310c8882612c8e565b8452602084019350506020810190506130f9565b5050509392505050565b600082601f83011261313f5761313e613010565b5b813561314f8482602086016130c1565b91505092915050565b600080fd5b600067ffffffffffffffff82111561317857613177613015565b5b61318182612e71565b9050602081019050919050565b82818337600083830152505050565b60006131b06131ab8461315d565b613075565b9050828152602081018484840111156131cc576131cb613158565b5b6131d784828561318e565b509392505050565b600082601f8301126131f4576131f3613010565b5b813561320484826020860161319d565b91505092915050565b600080600080600060a0868803121561322957613228612c05565b5b600061323788828901612c58565b955050602061324888828901612c58565b945050604086013567ffffffffffffffff81111561326957613268612c0a565b5b6132758882890161312a565b935050606086013567ffffffffffffffff81111561329657613295612c0a565b5b6132a28882890161312a565b925050608086013567ffffffffffffffff8111156132c3576132c2612c0a565b5b6132cf888289016131df565b9150509295509295909350565b600067ffffffffffffffff8211156132f7576132f6613015565b5b602082029050602081019050919050565b600061331b613316846132dc565b613075565b9050808382526020820190506020840283018581111561333e5761333d6130bc565b5b835b8181101561336757806133538882612c58565b845260208401935050602081019050613340565b5050509392505050565b600082601f83011261338657613385613010565b5b8135613396848260208601613308565b91505092915050565b600080604083850312156133b6576133b5612c05565b5b600083013567ffffffffffffffff8111156133d4576133d3612c0a565b5b6133e085828601613371565b925050602083013567ffffffffffffffff81111561340157613400612c0a565b5b61340d8582860161312a565b9150509250929050565b600067ffffffffffffffff82111561343257613431613015565b5b61343b82612e71565b9050602081019050919050565b600061345b61345684613417565b613075565b90508281526020810184848401111561347757613476613158565b5b61348284828561318e565b509392505050565b600082601f83011261349f5761349e613010565b5b81356134af848260208601613448565b91505092915050565b6000806000606084860312156134d1576134d0612c05565b5b60006134df86828701612c58565b93505060206134f086828701612c8e565b925050604084013567ffffffffffffffff81111561351157613510612c0a565b5b61351d8682870161348a565b9150509250925092565b61353081612c2f565b82525050565b600060208201905061354b6000830184613527565b92915050565b61355a81612d92565b811461356557600080fd5b50565b60008135905061357781613551565b92915050565b6000806040838503121561359457613593612c05565b5b60006135a285828601612c58565b92505060206135b385828601613568565b9150509250929050565b6000602082840312156135d3576135d2612c05565b5b600082013567ffffffffffffffff8111156135f1576135f0612c0a565b5b6135fd8482850161348a565b91505092915050565b6000806040838503121561361d5761361c612c05565b5b600061362b85828601612c58565b925050602061363c85828601612c58565b9150509250929050565b600080600080600060a0868803121561366257613661612c05565b5b600061367088828901612c58565b955050602061368188828901612c58565b945050604061369288828901612c8e565b93505060606136a388828901612c8e565b925050608086013567ffffffffffffffff8111156136c4576136c3612c0a565b5b6136d0888289016131df565b9150509295509295909350565b7f455243313135353a2061646472657373207a65726f206973206e6f742061207660008201527f616c6964206f776e657200000000000000000000000000000000000000000000602082015250565b6000613739602a83612e2d565b9150613744826136dd565b604082019050919050565b600060208201905081810360008301526137688161372c565b9050919050565b7f61646472657373206e6f74206164646564000000000000000000000000000000600082015250565b60006137a5601183612e2d565b91506137b08261376f565b602082019050919050565b600060208201905081810360008301526137d481613798565b9050919050565b7f4e487b7100000000000000000000000000000000000000000000000000000000600052603260045260246000fd5b7f4e487b7100000000000000000000000000000000000000000000000000000000600052602260045260246000fd5b6000600282049050600182168061385157607f821691505b602082108114156138655761386461380a565b5b50919050565b60008190508160005260206000209050919050565b6000815461388d81613839565b6138978186612e2d565b945060018216600081146138b257600181146138c4576138f7565b60ff19831686526020860193506138f7565b6138cd8561386b565b60005b838110156138ef578154818901526001820191506020810190506138d0565b808801955050505b50505092915050565b6000602082019050818103600083015261391a8184613880565b905092915050565b7f4e487b7100000000000000000000000000000000000000000000000000000000600052601160045260246000fd5b600061395c82612c6d565b91507fffffffffffffffffffffffffffffffffffffffffffffffffffffffffffffffff82141561398f5761398e613922565b5b600182019050919050565b7f6f7267616e697a6174696f6e206e6f7420616464656400000000000000000000600082015250565b60006139d0601683612e2d565b91506139db8261399a565b602082019050919050565b600060208201905081810360008301526139ff816139c3565b9050919050565b7f506c6561736520616464206f7267616e697a6174696f6e206669727374000000600082015250565b6000613a3c601d83612e2d565b9150613a4782613a06565b602082019050919050565b60006020820190508181036000830152613a6b81613a2f565b9050919050565b7f6172656120616c72656164792073657420666f722074686973206f7267616e6960008201527f7a6174696f6e0000000000000000000000000000000000000000000000000000602082015250565b6000613ace602683612e2d565b9150613ad982613a72565b604082019050919050565b60006020820190508181036000830152613afd81613ac1565b9050919050565b7f74686973206f7267616e697a6174696f6e20646f6573206e6f7420686176652060008201527f7065726d697373696f6e20746f20726563656976652070617274206f6620746860208201527f6520626174636800000000000000000000000000000000000000000000000000604082015250565b6000613b86604783612e2d565b9150613b9182613b04565b606082019050919050565b60006020820190508181036000830152613bb581613b79565b9050919050565b7f455243313135353a206163636f756e747320616e6420696473206c656e67746860008201527f206d69736d617463680000000000000000000000000000000000000000000000602082015250565b6000613c18602983612e2d565b9150613c2382613bbc565b604082019050919050565b60006020820190508181036000830152613c4781613c0b565b9050919050565b7f6164647265737320616c72656164792061646465640000000000000000000000600082015250565b6000613c84601583612e2d565b9150613c8f82613c4e565b602082019050919050565b60006020820190508181036000830152613cb381613c77565b9050919050565b600081905092915050565b6000613cd082612e22565b613cda8185613cba565b9350613cea818560208601612e3e565b80840191505092915050565b6000613d028284613cc5565b915081905092915050565b7f746f206578636c756465206163636f756e7420616c746f67657468657220757360008201527f65207375624f7267206d6574686f640000000000000000000000000000000000602082015250565b6000613d69602f83612e2d565b9150613d7482613d0d565b604082019050919050565b60006020820190508181036000830152613d9881613d5c565b9050919050565b7f74686973206163636f756e74206973206e6f742072656769737465726564207460008201527f6f20746865206172656120737065636966696564000000000000000000000000602082015250565b6000613dfb603483612e2d565b9150613e0682613d9f565b604082019050919050565b60006020820190508181036000830152613e2a81613dee565b9050919050565b7f74686973206f7267616e697a6174696f6e20646f6573206e6f7420686176652060008201527f7065726d697373696f6e20746f2072656365697665207468697320627564676560208201527f7400000000000000000000000000000000000000000000000000000000000000604082015250565b6000613eb3604183612e2d565b9150613ebe82613e31565b606082019050919050565b60006020820190508181036000830152613ee281613ea6565b9050919050565b7f4f776e61626c653a206e6577206f776e657220697320746865207a65726f206160008201527f6464726573730000000000000000000000000000000000000000000000000000602082015250565b6000613f45602683612e2d565b9150613f5082613ee9565b604082019050919050565b60006020820190508181036000830152613f7481613f38565b9050919050565b7f4f776e61626c653a2063616c6c6572206973206e6f7420746865206f776e6572600082015250565b6000613fb1602083612e2d565b9150613fbc82613f7b565b602082019050919050565b60006020820190508181036000830152613fe081613fa4565b9050919050565b7f455243313135353a206d696e7420746f20746865207a65726f2061646472657360008201527f7300000000000000000000000000000000000000000000000000000000000000602082015250565b6000614043602183612e2d565b915061404e82613fe7565b604082019050919050565b6000602082019050818103600083015261407281614036565b9050919050565b600061408482612c6d565b915061408f83612c6d565b9250827fffffffffffffffffffffffffffffffffffffffffffffffffffffffffffffffff038211156140c4576140c3613922565b5b828201905092915050565b60006040820190506140e46000830185612ce3565b6140f16020830184612ce3565b9392505050565b7f455243313135353a2063616c6c6572206973206e6f7420746f6b656e206f776e60008201527f6572206f7220617070726f766564000000000000000000000000000000000000602082015250565b6000614154602e83612e2d565b915061415f826140f8565b604082019050919050565b6000602082019050818103600083015261418381614147565b9050919050565b7f455243313135353a2073657474696e6720617070726f76616c2073746174757360008201527f20666f722073656c660000000000000000000000000000000000000000000000602082015250565b60006141e6602983612e2d565b91506141f18261418a565b604082019050919050565b60006020820190508181036000830152614215816141d9565b9050919050565b7f455243313135353a206275726e2066726f6d20746865207a65726f206164647260008201527f6573730000000000000000000000000000000000000000000000000000000000602082015250565b6000614278602383612e2d565b91506142838261421c565b604082019050919050565b600060208201905081810360008301526142a78161426b565b9050919050565b7f455243313135353a206275726e20616d6f756e7420657863656564732062616c60008201527f616e636500000000000000000000000000000000000000000000000000000000602082015250565b600061430a602483612e2d565b9150614315826142ae565b604082019050919050565b60006020820190508181036000830152614339816142fd565b9050919050565b600081519050919050565b600082825260208201905092915050565b600061436782614340565b614371818561434b565b9350614381818560208601612e3e565b61438a81612e71565b840191505092915050565b600060a0820190506143aa6000830188613527565b6143b76020830187613527565b6143c46040830186612ce3565b6143d16060830185612ce3565b81810360808301526143e3818461435c565b90509695505050505050565b6000815190506143fe81612d39565b92915050565b60006020828403121561441a57614419612c05565b5b6000614428848285016143ef565b91505092915050565b60008160e01c9050919050565b600060033d111561445d5760046000803e61445a600051614431565b90505b90565b600060443d1015614470576144f3565b614478612bfb565b60043d036004823e80513d602482011167ffffffffffffffff821117156144a05750506144f3565b808201805167ffffffffffffffff8111156144be57505050506144f3565b80602083010160043d0385018111156144db5750505050506144f3565b6144ea82602001850186613044565b82955050505050505b90565b7f455243313135353a207472616e7366657220746f206e6f6e2d4552433131353560008201527f526563656976657220696d706c656d656e746572000000000000000000000000602082015250565b6000614552603483612e2d565b915061455d826144f6565b604082019050919050565b6000602082019050818103600083015261458181614545565b9050919050565b7f455243313135353a204552433131353552656365697665722072656a6563746560008201527f6420746f6b656e73000000000000000000000000000000000000000000000000602082015250565b60006145e4602883612e2d565b91506145ef82614588565b604082019050919050565b60006020820190508181036000830152614613816145d7565b9050919050565b7f455243313135353a2069647320616e6420616d6f756e7473206c656e6774682060008201527f6d69736d61746368000000000000000000000000000000000000000000000000602082015250565b6000614676602883612e2d565b91506146818261461a565b604082019050919050565b600060208201905081810360008301526146a581614669565b9050919050565b7f455243313135353a207472616e7366657220746f20746865207a65726f20616460008201527f6472657373000000000000000000000000000000000000000000000000000000602082015250565b6000614708602583612e2d565b9150614713826146ac565b604082019050919050565b60006020820190508181036000830152614737816146fb565b9050919050565b7f455243313135353a20696e73756666696369656e742062616c616e636520666f60008201527f72207472616e7366657200000000000000000000000000000000000000000000602082015250565b600061479a602a83612e2d565b91506147a58261473e565b604082019050919050565b600060208201905081810360008301526147c98161478d565b9050919050565b600060408201905081810360008301526147ea8185612f90565b905081810360208301526147fe8184612f90565b90509392505050565b600060a08201905061481c6000830188613527565b6148296020830187613527565b818103604083015261483b8186612f90565b9050818103606083015261484f8185612f90565b90508181036080830152614863818461435c565b9050969550505050505056fea264697066735822122032400b73583c909e4b350b3e624a42cb912b621c876cb2114d8cc2bf3f88d01964736f6c634300080a003368747470733a2f2f636f6e736f6c652e66696c65626173652e636f6d2f6275636b6574732f6170702d6f7263616d656e746f2f7b617265617d2e6a736f6e",
  "devdoc": {
    "kind": "dev",
    "methods": {
      "balanceOf(address,uint256)": {
        "details": "See {IERC1155-balanceOf}. Requirements: - `account` cannot be the zero address."
      },
      "balanceOfBatch(address[],uint256[])": {
        "details": "See {IERC1155-balanceOfBatch}. Requirements: - `accounts` and `ids` must have the same length."
      },
      "isApprovedForAll(address,address)": {
        "details": "See {IERC1155-isApprovedForAll}."
      },
      "owner()": {
        "details": "Returns the address of the current owner."
      },
      "renounceOwnership()": {
        "details": "Leaves the contract without owner. It will not be possible to call `onlyOwner` functions anymore. Can only be called by the current owner. NOTE: Renouncing ownership will leave the contract without an owner, thereby removing any functionality that is only available to the owner."
      },
      "setApprovalForAll(address,bool)": {
        "details": "See {IERC1155-setApprovalForAll}."
      },
      "supportsInterface(bytes4)": {
        "details": "See {IERC165-supportsInterface}."
      },
      "transferOwnership(address)": {
        "details": "Transfers ownership of the contract to a new account (`newOwner`). Can only be called by the current owner."
      },
      "uri(uint256)": {
        "details": "See {IERC1155MetadataURI-uri}. This implementation returns the same URI for *all* token types. It relies on the token type ID substitution mechanism https://eips.ethereum.org/EIPS/eip-1155#metadata[defined in the EIP]. Clients calling this function must replace the `\\{id\\}` substring with the actual token type ID."
      }
    },
    "stateVariables": {
      "_orgAddress": {
        "details": "mapping name to address of org"
      },
      "_orgArea": {
        "details": "mapping address to policy area to bool"
      },
      "_orgName": {
        "details": "mapping address to name of org"
      }
    },
    "version": 1
  },
  "userdoc": {
    "kind": "user",
    "methods": {},
    "version": 1
  },
  "storageLayout": {
    "storage": [
      {
        "astId": 138,
        "contract": "contracts/orcamento.sol:OrcamentoUniao2023",
        "label": "_balances",
        "offset": 0,
        "slot": "0",
        "type": "t_mapping(t_uint256,t_mapping(t_address,t_uint256))"
      },
      {
        "astId": 144,
        "contract": "contracts/orcamento.sol:OrcamentoUniao2023",
        "label": "_operatorApprovals",
        "offset": 0,
        "slot": "1",
        "type": "t_mapping(t_address,t_mapping(t_address,t_bool))"
      },
      {
        "astId": 146,
        "contract": "contracts/orcamento.sol:OrcamentoUniao2023",
        "label": "_uri",
        "offset": 0,
        "slot": "2",
        "type": "t_string_storage"
      },
      {
        "astId": 7,
        "contract": "contracts/orcamento.sol:OrcamentoUniao2023",
        "label": "_owner",
        "offset": 0,
        "slot": "3",
        "type": "t_address"
      },
      {
        "astId": 1916,
        "contract": "contracts/orcamento.sol:OrcamentoUniao2023",
        "label": "_orgArea",
        "offset": 0,
        "slot": "4",
        "type": "t_mapping(t_address,t_mapping(t_uint256,t_bool))"
      },
      {
        "astId": 1921,
        "contract": "contracts/orcamento.sol:OrcamentoUniao2023",
        "label": "_orgName",
        "offset": 0,
        "slot": "5",
        "type": "t_mapping(t_address,t_string_storage)"
      },
      {
        "astId": 1926,
        "contract": "contracts/orcamento.sol:OrcamentoUniao2023",
        "label": "_orgAddress",
        "offset": 0,
        "slot": "6",
        "type": "t_mapping(t_string_memory_ptr,t_address)"
      },
      {
        "astId": 1929,
        "contract": "contracts/orcamento.sol:OrcamentoUniao2023",
        "label": "OUTROS",
        "offset": 0,
        "slot": "7",
        "type": "t_uint256"
      },
      {
        "astId": 1932,
        "contract": "contracts/orcamento.sol:OrcamentoUniao2023",
        "label": "EDUCACAO",
        "offset": 0,
        "slot": "8",
        "type": "t_uint256"
      },
      {
        "astId": 1935,
        "contract": "contracts/orcamento.sol:OrcamentoUniao2023",
        "label": "INFRA",
        "offset": 0,
        "slot": "9",
        "type": "t_uint256"
      },
      {
        "astId": 1938,
        "contract": "contracts/orcamento.sol:OrcamentoUniao2023",
        "label": "SAUDE",
        "offset": 0,
        "slot": "10",
        "type": "t_uint256"
      },
      {
        "astId": 1946,
        "contract": "contracts/orcamento.sol:OrcamentoUniao2023",
        "label": "AREAS",
        "offset": 0,
        "slot": "11",
        "type": "t_array(t_uint256)dyn_storage"
      },
      {
        "astId": 1951,
        "contract": "contracts/orcamento.sol:OrcamentoUniao2023",
        "label": "_budget",
        "offset": 0,
        "slot": "12",
        "type": "t_uint256"
      },
      {
        "astId": 1954,
        "contract": "contracts/orcamento.sol:OrcamentoUniao2023",
        "label": "_ed",
        "offset": 0,
        "slot": "13",
        "type": "t_uint256"
      },
      {
        "astId": 1957,
        "contract": "contracts/orcamento.sol:OrcamentoUniao2023",
        "label": "_infra",
        "offset": 0,
        "slot": "14",
        "type": "t_uint256"
      },
      {
        "astId": 1960,
        "contract": "contracts/orcamento.sol:OrcamentoUniao2023",
        "label": "_health",
        "offset": 0,
        "slot": "15",
        "type": "t_uint256"
      }
    ],
    "types": {
      "t_address": {
        "encoding": "inplace",
        "label": "address",
        "numberOfBytes": "20"
      },
      "t_array(t_uint256)dyn_storage": {
        "base": "t_uint256",
        "encoding": "dynamic_array",
        "label": "uint256[]",
        "numberOfBytes": "32"
      },
      "t_bool": {
        "encoding": "inplace",
        "label": "bool",
        "numberOfBytes": "1"
      },
      "t_mapping(t_address,t_bool)": {
        "encoding": "mapping",
        "key": "t_address",
        "label": "mapping(address => bool)",
        "numberOfBytes": "32",
        "value": "t_bool"
      },
      "t_mapping(t_address,t_mapping(t_address,t_bool))": {
        "encoding": "mapping",
        "key": "t_address",
        "label": "mapping(address => mapping(address => bool))",
        "numberOfBytes": "32",
        "value": "t_mapping(t_address,t_bool)"
      },
      "t_mapping(t_address,t_mapping(t_uint256,t_bool))": {
        "encoding": "mapping",
        "key": "t_address",
        "label": "mapping(address => mapping(uint256 => bool))",
        "numberOfBytes": "32",
        "value": "t_mapping(t_uint256,t_bool)"
      },
      "t_mapping(t_address,t_string_storage)": {
        "encoding": "mapping",
        "key": "t_address",
        "label": "mapping(address => string)",
        "numberOfBytes": "32",
        "value": "t_string_storage"
      },
      "t_mapping(t_address,t_uint256)": {
        "encoding": "mapping",
        "key": "t_address",
        "label": "mapping(address => uint256)",
        "numberOfBytes": "32",
        "value": "t_uint256"
      },
      "t_mapping(t_string_memory_ptr,t_address)": {
        "encoding": "mapping",
        "key": "t_string_memory_ptr",
        "label": "mapping(string => address)",
        "numberOfBytes": "32",
        "value": "t_address"
      },
      "t_mapping(t_uint256,t_bool)": {
        "encoding": "mapping",
        "key": "t_uint256",
        "label": "mapping(uint256 => bool)",
        "numberOfBytes": "32",
        "value": "t_bool"
      },
      "t_mapping(t_uint256,t_mapping(t_address,t_uint256))": {
        "encoding": "mapping",
        "key": "t_uint256",
        "label": "mapping(uint256 => mapping(address => uint256))",
        "numberOfBytes": "32",
        "value": "t_mapping(t_address,t_uint256)"
      },
      "t_string_memory_ptr": {
        "encoding": "bytes",
        "label": "string",
        "numberOfBytes": "32"
      },
      "t_string_storage": {
        "encoding": "bytes",
        "label": "string",
        "numberOfBytes": "32"
      },
      "t_uint256": {
        "encoding": "inplace",
        "label": "uint256",
        "numberOfBytes": "32"
      }
    }
  }
}