{
  "address": "0x5FbDB2315678afecb367f032d93F642f64180aa3",
  "abi": [
    {
      "inputs": [],
      "stateMutability": "nonpayable",
      "type": "constructor"
    },
    {
      "anonymous": false,
      "inputs": [
        {
          "indexed": true,
          "internalType": "address",
          "name": "account",
          "type": "address"
        },
        {
          "indexed": true,
          "internalType": "address",
          "name": "operator",
          "type": "address"
        },
        {
          "indexed": false,
          "internalType": "bool",
          "name": "approved",
          "type": "bool"
        }
      ],
      "name": "ApprovalForAll",
      "type": "event"
    },
    {
      "anonymous": false,
      "inputs": [
        {
          "indexed": true,
          "internalType": "address",
          "name": "previousOwner",
          "type": "address"
        },
        {
          "indexed": true,
          "internalType": "address",
          "name": "newOwner",
          "type": "address"
        }
      ],
      "name": "OwnershipTransferred",
      "type": "event"
    },
    {
      "anonymous": false,
      "inputs": [
        {
          "indexed": true,
          "internalType": "address",
          "name": "account",
          "type": "address"
        },
        {
          "indexed": true,
          "internalType": "uint256",
          "name": "area",
          "type": "uint256"
        },
        {
          "indexed": true,
          "internalType": "bool",
          "name": "added",
          "type": "bool"
        },
        {
          "indexed": false,
          "internalType": "string",
          "name": "name",
          "type": "string"
        }
      ],
      "name": "Registry",
      "type": "event"
    },
    {
      "anonymous": false,
      "inputs": [
        {
          "indexed": true,
          "internalType": "address",
          "name": "operator",
          "type": "address"
        },
        {
          "indexed": true,
          "internalType": "address",
          "name": "from",
          "type": "address"
        },
        {
          "indexed": true,
          "internalType": "address",
          "name": "to",
          "type": "address"
        },
        {
          "indexed": false,
          "internalType": "uint256[]",
          "name": "ids",
          "type": "uint256[]"
        },
        {
          "indexed": false,
          "internalType": "uint256[]",
          "name": "values",
          "type": "uint256[]"
        }
      ],
      "name": "TransferBatch",
      "type": "event"
    },
    {
      "anonymous": false,
      "inputs": [
        {
          "indexed": true,
          "internalType": "address",
          "name": "operator",
          "type": "address"
        },
        {
          "indexed": true,
          "internalType": "address",
          "name": "from",
          "type": "address"
        },
        {
          "indexed": true,
          "internalType": "address",
          "name": "to",
          "type": "address"
        },
        {
          "indexed": false,
          "internalType": "uint256",
          "name": "id",
          "type": "uint256"
        },
        {
          "indexed": false,
          "internalType": "uint256",
          "name": "value",
          "type": "uint256"
        }
      ],
      "name": "TransferSingle",
      "type": "event"
    },
    {
      "anonymous": false,
      "inputs": [
        {
          "indexed": false,
          "internalType": "string",
          "name": "value",
          "type": "string"
        },
        {
          "indexed": true,
          "internalType": "uint256",
          "name": "id",
          "type": "uint256"
        }
      ],
      "name": "URI",
      "type": "event"
    },
    {
      "inputs": [
        {
          "internalType": "uint256",
          "name": "",
          "type": "uint256"
        }
      ],
      "name": "AREAS",
      "outputs": [
        {
          "internalType": "uint256",
          "name": "",
          "type": "uint256"
        }
      ],
      "stateMutability": "view",
      "type": "function"
    },
    {
      "inputs": [],
      "name": "EDUCACAO",
      "outputs": [
        {
          "internalType": "uint256",
          "name": "",
          "type": "uint256"
        }
      ],
      "stateMutability": "view",
      "type": "function"
    },
    {
      "inputs": [],
      "name": "INFRA",
      "outputs": [
        {
          "internalType": "uint256",
          "name": "",
          "type": "uint256"
        }
      ],
      "stateMutability": "view",
      "type": "function"
    },
    {
      "inputs": [],
      "name": "OUTROS",
      "outputs": [
        {
          "internalType": "uint256",
          "name": "",
          "type": "uint256"
        }
      ],
      "stateMutability": "view",
      "type": "function"
    },
    {
      "inputs": [],
      "name": "SAUDE",
      "outputs": [
        {
          "internalType": "uint256",
          "name": "",
          "type": "uint256"
        }
      ],
      "stateMutability": "view",
      "type": "function"
    },
    {
      "inputs": [
        {
          "internalType": "address",
          "name": "org",
          "type": "address"
        },
        {
          "internalType": "uint256",
          "name": "area",
          "type": "uint256"
        }
      ],
      "name": "addArea",
      "outputs": [],
      "stateMutability": "nonpayable",
      "type": "function"
    },
    {
      "inputs": [
        {
          "internalType": "address",
          "name": "org",
          "type": "address"
        },
        {
          "internalType": "uint256",
          "name": "area",
          "type": "uint256"
        },
        {
          "internalType": "string",
          "name": "name",
          "type": "string"
        }
      ],
      "name": "addOrg",
      "outputs": [],
      "stateMutability": "nonpayable",
      "type": "function"
    },
    {
      "inputs": [
        {
          "internalType": "address",
          "name": "account",
          "type": "address"
        },
        {
          "internalType": "uint256",
          "name": "id",
          "type": "uint256"
        }
      ],
      "name": "balanceOf",
      "outputs": [
        {
          "internalType": "uint256",
          "name": "",
          "type": "uint256"
        }
      ],
      "stateMutability": "view",
      "type": "function"
    },
    {
      "inputs": [
        {
          "internalType": "address[]",
          "name": "accounts",
          "type": "address[]"
        },
        {
          "internalType": "uint256[]",
          "name": "ids",
          "type": "uint256[]"
        }
      ],
      "name": "balanceOfBatch",
      "outputs": [
        {
          "internalType": "uint256[]",
          "name": "",
          "type": "uint256[]"
        }
      ],
      "stateMutability": "view",
      "type": "function"
    },
    {
      "inputs": [
        {
          "internalType": "address",
          "name": "from",
          "type": "address"
        },
        {
          "internalType": "uint256",
          "name": "area",
          "type": "uint256"
        },
        {
          "internalType": "uint256",
          "name": "amount",
          "type": "uint256"
        }
      ],
      "name": "burn",
      "outputs": [],
      "stateMutability": "nonpayable",
      "type": "function"
    },
    {
      "inputs": [
        {
          "internalType": "string",
          "name": "name",
          "type": "string"
        }
      ],
      "name": "getAddress",
      "outputs": [
        {
          "internalType": "address",
          "name": "",
          "type": "address"
        }
      ],
      "stateMutability": "view",
      "type": "function"
    },
    {
      "inputs": [
        {
          "internalType": "address",
          "name": "org",
          "type": "address"
        }
      ],
      "name": "getAreas",
      "outputs": [
        {
          "internalType": "uint256[]",
          "name": "",
          "type": "uint256[]"
        }
      ],
      "stateMutability": "view",
      "type": "function"
    },
    {
      "inputs": [],
      "name": "getInitialBudget",
      "outputs": [
        {
          "internalType": "uint256[]",
          "name": "",
          "type": "uint256[]"
        }
      ],
      "stateMutability": "view",
      "type": "function"
    },
    {
      "inputs": [
        {
          "internalType": "address",
          "name": "org",
          "type": "address"
        }
      ],
      "name": "getName",
      "outputs": [
        {
          "internalType": "string",
          "name": "",
          "type": "string"
        }
      ],
      "stateMutability": "view",
      "type": "function"
    },
    {
      "inputs": [],
      "name": "getTotalBurned",
      "outputs": [
        {
          "internalType": "uint256[]",
          "name": "",
          "type": "uint256[]"
        }
      ],
      "stateMutability": "view",
      "type": "function"
    },
    {
      "inputs": [],
      "name": "getTotalMinted",
      "outputs": [
        {
          "internalType": "uint256[]",
          "name": "",
          "type": "uint256[]"
        }
      ],
      "stateMutability": "view",
      "type": "function"
    },
    {
      "inputs": [
        {
          "internalType": "address",
          "name": "account",
          "type": "address"
        },
        {
          "internalType": "address",
          "name": "operator",
          "type": "address"
        }
      ],
      "name": "isApprovedForAll",
      "outputs": [
        {
          "internalType": "bool",
          "name": "",
          "type": "bool"
        }
      ],
      "stateMutability": "view",
      "type": "function"
    },
    {
      "inputs": [
        {
          "internalType": "address",
          "name": "to",
          "type": "address"
        },
        {
          "internalType": "uint256",
          "name": "area",
          "type": "uint256"
        },
        {
          "internalType": "uint256",
          "name": "amount",
          "type": "uint256"
        }
      ],
      "name": "mint",
      "outputs": [],
      "stateMutability": "nonpayable",
      "type": "function"
    },
    {
      "inputs": [],
      "name": "owner",
      "outputs": [
        {
          "internalType": "address",
          "name": "",
          "type": "address"
        }
      ],
      "stateMutability": "view",
      "type": "function"
    },
    {
      "inputs": [],
      "name": "renounceOwnership",
      "outputs": [],
      "stateMutability": "nonpayable",
      "type": "function"
    },
    {
      "inputs": [
        {
          "internalType": "address",
          "name": "from",
          "type": "address"
        },
        {
          "internalType": "address",
          "name": "to",
          "type": "address"
        },
        {
          "internalType": "uint256[]",
          "name": "areas",
          "type": "uint256[]"
        },
        {
          "internalType": "uint256[]",
          "name": "amounts",
          "type": "uint256[]"
        },
        {
          "internalType": "bytes",
          "name": "data",
          "type": "bytes"
        }
      ],
      "name": "safeBatchTransferFrom",
      "outputs": [],
      "stateMutability": "nonpayable",
      "type": "function"
    },
    {
      "inputs": [
        {
          "internalType": "address",
          "name": "from",
          "type": "address"
        },
        {
          "internalType": "address",
          "name": "to",
          "type": "address"
        },
        {
          "internalType": "uint256",
          "name": "area",
          "type": "uint256"
        },
        {
          "internalType": "uint256",
          "name": "amount",
          "type": "uint256"
        },
        {
          "internalType": "bytes",
          "name": "data",
          "type": "bytes"
        }
      ],
      "name": "safeTransferFrom",
      "outputs": [],
      "stateMutability": "nonpayable",
      "type": "function"
    },
    {
      "inputs": [
        {
          "internalType": "address",
          "name": "operator",
          "type": "address"
        },
        {
          "internalType": "bool",
          "name": "approved",
          "type": "bool"
        }
      ],
      "name": "setApprovalForAll",
      "outputs": [],
      "stateMutability": "nonpayable",
      "type": "function"
    },
    {
      "inputs": [
        {
          "internalType": "address",
          "name": "org",
          "type": "address"
        },
        {
          "internalType": "uint256",
          "name": "area",
          "type": "uint256"
        }
      ],
      "name": "subArea",
      "outputs": [],
      "stateMutability": "nonpayable",
      "type": "function"
    },
    {
      "inputs": [
        {
          "internalType": "address",
          "name": "org",
          "type": "address"
        }
      ],
      "name": "subOrg",
      "outputs": [],
      "stateMutability": "nonpayable",
      "type": "function"
    },
    {
      "inputs": [
        {
          "internalType": "bytes4",
          "name": "interfaceId",
          "type": "bytes4"
        }
      ],
      "name": "supportsInterface",
      "outputs": [
        {
          "internalType": "bool",
          "name": "",
          "type": "bool"
        }
      ],
      "stateMutability": "view",
      "type": "function"
    },
    {
      "inputs": [
        {
          "internalType": "address",
          "name": "newOwner",
          "type": "address"
        }
      ],
      "name": "transferOwnership",
      "outputs": [],
      "stateMutability": "nonpayable",
      "type": "function"
    },
    {
      "inputs": [
        {
          "internalType": "uint256",
          "name": "",
          "type": "uint256"
        }
      ],
      "name": "uri",
      "outputs": [
        {
          "internalType": "string",
          "name": "",
          "type": "string"
        }
      ],
      "stateMutability": "view",
      "type": "function"
    }
  ],
  "transactionHash": "0xb5e6366d792d16ef5eb79837e5c0c195b00fdb7985285d8d4049cc9068bf3e6c",
  "args": [],
  "numDeployments": 1,
  "solcInputHash": "874de76f65cc898214f1439f349c97be",
  "bytecode": "0x608060405260006009556001600a556002600b556003600c5560405180608001604052806009548152602001600a548152602001600b548152602001600c54815250600d9060046200005392919062000ad0565b5064e8d4a51000600e556005600f55600a6010556005601155601054600f54601154606462000083919062000c0b565b6200008f919062000c0b565b6200009b919062000c0b565b60125560405180608001604052806012548152602001600f54815260200160105481526020016011548152506013906004620000d992919062000ad0565b50348015620000e757600080fd5b506040518060600160405280603e815260200162005fef603e913962000113816200045060201b60201c565b5062000134620001286200046c60201b60201c565b6200047460201b60201c565b6200017833600c546064601154600e5462000150919062000c46565b6200015c919062000cd6565b604051806020016040528060008152506200053a60201b60201c565b620001bc33600a546064600f54600e5462000194919062000c46565b620001a0919062000cd6565b604051806020016040528060008152506200053a60201b60201c565b6200020033600b546064601054600e54620001d8919062000c46565b620001e4919062000cd6565b604051806020016040528060008152506200053a60201b60201c565b62000244336009546064601254600e546200021c919062000c46565b62000228919062000cd6565b604051806020016040528060008152506200053a60201b60201c565b6064601154600e5462000258919062000c46565b62000264919062000cd6565b60076000600c548152602001908152602001600020819055506064600f54600e5462000291919062000c46565b6200029d919062000cd6565b60076000600a548152602001908152602001600020819055506064601054600e54620002ca919062000c46565b620002d6919062000cd6565b60076000600b548152602001908152602001600020819055506064601254600e5462000303919062000c46565b6200030f919062000cd6565b600760006009548152602001908152602001600020819055506040518060400160405280601081526020017f5465736f75726f204e6163696f6e616c00000000000000000000000000000000815250600560003373ffffffffffffffffffffffffffffffffffffffff1673ffffffffffffffffffffffffffffffffffffffff1681526020019081526020016000209080519060200190620003b292919062000b22565b50336006604051620003c49062000d69565b908152602001604051809103902060006101000a81548173ffffffffffffffffffffffffffffffffffffffff021916908373ffffffffffffffffffffffffffffffffffffffff16021790555060005b600d8054905081101562000449576200043333826200072260201b60201c565b8080620004409062000d80565b91505062000413565b506200152f565b80600290805190602001906200046892919062000b22565b5050565b600033905090565b6000600360009054906101000a900473ffffffffffffffffffffffffffffffffffffffff16905081600360006101000a81548173ffffffffffffffffffffffffffffffffffffffff021916908373ffffffffffffffffffffffffffffffffffffffff1602179055508173ffffffffffffffffffffffffffffffffffffffff168173ffffffffffffffffffffffffffffffffffffffff167f8be0079c531659141344cd1fd0a4f28419497f9722a3daafe3b4186f6b6457e060405160405180910390a35050565b600073ffffffffffffffffffffffffffffffffffffffff168473ffffffffffffffffffffffffffffffffffffffff161415620005ad576040517f08c379a0000000000000000000000000000000000000000000000000000000008152600401620005a49062000e55565b60405180910390fd5b6000620005bf6200046c60201b60201c565b90506000620005d4856200082260201b60201c565b90506000620005e9856200082260201b60201c565b90506200060283600089858589620008a360201b60201c565b8460008088815260200190815260200160002060008973ffffffffffffffffffffffffffffffffffffffff1673ffffffffffffffffffffffffffffffffffffffff168152602001908152602001600020600082825462000663919062000e77565b925050819055508673ffffffffffffffffffffffffffffffffffffffff16600073ffffffffffffffffffffffffffffffffffffffff168473ffffffffffffffffffffffffffffffffffffffff167fc3d58168c5ae7397731d063d5bbf3d657854427343f4c083240f7aacaa2d0f628989604051620006e392919062000ee5565b60405180910390a46200070283600089858589620008ab60201b60201c565b6200071983600089898989620008b360201b60201c565b50505050505050565b60011515818373ffffffffffffffffffffffffffffffffffffffff167fb8ab71d168de2395481e4653bcaf8113b8d414ee4f783094c4a67ec50b060f28600560008773ffffffffffffffffffffffffffffffffffffffff1673ffffffffffffffffffffffffffffffffffffffff168152602001908152602001600020604051620007ad919062001018565b60405180910390a46001600460008473ffffffffffffffffffffffffffffffffffffffff1673ffffffffffffffffffffffffffffffffffffffff168152602001908152602001600020600083815260200190815260200160002060006101000a81548160ff0219169083151502179055505050565b60606000600167ffffffffffffffff8111156200084457620008436200103c565b5b604051908082528060200260200182016040528015620008735781602001602082028036833780820191505090505b50905082816000815181106200088e576200088d6200106b565b5b60200260200101818152505080915050919050565b505050505050565b505050505050565b620008df8473ffffffffffffffffffffffffffffffffffffffff1662000aad60201b620018ef1760201c565b1562000aa5578373ffffffffffffffffffffffffffffffffffffffff1663f23a6e6187878686866040518663ffffffff1660e01b81526004016200092895949392919062001183565b6020604051808303816000875af19250505080156200096757506040513d601f19601f8201168201806040525081019062000964919062001253565b60015b62000a19576200097662001292565b806308c379a01415620009da57506200098e620012ed565b806200099b5750620009dc565b806040517f08c379a0000000000000000000000000000000000000000000000000000000008152600401620009d19190620013db565b60405180910390fd5b505b6040517f08c379a000000000000000000000000000000000000000000000000000000000815260040162000a109062001475565b60405180910390fd5b63f23a6e6160e01b7bffffffffffffffffffffffffffffffffffffffffffffffffffffffff1916817bffffffffffffffffffffffffffffffffffffffffffffffffffffffff19161462000aa3576040517f08c379a000000000000000000000000000000000000000000000000000000000815260040162000a9a906200150d565b60405180910390fd5b505b505050505050565b6000808273ffffffffffffffffffffffffffffffffffffffff163b119050919050565b82805482825590600052602060002090810192821562000b0f579160200282015b8281111562000b0e57825182559160200191906001019062000af1565b5b50905062000b1e919062000bb3565b5090565b82805462000b309062000f41565b90600052602060002090601f01602090048101928262000b54576000855562000ba0565b82601f1062000b6f57805160ff191683800117855562000ba0565b8280016001018555821562000ba0579182015b8281111562000b9f57825182559160200191906001019062000b82565b5b50905062000baf919062000bb3565b5090565b5b8082111562000bce57600081600090555060010162000bb4565b5090565b6000819050919050565b7f4e487b7100000000000000000000000000000000000000000000000000000000600052601160045260246000fd5b600062000c188262000bd2565b915062000c258362000bd2565b92508282101562000c3b5762000c3a62000bdc565b5b828203905092915050565b600062000c538262000bd2565b915062000c608362000bd2565b9250817fffffffffffffffffffffffffffffffffffffffffffffffffffffffffffffffff048311821515161562000c9c5762000c9b62000bdc565b5b828202905092915050565b7f4e487b7100000000000000000000000000000000000000000000000000000000600052601260045260246000fd5b600062000ce38262000bd2565b915062000cf08362000bd2565b92508262000d035762000d0262000ca7565b5b828204905092915050565b600081905092915050565b7f5465736f75726f204e6163696f6e616c00000000000000000000000000000000600082015250565b600062000d5160108362000d0e565b915062000d5e8262000d19565b601082019050919050565b600062000d768262000d42565b9150819050919050565b600062000d8d8262000bd2565b91507fffffffffffffffffffffffffffffffffffffffffffffffffffffffffffffffff82141562000dc35762000dc262000bdc565b5b600182019050919050565b600082825260208201905092915050565b7f455243313135353a206d696e7420746f20746865207a65726f2061646472657360008201527f7300000000000000000000000000000000000000000000000000000000000000602082015250565b600062000e3d60218362000dce565b915062000e4a8262000ddf565b604082019050919050565b6000602082019050818103600083015262000e708162000e2e565b9050919050565b600062000e848262000bd2565b915062000e918362000bd2565b9250827fffffffffffffffffffffffffffffffffffffffffffffffffffffffffffffffff0382111562000ec95762000ec862000bdc565b5b828201905092915050565b62000edf8162000bd2565b82525050565b600060408201905062000efc600083018562000ed4565b62000f0b602083018462000ed4565b9392505050565b7f4e487b7100000000000000000000000000000000000000000000000000000000600052602260045260246000fd5b6000600282049050600182168062000f5a57607f821691505b6020821081141562000f715762000f7062000f12565b5b50919050565b60008190508160005260206000209050919050565b6000815462000f9b8162000f41565b62000fa7818662000dce565b9450600182166000811462000fc5576001811462000fd8576200100f565b60ff19831686526020860193506200100f565b62000fe38562000f77565b60005b83811015620010075781548189015260018201915060208101905062000fe6565b808801955050505b50505092915050565b6000602082019050818103600083015262001034818462000f8c565b905092915050565b7f4e487b7100000000000000000000000000000000000000000000000000000000600052604160045260246000fd5b7f4e487b7100000000000000000000000000000000000000000000000000000000600052603260045260246000fd5b600073ffffffffffffffffffffffffffffffffffffffff82169050919050565b6000620010c7826200109a565b9050919050565b620010d981620010ba565b82525050565b600081519050919050565b600082825260208201905092915050565b60005b838110156200111b578082015181840152602081019050620010fe565b838111156200112b576000848401525b50505050565b6000601f19601f8301169050919050565b60006200114f82620010df565b6200115b8185620010ea565b93506200116d818560208601620010fb565b620011788162001131565b840191505092915050565b600060a0820190506200119a6000830188620010ce565b620011a96020830187620010ce565b620011b8604083018662000ed4565b620011c7606083018562000ed4565b8181036080830152620011db818462001142565b90509695505050505050565b6000604051905090565b600080fd5b60007fffffffff0000000000000000000000000000000000000000000000000000000082169050919050565b6200122d81620011f6565b81146200123957600080fd5b50565b6000815190506200124d8162001222565b92915050565b6000602082840312156200126c576200126b620011f1565b5b60006200127c848285016200123c565b91505092915050565b60008160e01c9050919050565b600060033d1115620012b45760046000803e620012b160005162001285565b90505b90565b620012c28262001131565b810181811067ffffffffffffffff82111715620012e457620012e36200103c565b5b80604052505050565b600060443d1015620012ff576200138c565b62001309620011e7565b60043d036004823e80513d602482011167ffffffffffffffff82111715620013335750506200138c565b808201805167ffffffffffffffff8111156200135357505050506200138c565b80602083010160043d038501811115620013725750505050506200138c565b6200138382602001850186620012b7565b82955050505050505b90565b600081519050919050565b6000620013a7826200138f565b620013b3818562000dce565b9350620013c5818560208601620010fb565b620013d08162001131565b840191505092915050565b60006020820190508181036000830152620013f781846200139a565b905092915050565b7f455243313135353a207472616e7366657220746f206e6f6e2d4552433131353560008201527f526563656976657220696d706c656d656e746572000000000000000000000000602082015250565b60006200145d60348362000dce565b91506200146a82620013ff565b604082019050919050565b6000602082019050818103600083015262001490816200144e565b9050919050565b7f455243313135353a204552433131353552656365697665722072656a6563746560008201527f6420746f6b656e73000000000000000000000000000000000000000000000000602082015250565b6000620014f560288362000dce565b9150620015028262001497565b604082019050919050565b600060208201905081810360008301526200152881620014e6565b9050919050565b614ab0806200153f6000396000f3fe608060405234801561001057600080fd5b50600436106101c35760003560e01c8063715018a6116100f9578063cdda771511610097578063f242432a11610071578063f242432a14610518578063f2fde38b14610534578063f5298aca14610550578063f84f7dd01461056c576101c3565b8063cdda7715146104ac578063db401541146104ca578063e985e9c5146104e8576101c3565b80638da5cb5b116100d35780638da5cb5b14610424578063a22cb46514610442578063b55cd04b1461045e578063bf40fac11461047c576101c3565b8063715018a6146103ce5780637f14ba3f146103d85780637f7063e7146103f4576101c3565b80631ef16b43116101665780632eb2c2d6116101405780632eb2c2d6146103365780634e1273f4146103525780635fd4b08a1461038257806361ae0309146103b2576101c3565b80631ef16b43146102ca57806321636aa5146102e857806328eece1314610306576101c3565b80630ca1c5c9116101a25780630ca1c5c9146102445780630e89341c14610262578063156e29f614610292578063169bc486146102ae576101c3565b8062fdd58e146101c857806301ffc9a7146101f85780630c89c42114610228575b600080fd5b6101e260048036038101906101dd9190612eae565b61058a565b6040516101ef9190612efd565b60405180910390f35b610212600480360381019061020d9190612f70565b610653565b60405161021f9190612fb8565b60405180910390f35b610242600480360381019061023d9190612fd3565b610735565b005b61024c6108c4565b60405161025991906130be565b60405180910390f35b61027c600480360381019061027791906130e0565b610976565b60405161028991906131a6565b60405180910390f35b6102ac60048036038101906102a791906131c8565b610a0a565b005b6102c860048036038101906102c39190612eae565b610b28565b005b6102d2610c89565b6040516102df9190612efd565b60405180910390f35b6102f0610c8f565b6040516102fd9190612efd565b60405180910390f35b610320600480360381019061031b9190612fd3565b610c95565b60405161032d91906130be565b60405180910390f35b610350600480360381019061034b9190613418565b610e60565b005b61036c600480360381019061036791906135aa565b610f52565b60405161037991906130be565b60405180910390f35b61039c60048036038101906103979190612fd3565b61106b565b6040516103a991906131a6565b60405180910390f35b6103cc60048036038101906103c791906136c3565b61113c565b005b6103d66112c1565b005b6103f260048036038101906103ed9190612eae565b6112d5565b005b61040e600480360381019061040991906130e0565b6113d2565b60405161041b9190612efd565b60405180910390f35b61042c6113f6565b6040516104399190613741565b60405180910390f35b61045c60048036038101906104579190613788565b611420565b005b610466611436565b60405161047391906130be565b60405180910390f35b610496600480360381019061049191906137c8565b6114e8565b6040516104a39190613741565b60405180910390f35b6104b4611530565b6040516104c191906130be565b60405180910390f35b6104d261162b565b6040516104df9190612efd565b60405180910390f35b61050260048036038101906104fd9190613811565b611631565b60405161050f9190612fb8565b60405180910390f35b610532600480360381019061052d9190613851565b6116c5565b005b61054e60048036038101906105499190612fd3565b61177d565b005b61056a600480360381019061056591906131c8565b611801565b005b6105746118e9565b6040516105819190612efd565b60405180910390f35b60008073ffffffffffffffffffffffffffffffffffffffff168373ffffffffffffffffffffffffffffffffffffffff1614156105fb576040517f08c379a00000000000000000000000000000000000000000000000000000000081526004016105f29061395a565b60405180910390fd5b60008083815260200190815260200160002060008473ffffffffffffffffffffffffffffffffffffffff1673ffffffffffffffffffffffffffffffffffffffff16815260200190815260200160002054905092915050565b60007fd9b67a26000000000000000000000000000000000000000000000000000000007bffffffffffffffffffffffffffffffffffffffffffffffffffffffff1916827bffffffffffffffffffffffffffffffffffffffffffffffffffffffff1916148061071e57507f0e89341c000000000000000000000000000000000000000000000000000000007bffffffffffffffffffffffffffffffffffffffffffffffffffffffff1916827bffffffffffffffffffffffffffffffffffffffffffffffffffffffff1916145b8061072e575061072d82611912565b5b9050919050565b61073d61197c565b60011515600460008373ffffffffffffffffffffffffffffffffffffffff1673ffffffffffffffffffffffffffffffffffffffff1681526020019081526020016000206000600954815260200190815260200160002060009054906101000a900460ff161515146107e3576040517f08c379a00000000000000000000000000000000000000000000000000000000081526004016107da906139c6565b60405180910390fd5b60006107ee82610c95565b905060005b81518110156108be5760001515600460008573ffffffffffffffffffffffffffffffffffffffff1673ffffffffffffffffffffffffffffffffffffffff1681526020019081526020016000206000848481518110610854576108536139e6565b5b6020026020010151815260200190815260200160002060009054906101000a900460ff16151514156108875750506108c1565b6108ab8383838151811061089e5761089d6139e6565b5b60200260200101516119fa565b80806108b690613a44565b9150506107f3565b50505b50565b60606000600d8054905067ffffffffffffffff8111156108e7576108e6613220565b5b6040519080825280602002602001820160405280156109155781602001602082028036833780820191505090505b50905060005b600d8054905081101561096e57600760008281526020019081526020016000205482828151811061094f5761094e6139e6565b5b602002602001018181525050808061096690613a44565b91505061091b565b508091505090565b60606002805461098590613abc565b80601f01602080910402602001604051908101604052809291908181526020018280546109b190613abc565b80156109fe5780601f106109d3576101008083540402835291602001916109fe565b820191906000526020600020905b8154815290600101906020018083116109e157829003601f168201915b50505050509050919050565b610a1261197c565b60011515600460008573ffffffffffffffffffffffffffffffffffffffff1673ffffffffffffffffffffffffffffffffffffffff1681526020019081526020016000206000600954815260200190815260200160002060009054906101000a900460ff16151514610ab8576040517f08c379a0000000000000000000000000000000000000000000000000000000008152600401610aaf90613b3a565b60405180910390fd5b80600760008481526020019081526020016000206000828254610adb9190613b5a565b92505081905550610b238383836040518060400160405280600481526020017f3078303000000000000000000000000000000000000000000000000000000000815250611af8565b505050565b610b3061197c565b60011515600460008473ffffffffffffffffffffffffffffffffffffffff1673ffffffffffffffffffffffffffffffffffffffff1681526020019081526020016000206000600954815260200190815260200160002060009054906101000a900460ff16151514610bd6576040517f08c379a0000000000000000000000000000000000000000000000000000000008152600401610bcd90613bfc565b60405180910390fd5b60011515600460008473ffffffffffffffffffffffffffffffffffffffff1673ffffffffffffffffffffffffffffffffffffffff168152602001908152602001600020600083815260200190815260200160002060009054906101000a900460ff1615151415610c7b576040517f08c379a0000000000000000000000000000000000000000000000000000000008152600401610c7290613c8e565b60405180910390fd5b610c858282611ca9565b5050565b600b5481565b60095481565b606060011515600460008473ffffffffffffffffffffffffffffffffffffffff1673ffffffffffffffffffffffffffffffffffffffff1681526020019081526020016000206000600954815260200190815260200160002060009054906101000a900460ff16151514610d3d576040517f08c379a0000000000000000000000000000000000000000000000000000000008152600401610d3490613b3a565b60405180910390fd5b6000600d8054905067ffffffffffffffff811115610d5e57610d5d613220565b5b604051908082528060200260200182016040528015610d8c5781602001602082028036833780820191505090505b5090506000600190506000600190505b600d80549050811015610e555760011515600460008773ffffffffffffffffffffffffffffffffffffffff1673ffffffffffffffffffffffffffffffffffffffff168152602001908152602001600020600083815260200190815260200160002060009054906101000a900460ff1615151415610e425780838381518110610e2757610e266139e6565b5b6020026020010181815250508180610e3e90613a44565b9250505b8080610e4d90613a44565b915050610d9c565b508192505050919050565b60005b8351811015610f3d5760011515600460008773ffffffffffffffffffffffffffffffffffffffff1673ffffffffffffffffffffffffffffffffffffffff1681526020019081526020016000206000868481518110610ec457610ec36139e6565b5b6020026020010151815260200190815260200160002060009054906101000a900460ff16151514610f2a576040517f08c379a0000000000000000000000000000000000000000000000000000000008152600401610f2190613d46565b60405180910390fd5b8080610f3590613a44565b915050610e63565b50610f4b8585858585611da7565b5050505050565b60608151835114610f98576040517f08c379a0000000000000000000000000000000000000000000000000000000008152600401610f8f90613dd8565b60405180910390fd5b6000835167ffffffffffffffff811115610fb557610fb4613220565b5b604051908082528060200260200182016040528015610fe35781602001602082028036833780820191505090505b50905060005b845181101561106057611030858281518110611008576110076139e6565b5b6020026020010151858381518110611023576110226139e6565b5b602002602001015161058a565b828281518110611043576110426139e6565b5b6020026020010181815250508061105990613a44565b9050610fe9565b508091505092915050565b6060600560008373ffffffffffffffffffffffffffffffffffffffff1673ffffffffffffffffffffffffffffffffffffffff16815260200190815260200160002080546110b790613abc565b80601f01602080910402602001604051908101604052809291908181526020018280546110e390613abc565b80156111305780601f1061110557610100808354040283529160200191611130565b820191906000526020600020905b81548152906001019060200180831161111357829003601f168201915b50505050509050919050565b61114461197c565b60011515600460008573ffffffffffffffffffffffffffffffffffffffff1673ffffffffffffffffffffffffffffffffffffffff1681526020019081526020016000206000600954815260200190815260200160002060009054906101000a900460ff16151514156111eb576040517f08c379a00000000000000000000000000000000000000000000000000000000081526004016111e290613e44565b60405180910390fd5b80600560008573ffffffffffffffffffffffffffffffffffffffff1673ffffffffffffffffffffffffffffffffffffffff168152602001908152602001600020908051906020019061123e929190612d63565b50826006826040516112509190613ea0565b908152602001604051809103902060006101000a81548173ffffffffffffffffffffffffffffffffffffffff021916908373ffffffffffffffffffffffffffffffffffffffff1602179055506112a883600954611ca9565b60095482146112bc576112bb8383611ca9565b5b505050565b6112c961197c565b6112d36000611e48565b565b6112dd61197c565b60008111611320576040517f08c379a000000000000000000000000000000000000000000000000000000000815260040161131790613f29565b60405180910390fd5b60011515600460008473ffffffffffffffffffffffffffffffffffffffff1673ffffffffffffffffffffffffffffffffffffffff168152602001908152602001600020600083815260200190815260200160002060009054906101000a900460ff161515146113c4576040517f08c379a00000000000000000000000000000000000000000000000000000000081526004016113bb90613fbb565b60405180910390fd5b6113ce82826119fa565b5050565b600d81815481106113e257600080fd5b906000526020600020016000915090505481565b6000600360009054906101000a900473ffffffffffffffffffffffffffffffffffffffff16905090565b61143261142b611f0e565b8383611f16565b5050565b60606000600d8054905067ffffffffffffffff81111561145957611458613220565b5b6040519080825280602002602001820160405280156114875781602001602082028036833780820191505090505b50905060005b600d805490508110156114e05760086000828152602001908152602001600020548282815181106114c1576114c06139e6565b5b60200260200101818152505080806114d890613a44565b91505061148d565b508091505090565b60006006826040516114fa9190613ea0565b908152602001604051809103902060009054906101000a900473ffffffffffffffffffffffffffffffffffffffff169050919050565b606060006001600d805490506115469190613b5a565b67ffffffffffffffff81111561155f5761155e613220565b5b60405190808252806020026020018201604052801561158d5781602001602082028036833780820191505090505b5090506000805b60138054905081101561160057601381815481106115b5576115b46139e6565b5b90600052602060002001548382815181106115d3576115d26139e6565b5b60200260200101818152505081806115ea90613a44565b92505080806115f890613a44565b915050611594565b50600e54828281518110611617576116166139e6565b5b602002602001018181525050819250505090565b600a5481565b6000600160008473ffffffffffffffffffffffffffffffffffffffff1673ffffffffffffffffffffffffffffffffffffffff16815260200190815260200160002060008373ffffffffffffffffffffffffffffffffffffffff1673ffffffffffffffffffffffffffffffffffffffff16815260200190815260200160002060009054906101000a900460ff16905092915050565b60011515600460008673ffffffffffffffffffffffffffffffffffffffff1673ffffffffffffffffffffffffffffffffffffffff168152602001908152602001600020600085815260200190815260200160002060009054906101000a900460ff16151514611769576040517f08c379a000000000000000000000000000000000000000000000000000000000815260040161176090614073565b60405180910390fd5b6117768585858585612083565b5050505050565b61178561197c565b600073ffffffffffffffffffffffffffffffffffffffff168173ffffffffffffffffffffffffffffffffffffffff1614156117f5576040517f08c379a00000000000000000000000000000000000000000000000000000000081526004016117ec90614105565b60405180910390fd5b6117fe81611e48565b50565b61180961197c565b60011515600460008573ffffffffffffffffffffffffffffffffffffffff1673ffffffffffffffffffffffffffffffffffffffff1681526020019081526020016000206000600954815260200190815260200160002060009054906101000a900460ff161515146118af576040517f08c379a00000000000000000000000000000000000000000000000000000000081526004016118a690613b3a565b60405180910390fd5b806008600084815260200190815260200160002060008282546118d29190613b5a565b925050819055506118e4838383612124565b505050565b600c5481565b6000808273ffffffffffffffffffffffffffffffffffffffff163b119050919050565b60007f01ffc9a7000000000000000000000000000000000000000000000000000000007bffffffffffffffffffffffffffffffffffffffffffffffffffffffff1916827bffffffffffffffffffffffffffffffffffffffffffffffffffffffff1916149050919050565b611984611f0e565b73ffffffffffffffffffffffffffffffffffffffff166119a26113f6565b73ffffffffffffffffffffffffffffffffffffffff16146119f8576040517f08c379a00000000000000000000000000000000000000000000000000000000081526004016119ef90614171565b60405180910390fd5b565b60001515818373ffffffffffffffffffffffffffffffffffffffff167fb8ab71d168de2395481e4653bcaf8113b8d414ee4f783094c4a67ec50b060f28600560008773ffffffffffffffffffffffffffffffffffffffff1673ffffffffffffffffffffffffffffffffffffffff168152602001908152602001600020604051611a839190614226565b60405180910390a46000600460008473ffffffffffffffffffffffffffffffffffffffff1673ffffffffffffffffffffffffffffffffffffffff168152602001908152602001600020600083815260200190815260200160002060006101000a81548160ff0219169083151502179055505050565b600073ffffffffffffffffffffffffffffffffffffffff168473ffffffffffffffffffffffffffffffffffffffff161415611b68576040517f08c379a0000000000000000000000000000000000000000000000000000000008152600401611b5f906142ba565b60405180910390fd5b6000611b72611f0e565b90506000611b7f8561236b565b90506000611b8c8561236b565b9050611b9d836000898585896123e5565b8460008088815260200190815260200160002060008973ffffffffffffffffffffffffffffffffffffffff1673ffffffffffffffffffffffffffffffffffffffff1681526020019081526020016000206000828254611bfc9190613b5a565b925050819055508673ffffffffffffffffffffffffffffffffffffffff16600073ffffffffffffffffffffffffffffffffffffffff168473ffffffffffffffffffffffffffffffffffffffff167fc3d58168c5ae7397731d063d5bbf3d657854427343f4c083240f7aacaa2d0f628989604051611c7a9291906142da565b60405180910390a4611c91836000898585896123ed565b611ca0836000898989896123f5565b50505050505050565b60011515818373ffffffffffffffffffffffffffffffffffffffff167fb8ab71d168de2395481e4653bcaf8113b8d414ee4f783094c4a67ec50b060f28600560008773ffffffffffffffffffffffffffffffffffffffff1673ffffffffffffffffffffffffffffffffffffffff168152602001908152602001600020604051611d329190614226565b60405180910390a46001600460008473ffffffffffffffffffffffffffffffffffffffff1673ffffffffffffffffffffffffffffffffffffffff168152602001908152602001600020600083815260200190815260200160002060006101000a81548160ff0219169083151502179055505050565b611daf611f0e565b73ffffffffffffffffffffffffffffffffffffffff168573ffffffffffffffffffffffffffffffffffffffff161480611df55750611df485611def611f0e565b611631565b5b611e34576040517f08c379a0000000000000000000000000000000000000000000000000000000008152600401611e2b90614375565b60405180910390fd5b611e4185858585856125cd565b5050505050565b6000600360009054906101000a900473ffffffffffffffffffffffffffffffffffffffff16905081600360006101000a81548173ffffffffffffffffffffffffffffffffffffffff021916908373ffffffffffffffffffffffffffffffffffffffff1602179055508173ffffffffffffffffffffffffffffffffffffffff168173ffffffffffffffffffffffffffffffffffffffff167f8be0079c531659141344cd1fd0a4f28419497f9722a3daafe3b4186f6b6457e060405160405180910390a35050565b600033905090565b8173ffffffffffffffffffffffffffffffffffffffff168373ffffffffffffffffffffffffffffffffffffffff161415611f85576040517f08c379a0000000000000000000000000000000000000000000000000000000008152600401611f7c90614407565b60405180910390fd5b80600160008573ffffffffffffffffffffffffffffffffffffffff1673ffffffffffffffffffffffffffffffffffffffff16815260200190815260200160002060008473ffffffffffffffffffffffffffffffffffffffff1673ffffffffffffffffffffffffffffffffffffffff16815260200190815260200160002060006101000a81548160ff0219169083151502179055508173ffffffffffffffffffffffffffffffffffffffff168373ffffffffffffffffffffffffffffffffffffffff167f17307eab39ab6107e8899845ad3d59bd9653f200f220920489ca2b5937696c31836040516120769190612fb8565b60405180910390a3505050565b61208b611f0e565b73ffffffffffffffffffffffffffffffffffffffff168573ffffffffffffffffffffffffffffffffffffffff1614806120d157506120d0856120cb611f0e565b611631565b5b612110576040517f08c379a000000000000000000000000000000000000000000000000000000000815260040161210790614375565b60405180910390fd5b61211d85858585856128ef565b5050505050565b600073ffffffffffffffffffffffffffffffffffffffff168373ffffffffffffffffffffffffffffffffffffffff161415612194576040517f08c379a000000000000000000000000000000000000000000000000000000000815260040161218b90614499565b60405180910390fd5b600061219e611f0e565b905060006121ab8461236b565b905060006121b88461236b565b90506121d8838760008585604051806020016040528060008152506123e5565b600080600087815260200190815260200160002060008873ffffffffffffffffffffffffffffffffffffffff1673ffffffffffffffffffffffffffffffffffffffff1681526020019081526020016000205490508481101561226f576040517f08c379a00000000000000000000000000000000000000000000000000000000081526004016122669061452b565b60405180910390fd5b84810360008088815260200190815260200160002060008973ffffffffffffffffffffffffffffffffffffffff1673ffffffffffffffffffffffffffffffffffffffff16815260200190815260200160002081905550600073ffffffffffffffffffffffffffffffffffffffff168773ffffffffffffffffffffffffffffffffffffffff168573ffffffffffffffffffffffffffffffffffffffff167fc3d58168c5ae7397731d063d5bbf3d657854427343f4c083240f7aacaa2d0f62898960405161233c9291906142da565b60405180910390a4612362848860008686604051806020016040528060008152506123ed565b50505050505050565b60606000600167ffffffffffffffff81111561238a57612389613220565b5b6040519080825280602002602001820160405280156123b85781602001602082028036833780820191505090505b50905082816000815181106123d0576123cf6139e6565b5b60200260200101818152505080915050919050565b505050505050565b505050505050565b6124148473ffffffffffffffffffffffffffffffffffffffff166118ef565b156125c5578373ffffffffffffffffffffffffffffffffffffffff1663f23a6e6187878686866040518663ffffffff1660e01b815260040161245a9594939291906145a0565b6020604051808303816000875af192505050801561249657506040513d601f19601f82011682018060405250810190612493919061460f565b60015b61253c576124a2614649565b806308c379a014156124ff57506124b761466b565b806124c25750612501565b806040517f08c379a00000000000000000000000000000000000000000000000000000000081526004016124f691906131a6565b60405180910390fd5b505b6040517f08c379a000000000000000000000000000000000000000000000000000000000815260040161253390614773565b60405180910390fd5b63f23a6e6160e01b7bffffffffffffffffffffffffffffffffffffffffffffffffffffffff1916817bffffffffffffffffffffffffffffffffffffffffffffffffffffffff1916146125c3576040517f08c379a00000000000000000000000000000000000000000000000000000000081526004016125ba90614805565b60405180910390fd5b505b505050505050565b8151835114612611576040517f08c379a000000000000000000000000000000000000000000000000000000000815260040161260890614897565b60405180910390fd5b600073ffffffffffffffffffffffffffffffffffffffff168473ffffffffffffffffffffffffffffffffffffffff161415612681576040517f08c379a000000000000000000000000000000000000000000000000000000000815260040161267890614929565b60405180910390fd5b600061268b611f0e565b905061269b8187878787876123e5565b60005b845181101561284c5760008582815181106126bc576126bb6139e6565b5b6020026020010151905060008583815181106126db576126da6139e6565b5b60200260200101519050600080600084815260200190815260200160002060008b73ffffffffffffffffffffffffffffffffffffffff1673ffffffffffffffffffffffffffffffffffffffff1681526020019081526020016000205490508181101561277c576040517f08c379a0000000000000000000000000000000000000000000000000000000008152600401612773906149bb565b60405180910390fd5b81810360008085815260200190815260200160002060008c73ffffffffffffffffffffffffffffffffffffffff1673ffffffffffffffffffffffffffffffffffffffff168152602001908152602001600020819055508160008085815260200190815260200160002060008b73ffffffffffffffffffffffffffffffffffffffff1673ffffffffffffffffffffffffffffffffffffffff16815260200190815260200160002060008282546128319190613b5a565b925050819055505050508061284590613a44565b905061269e565b508473ffffffffffffffffffffffffffffffffffffffff168673ffffffffffffffffffffffffffffffffffffffff168273ffffffffffffffffffffffffffffffffffffffff167f4a39dc06d4c0dbc64b70af90fd698a233a518aa5d07e595d983b8c0526c8f7fb87876040516128c39291906149db565b60405180910390a46128d98187878787876123ed565b6128e7818787878787612b8b565b505050505050565b600073ffffffffffffffffffffffffffffffffffffffff168473ffffffffffffffffffffffffffffffffffffffff16141561295f576040517f08c379a000000000000000000000000000000000000000000000000000000000815260040161295690614929565b60405180910390fd5b6000612969611f0e565b905060006129768561236b565b905060006129838561236b565b90506129938389898585896123e5565b600080600088815260200190815260200160002060008a73ffffffffffffffffffffffffffffffffffffffff1673ffffffffffffffffffffffffffffffffffffffff16815260200190815260200160002054905085811015612a2a576040517f08c379a0000000000000000000000000000000000000000000000000000000008152600401612a21906149bb565b60405180910390fd5b85810360008089815260200190815260200160002060008b73ffffffffffffffffffffffffffffffffffffffff1673ffffffffffffffffffffffffffffffffffffffff168152602001908152602001600020819055508560008089815260200190815260200160002060008a73ffffffffffffffffffffffffffffffffffffffff1673ffffffffffffffffffffffffffffffffffffffff1681526020019081526020016000206000828254612adf9190613b5a565b925050819055508773ffffffffffffffffffffffffffffffffffffffff168973ffffffffffffffffffffffffffffffffffffffff168573ffffffffffffffffffffffffffffffffffffffff167fc3d58168c5ae7397731d063d5bbf3d657854427343f4c083240f7aacaa2d0f628a8a604051612b5c9291906142da565b60405180910390a4612b72848a8a86868a6123ed565b612b80848a8a8a8a8a6123f5565b505050505050505050565b612baa8473ffffffffffffffffffffffffffffffffffffffff166118ef565b15612d5b578373ffffffffffffffffffffffffffffffffffffffff1663bc197c8187878686866040518663ffffffff1660e01b8152600401612bf0959493929190614a12565b6020604051808303816000875af1925050508015612c2c57506040513d601f19601f82011682018060405250810190612c29919061460f565b60015b612cd257612c38614649565b806308c379a01415612c955750612c4d61466b565b80612c585750612c97565b806040517f08c379a0000000000000000000000000000000000000000000000000000000008152600401612c8c91906131a6565b60405180910390fd5b505b6040517f08c379a0000000000000000000000000000000000000000000000000000000008152600401612cc990614773565b60405180910390fd5b63bc197c8160e01b7bffffffffffffffffffffffffffffffffffffffffffffffffffffffff1916817bffffffffffffffffffffffffffffffffffffffffffffffffffffffff191614612d59576040517f08c379a0000000000000000000000000000000000000000000000000000000008152600401612d5090614805565b60405180910390fd5b505b505050505050565b828054612d6f90613abc565b90600052602060002090601f016020900481019282612d915760008555612dd8565b82601f10612daa57805160ff1916838001178555612dd8565b82800160010185558215612dd8579182015b82811115612dd7578251825591602001919060010190612dbc565b5b509050612de59190612de9565b5090565b5b80821115612e02576000816000905550600101612dea565b5090565b6000604051905090565b600080fd5b600080fd5b600073ffffffffffffffffffffffffffffffffffffffff82169050919050565b6000612e4582612e1a565b9050919050565b612e5581612e3a565b8114612e6057600080fd5b50565b600081359050612e7281612e4c565b92915050565b6000819050919050565b612e8b81612e78565b8114612e9657600080fd5b50565b600081359050612ea881612e82565b92915050565b60008060408385031215612ec557612ec4612e10565b5b6000612ed385828601612e63565b9250506020612ee485828601612e99565b9150509250929050565b612ef781612e78565b82525050565b6000602082019050612f126000830184612eee565b92915050565b60007fffffffff0000000000000000000000000000000000000000000000000000000082169050919050565b612f4d81612f18565b8114612f5857600080fd5b50565b600081359050612f6a81612f44565b92915050565b600060208284031215612f8657612f85612e10565b5b6000612f9484828501612f5b565b91505092915050565b60008115159050919050565b612fb281612f9d565b82525050565b6000602082019050612fcd6000830184612fa9565b92915050565b600060208284031215612fe957612fe8612e10565b5b6000612ff784828501612e63565b91505092915050565b600081519050919050565b600082825260208201905092915050565b6000819050602082019050919050565b61303581612e78565b82525050565b6000613047838361302c565b60208301905092915050565b6000602082019050919050565b600061306b82613000565b613075818561300b565b93506130808361301c565b8060005b838110156130b1578151613098888261303b565b97506130a383613053565b925050600181019050613084565b5085935050505092915050565b600060208201905081810360008301526130d88184613060565b905092915050565b6000602082840312156130f6576130f5612e10565b5b600061310484828501612e99565b91505092915050565b600081519050919050565b600082825260208201905092915050565b60005b8381101561314757808201518184015260208101905061312c565b83811115613156576000848401525b50505050565b6000601f19601f8301169050919050565b60006131788261310d565b6131828185613118565b9350613192818560208601613129565b61319b8161315c565b840191505092915050565b600060208201905081810360008301526131c0818461316d565b905092915050565b6000806000606084860312156131e1576131e0612e10565b5b60006131ef86828701612e63565b935050602061320086828701612e99565b925050604061321186828701612e99565b9150509250925092565b600080fd5b7f4e487b7100000000000000000000000000000000000000000000000000000000600052604160045260246000fd5b6132588261315c565b810181811067ffffffffffffffff8211171561327757613276613220565b5b80604052505050565b600061328a612e06565b9050613296828261324f565b919050565b600067ffffffffffffffff8211156132b6576132b5613220565b5b602082029050602081019050919050565b600080fd5b60006132df6132da8461329b565b613280565b90508083825260208201905060208402830185811115613302576133016132c7565b5b835b8181101561332b57806133178882612e99565b845260208401935050602081019050613304565b5050509392505050565b600082601f83011261334a5761334961321b565b5b813561335a8482602086016132cc565b91505092915050565b600080fd5b600067ffffffffffffffff82111561338357613382613220565b5b61338c8261315c565b9050602081019050919050565b82818337600083830152505050565b60006133bb6133b684613368565b613280565b9050828152602081018484840111156133d7576133d6613363565b5b6133e2848285613399565b509392505050565b600082601f8301126133ff576133fe61321b565b5b813561340f8482602086016133a8565b91505092915050565b600080600080600060a0868803121561343457613433612e10565b5b600061344288828901612e63565b955050602061345388828901612e63565b945050604086013567ffffffffffffffff81111561347457613473612e15565b5b61348088828901613335565b935050606086013567ffffffffffffffff8111156134a1576134a0612e15565b5b6134ad88828901613335565b925050608086013567ffffffffffffffff8111156134ce576134cd612e15565b5b6134da888289016133ea565b9150509295509295909350565b600067ffffffffffffffff82111561350257613501613220565b5b602082029050602081019050919050565b6000613526613521846134e7565b613280565b90508083825260208201905060208402830185811115613549576135486132c7565b5b835b81811015613572578061355e8882612e63565b84526020840193505060208101905061354b565b5050509392505050565b600082601f8301126135915761359061321b565b5b81356135a1848260208601613513565b91505092915050565b600080604083850312156135c1576135c0612e10565b5b600083013567ffffffffffffffff8111156135df576135de612e15565b5b6135eb8582860161357c565b925050602083013567ffffffffffffffff81111561360c5761360b612e15565b5b61361885828601613335565b9150509250929050565b600067ffffffffffffffff82111561363d5761363c613220565b5b6136468261315c565b9050602081019050919050565b600061366661366184613622565b613280565b90508281526020810184848401111561368257613681613363565b5b61368d848285613399565b509392505050565b600082601f8301126136aa576136a961321b565b5b81356136ba848260208601613653565b91505092915050565b6000806000606084860312156136dc576136db612e10565b5b60006136ea86828701612e63565b93505060206136fb86828701612e99565b925050604084013567ffffffffffffffff81111561371c5761371b612e15565b5b61372886828701613695565b9150509250925092565b61373b81612e3a565b82525050565b60006020820190506137566000830184613732565b92915050565b61376581612f9d565b811461377057600080fd5b50565b6000813590506137828161375c565b92915050565b6000806040838503121561379f5761379e612e10565b5b60006137ad85828601612e63565b92505060206137be85828601613773565b9150509250929050565b6000602082840312156137de576137dd612e10565b5b600082013567ffffffffffffffff8111156137fc576137fb612e15565b5b61380884828501613695565b91505092915050565b6000806040838503121561382857613827612e10565b5b600061383685828601612e63565b925050602061384785828601612e63565b9150509250929050565b600080600080600060a0868803121561386d5761386c612e10565b5b600061387b88828901612e63565b955050602061388c88828901612e63565b945050604061389d88828901612e99565b93505060606138ae88828901612e99565b925050608086013567ffffffffffffffff8111156138cf576138ce612e15565b5b6138db888289016133ea565b9150509295509295909350565b7f455243313135353a2061646472657373207a65726f206973206e6f742061207660008201527f616c6964206f776e657200000000000000000000000000000000000000000000602082015250565b6000613944602a83613118565b915061394f826138e8565b604082019050919050565b6000602082019050818103600083015261397381613937565b9050919050565b7f61646472657373206e6f74206164646564000000000000000000000000000000600082015250565b60006139b0601183613118565b91506139bb8261397a565b602082019050919050565b600060208201905081810360008301526139df816139a3565b9050919050565b7f4e487b7100000000000000000000000000000000000000000000000000000000600052603260045260246000fd5b7f4e487b7100000000000000000000000000000000000000000000000000000000600052601160045260246000fd5b6000613a4f82612e78565b91507fffffffffffffffffffffffffffffffffffffffffffffffffffffffffffffffff821415613a8257613a81613a15565b5b600182019050919050565b7f4e487b7100000000000000000000000000000000000000000000000000000000600052602260045260246000fd5b60006002820490506001821680613ad457607f821691505b60208210811415613ae857613ae7613a8d565b5b50919050565b7f6f7267616e697a6174696f6e206e6f7420616464656400000000000000000000600082015250565b6000613b24601683613118565b9150613b2f82613aee565b602082019050919050565b60006020820190508181036000830152613b5381613b17565b9050919050565b6000613b6582612e78565b9150613b7083612e78565b9250827fffffffffffffffffffffffffffffffffffffffffffffffffffffffffffffffff03821115613ba557613ba4613a15565b5b828201905092915050565b7f506c6561736520616464206f7267616e697a6174696f6e206669727374000000600082015250565b6000613be6601d83613118565b9150613bf182613bb0565b602082019050919050565b60006020820190508181036000830152613c1581613bd9565b9050919050565b7f6172656120616c72656164792073657420666f722074686973206f7267616e6960008201527f7a6174696f6e0000000000000000000000000000000000000000000000000000602082015250565b6000613c78602683613118565b9150613c8382613c1c565b604082019050919050565b60006020820190508181036000830152613ca781613c6b565b9050919050565b7f74686973206f7267616e697a6174696f6e20646f6573206e6f7420686176652060008201527f7065726d697373696f6e20746f20726563656976652070617274206f6620746860208201527f6520626174636800000000000000000000000000000000000000000000000000604082015250565b6000613d30604783613118565b9150613d3b82613cae565b606082019050919050565b60006020820190508181036000830152613d5f81613d23565b9050919050565b7f455243313135353a206163636f756e747320616e6420696473206c656e67746860008201527f206d69736d617463680000000000000000000000000000000000000000000000602082015250565b6000613dc2602983613118565b9150613dcd82613d66565b604082019050919050565b60006020820190508181036000830152613df181613db5565b9050919050565b7f6164647265737320616c72656164792061646465640000000000000000000000600082015250565b6000613e2e601583613118565b9150613e3982613df8565b602082019050919050565b60006020820190508181036000830152613e5d81613e21565b9050919050565b600081905092915050565b6000613e7a8261310d565b613e848185613e64565b9350613e94818560208601613129565b80840191505092915050565b6000613eac8284613e6f565b915081905092915050565b7f746f206578636c756465206163636f756e7420616c746f67657468657220757360008201527f65207375624f7267206d6574686f640000000000000000000000000000000000602082015250565b6000613f13602f83613118565b9150613f1e82613eb7565b604082019050919050565b60006020820190508181036000830152613f4281613f06565b9050919050565b7f74686973206163636f756e74206973206e6f742072656769737465726564207460008201527f6f20746865206172656120737065636966696564000000000000000000000000602082015250565b6000613fa5603483613118565b9150613fb082613f49565b604082019050919050565b60006020820190508181036000830152613fd481613f98565b9050919050565b7f74686973206f7267616e697a6174696f6e20646f6573206e6f7420686176652060008201527f7065726d697373696f6e20746f2072656365697665207468697320627564676560208201527f7400000000000000000000000000000000000000000000000000000000000000604082015250565b600061405d604183613118565b915061406882613fdb565b606082019050919050565b6000602082019050818103600083015261408c81614050565b9050919050565b7f4f776e61626c653a206e6577206f776e657220697320746865207a65726f206160008201527f6464726573730000000000000000000000000000000000000000000000000000602082015250565b60006140ef602683613118565b91506140fa82614093565b604082019050919050565b6000602082019050818103600083015261411e816140e2565b9050919050565b7f4f776e61626c653a2063616c6c6572206973206e6f7420746865206f776e6572600082015250565b600061415b602083613118565b915061416682614125565b602082019050919050565b6000602082019050818103600083015261418a8161414e565b9050919050565b60008190508160005260206000209050919050565b600081546141b381613abc565b6141bd8186613118565b945060018216600081146141d857600181146141ea5761421d565b60ff198316865260208601935061421d565b6141f385614191565b60005b83811015614215578154818901526001820191506020810190506141f6565b808801955050505b50505092915050565b6000602082019050818103600083015261424081846141a6565b905092915050565b7f455243313135353a206d696e7420746f20746865207a65726f2061646472657360008201527f7300000000000000000000000000000000000000000000000000000000000000602082015250565b60006142a4602183613118565b91506142af82614248565b604082019050919050565b600060208201905081810360008301526142d381614297565b9050919050565b60006040820190506142ef6000830185612eee565b6142fc6020830184612eee565b9392505050565b7f455243313135353a2063616c6c6572206973206e6f7420746f6b656e206f776e60008201527f6572206f7220617070726f766564000000000000000000000000000000000000602082015250565b600061435f602e83613118565b915061436a82614303565b604082019050919050565b6000602082019050818103600083015261438e81614352565b9050919050565b7f455243313135353a2073657474696e6720617070726f76616c2073746174757360008201527f20666f722073656c660000000000000000000000000000000000000000000000602082015250565b60006143f1602983613118565b91506143fc82614395565b604082019050919050565b60006020820190508181036000830152614420816143e4565b9050919050565b7f455243313135353a206275726e2066726f6d20746865207a65726f206164647260008201527f6573730000000000000000000000000000000000000000000000000000000000602082015250565b6000614483602383613118565b915061448e82614427565b604082019050919050565b600060208201905081810360008301526144b281614476565b9050919050565b7f455243313135353a206275726e20616d6f756e7420657863656564732062616c60008201527f616e636500000000000000000000000000000000000000000000000000000000602082015250565b6000614515602483613118565b9150614520826144b9565b604082019050919050565b6000602082019050818103600083015261454481614508565b9050919050565b600081519050919050565b600082825260208201905092915050565b60006145728261454b565b61457c8185614556565b935061458c818560208601613129565b6145958161315c565b840191505092915050565b600060a0820190506145b56000830188613732565b6145c26020830187613732565b6145cf6040830186612eee565b6145dc6060830185612eee565b81810360808301526145ee8184614567565b90509695505050505050565b60008151905061460981612f44565b92915050565b60006020828403121561462557614624612e10565b5b6000614633848285016145fa565b91505092915050565b60008160e01c9050919050565b600060033d11156146685760046000803e61466560005161463c565b90505b90565b600060443d101561467b576146fe565b614683612e06565b60043d036004823e80513d602482011167ffffffffffffffff821117156146ab5750506146fe565b808201805167ffffffffffffffff8111156146c957505050506146fe565b80602083010160043d0385018111156146e65750505050506146fe565b6146f58260200185018661324f565b82955050505050505b90565b7f455243313135353a207472616e7366657220746f206e6f6e2d4552433131353560008201527f526563656976657220696d706c656d656e746572000000000000000000000000602082015250565b600061475d603483613118565b915061476882614701565b604082019050919050565b6000602082019050818103600083015261478c81614750565b9050919050565b7f455243313135353a204552433131353552656365697665722072656a6563746560008201527f6420746f6b656e73000000000000000000000000000000000000000000000000602082015250565b60006147ef602883613118565b91506147fa82614793565b604082019050919050565b6000602082019050818103600083015261481e816147e2565b9050919050565b7f455243313135353a2069647320616e6420616d6f756e7473206c656e6774682060008201527f6d69736d61746368000000000000000000000000000000000000000000000000602082015250565b6000614881602883613118565b915061488c82614825565b604082019050919050565b600060208201905081810360008301526148b081614874565b9050919050565b7f455243313135353a207472616e7366657220746f20746865207a65726f20616460008201527f6472657373000000000000000000000000000000000000000000000000000000602082015250565b6000614913602583613118565b915061491e826148b7565b604082019050919050565b6000602082019050818103600083015261494281614906565b9050919050565b7f455243313135353a20696e73756666696369656e742062616c616e636520666f60008201527f72207472616e7366657200000000000000000000000000000000000000000000602082015250565b60006149a5602a83613118565b91506149b082614949565b604082019050919050565b600060208201905081810360008301526149d481614998565b9050919050565b600060408201905081810360008301526149f58185613060565b90508181036020830152614a098184613060565b90509392505050565b600060a082019050614a276000830188613732565b614a346020830187613732565b8181036040830152614a468186613060565b90508181036060830152614a5a8185613060565b90508181036080830152614a6e8184614567565b9050969550505050505056fea26469706673582212206e4edca80c83714a20dee6b4dd04d3b0340acfd9996022712010f65386034d6564736f6c634300080a003368747470733a2f2f636f6e736f6c652e66696c65626173652e636f6d2f6275636b6574732f6170702d6f7263616d656e746f2f7b617265617d2e6a736f6e",
  "devdoc": {
    "kind": "dev",
    "methods": {
      "balanceOf(address,uint256)": {
        "details": "See {IERC1155-balanceOf}. Requirements: - `account` cannot be the zero address."
      },
      "balanceOfBatch(address[],uint256[])": {
        "details": "See {IERC1155-balanceOfBatch}. Requirements: - `accounts` and `ids` must have the same length."
      },
      "isApprovedForAll(address,address)": {
        "details": "See {IERC1155-isApprovedForAll}."
      },
      "owner()": {
        "details": "Returns the address of the current owner."
      },
      "renounceOwnership()": {
        "details": "Leaves the contract without owner. It will not be possible to call `onlyOwner` functions anymore. Can only be called by the current owner. NOTE: Renouncing ownership will leave the contract without an owner, thereby removing any functionality that is only available to the owner."
      },
      "setApprovalForAll(address,bool)": {
        "details": "See {IERC1155-setApprovalForAll}."
      },
      "supportsInterface(bytes4)": {
        "details": "See {IERC165-supportsInterface}."
      },
      "transferOwnership(address)": {
        "details": "Transfers ownership of the contract to a new account (`newOwner`). Can only be called by the current owner."
      },
      "uri(uint256)": {
        "details": "See {IERC1155MetadataURI-uri}. This implementation returns the same URI for *all* token types. It relies on the token type ID substitution mechanism https://eips.ethereum.org/EIPS/eip-1155#metadata[defined in the EIP]. Clients calling this function must replace the `\\{id\\}` substring with the actual token type ID."
      }
    },
    "stateVariables": {
      "_orgAddress": {
        "details": "mapping name to address of org"
      },
      "_orgArea": {
        "details": "maps address to policy area to bool"
      },
      "_orgName": {
        "details": "mapping address to name of org"
      },
      "_totalBurned": {
        "details": "maps policy area to total burned"
      },
      "_totalMinted": {
        "details": "maps policy area to total minted"
      }
    },
    "version": 1
  },
  "userdoc": {
    "kind": "user",
    "methods": {},
    "version": 1
  },
  "storageLayout": {
    "storage": [
      {
        "astId": 138,
        "contract": "contracts/orcamento.sol:OrcamentoUniao2023",
        "label": "_balances",
        "offset": 0,
        "slot": "0",
        "type": "t_mapping(t_uint256,t_mapping(t_address,t_uint256))"
      },
      {
        "astId": 144,
        "contract": "contracts/orcamento.sol:OrcamentoUniao2023",
        "label": "_operatorApprovals",
        "offset": 0,
        "slot": "1",
        "type": "t_mapping(t_address,t_mapping(t_address,t_bool))"
      },
      {
        "astId": 146,
        "contract": "contracts/orcamento.sol:OrcamentoUniao2023",
        "label": "_uri",
        "offset": 0,
        "slot": "2",
        "type": "t_string_storage"
      },
      {
        "astId": 7,
        "contract": "contracts/orcamento.sol:OrcamentoUniao2023",
        "label": "_owner",
        "offset": 0,
        "slot": "3",
        "type": "t_address"
      },
      {
        "astId": 1916,
        "contract": "contracts/orcamento.sol:OrcamentoUniao2023",
        "label": "_orgArea",
        "offset": 0,
        "slot": "4",
        "type": "t_mapping(t_address,t_mapping(t_uint256,t_bool))"
      },
      {
        "astId": 1921,
        "contract": "contracts/orcamento.sol:OrcamentoUniao2023",
        "label": "_orgName",
        "offset": 0,
        "slot": "5",
        "type": "t_mapping(t_address,t_string_storage)"
      },
      {
        "astId": 1926,
        "contract": "contracts/orcamento.sol:OrcamentoUniao2023",
        "label": "_orgAddress",
        "offset": 0,
        "slot": "6",
        "type": "t_mapping(t_string_memory_ptr,t_address)"
      },
      {
        "astId": 1931,
        "contract": "contracts/orcamento.sol:OrcamentoUniao2023",
        "label": "_totalMinted",
        "offset": 0,
        "slot": "7",
        "type": "t_mapping(t_uint256,t_uint256)"
      },
      {
        "astId": 1936,
        "contract": "contracts/orcamento.sol:OrcamentoUniao2023",
        "label": "_totalBurned",
        "offset": 0,
        "slot": "8",
        "type": "t_mapping(t_uint256,t_uint256)"
      },
      {
        "astId": 1939,
        "contract": "contracts/orcamento.sol:OrcamentoUniao2023",
        "label": "OUTROS",
        "offset": 0,
        "slot": "9",
        "type": "t_uint256"
      },
      {
        "astId": 1942,
        "contract": "contracts/orcamento.sol:OrcamentoUniao2023",
        "label": "EDUCACAO",
        "offset": 0,
        "slot": "10",
        "type": "t_uint256"
      },
      {
        "astId": 1945,
        "contract": "contracts/orcamento.sol:OrcamentoUniao2023",
        "label": "INFRA",
        "offset": 0,
        "slot": "11",
        "type": "t_uint256"
      },
      {
        "astId": 1948,
        "contract": "contracts/orcamento.sol:OrcamentoUniao2023",
        "label": "SAUDE",
        "offset": 0,
        "slot": "12",
        "type": "t_uint256"
      },
      {
        "astId": 1956,
        "contract": "contracts/orcamento.sol:OrcamentoUniao2023",
        "label": "AREAS",
        "offset": 0,
        "slot": "13",
        "type": "t_array(t_uint256)dyn_storage"
      },
      {
        "astId": 1961,
        "contract": "contracts/orcamento.sol:OrcamentoUniao2023",
        "label": "_budget",
        "offset": 0,
        "slot": "14",
        "type": "t_uint256"
      },
      {
        "astId": 1964,
        "contract": "contracts/orcamento.sol:OrcamentoUniao2023",
        "label": "_ed",
        "offset": 0,
        "slot": "15",
        "type": "t_uint256"
      },
      {
        "astId": 1967,
        "contract": "contracts/orcamento.sol:OrcamentoUniao2023",
        "label": "_infra",
        "offset": 0,
        "slot": "16",
        "type": "t_uint256"
      },
      {
        "astId": 1970,
        "contract": "contracts/orcamento.sol:OrcamentoUniao2023",
        "label": "_health",
        "offset": 0,
        "slot": "17",
        "type": "t_uint256"
      },
      {
        "astId": 1979,
        "contract": "contracts/orcamento.sol:OrcamentoUniao2023",
        "label": "_other",
        "offset": 0,
        "slot": "18",
        "type": "t_uint256"
      },
      {
        "astId": 1987,
        "contract": "contracts/orcamento.sol:OrcamentoUniao2023",
        "label": "_budgetPart",
        "offset": 0,
        "slot": "19",
        "type": "t_array(t_uint256)dyn_storage"
      }
    ],
    "types": {
      "t_address": {
        "encoding": "inplace",
        "label": "address",
        "numberOfBytes": "20"
      },
      "t_array(t_uint256)dyn_storage": {
        "base": "t_uint256",
        "encoding": "dynamic_array",
        "label": "uint256[]",
        "numberOfBytes": "32"
      },
      "t_bool": {
        "encoding": "inplace",
        "label": "bool",
        "numberOfBytes": "1"
      },
      "t_mapping(t_address,t_bool)": {
        "encoding": "mapping",
        "key": "t_address",
        "label": "mapping(address => bool)",
        "numberOfBytes": "32",
        "value": "t_bool"
      },
      "t_mapping(t_address,t_mapping(t_address,t_bool))": {
        "encoding": "mapping",
        "key": "t_address",
        "label": "mapping(address => mapping(address => bool))",
        "numberOfBytes": "32",
        "value": "t_mapping(t_address,t_bool)"
      },
      "t_mapping(t_address,t_mapping(t_uint256,t_bool))": {
        "encoding": "mapping",
        "key": "t_address",
        "label": "mapping(address => mapping(uint256 => bool))",
        "numberOfBytes": "32",
        "value": "t_mapping(t_uint256,t_bool)"
      },
      "t_mapping(t_address,t_string_storage)": {
        "encoding": "mapping",
        "key": "t_address",
        "label": "mapping(address => string)",
        "numberOfBytes": "32",
        "value": "t_string_storage"
      },
      "t_mapping(t_address,t_uint256)": {
        "encoding": "mapping",
        "key": "t_address",
        "label": "mapping(address => uint256)",
        "numberOfBytes": "32",
        "value": "t_uint256"
      },
      "t_mapping(t_string_memory_ptr,t_address)": {
        "encoding": "mapping",
        "key": "t_string_memory_ptr",
        "label": "mapping(string => address)",
        "numberOfBytes": "32",
        "value": "t_address"
      },
      "t_mapping(t_uint256,t_bool)": {
        "encoding": "mapping",
        "key": "t_uint256",
        "label": "mapping(uint256 => bool)",
        "numberOfBytes": "32",
        "value": "t_bool"
      },
      "t_mapping(t_uint256,t_mapping(t_address,t_uint256))": {
        "encoding": "mapping",
        "key": "t_uint256",
        "label": "mapping(uint256 => mapping(address => uint256))",
        "numberOfBytes": "32",
        "value": "t_mapping(t_address,t_uint256)"
      },
      "t_mapping(t_uint256,t_uint256)": {
        "encoding": "mapping",
        "key": "t_uint256",
        "label": "mapping(uint256 => uint256)",
        "numberOfBytes": "32",
        "value": "t_uint256"
      },
      "t_string_memory_ptr": {
        "encoding": "bytes",
        "label": "string",
        "numberOfBytes": "32"
      },
      "t_string_storage": {
        "encoding": "bytes",
        "label": "string",
        "numberOfBytes": "32"
      },
      "t_uint256": {
        "encoding": "inplace",
        "label": "uint256",
        "numberOfBytes": "32"
      }
    }
  }
}