{
  "address": "0x5FbDB2315678afecb367f032d93F642f64180aa3",
  "abi": [
    {
      "inputs": [],
      "stateMutability": "nonpayable",
      "type": "constructor"
    },
    {
      "anonymous": false,
      "inputs": [
        {
          "indexed": true,
          "internalType": "address",
          "name": "account",
          "type": "address"
        },
        {
          "indexed": true,
          "internalType": "address",
          "name": "operator",
          "type": "address"
        },
        {
          "indexed": false,
          "internalType": "bool",
          "name": "approved",
          "type": "bool"
        }
      ],
      "name": "ApprovalForAll",
      "type": "event"
    },
    {
      "anonymous": false,
      "inputs": [
        {
          "indexed": true,
          "internalType": "address",
          "name": "previousOwner",
          "type": "address"
        },
        {
          "indexed": true,
          "internalType": "address",
          "name": "newOwner",
          "type": "address"
        }
      ],
      "name": "OwnershipTransferred",
      "type": "event"
    },
    {
      "anonymous": false,
      "inputs": [
        {
          "indexed": true,
          "internalType": "address",
          "name": "org",
          "type": "address"
        },
        {
          "indexed": true,
          "internalType": "uint256",
          "name": "area",
          "type": "uint256"
        },
        {
          "indexed": true,
          "internalType": "bool",
          "name": "added",
          "type": "bool"
        }
      ],
      "name": "Registry",
      "type": "event"
    },
    {
      "anonymous": false,
      "inputs": [
        {
          "indexed": true,
          "internalType": "address",
          "name": "operator",
          "type": "address"
        },
        {
          "indexed": true,
          "internalType": "address",
          "name": "from",
          "type": "address"
        },
        {
          "indexed": true,
          "internalType": "address",
          "name": "to",
          "type": "address"
        },
        {
          "indexed": false,
          "internalType": "uint256[]",
          "name": "ids",
          "type": "uint256[]"
        },
        {
          "indexed": false,
          "internalType": "uint256[]",
          "name": "values",
          "type": "uint256[]"
        }
      ],
      "name": "TransferBatch",
      "type": "event"
    },
    {
      "anonymous": false,
      "inputs": [
        {
          "indexed": true,
          "internalType": "address",
          "name": "operator",
          "type": "address"
        },
        {
          "indexed": true,
          "internalType": "address",
          "name": "from",
          "type": "address"
        },
        {
          "indexed": true,
          "internalType": "address",
          "name": "to",
          "type": "address"
        },
        {
          "indexed": false,
          "internalType": "uint256",
          "name": "id",
          "type": "uint256"
        },
        {
          "indexed": false,
          "internalType": "uint256",
          "name": "value",
          "type": "uint256"
        }
      ],
      "name": "TransferSingle",
      "type": "event"
    },
    {
      "anonymous": false,
      "inputs": [
        {
          "indexed": false,
          "internalType": "string",
          "name": "value",
          "type": "string"
        },
        {
          "indexed": true,
          "internalType": "uint256",
          "name": "id",
          "type": "uint256"
        }
      ],
      "name": "URI",
      "type": "event"
    },
    {
      "inputs": [
        {
          "internalType": "uint256",
          "name": "",
          "type": "uint256"
        }
      ],
      "name": "AREAS",
      "outputs": [
        {
          "internalType": "uint256",
          "name": "",
          "type": "uint256"
        }
      ],
      "stateMutability": "view",
      "type": "function"
    },
    {
      "inputs": [],
      "name": "EDUCACAO",
      "outputs": [
        {
          "internalType": "uint256",
          "name": "",
          "type": "uint256"
        }
      ],
      "stateMutability": "view",
      "type": "function"
    },
    {
      "inputs": [],
      "name": "INFRA",
      "outputs": [
        {
          "internalType": "uint256",
          "name": "",
          "type": "uint256"
        }
      ],
      "stateMutability": "view",
      "type": "function"
    },
    {
      "inputs": [],
      "name": "OUTROS",
      "outputs": [
        {
          "internalType": "uint256",
          "name": "",
          "type": "uint256"
        }
      ],
      "stateMutability": "view",
      "type": "function"
    },
    {
      "inputs": [],
      "name": "SAUDE",
      "outputs": [
        {
          "internalType": "uint256",
          "name": "",
          "type": "uint256"
        }
      ],
      "stateMutability": "view",
      "type": "function"
    },
    {
      "inputs": [
        {
          "internalType": "address",
          "name": "org",
          "type": "address"
        },
        {
          "internalType": "uint256",
          "name": "area",
          "type": "uint256"
        }
      ],
      "name": "addArea",
      "outputs": [],
      "stateMutability": "nonpayable",
      "type": "function"
    },
    {
      "inputs": [
        {
          "internalType": "address",
          "name": "org",
          "type": "address"
        },
        {
          "internalType": "uint256",
          "name": "area",
          "type": "uint256"
        }
      ],
      "name": "addOrg",
      "outputs": [],
      "stateMutability": "nonpayable",
      "type": "function"
    },
    {
      "inputs": [
        {
          "internalType": "address",
          "name": "account",
          "type": "address"
        },
        {
          "internalType": "uint256",
          "name": "id",
          "type": "uint256"
        }
      ],
      "name": "balanceOf",
      "outputs": [
        {
          "internalType": "uint256",
          "name": "",
          "type": "uint256"
        }
      ],
      "stateMutability": "view",
      "type": "function"
    },
    {
      "inputs": [
        {
          "internalType": "address[]",
          "name": "accounts",
          "type": "address[]"
        },
        {
          "internalType": "uint256[]",
          "name": "ids",
          "type": "uint256[]"
        }
      ],
      "name": "balanceOfBatch",
      "outputs": [
        {
          "internalType": "uint256[]",
          "name": "",
          "type": "uint256[]"
        }
      ],
      "stateMutability": "view",
      "type": "function"
    },
    {
      "inputs": [
        {
          "internalType": "address",
          "name": "org",
          "type": "address"
        }
      ],
      "name": "getAreas",
      "outputs": [
        {
          "internalType": "uint256[]",
          "name": "",
          "type": "uint256[]"
        }
      ],
      "stateMutability": "view",
      "type": "function"
    },
    {
      "inputs": [
        {
          "internalType": "address",
          "name": "account",
          "type": "address"
        },
        {
          "internalType": "address",
          "name": "operator",
          "type": "address"
        }
      ],
      "name": "isApprovedForAll",
      "outputs": [
        {
          "internalType": "bool",
          "name": "",
          "type": "bool"
        }
      ],
      "stateMutability": "view",
      "type": "function"
    },
    {
      "inputs": [],
      "name": "owner",
      "outputs": [
        {
          "internalType": "address",
          "name": "",
          "type": "address"
        }
      ],
      "stateMutability": "view",
      "type": "function"
    },
    {
      "inputs": [],
      "name": "renounceOwnership",
      "outputs": [],
      "stateMutability": "nonpayable",
      "type": "function"
    },
    {
      "inputs": [
        {
          "internalType": "address",
          "name": "from",
          "type": "address"
        },
        {
          "internalType": "address",
          "name": "to",
          "type": "address"
        },
        {
          "internalType": "uint256[]",
          "name": "areas",
          "type": "uint256[]"
        },
        {
          "internalType": "uint256[]",
          "name": "amounts",
          "type": "uint256[]"
        },
        {
          "internalType": "bytes",
          "name": "data",
          "type": "bytes"
        }
      ],
      "name": "safeBatchTransferFrom",
      "outputs": [],
      "stateMutability": "nonpayable",
      "type": "function"
    },
    {
      "inputs": [
        {
          "internalType": "address",
          "name": "from",
          "type": "address"
        },
        {
          "internalType": "address",
          "name": "to",
          "type": "address"
        },
        {
          "internalType": "uint256",
          "name": "area",
          "type": "uint256"
        },
        {
          "internalType": "uint256",
          "name": "amount",
          "type": "uint256"
        },
        {
          "internalType": "bytes",
          "name": "data",
          "type": "bytes"
        }
      ],
      "name": "safeTransferFrom",
      "outputs": [],
      "stateMutability": "nonpayable",
      "type": "function"
    },
    {
      "inputs": [
        {
          "internalType": "address",
          "name": "operator",
          "type": "address"
        },
        {
          "internalType": "bool",
          "name": "approved",
          "type": "bool"
        }
      ],
      "name": "setApprovalForAll",
      "outputs": [],
      "stateMutability": "nonpayable",
      "type": "function"
    },
    {
      "inputs": [
        {
          "internalType": "address",
          "name": "org",
          "type": "address"
        },
        {
          "internalType": "uint256",
          "name": "area",
          "type": "uint256"
        }
      ],
      "name": "subArea",
      "outputs": [],
      "stateMutability": "nonpayable",
      "type": "function"
    },
    {
      "inputs": [
        {
          "internalType": "address",
          "name": "org",
          "type": "address"
        }
      ],
      "name": "subOrg",
      "outputs": [],
      "stateMutability": "nonpayable",
      "type": "function"
    },
    {
      "inputs": [
        {
          "internalType": "bytes4",
          "name": "interfaceId",
          "type": "bytes4"
        }
      ],
      "name": "supportsInterface",
      "outputs": [
        {
          "internalType": "bool",
          "name": "",
          "type": "bool"
        }
      ],
      "stateMutability": "view",
      "type": "function"
    },
    {
      "inputs": [
        {
          "internalType": "address",
          "name": "newOwner",
          "type": "address"
        }
      ],
      "name": "transferOwnership",
      "outputs": [],
      "stateMutability": "nonpayable",
      "type": "function"
    },
    {
      "inputs": [
        {
          "internalType": "uint256",
          "name": "",
          "type": "uint256"
        }
      ],
      "name": "uri",
      "outputs": [
        {
          "internalType": "string",
          "name": "",
          "type": "string"
        }
      ],
      "stateMutability": "view",
      "type": "function"
    }
  ],
  "transactionHash": "0x5118c59c0164700a84692f6463507f852167370f0fe34af0a14735fc9465ca73",
  "args": [],
  "numDeployments": 1,
  "solcInputHash": "7ec24b625516fb587c70c23382729a69",
  "bytecode": "0x6080604052600060055560016006556002600755600360085560405180608001604052806005548152602001600654815260200160075481526020016008548152506009906004620000539291906200078e565b5064e8d4a51000600a556005600b55600a600c556005600d553480156200007957600080fd5b506040518060600160405280603e8152602001620049e0603e9139620000a5816200020e60201b60201c565b50620000c6620000ba6200022a60201b60201c565b6200023260201b60201c565b6200010a336008546064600d54600a54620000e29190620008c9565b620000ee919062000959565b60405180602001604052806000815250620002f860201b60201c565b6200014e336006546064600b54600a54620001269190620008c9565b62000132919062000959565b60405180602001604052806000815250620002f860201b60201c565b62000192336007546064600c54600a546200016a9190620008c9565b62000176919062000959565b60405180602001604052806000815250620002f860201b60201c565b6000600c54600b54600d546064620001ab919062000991565b620001b7919062000991565b620001c3919062000991565b90506200020733600554606484600a54620001df9190620008c9565b620001eb919062000959565b60405180602001604052806000815250620002f860201b60201c565b5062001068565b806002908051906020019062000226929190620007e0565b5050565b600033905090565b6000600360009054906101000a900473ffffffffffffffffffffffffffffffffffffffff16905081600360006101000a81548173ffffffffffffffffffffffffffffffffffffffff021916908373ffffffffffffffffffffffffffffffffffffffff1602179055508173ffffffffffffffffffffffffffffffffffffffff168173ffffffffffffffffffffffffffffffffffffffff167f8be0079c531659141344cd1fd0a4f28419497f9722a3daafe3b4186f6b6457e060405160405180910390a35050565b600073ffffffffffffffffffffffffffffffffffffffff168473ffffffffffffffffffffffffffffffffffffffff1614156200036b576040517f08c379a0000000000000000000000000000000000000000000000000000000008152600401620003629062000a53565b60405180910390fd5b60006200037d6200022a60201b60201c565b905060006200039285620004e060201b60201c565b90506000620003a785620004e060201b60201c565b9050620003c0836000898585896200056160201b60201c565b8460008088815260200190815260200160002060008973ffffffffffffffffffffffffffffffffffffffff1673ffffffffffffffffffffffffffffffffffffffff168152602001908152602001600020600082825462000421919062000a75565b925050819055508673ffffffffffffffffffffffffffffffffffffffff16600073ffffffffffffffffffffffffffffffffffffffff168473ffffffffffffffffffffffffffffffffffffffff167fc3d58168c5ae7397731d063d5bbf3d657854427343f4c083240f7aacaa2d0f628989604051620004a192919062000ae3565b60405180910390a4620004c0836000898585896200056960201b60201c565b620004d7836000898989896200057160201b60201c565b50505050505050565b60606000600167ffffffffffffffff81111562000502576200050162000b10565b5b604051908082528060200260200182016040528015620005315781602001602082028036833780820191505090505b50905082816000815181106200054c576200054b62000b3f565b5b60200260200101818152505080915050919050565b505050505050565b505050505050565b6200059d8473ffffffffffffffffffffffffffffffffffffffff166200076b60201b620011401760201c565b1562000763578373ffffffffffffffffffffffffffffffffffffffff1663f23a6e6187878686866040518663ffffffff1660e01b8152600401620005e695949392919062000c57565b6020604051808303816000875af19250505080156200062557506040513d601f19601f8201168201806040525081019062000622919062000d27565b60015b620006d7576200063462000d66565b806308c379a014156200069857506200064c62000dc1565b806200065957506200069a565b806040517f08c379a00000000000000000000000000000000000000000000000000000000081526004016200068f919062000eaf565b60405180910390fd5b505b6040517f08c379a0000000000000000000000000000000000000000000000000000000008152600401620006ce9062000f49565b60405180910390fd5b63f23a6e6160e01b7bffffffffffffffffffffffffffffffffffffffffffffffffffffffff1916817bffffffffffffffffffffffffffffffffffffffffffffffffffffffff19161462000761576040517f08c379a0000000000000000000000000000000000000000000000000000000008152600401620007589062000fe1565b60405180910390fd5b505b505050505050565b6000808273ffffffffffffffffffffffffffffffffffffffff163b119050919050565b828054828255906000526020600020908101928215620007cd579160200282015b82811115620007cc578251825591602001919060010190620007af565b5b509050620007dc919062000871565b5090565b828054620007ee9062001032565b90600052602060002090601f0160209004810192826200081257600085556200085e565b82601f106200082d57805160ff19168380011785556200085e565b828001600101855582156200085e579182015b828111156200085d57825182559160200191906001019062000840565b5b5090506200086d919062000871565b5090565b5b808211156200088c57600081600090555060010162000872565b5090565b6000819050919050565b7f4e487b7100000000000000000000000000000000000000000000000000000000600052601160045260246000fd5b6000620008d68262000890565b9150620008e38362000890565b9250817fffffffffffffffffffffffffffffffffffffffffffffffffffffffffffffffff04831182151516156200091f576200091e6200089a565b5b828202905092915050565b7f4e487b7100000000000000000000000000000000000000000000000000000000600052601260045260246000fd5b6000620009668262000890565b9150620009738362000890565b9250826200098657620009856200092a565b5b828204905092915050565b60006200099e8262000890565b9150620009ab8362000890565b925082821015620009c157620009c06200089a565b5b828203905092915050565b600082825260208201905092915050565b7f455243313135353a206d696e7420746f20746865207a65726f2061646472657360008201527f7300000000000000000000000000000000000000000000000000000000000000602082015250565b600062000a3b602183620009cc565b915062000a4882620009dd565b604082019050919050565b6000602082019050818103600083015262000a6e8162000a2c565b9050919050565b600062000a828262000890565b915062000a8f8362000890565b9250827fffffffffffffffffffffffffffffffffffffffffffffffffffffffffffffffff0382111562000ac75762000ac66200089a565b5b828201905092915050565b62000add8162000890565b82525050565b600060408201905062000afa600083018562000ad2565b62000b09602083018462000ad2565b9392505050565b7f4e487b7100000000000000000000000000000000000000000000000000000000600052604160045260246000fd5b7f4e487b7100000000000000000000000000000000000000000000000000000000600052603260045260246000fd5b600073ffffffffffffffffffffffffffffffffffffffff82169050919050565b600062000b9b8262000b6e565b9050919050565b62000bad8162000b8e565b82525050565b600081519050919050565b600082825260208201905092915050565b60005b8381101562000bef57808201518184015260208101905062000bd2565b8381111562000bff576000848401525b50505050565b6000601f19601f8301169050919050565b600062000c238262000bb3565b62000c2f818562000bbe565b935062000c4181856020860162000bcf565b62000c4c8162000c05565b840191505092915050565b600060a08201905062000c6e600083018862000ba2565b62000c7d602083018762000ba2565b62000c8c604083018662000ad2565b62000c9b606083018562000ad2565b818103608083015262000caf818462000c16565b90509695505050505050565b6000604051905090565b600080fd5b60007fffffffff0000000000000000000000000000000000000000000000000000000082169050919050565b62000d018162000cca565b811462000d0d57600080fd5b50565b60008151905062000d218162000cf6565b92915050565b60006020828403121562000d405762000d3f62000cc5565b5b600062000d508482850162000d10565b91505092915050565b60008160e01c9050919050565b600060033d111562000d885760046000803e62000d8560005162000d59565b90505b90565b62000d968262000c05565b810181811067ffffffffffffffff8211171562000db85762000db762000b10565b5b80604052505050565b600060443d101562000dd35762000e60565b62000ddd62000cbb565b60043d036004823e80513d602482011167ffffffffffffffff8211171562000e0757505062000e60565b808201805167ffffffffffffffff81111562000e27575050505062000e60565b80602083010160043d03850181111562000e4657505050505062000e60565b62000e578260200185018662000d8b565b82955050505050505b90565b600081519050919050565b600062000e7b8262000e63565b62000e878185620009cc565b935062000e9981856020860162000bcf565b62000ea48162000c05565b840191505092915050565b6000602082019050818103600083015262000ecb818462000e6e565b905092915050565b7f455243313135353a207472616e7366657220746f206e6f6e2d4552433131353560008201527f526563656976657220696d706c656d656e746572000000000000000000000000602082015250565b600062000f31603483620009cc565b915062000f3e8262000ed3565b604082019050919050565b6000602082019050818103600083015262000f648162000f22565b9050919050565b7f455243313135353a204552433131353552656365697665722072656a6563746560008201527f6420746f6b656e73000000000000000000000000000000000000000000000000602082015250565b600062000fc9602883620009cc565b915062000fd68262000f6b565b604082019050919050565b6000602082019050818103600083015262000ffc8162000fba565b9050919050565b7f4e487b7100000000000000000000000000000000000000000000000000000000600052602260045260246000fd5b600060028204905060018216806200104b57607f821691505b6020821081141562001062576200106162001003565b5b50919050565b61396880620010786000396000f3fe608060405234801561001057600080fd5b50600436106101365760003560e01c8063715018a6116100b8578063c5cc85241161007c578063c5cc85241461034b578063db40154114610367578063e985e9c514610385578063f242432a146103b5578063f2fde38b146103d1578063f84f7dd0146103ed57610136565b8063715018a6146102bb5780637f14ba3f146102c55780637f7063e7146102e15780638da5cb5b14610311578063a22cb4651461032f57610136565b80631ef16b43116100ff5780631ef16b431461020357806321636aa51461022157806328eece131461023f5780632eb2c2d61461026f5780634e1273f41461028b57610136565b8062fdd58e1461013b57806301ffc9a71461016b5780630c89c4211461019b5780630e89341c146101b7578063169bc486146101e7575b600080fd5b610155600480360381019061015091906121d2565b61040b565b6040516101629190612221565b60405180910390f35b61018560048036038101906101809190612294565b6104d4565b60405161019291906122dc565b60405180910390f35b6101b560048036038101906101b091906122f7565b6105b6565b005b6101d160048036038101906101cc9190612324565b610745565b6040516101de91906123ea565b60405180910390f35b61020160048036038101906101fc91906121d2565b6107d9565b005b61020b61093a565b6040516102189190612221565b60405180910390f35b610229610940565b6040516102369190612221565b60405180910390f35b610259600480360381019061025491906122f7565b610946565b60405161026691906124ca565b60405180910390f35b610289600480360381019061028491906126e9565b610b11565b005b6102a560048036038101906102a0919061287b565b610c03565b6040516102b291906124ca565b60405180910390f35b6102c3610d1c565b005b6102df60048036038101906102da91906121d2565b610d30565b005b6102fb60048036038101906102f69190612324565b610e2d565b6040516103089190612221565b60405180910390f35b610319610e51565b6040516103269190612902565b60405180910390f35b61034960048036038101906103449190612949565b610e7b565b005b610365600480360381019061036091906121d2565b610e91565b005b61036f610f64565b60405161037c9190612221565b60405180910390f35b61039f600480360381019061039a9190612989565b610f6a565b6040516103ac91906122dc565b60405180910390f35b6103cf60048036038101906103ca91906129c9565b610ffe565b005b6103eb60048036038101906103e691906122f7565b6110b6565b005b6103f561113a565b6040516104029190612221565b60405180910390f35b60008073ffffffffffffffffffffffffffffffffffffffff168373ffffffffffffffffffffffffffffffffffffffff16141561047c576040517f08c379a000000000000000000000000000000000000000000000000000000000815260040161047390612ad2565b60405180910390fd5b60008083815260200190815260200160002060008473ffffffffffffffffffffffffffffffffffffffff1673ffffffffffffffffffffffffffffffffffffffff16815260200190815260200160002054905092915050565b60007fd9b67a26000000000000000000000000000000000000000000000000000000007bffffffffffffffffffffffffffffffffffffffffffffffffffffffff1916827bffffffffffffffffffffffffffffffffffffffffffffffffffffffff1916148061059f57507f0e89341c000000000000000000000000000000000000000000000000000000007bffffffffffffffffffffffffffffffffffffffffffffffffffffffff1916827bffffffffffffffffffffffffffffffffffffffffffffffffffffffff1916145b806105af57506105ae82611163565b5b9050919050565b6105be6111cd565b60011515600460008373ffffffffffffffffffffffffffffffffffffffff1673ffffffffffffffffffffffffffffffffffffffff1681526020019081526020016000206000600554815260200190815260200160002060009054906101000a900460ff16151514610664576040517f08c379a000000000000000000000000000000000000000000000000000000000815260040161065b90612b3e565b60405180910390fd5b600061066f82610946565b905060005b815181101561073f5760001515600460008573ffffffffffffffffffffffffffffffffffffffff1673ffffffffffffffffffffffffffffffffffffffff16815260200190815260200160002060008484815181106106d5576106d4612b5e565b5b6020026020010151815260200190815260200160002060009054906101000a900460ff1615151415610708575050610742565b61072c8383838151811061071f5761071e612b5e565b5b602002602001015161124b565b808061073790612bbc565b915050610674565b50505b50565b60606002805461075490612c34565b80601f016020809104026020016040519081016040528092919081815260200182805461078090612c34565b80156107cd5780601f106107a2576101008083540402835291602001916107cd565b820191906000526020600020905b8154815290600101906020018083116107b057829003601f168201915b50505050509050919050565b6107e16111cd565b60011515600460008473ffffffffffffffffffffffffffffffffffffffff1673ffffffffffffffffffffffffffffffffffffffff1681526020019081526020016000206000600554815260200190815260200160002060009054906101000a900460ff16151514610887576040517f08c379a000000000000000000000000000000000000000000000000000000000815260040161087e90612cb2565b60405180910390fd5b60011515600460008473ffffffffffffffffffffffffffffffffffffffff1673ffffffffffffffffffffffffffffffffffffffff168152602001908152602001600020600083815260200190815260200160002060009054906101000a900460ff161515141561092c576040517f08c379a000000000000000000000000000000000000000000000000000000000815260040161092390612d44565b60405180910390fd5b6109368282611300565b5050565b60075481565b60055481565b606060011515600460008473ffffffffffffffffffffffffffffffffffffffff1673ffffffffffffffffffffffffffffffffffffffff1681526020019081526020016000206000600554815260200190815260200160002060009054906101000a900460ff161515146109ee576040517f08c379a00000000000000000000000000000000000000000000000000000000081526004016109e590612db0565b60405180910390fd5b600060098054905067ffffffffffffffff811115610a0f57610a0e6124f1565b5b604051908082528060200260200182016040528015610a3d5781602001602082028036833780820191505090505b5090506000600190506000600190505b600980549050811015610b065760011515600460008773ffffffffffffffffffffffffffffffffffffffff1673ffffffffffffffffffffffffffffffffffffffff168152602001908152602001600020600083815260200190815260200160002060009054906101000a900460ff1615151415610af35780838381518110610ad857610ad7612b5e565b5b6020026020010181815250508180610aef90612bbc565b9250505b8080610afe90612bbc565b915050610a4d565b508192505050919050565b60005b8351811015610bee5760011515600460008773ffffffffffffffffffffffffffffffffffffffff1673ffffffffffffffffffffffffffffffffffffffff1681526020019081526020016000206000868481518110610b7557610b74612b5e565b5b6020026020010151815260200190815260200160002060009054906101000a900460ff16151514610bdb576040517f08c379a0000000000000000000000000000000000000000000000000000000008152600401610bd290612e68565b60405180910390fd5b8080610be690612bbc565b915050610b14565b50610bfc85858585856113b5565b5050505050565b60608151835114610c49576040517f08c379a0000000000000000000000000000000000000000000000000000000008152600401610c4090612efa565b60405180910390fd5b6000835167ffffffffffffffff811115610c6657610c656124f1565b5b604051908082528060200260200182016040528015610c945781602001602082028036833780820191505090505b50905060005b8451811015610d1157610ce1858281518110610cb957610cb8612b5e565b5b6020026020010151858381518110610cd457610cd3612b5e565b5b602002602001015161040b565b828281518110610cf457610cf3612b5e565b5b60200260200101818152505080610d0a90612bbc565b9050610c9a565b508091505092915050565b610d246111cd565b610d2e6000611456565b565b610d386111cd565b60008111610d7b576040517f08c379a0000000000000000000000000000000000000000000000000000000008152600401610d7290612f8c565b60405180910390fd5b60011515600460008473ffffffffffffffffffffffffffffffffffffffff1673ffffffffffffffffffffffffffffffffffffffff168152602001908152602001600020600083815260200190815260200160002060009054906101000a900460ff16151514610e1f576040517f08c379a0000000000000000000000000000000000000000000000000000000008152600401610e169061301e565b60405180910390fd5b610e29828261124b565b5050565b60098181548110610e3d57600080fd5b906000526020600020016000915090505481565b6000600360009054906101000a900473ffffffffffffffffffffffffffffffffffffffff16905090565b610e8d610e8661151c565b8383611524565b5050565b610e996111cd565b60011515600460008473ffffffffffffffffffffffffffffffffffffffff1673ffffffffffffffffffffffffffffffffffffffff1681526020019081526020016000206000600554815260200190815260200160002060009054906101000a900460ff1615151415610f40576040517f08c379a0000000000000000000000000000000000000000000000000000000008152600401610f379061308a565b60405180910390fd5b610f4c82600554611300565b6005548114610f6057610f5f8282611300565b5b5050565b60065481565b6000600160008473ffffffffffffffffffffffffffffffffffffffff1673ffffffffffffffffffffffffffffffffffffffff16815260200190815260200160002060008373ffffffffffffffffffffffffffffffffffffffff1673ffffffffffffffffffffffffffffffffffffffff16815260200190815260200160002060009054906101000a900460ff16905092915050565b60011515600460008673ffffffffffffffffffffffffffffffffffffffff1673ffffffffffffffffffffffffffffffffffffffff168152602001908152602001600020600085815260200190815260200160002060009054906101000a900460ff161515146110a2576040517f08c379a000000000000000000000000000000000000000000000000000000000815260040161109990613142565b60405180910390fd5b6110af8585858585611691565b5050505050565b6110be6111cd565b600073ffffffffffffffffffffffffffffffffffffffff168173ffffffffffffffffffffffffffffffffffffffff16141561112e576040517f08c379a0000000000000000000000000000000000000000000000000000000008152600401611125906131d4565b60405180910390fd5b61113781611456565b50565b60085481565b6000808273ffffffffffffffffffffffffffffffffffffffff163b119050919050565b60007f01ffc9a7000000000000000000000000000000000000000000000000000000007bffffffffffffffffffffffffffffffffffffffffffffffffffffffff1916827bffffffffffffffffffffffffffffffffffffffffffffffffffffffff1916149050919050565b6111d561151c565b73ffffffffffffffffffffffffffffffffffffffff166111f3610e51565b73ffffffffffffffffffffffffffffffffffffffff1614611249576040517f08c379a000000000000000000000000000000000000000000000000000000000815260040161124090613240565b60405180910390fd5b565b6000600460008473ffffffffffffffffffffffffffffffffffffffff1673ffffffffffffffffffffffffffffffffffffffff168152602001908152602001600020600083815260200190815260200160002060006101000a81548160ff02191690831515021790555060001515818373ffffffffffffffffffffffffffffffffffffffff167fb1838829a17d2860e6e86b6817310df2d1cc8e52f7232a66f9b3787b8f281a4860405160405180910390a45050565b6001600460008473ffffffffffffffffffffffffffffffffffffffff1673ffffffffffffffffffffffffffffffffffffffff168152602001908152602001600020600083815260200190815260200160002060006101000a81548160ff02191690831515021790555060011515818373ffffffffffffffffffffffffffffffffffffffff167fb1838829a17d2860e6e86b6817310df2d1cc8e52f7232a66f9b3787b8f281a4860405160405180910390a45050565b6113bd61151c565b73ffffffffffffffffffffffffffffffffffffffff168573ffffffffffffffffffffffffffffffffffffffff1614806114035750611402856113fd61151c565b610f6a565b5b611442576040517f08c379a0000000000000000000000000000000000000000000000000000000008152600401611439906132d2565b60405180910390fd5b61144f8585858585611732565b5050505050565b6000600360009054906101000a900473ffffffffffffffffffffffffffffffffffffffff16905081600360006101000a81548173ffffffffffffffffffffffffffffffffffffffff021916908373ffffffffffffffffffffffffffffffffffffffff1602179055508173ffffffffffffffffffffffffffffffffffffffff168173ffffffffffffffffffffffffffffffffffffffff167f8be0079c531659141344cd1fd0a4f28419497f9722a3daafe3b4186f6b6457e060405160405180910390a35050565b600033905090565b8173ffffffffffffffffffffffffffffffffffffffff168373ffffffffffffffffffffffffffffffffffffffff161415611593576040517f08c379a000000000000000000000000000000000000000000000000000000000815260040161158a90613364565b60405180910390fd5b80600160008573ffffffffffffffffffffffffffffffffffffffff1673ffffffffffffffffffffffffffffffffffffffff16815260200190815260200160002060008473ffffffffffffffffffffffffffffffffffffffff1673ffffffffffffffffffffffffffffffffffffffff16815260200190815260200160002060006101000a81548160ff0219169083151502179055508173ffffffffffffffffffffffffffffffffffffffff168373ffffffffffffffffffffffffffffffffffffffff167f17307eab39ab6107e8899845ad3d59bd9653f200f220920489ca2b5937696c318360405161168491906122dc565b60405180910390a3505050565b61169961151c565b73ffffffffffffffffffffffffffffffffffffffff168573ffffffffffffffffffffffffffffffffffffffff1614806116df57506116de856116d961151c565b610f6a565b5b61171e576040517f08c379a0000000000000000000000000000000000000000000000000000000008152600401611715906132d2565b60405180910390fd5b61172b8585858585611a54565b5050505050565b8151835114611776576040517f08c379a000000000000000000000000000000000000000000000000000000000815260040161176d906133f6565b60405180910390fd5b600073ffffffffffffffffffffffffffffffffffffffff168473ffffffffffffffffffffffffffffffffffffffff1614156117e6576040517f08c379a00000000000000000000000000000000000000000000000000000000081526004016117dd90613488565b60405180910390fd5b60006117f061151c565b9050611800818787878787611cf0565b60005b84518110156119b157600085828151811061182157611820612b5e565b5b6020026020010151905060008583815181106118405761183f612b5e565b5b60200260200101519050600080600084815260200190815260200160002060008b73ffffffffffffffffffffffffffffffffffffffff1673ffffffffffffffffffffffffffffffffffffffff168152602001908152602001600020549050818110156118e1576040517f08c379a00000000000000000000000000000000000000000000000000000000081526004016118d89061351a565b60405180910390fd5b81810360008085815260200190815260200160002060008c73ffffffffffffffffffffffffffffffffffffffff1673ffffffffffffffffffffffffffffffffffffffff168152602001908152602001600020819055508160008085815260200190815260200160002060008b73ffffffffffffffffffffffffffffffffffffffff1673ffffffffffffffffffffffffffffffffffffffff1681526020019081526020016000206000828254611996919061353a565b92505081905550505050806119aa90612bbc565b9050611803565b508473ffffffffffffffffffffffffffffffffffffffff168673ffffffffffffffffffffffffffffffffffffffff168273ffffffffffffffffffffffffffffffffffffffff167f4a39dc06d4c0dbc64b70af90fd698a233a518aa5d07e595d983b8c0526c8f7fb8787604051611a28929190613590565b60405180910390a4611a3e818787878787611cf8565b611a4c818787878787611d00565b505050505050565b600073ffffffffffffffffffffffffffffffffffffffff168473ffffffffffffffffffffffffffffffffffffffff161415611ac4576040517f08c379a0000000000000000000000000000000000000000000000000000000008152600401611abb90613488565b60405180910390fd5b6000611ace61151c565b90506000611adb85611ed8565b90506000611ae885611ed8565b9050611af8838989858589611cf0565b600080600088815260200190815260200160002060008a73ffffffffffffffffffffffffffffffffffffffff1673ffffffffffffffffffffffffffffffffffffffff16815260200190815260200160002054905085811015611b8f576040517f08c379a0000000000000000000000000000000000000000000000000000000008152600401611b869061351a565b60405180910390fd5b85810360008089815260200190815260200160002060008b73ffffffffffffffffffffffffffffffffffffffff1673ffffffffffffffffffffffffffffffffffffffff168152602001908152602001600020819055508560008089815260200190815260200160002060008a73ffffffffffffffffffffffffffffffffffffffff1673ffffffffffffffffffffffffffffffffffffffff1681526020019081526020016000206000828254611c44919061353a565b925050819055508773ffffffffffffffffffffffffffffffffffffffff168973ffffffffffffffffffffffffffffffffffffffff168573ffffffffffffffffffffffffffffffffffffffff167fc3d58168c5ae7397731d063d5bbf3d657854427343f4c083240f7aacaa2d0f628a8a604051611cc19291906135c7565b60405180910390a4611cd7848a8a86868a611cf8565b611ce5848a8a8a8a8a611f52565b505050505050505050565b505050505050565b505050505050565b611d1f8473ffffffffffffffffffffffffffffffffffffffff16611140565b15611ed0578373ffffffffffffffffffffffffffffffffffffffff1663bc197c8187878686866040518663ffffffff1660e01b8152600401611d65959493929190613645565b6020604051808303816000875af1925050508015611da157506040513d601f19601f82011682018060405250810190611d9e91906136c2565b60015b611e4757611dad6136fc565b806308c379a01415611e0a5750611dc261371e565b80611dcd5750611e0c565b806040517f08c379a0000000000000000000000000000000000000000000000000000000008152600401611e0191906123ea565b60405180910390fd5b505b6040517f08c379a0000000000000000000000000000000000000000000000000000000008152600401611e3e90613826565b60405180910390fd5b63bc197c8160e01b7bffffffffffffffffffffffffffffffffffffffffffffffffffffffff1916817bffffffffffffffffffffffffffffffffffffffffffffffffffffffff191614611ece576040517f08c379a0000000000000000000000000000000000000000000000000000000008152600401611ec5906138b8565b60405180910390fd5b505b505050505050565b60606000600167ffffffffffffffff811115611ef757611ef66124f1565b5b604051908082528060200260200182016040528015611f255781602001602082028036833780820191505090505b5090508281600081518110611f3d57611f3c612b5e565b5b60200260200101818152505080915050919050565b611f718473ffffffffffffffffffffffffffffffffffffffff16611140565b15612122578373ffffffffffffffffffffffffffffffffffffffff1663f23a6e6187878686866040518663ffffffff1660e01b8152600401611fb79594939291906138d8565b6020604051808303816000875af1925050508015611ff357506040513d601f19601f82011682018060405250810190611ff091906136c2565b60015b61209957611fff6136fc565b806308c379a0141561205c575061201461371e565b8061201f575061205e565b806040517f08c379a000000000000000000000000000000000000000000000000000000000815260040161205391906123ea565b60405180910390fd5b505b6040517f08c379a000000000000000000000000000000000000000000000000000000000815260040161209090613826565b60405180910390fd5b63f23a6e6160e01b7bffffffffffffffffffffffffffffffffffffffffffffffffffffffff1916817bffffffffffffffffffffffffffffffffffffffffffffffffffffffff191614612120576040517f08c379a0000000000000000000000000000000000000000000000000000000008152600401612117906138b8565b60405180910390fd5b505b505050505050565b6000604051905090565b600080fd5b600080fd5b600073ffffffffffffffffffffffffffffffffffffffff82169050919050565b60006121698261213e565b9050919050565b6121798161215e565b811461218457600080fd5b50565b60008135905061219681612170565b92915050565b6000819050919050565b6121af8161219c565b81146121ba57600080fd5b50565b6000813590506121cc816121a6565b92915050565b600080604083850312156121e9576121e8612134565b5b60006121f785828601612187565b9250506020612208858286016121bd565b9150509250929050565b61221b8161219c565b82525050565b60006020820190506122366000830184612212565b92915050565b60007fffffffff0000000000000000000000000000000000000000000000000000000082169050919050565b6122718161223c565b811461227c57600080fd5b50565b60008135905061228e81612268565b92915050565b6000602082840312156122aa576122a9612134565b5b60006122b88482850161227f565b91505092915050565b60008115159050919050565b6122d6816122c1565b82525050565b60006020820190506122f160008301846122cd565b92915050565b60006020828403121561230d5761230c612134565b5b600061231b84828501612187565b91505092915050565b60006020828403121561233a57612339612134565b5b6000612348848285016121bd565b91505092915050565b600081519050919050565b600082825260208201905092915050565b60005b8381101561238b578082015181840152602081019050612370565b8381111561239a576000848401525b50505050565b6000601f19601f8301169050919050565b60006123bc82612351565b6123c6818561235c565b93506123d681856020860161236d565b6123df816123a0565b840191505092915050565b6000602082019050818103600083015261240481846123b1565b905092915050565b600081519050919050565b600082825260208201905092915050565b6000819050602082019050919050565b6124418161219c565b82525050565b60006124538383612438565b60208301905092915050565b6000602082019050919050565b60006124778261240c565b6124818185612417565b935061248c83612428565b8060005b838110156124bd5781516124a48882612447565b97506124af8361245f565b925050600181019050612490565b5085935050505092915050565b600060208201905081810360008301526124e4818461246c565b905092915050565b600080fd5b7f4e487b7100000000000000000000000000000000000000000000000000000000600052604160045260246000fd5b612529826123a0565b810181811067ffffffffffffffff82111715612548576125476124f1565b5b80604052505050565b600061255b61212a565b90506125678282612520565b919050565b600067ffffffffffffffff821115612587576125866124f1565b5b602082029050602081019050919050565b600080fd5b60006125b06125ab8461256c565b612551565b905080838252602082019050602084028301858111156125d3576125d2612598565b5b835b818110156125fc57806125e888826121bd565b8452602084019350506020810190506125d5565b5050509392505050565b600082601f83011261261b5761261a6124ec565b5b813561262b84826020860161259d565b91505092915050565b600080fd5b600067ffffffffffffffff821115612654576126536124f1565b5b61265d826123a0565b9050602081019050919050565b82818337600083830152505050565b600061268c61268784612639565b612551565b9050828152602081018484840111156126a8576126a7612634565b5b6126b384828561266a565b509392505050565b600082601f8301126126d0576126cf6124ec565b5b81356126e0848260208601612679565b91505092915050565b600080600080600060a0868803121561270557612704612134565b5b600061271388828901612187565b955050602061272488828901612187565b945050604086013567ffffffffffffffff81111561274557612744612139565b5b61275188828901612606565b935050606086013567ffffffffffffffff81111561277257612771612139565b5b61277e88828901612606565b925050608086013567ffffffffffffffff81111561279f5761279e612139565b5b6127ab888289016126bb565b9150509295509295909350565b600067ffffffffffffffff8211156127d3576127d26124f1565b5b602082029050602081019050919050565b60006127f76127f2846127b8565b612551565b9050808382526020820190506020840283018581111561281a57612819612598565b5b835b81811015612843578061282f8882612187565b84526020840193505060208101905061281c565b5050509392505050565b600082601f830112612862576128616124ec565b5b81356128728482602086016127e4565b91505092915050565b6000806040838503121561289257612891612134565b5b600083013567ffffffffffffffff8111156128b0576128af612139565b5b6128bc8582860161284d565b925050602083013567ffffffffffffffff8111156128dd576128dc612139565b5b6128e985828601612606565b9150509250929050565b6128fc8161215e565b82525050565b600060208201905061291760008301846128f3565b92915050565b612926816122c1565b811461293157600080fd5b50565b6000813590506129438161291d565b92915050565b600080604083850312156129605761295f612134565b5b600061296e85828601612187565b925050602061297f85828601612934565b9150509250929050565b600080604083850312156129a05761299f612134565b5b60006129ae85828601612187565b92505060206129bf85828601612187565b9150509250929050565b600080600080600060a086880312156129e5576129e4612134565b5b60006129f388828901612187565b9550506020612a0488828901612187565b9450506040612a15888289016121bd565b9350506060612a26888289016121bd565b925050608086013567ffffffffffffffff811115612a4757612a46612139565b5b612a53888289016126bb565b9150509295509295909350565b7f455243313135353a2061646472657373207a65726f206973206e6f742061207660008201527f616c6964206f776e657200000000000000000000000000000000000000000000602082015250565b6000612abc602a8361235c565b9150612ac782612a60565b604082019050919050565b60006020820190508181036000830152612aeb81612aaf565b9050919050565b7f61646472657373206e6f74206164646564000000000000000000000000000000600082015250565b6000612b2860118361235c565b9150612b3382612af2565b602082019050919050565b60006020820190508181036000830152612b5781612b1b565b9050919050565b7f4e487b7100000000000000000000000000000000000000000000000000000000600052603260045260246000fd5b7f4e487b7100000000000000000000000000000000000000000000000000000000600052601160045260246000fd5b6000612bc78261219c565b91507fffffffffffffffffffffffffffffffffffffffffffffffffffffffffffffffff821415612bfa57612bf9612b8d565b5b600182019050919050565b7f4e487b7100000000000000000000000000000000000000000000000000000000600052602260045260246000fd5b60006002820490506001821680612c4c57607f821691505b60208210811415612c6057612c5f612c05565b5b50919050565b7f506c6561736520616464206f7267616e697a6174696f6e206669727374000000600082015250565b6000612c9c601d8361235c565b9150612ca782612c66565b602082019050919050565b60006020820190508181036000830152612ccb81612c8f565b9050919050565b7f6172656120616c72656164792073657420666f722074686973206f7267616e6960008201527f7a6174696f6e0000000000000000000000000000000000000000000000000000602082015250565b6000612d2e60268361235c565b9150612d3982612cd2565b604082019050919050565b60006020820190508181036000830152612d5d81612d21565b9050919050565b7f6f7267616e697a6174696f6e206e6f7420616464656400000000000000000000600082015250565b6000612d9a60168361235c565b9150612da582612d64565b602082019050919050565b60006020820190508181036000830152612dc981612d8d565b9050919050565b7f74686973206f7267616e697a6174696f6e20646f6573206e6f7420686176652060008201527f7065726d697373696f6e20746f20726563656976652070617274206f6620746860208201527f6520626174636800000000000000000000000000000000000000000000000000604082015250565b6000612e5260478361235c565b9150612e5d82612dd0565b606082019050919050565b60006020820190508181036000830152612e8181612e45565b9050919050565b7f455243313135353a206163636f756e747320616e6420696473206c656e67746860008201527f206d69736d617463680000000000000000000000000000000000000000000000602082015250565b6000612ee460298361235c565b9150612eef82612e88565b604082019050919050565b60006020820190508181036000830152612f1381612ed7565b9050919050565b7f746f206578636c756465206163636f756e7420616c746f67657468657220757360008201527f65207375624f7267206d6574686f640000000000000000000000000000000000602082015250565b6000612f76602f8361235c565b9150612f8182612f1a565b604082019050919050565b60006020820190508181036000830152612fa581612f69565b9050919050565b7f74686973206163636f756e74206973206e6f742072656769737465726564207460008201527f6f20746865206172656120737065636966696564000000000000000000000000602082015250565b600061300860348361235c565b915061301382612fac565b604082019050919050565b6000602082019050818103600083015261303781612ffb565b9050919050565b7f6164647265737320616c72656164792061646465640000000000000000000000600082015250565b600061307460158361235c565b915061307f8261303e565b602082019050919050565b600060208201905081810360008301526130a381613067565b9050919050565b7f74686973206f7267616e697a6174696f6e20646f6573206e6f7420686176652060008201527f7065726d697373696f6e20746f2072656365697665207468697320627564676560208201527f7400000000000000000000000000000000000000000000000000000000000000604082015250565b600061312c60418361235c565b9150613137826130aa565b606082019050919050565b6000602082019050818103600083015261315b8161311f565b9050919050565b7f4f776e61626c653a206e6577206f776e657220697320746865207a65726f206160008201527f6464726573730000000000000000000000000000000000000000000000000000602082015250565b60006131be60268361235c565b91506131c982613162565b604082019050919050565b600060208201905081810360008301526131ed816131b1565b9050919050565b7f4f776e61626c653a2063616c6c6572206973206e6f7420746865206f776e6572600082015250565b600061322a60208361235c565b9150613235826131f4565b602082019050919050565b600060208201905081810360008301526132598161321d565b9050919050565b7f455243313135353a2063616c6c6572206973206e6f7420746f6b656e206f776e60008201527f6572206f7220617070726f766564000000000000000000000000000000000000602082015250565b60006132bc602e8361235c565b91506132c782613260565b604082019050919050565b600060208201905081810360008301526132eb816132af565b9050919050565b7f455243313135353a2073657474696e6720617070726f76616c2073746174757360008201527f20666f722073656c660000000000000000000000000000000000000000000000602082015250565b600061334e60298361235c565b9150613359826132f2565b604082019050919050565b6000602082019050818103600083015261337d81613341565b9050919050565b7f455243313135353a2069647320616e6420616d6f756e7473206c656e6774682060008201527f6d69736d61746368000000000000000000000000000000000000000000000000602082015250565b60006133e060288361235c565b91506133eb82613384565b604082019050919050565b6000602082019050818103600083015261340f816133d3565b9050919050565b7f455243313135353a207472616e7366657220746f20746865207a65726f20616460008201527f6472657373000000000000000000000000000000000000000000000000000000602082015250565b600061347260258361235c565b915061347d82613416565b604082019050919050565b600060208201905081810360008301526134a181613465565b9050919050565b7f455243313135353a20696e73756666696369656e742062616c616e636520666f60008201527f72207472616e7366657200000000000000000000000000000000000000000000602082015250565b6000613504602a8361235c565b915061350f826134a8565b604082019050919050565b60006020820190508181036000830152613533816134f7565b9050919050565b60006135458261219c565b91506135508361219c565b9250827fffffffffffffffffffffffffffffffffffffffffffffffffffffffffffffffff0382111561358557613584612b8d565b5b828201905092915050565b600060408201905081810360008301526135aa818561246c565b905081810360208301526135be818461246c565b90509392505050565b60006040820190506135dc6000830185612212565b6135e96020830184612212565b9392505050565b600081519050919050565b600082825260208201905092915050565b6000613617826135f0565b61362181856135fb565b935061363181856020860161236d565b61363a816123a0565b840191505092915050565b600060a08201905061365a60008301886128f3565b61366760208301876128f3565b8181036040830152613679818661246c565b9050818103606083015261368d818561246c565b905081810360808301526136a1818461360c565b90509695505050505050565b6000815190506136bc81612268565b92915050565b6000602082840312156136d8576136d7612134565b5b60006136e6848285016136ad565b91505092915050565b60008160e01c9050919050565b600060033d111561371b5760046000803e6137186000516136ef565b90505b90565b600060443d101561372e576137b1565b61373661212a565b60043d036004823e80513d602482011167ffffffffffffffff8211171561375e5750506137b1565b808201805167ffffffffffffffff81111561377c57505050506137b1565b80602083010160043d0385018111156137995750505050506137b1565b6137a882602001850186612520565b82955050505050505b90565b7f455243313135353a207472616e7366657220746f206e6f6e2d4552433131353560008201527f526563656976657220696d706c656d656e746572000000000000000000000000602082015250565b600061381060348361235c565b915061381b826137b4565b604082019050919050565b6000602082019050818103600083015261383f81613803565b9050919050565b7f455243313135353a204552433131353552656365697665722072656a6563746560008201527f6420746f6b656e73000000000000000000000000000000000000000000000000602082015250565b60006138a260288361235c565b91506138ad82613846565b604082019050919050565b600060208201905081810360008301526138d181613895565b9050919050565b600060a0820190506138ed60008301886128f3565b6138fa60208301876128f3565b6139076040830186612212565b6139146060830185612212565b8181036080830152613926818461360c565b9050969550505050505056fea2646970667358221220e40666ef88d0bfbc371ab6afaa90b5ef1fbfed521beb27d4c25f899f9a071b0b64736f6c634300080a003368747470733a2f2f636f6e736f6c652e66696c65626173652e636f6d2f6275636b6574732f6170702d6f7263616d656e746f2f7b617265617d2e6a736f6e",
  "devdoc": {
    "kind": "dev",
    "methods": {
      "balanceOf(address,uint256)": {
        "details": "See {IERC1155-balanceOf}. Requirements: - `account` cannot be the zero address."
      },
      "balanceOfBatch(address[],uint256[])": {
        "details": "See {IERC1155-balanceOfBatch}. Requirements: - `accounts` and `ids` must have the same length."
      },
      "isApprovedForAll(address,address)": {
        "details": "See {IERC1155-isApprovedForAll}."
      },
      "owner()": {
        "details": "Returns the address of the current owner."
      },
      "renounceOwnership()": {
        "details": "Leaves the contract without owner. It will not be possible to call `onlyOwner` functions anymore. Can only be called by the current owner. NOTE: Renouncing ownership will leave the contract without an owner, thereby removing any functionality that is only available to the owner."
      },
      "setApprovalForAll(address,bool)": {
        "details": "See {IERC1155-setApprovalForAll}."
      },
      "supportsInterface(bytes4)": {
        "details": "See {IERC165-supportsInterface}."
      },
      "transferOwnership(address)": {
        "details": "Transfers ownership of the contract to a new account (`newOwner`). Can only be called by the current owner."
      },
      "uri(uint256)": {
        "details": "See {IERC1155MetadataURI-uri}. This implementation returns the same URI for *all* token types. It relies on the token type ID substitution mechanism https://eips.ethereum.org/EIPS/eip-1155#metadata[defined in the EIP]. Clients calling this function must replace the `\\{id\\}` substring with the actual token type ID."
      }
    },
    "stateVariables": {
      "_orgArea": {
        "details": "mapping address to policy area to bool"
      }
    },
    "version": 1
  },
  "userdoc": {
    "kind": "user",
    "methods": {},
    "version": 1
  },
  "storageLayout": {
    "storage": [
      {
        "astId": 138,
        "contract": "contracts/orcamento.sol:OrcamentoUniao2023",
        "label": "_balances",
        "offset": 0,
        "slot": "0",
        "type": "t_mapping(t_uint256,t_mapping(t_address,t_uint256))"
      },
      {
        "astId": 144,
        "contract": "contracts/orcamento.sol:OrcamentoUniao2023",
        "label": "_operatorApprovals",
        "offset": 0,
        "slot": "1",
        "type": "t_mapping(t_address,t_mapping(t_address,t_bool))"
      },
      {
        "astId": 146,
        "contract": "contracts/orcamento.sol:OrcamentoUniao2023",
        "label": "_uri",
        "offset": 0,
        "slot": "2",
        "type": "t_string_storage"
      },
      {
        "astId": 7,
        "contract": "contracts/orcamento.sol:OrcamentoUniao2023",
        "label": "_owner",
        "offset": 0,
        "slot": "3",
        "type": "t_address"
      },
      {
        "astId": 1916,
        "contract": "contracts/orcamento.sol:OrcamentoUniao2023",
        "label": "_orgArea",
        "offset": 0,
        "slot": "4",
        "type": "t_mapping(t_address,t_mapping(t_uint256,t_bool))"
      },
      {
        "astId": 1919,
        "contract": "contracts/orcamento.sol:OrcamentoUniao2023",
        "label": "OUTROS",
        "offset": 0,
        "slot": "5",
        "type": "t_uint256"
      },
      {
        "astId": 1922,
        "contract": "contracts/orcamento.sol:OrcamentoUniao2023",
        "label": "EDUCACAO",
        "offset": 0,
        "slot": "6",
        "type": "t_uint256"
      },
      {
        "astId": 1925,
        "contract": "contracts/orcamento.sol:OrcamentoUniao2023",
        "label": "INFRA",
        "offset": 0,
        "slot": "7",
        "type": "t_uint256"
      },
      {
        "astId": 1928,
        "contract": "contracts/orcamento.sol:OrcamentoUniao2023",
        "label": "SAUDE",
        "offset": 0,
        "slot": "8",
        "type": "t_uint256"
      },
      {
        "astId": 1936,
        "contract": "contracts/orcamento.sol:OrcamentoUniao2023",
        "label": "AREAS",
        "offset": 0,
        "slot": "9",
        "type": "t_array(t_uint256)dyn_storage"
      },
      {
        "astId": 1941,
        "contract": "contracts/orcamento.sol:OrcamentoUniao2023",
        "label": "_budget",
        "offset": 0,
        "slot": "10",
        "type": "t_uint256"
      },
      {
        "astId": 1944,
        "contract": "contracts/orcamento.sol:OrcamentoUniao2023",
        "label": "_ed",
        "offset": 0,
        "slot": "11",
        "type": "t_uint256"
      },
      {
        "astId": 1947,
        "contract": "contracts/orcamento.sol:OrcamentoUniao2023",
        "label": "_infra",
        "offset": 0,
        "slot": "12",
        "type": "t_uint256"
      },
      {
        "astId": 1950,
        "contract": "contracts/orcamento.sol:OrcamentoUniao2023",
        "label": "_health",
        "offset": 0,
        "slot": "13",
        "type": "t_uint256"
      }
    ],
    "types": {
      "t_address": {
        "encoding": "inplace",
        "label": "address",
        "numberOfBytes": "20"
      },
      "t_array(t_uint256)dyn_storage": {
        "base": "t_uint256",
        "encoding": "dynamic_array",
        "label": "uint256[]",
        "numberOfBytes": "32"
      },
      "t_bool": {
        "encoding": "inplace",
        "label": "bool",
        "numberOfBytes": "1"
      },
      "t_mapping(t_address,t_bool)": {
        "encoding": "mapping",
        "key": "t_address",
        "label": "mapping(address => bool)",
        "numberOfBytes": "32",
        "value": "t_bool"
      },
      "t_mapping(t_address,t_mapping(t_address,t_bool))": {
        "encoding": "mapping",
        "key": "t_address",
        "label": "mapping(address => mapping(address => bool))",
        "numberOfBytes": "32",
        "value": "t_mapping(t_address,t_bool)"
      },
      "t_mapping(t_address,t_mapping(t_uint256,t_bool))": {
        "encoding": "mapping",
        "key": "t_address",
        "label": "mapping(address => mapping(uint256 => bool))",
        "numberOfBytes": "32",
        "value": "t_mapping(t_uint256,t_bool)"
      },
      "t_mapping(t_address,t_uint256)": {
        "encoding": "mapping",
        "key": "t_address",
        "label": "mapping(address => uint256)",
        "numberOfBytes": "32",
        "value": "t_uint256"
      },
      "t_mapping(t_uint256,t_bool)": {
        "encoding": "mapping",
        "key": "t_uint256",
        "label": "mapping(uint256 => bool)",
        "numberOfBytes": "32",
        "value": "t_bool"
      },
      "t_mapping(t_uint256,t_mapping(t_address,t_uint256))": {
        "encoding": "mapping",
        "key": "t_uint256",
        "label": "mapping(uint256 => mapping(address => uint256))",
        "numberOfBytes": "32",
        "value": "t_mapping(t_address,t_uint256)"
      },
      "t_string_storage": {
        "encoding": "bytes",
        "label": "string",
        "numberOfBytes": "32"
      },
      "t_uint256": {
        "encoding": "inplace",
        "label": "uint256",
        "numberOfBytes": "32"
      }
    }
  }
}